:103CA00050490400FFFFFF0650490401FFFFFF10C9
:103CB0005046041010F0F0965010043F01FFFFB37F
:103CC00050140400FFFFFF2C50330400000000C715
:103CD0005555555555555555504A040102FFFF9607
:103CE000504A040100FFFF40503304FFFFFFFF195B
:103CF000504D0420FFFFFF6C504204FFFFFFFFE325
:103D000000070E091C1B1215383F363124232A2DBB
:103D100070777E796C6B6265484F464154535A5DAB
:103D2000E0E7EEE9FCFBF2F5D8DFD6D1C4C3CACD9B
:103D300090979E998C8B8285A8AFA6A1B4B3BABD8B
:103D4000C7C0C9CEDBDCD5D2FFF8F1F6E3E4EDEA7B
:103D5000B7B0B9BEABACA5A28F88818693949D9A6B
:103D60002720292E3B3C35321F18111603040D0A5B
:103D70005750595E4B4C45426F68616673747D7A4B
:103D8000898E878095929B9CB1B6BFB8ADAAA3A43B
:103D9000F9FEF7F0E5E2EBECC1C6CFC8DDDAD3D42B
:103DA000696E676075727B7C51565F584D4A43441B
:103DB000191E171005020B0C21262F283D3A33340B
:103DC0004E49404752555C5B7671787F6A6D6463FB
:103DD0003E39303722252C2B0601080F1A1D1413EB
:103DE000AEA9A0A7B2B5BCBB9691989F8A8D8483DB
:103DF000DED9D0D7C2C5CCCBE6E1E8EFFAFDF4F3CB
:10624D00011A0041013700C139C13AC138C13CC101
:01625D003B05
:10690200EF4E60147D847C03ED1D70011CED4C7014
:08691200F7EF1F70EB1E80E897
:01691A00225A
:10699500D294C2C77F0A7E00126902D2C77F647E85
:0769A50000126902C29422F6
:1068E700D2947BFF7A3C79B87D081264F03038FD8A
:0B68F700C238D2937FE87E03026902E2
:1064F00090037DEBF0A3EAF0A3E9F0D23A900138E3
:10650000EDF0E4900136F090011EEBF0A3EAF0A369
:10651000E9F0C23843CDC090037DE0FBA3E0FAA3CD
:0A652000E0F91227CEF5CFC2932256
:10643B0075DA4812678675DA497D017F021260E7CB
:10644B00900137E0FF651A60F0C2AC74392FF5820A
:10645B00E43401F583E0F5993099FDC299D2AC9003
:0D646B000137E004F0E0B464D0E4F080CC30
:04625E004100990062
:086B01007FF012003EAFCF222D
:0D229C00900220EDF0A3EBF090021FEFF098
:1022A900C394B05003022446E0FFD394F7400302DD
:1022B9002446A3E0FBC394A15003022446A3E024CF
:1022C900FE700302234C1470030223C68000EF241E
:1022D90050FFE434FFFE7C007D5E122826E4FD9069
:1022E9000222122A58EB24ADFFE43402FEE4FCFD7D
:1022F900900222E0F8A3E0F9A3E0FAA3E02FFFEAB5
:102309003EFEED39FDEC38FCA3122A58E47F20FE8D
:10231900FDFC900226E0F8A3E0F9A3E0FAA3E0FBB4
:1023290012293B90022A122A5890022AE0FCA3E0C3
:10233900FDA3E0FEA3E024D0FFEE34C9FEED340294
:1023490002243E90021FE02450FFE434FFFE7C008B
:102359007D5E122826E4FD900222122A589002205E
:10236900E024ADFFE43402FEE4FCFD900222E0F833
:10237900A3E0F9A3E0FAA3E02FFFEA3EFEED39FD61
:10238900EC38FCA3122A58E47F48FEFDFC90022693
:10239900E0F8A3E0F9A3E0FAA3E0FB12293B9002DD
:1023A9002A122A5890022AE0FCA3E0FDA3E0FEA32A
:1023B900E02490FFEE3481FEED3406807890021F10
:1023C900E02450FFE434FFFE7C007D5E122826E401
:1023D900FD900222122A58900220E024ADFFE43435
:1023E90002FEE4FCFD900222E0F8A3E0F9A3E0FA82
:1023F900A3E02FFFEA3EFEED39FDEC38FCA3122ADB
:1024090058E47F80FEFDFC900226E0F8A3E0F9A3E2
:10241900E0FAA3E0FB12293B90022A122A58900203
:102429002AE0FCA3E0FDA3E0FEA3E02400FFEE34D4
:10243900DFFEED340EFDE43CFCA302252A90021FC9
:10244900E0600302252FA3E0FFC394205003022577
:102459002FEFD3947E400302252FA3E024FE604A88
:102469001470030224ED8000900220E024E0FFE4D0
:1024790034FFFEEFC4F8540FC868FFEEC454F048A7
:10248900FEE4FCFD900222122A58900222E0FCA3ED
:10249900E0FDA3E0FEA3E02480FFEE34D7FEED3497
:1024A9001DFDE43CFC90022E8077900220E024E0A0
:1024B900FFE434FFFE7C007D30122826E4FD900203
:1024C90022122A58900222E0FCA3E0FDA3E0FEA319
:1024D900E02400FFEE34FFFEED341DFDE43CFC90EA
:1024E900022E803D900220E024E0FFE434FFFEEF5D
:1024F9007806C333CE33CED8F9FFE4FCFD9002222F
:10250900122A58900222E0FCA3E0FDA3E0FEA3E01A
:102519002450FFEE345AFEED341EFDE43CFC9002DB
:102529002E122A58800F7E007F807D007B017A0061
:10253900799A022A8A90022EE0FCA3E0FDA3E0FE2C
:10254900A3E0FF900095122A58E4FBFA7901F8906C
:102559000095E0FCA3E0FDA3E0FEA3E0FF1229C67D
:1025690090011AEEF0A3EFF0900095E0FCA3E0FDD6
:10257900A3E0FEA3E0FF90011CEEF0A3EFF0C2C5BB
:102589007F0312003E90011BE0FF12003E90011CE8
:10259900E0FF12003E90011DE0FF12003E90021F75
:1025A900E0FFC394B05003022643EFD394F74003EE
:1025B900022643A3E0C394A15003022643A3E024C7
:1025C900FE602B14604E8000E4900099F0126B01BC
:1025D900900099E0249AF582E43400F583EFF090B5
:1025E9000099E004F0E0C3942040E20226D5E4908B
:1025F9000099F0126B01900099E0249AF582E43475
:1026090000F583EFF0900099E004F0E0C3944840AE
:10261900E20226D5E4900099F0126B01900099E04E
:10262900249AF582E43400F583EFF0900099E004F0
:10263900F0E0C3948040E20226D590021FE06003D7
:102649000226D5A3E0FFC3942050030226D5EFD379
:10265900947E5078A3E024FE602A14604C8000E444
:10266900900099F0126B01900099E0249AF582E4A8
:102679003400F583EFF0900099E004F0E0C3941082
:1026890040E28048E4900099F0126B01900099E0D3
:10269900249AF582E43400F583EFF0900099E00480
:1026A900F0E0C3943040E28023E4900099F0126B8B
:1026B90001900099E0249AF582E43400F583EFF063
:0E26C900900099E004F0E0C3944040E2D2C5D6
:0126D70022E0
:051E320090021FEDF01D
:101E37001227CEFF900230F0740129F9E43AFA1222
:101E470027CE900231F0EFC394B0500B900230E0F0
:101E5700A3F0E4900230F0900230E0FFC394B0505A
:101E670003022004EFD394F74003022004A3E0FB0E
:101E7700C394A1500302200490021FE024FE7003C4
:101E8700021F0A147003021F848000900230E024AE
:101E970050FFE434FFFE7C007D5E122826E4FD90AF
:101EA7000220122A58EB24ADFFE43402FEE4FCFDC5
:101EB700900220E0F8A3E0F9A3E0FAA3E02FFFEAFD
:101EC7003EFEED39FDEC38FCA3122A58E47F20FED4
:101ED700FDFC900224E0F8A3E0F9A3E0FAA3E0FBFD
:101EE70012293B900228122A58900228E0FCA3E00E
:101EF700FDA3E0FEA3E024D0FFEE34C9FEED3402DB
:101F0700021FFC900230E02450FFE434FFFE7C0007
:101F17007D5E122826E4FD900220122A5890023195
:101F2700E024ADFFE43402FEE4FCFD900220E0F87B
:101F3700A3E0F9A3E0FAA3E02FFFEA3EFEED39FDA7
:101F4700EC38FCA3122A58E47F48FEFDFC900224DB
:101F5700E0F8A3E0F9A3E0FAA3E0FB12293B900223
:101F670028122A58900228E0FCA3E0FDA3E0FEA374
:101F7700E02490FFEE3481FEED3406807890023045
:101F8700E02450FFE434FFFE7C007D5E122826E447
:101F9700FD900220122A58900231E024ADFFE4346C
:101FA70002FEE4FCFD900220E0F8A3E0F9A3E0FACA
:101FB700A3E02FFFEA3EFEED39FDEC38FCA3122A21
:101FC70058E47F80FEFDFC900224E0F8A3E0F9A32B
:101FD700E0FAA3E0FB12293B900228122A5890024C
:101FE70028E0FCA3E0FDA3E0FEA3E02400FFEE341D
:101FF700DFFEED340EFDE43CFCA30220EA90023044
:10200700E060030220EFA3E0FFC394205003022007
:10201700EFEFD3947E40030220EF90021FE024FEEF
:10202700604A1470030220AD8000900231E024E082
:10203700FFE434FFFEEFC4F8540FC868FFEEC45442
:10204700F048FEE4FCFD900220122A58900220E09E
:10205700FCA3E0FDA3E0FEA3E02480FFEE34D7FE5F
:10206700ED341DFDE43CFC90022C8077900231E0BA
:1020770024E0FFE434FFFE7C007D30122826E4FDD7
:10208700900220122A58900220E0FCA3E0FDA3E072
:10209700FEA3E02400FFEE34FFFEED341DFDE43C1B
:1020A700FC90022C803D900231E024E0FFE434FFF5
:1020B700FEEF7806C333CE33CED8F9FFE4FCFD90AC
:1020C7000220122A58900220E0FCA3E0FDA3E0FEC4
:1020D700A3E02450FFEE345AFEED341EFDE43CFC31
:1020E70090022C122A58800F7E007F807D007B0192
:1020F7007A00799A022A8AC2C590022CE0FCA3E0F2
:10210700FDA3E0FEA3E0FF900095122A58E4FBFA36
:102117007901F8900095E0FCA3E0FDA3E0FEA3E0C1
:10212700FF1229C690011AEEF0A3EFF0900095E098
:10213700FCA3E0FDA3E0FEA3E0FF90011CEEF0A3EB
:10214700EFF07F0312003E90011BE0FF12003E906C
:10215700011CE0FF12003E90011DE0FF12003E90BF
:102167000230E0FFC394B05003022205EFD394F787
:102177004003022205A3E0C394A150030222059065
:10218700021FE024FE602B14604E8000E49000994B
:10219700F0126B01900099E0249AF582E43400F57F
:1021A70083EFF0900099E004F0E0C3942040E2024E
:1021B7002299E4900099F0126B01900099E0249A1B
:1021C700F582E43400F583EFF0900099E004F0E045
:1021D700C3944840E2022299E4900099F0126B01FF
:1021E700900099E0249AF582E43400F583EFF090AB
:1021F7000099E004F0E0C3948040E2022299900243
:1022070030E06003022299A3E0FFC3942050030249
:102217002299EFD3947E507A90021FE024FE602A21
:1022270014604C8000E4900099F0126B01900099C3
:10223700E0249AF582E43400F583EFF0900099E00A
:1022470004F0E0C3941040E28048E4900099F01253
:102257006B01900099E0249AF582E43400F583EF4E
:10226700F0900099E004F0E0C3943040E28023E46A
:10227700900099F0126B01900099E0249AF582E49E
:102287003400F583EFF0900099E004F0E0C3944048
:0422970040E2D2C58A
:01229B002220
:066B1F0075C7828FC5223C
:086B0900E4F5C7F5C5F5C6224D
:1069C300AB07AA06AF058FC2EAF5C3AF038FC47541
:0669D300C65A75C6A5229C
:1069D900AD07AC06ECF5C3AF058FC475C65A75C6CD
:0469E900A5AFC22272
:106A4E00AD07AC06ECF5C3AF058FC475C65A75C657
:026A5E00A5226F
:104A7F00B7BF00B4B2BAF4BDD000B4B2CAE4D2BA70
:104A8F00CDEAB1CF00B7BFCEC0C9FABCE4BAF4BD0E
:104A9F00D000D5FDD4DACDA8BBB0D6D000203230AF
:104AAF0000B2A1C7F8BBA4C0EDB6AFCCAC00B2A1A9
:104ABF00C8CBD7DCCAFD00B2A1CEA300B4B2CEBB27
:104ACF0000BFD5B4B200C8EBD4BA00B3F6D4BA0065
:104ADF00D7AAC8EB00D7AAB3F600D2BBBCB6BBA40B
:104AEF00C0ED00CEFCD1F500C7F800B4B2BFAACA22
:104AFF00BCB1E0BAC500B1E0BAC5B3C9B9A600D51B
:104B0F00FDD4DAB9E3B2A5D6D000BAC5D2BDCEF185
:104B1F00B7D6BBFAB9E3B2A500B4B2B9E3B2A500F8
:104B2F00BFAACABCBBA4C0EDBAF4BDD000BFAACA0D
:104B3F00BCB7FECEF1BAF4BDD000BFAACABCBDF45B
:104B4F00BCB1BAF4BDD000BFAACABCC7F3D4AEBAC9
:104B5F00F4BDD000BAF4BDD0B3C9B9A6002C00C7BC
:104B6F00EBB5C8B4FD000000001F07E0F80007FF19
:064B7F00F81FFFE0FFFF3C
:0F6A8100C2CBC2908F80C2B6D2B6D290D2CB22F7
:086A1500E0FF126A1DA3E0FF7F
:0B6A1D00C2908F80C2B6D2B6D2902289
:0E6AAE00C2908F80EEF5A0C2B6D2B6D2902272
:10673900900203EEF0A3EFF07F33126A8190020317
:10674900126A15ECFF126A1DAF05126A1DEAFF12E3
:076759006A1DAF03026A1D77
:106A2800AD07AC067F37126A81ECFF126A1DAF050D
:036A3800026A1DD2
:0C6AC9007E007C017D10122826026A2845
:105E6F00FEE43A900234F0A3CEF090021FE0FEA3BE
:085E7F00E0FF240FFDE43EFCEE
:085E870090022EEEF0A3EFF0F3
:105E8F0090022EE0900236F090022FE0900237F051
:105E9F00ECA3F0A3EDF0EAF9AF03AD07900234E005
:105EAF00FAA3E0FBEAFEAF03AC077F2A126A81A3D5
:105EBF00126A15A3126A157F2B126A81AF01126A3B
:105ECF001DAF05126A1DAF06126A1DAF04026A1DCF
:065EDF00E0FD7F007EF8EB
:0A5EE50090020BEEF0A3EFF0A90508
:105EEF00E9FF7E007C017D10122826AA06AB07EB86
:105EFF00240FFEEA3401900234F0A3CEF07DDFE4EC
:105F0F00FFFE125E877F2C126A81C290E4FDFCE4D3
:105F1F00FBFA90020BE0FEA3E0F580EEF5A0C2B60F
:105F2F00D2B60BBB00010ABA01E8BB10E50DBD00EC
:0A5F3F00010CBC01DABDE0D7D290DE
:015F49002235
:1061450090036AEEF0A3EFF0A3ECF0A3EDF0A3EA61
:10615500F0A3EBF0A3E0FF7E007C017D1012282662
:1061650090036DE02FFB90036CE03EFA900234F053
:10617500A3EBF090036AE0FCA3E0FDFFAE04125E22
:10618500877F2C126A81C29090036EE0FEA3E0F532
:0B61950080EEF5A0C2B6D2B6D2902278
:0E52FC0090035AEEF0A3EFF0A3ECF0A3EDF058
:10530A00EB24FD601B24E7602224FD6025243F6016
:10531A002D24FD602F24E7603724FC703FE4803E93
:10532A0090036074F8F0A3E4F08039900360740786
:10533A00800590036074FFF0A374E0F08026900368
:10534A0060E4800590036074F8F0A3741FF0801481
:10535A009003607407F0A374FFF0800874FF900351
:10536A0060F0A3F090035FE0FF7E007C017D1012E5
:10537A00282690035DE02FFB90035CE03EFA900242
:10538A0034F0A3EBF090035AE0FCA3E0FDFFAE0477
:10539A00125E877F2C126A81C290900360E0FEA39E
:0C53AA00E0F580EEF5A0C2B6D2B6D290BD
:0153B60022D4
:1058D300900371EEF0A3EFF0A3ECF0A3EDF0A3EAD5
:0458E300F0A3EBF053
:1058E700A3E0FF7E007C017D10122826900374E060
:1058F70024FFFD900373E034FFCD2FFBED3EFAA3A9
:10590700E02401FD900373E03400CD2FFFED3E90BE
:105917000234F0A3EFF0900371E0FCA3E0FD24FF55
:10592700FFEC34FFFEED2401FDE43CFC125E877FB3
:105937002C126A81C290E4FD900375E0FEA3E0F5A6
:0F59470080EEF5A0C2B6D2B60DEDB409EBD2904A
:01595600222E
:10595700900336EEF0A3EFF0A3ECF0A3EDF0A3EA8B
:10596700F0A3EBF090033EE0FF7E007C017D101278
:105977002826900339E02FFB900338E03EFA900287
:1059870034F0A3EBF0900336E0FEA3E0FF90033A78
:10599700E0FCA3E0FD900336E0F8A3E02DFDE83C32
:1059A700CD24FFCD34FFFC125E877F2C126A81C2A3
:1059B7009090033A74FFF5F01228A345F060129017
:1059C700033CE0FEA3E0F580EEF5A0C2B6D2B680B8
:0459D700E0D2902268
:1046400090032CE0FAA3E0FB900330E0F8A3E0C372
:104650009BFBE89ACB2401CB3400FA900334E09022
:0B466000031EF0900335E090031FF0F4
:10466B00900318EEF0A3EFF0A3ECF0A3EDF0A3EAA8
:04467B00F0A3EBF0CD
:10467F00A3E024FD601B24E7602224FD6025243F76
:10468F00602D24FD602F24E7603724FC703FE48009
:10469F003E90032074F8F0A3E4F080399003207467
:1046AF0007800590032074FFF0A374E0F08026903C
:1046BF000320E4800590032074F8F0A3741FF080AA
:1046CF00149003207407F0A374FFF0800874FF9018
:1046DF000320F0A3F090031FE0FF7E007C017D100C
:1046EF0012282690031BE02FFB90031AE03EFA904E
:1046FF000234F0A3EBF0900318E0FEA3E0FF900369
:10470F001CE0FCA3E0FD900318E0F8A3E02DFDE80A
:10471F003CCD24FFCD34FFFC125E877F2C126A81C3
:10472F00C29090031C74FFF5F01228A345F060129D
:10473F00900320E0FEA3E0F580EEF5A0C2B6D2B65E
:04474F0080E0D290A4
:014753002243
:1054F50090033FEEF0A3EFF0A3ECF0A3EDF0A3EAE9
:10550500F0A3EBF0900347E0F9FF7E007C017D10EE
:10551500122826900341E0FCA3E0FD2FFBEC3EFAA8
:10552500C002C003A3E0FEA3E0FFED2FFFEC3ECFDA
:1055350024FFFBEF34FFFAE9FF7E007C017D1012AA
:105545002826EF2BFFEE3A900234F0A3EFF09003FC
:105555003FE0FCA3E0FDFFAE04D003D002125E875E
:105565007F2C126A81C29090034374FFF5F01228D4
:10557500A345F06012900345E0FEA3E0F580EEF54B
:0A558500A0C2B6D2B680E0D2902298
:104B8500900322EEF0A3EFF0A3ECF0A3EDF0A3EA7F
:044B9500F0A3EBF0AE
:104B9900A3E024FD601B24E7602224FD6025243F57
:104BA900602D24FD602F24E7603724FC703FE480EA
:104BB9003E90032A74F8F0A3E4F0803990032A7434
:104BC90007800590032A74FFF0A374E0F080269013
:104BD900032AE4800590032A74F8F0A3741FF08077
:104BE9001490032A7407F0A374FFF0800874FF90EF
:104BF900032AF0A3F0900329E0F9FF7E007C017DF0
:104C090010122826900324E0FCA3E0FD2FFBEC3EC4
:104C1900FAC002C003A3E0FEA3E0FFED2FFFEC3EC4
:104C2900CF24FFFBEF34FFFAE9FF7E007C017D1002
:104C3900122826EF2BFFEE3A900234F0A3EFF09002
:104C49000322E0FCA3E0FDFFAE04D003D002125E14
:104C5900877F2C126A81C29090032674FFF5F012A7
:104C690028A345F0601290032AE0FEA3E0F580EE48
:0A4C7900F5A0C2B6D2B680E0D290DA
:014C8300220E
:10440A00900311EAF0A3EBF090030DEEF0A3EFF0A6
:10441A00A3ECF0A3EDF0C006C00790030DE0FEA3E5
:10442A00E0FF900311E0FAA3E0C39FFFEA9ECF24C6
:10443A0001FBE43FFA900315E0FFA3E090033CCFB1
:10444A00F0A3EFF0900317E090033EF0D007D006F8
:10445A00125957900313E0FCA3E0FD90030DE0FE10
:10446A00A3E0FF900311E0FAA3E0C39FFFEA9ECF07
:10447A002401FBE43FFA900315E0FFA3E090033C1C
:10448A00CFF0A3EFF0900317E090033EF090030DF6
:10449A00A3E0FF12595790030FE0FCA3E0FD90033D
:1044AA000FE0FEA3E0FF900313E0FAA3E0C39FFF2F
:1044BA00EA9ECF2401FBE43FFAA3E0FFA3E09003C6
:1044CA0045CFF0A3EFF0900317E0900347F0900375
:1044DA000DE0FEA3E0FF1254F590030FE0FCA3E009
:1044EA00FD90030FE0FEA3E0FF900313E0FAA3E0C0
:1044FA00C39FFFEA9ECF2401FBE43FFAA3E0FFA398
:10450A00E0900345CFF0A3EFF0900317E090034744
:0C451A00F0900311E0FEA3E0FF0254F556
:1053B700900330EAF0A3EBF090032CEEF0A3EFF0AC
:1053C700A3ECF0A3EDF012464090032CE0FEA3E01F
:1053D700FF900332E0FCA3E0FD12464090032CE06F
:1053E700FEA3E0FFA3E0FCA3E0FD90032EE0FAA3F9
:1053F700E0FB900332E0F8A3E0C39BFBE89ACB24E1
:1054070001CB3400FAA3E0900328F0900335E09035
:105417000329F0124B85900330E0FEA3E0FF9003D1
:105427002EE0FCA3E0FD90032EE0FAA3E0FB90033F
:1054370032E0F8A3E0C39BFBE89ACB2401CB34000E
:10544700FAA3E0900328F0900335E0900329F002D7
:025457004B8583
:0A5065007B6C7A007F487C007E001F
:10506F00900206EEF0A3EFF0A3ECF0A3EDF0A3EAAD
:04507F00F0A3EBF0BF
:10508300900210E0FF7E007C017D10122826900222
:1050930009E02FFB900208E03EFA90020DE02FFF9B
:1050A30090020CE03E900234F0A3EFF0900206E091
:1050B300FEA3E0FF90020AE0FCA3E0FD125E877FFF
:1050C3002C126A81900206E0FEA3E0FFC390020B5C
:1050D300E09FFF90020AE09ECF2401CF34009002AC
:1050E30011F0A3EFF0900208E0FEA3E0FFC39002EB
:1050F3000DE09FFF90020CE09ECF2401CF3400907F
:105103000213F0A3EFF0C290E4FDFCD3900214E08D
:105113009D900213E09C402EE4FBFAD3900212E030
:105123009B900211E09A401790020EE0FEA3E0F577
:1051330080EEF5A0C2B6D2B60BBB00010A80DC0D2F
:08514300BD00010C80C5D290F3
:01514B002241
:103F4B009002FDEEF0A3EFF0A3ECF0A3EDF0A3EAEB
:043F5B00F0A3EBF0F4
:103F5F00900305E024FD601B24E7602224FD60250B
:103F6F00243F602D24FD602F24E7603724FC703F31
:103F7F00E4803E90030774F8F0A3E4F080399003D7
:103F8F00077407800590030774FFF0A374E0F080B7
:103F9F0026900307E4800590030774F8F0A3741FBD
:103FAF00F080149003077407F0A374FFF080087477
:103FBF00FF900307F0A3F0900306E0FF7E007C0163
:103FCF007D10122826900300E02FFB9002FFE03EA9
:103FDF00FA900304E02FFF900303E03E900234F0C9
:103FEF00A3EFF09002FDE0FEA3E0FF900301E0FCE1
:103FFF00A3E0FD125E877F2C126A819002FDE0FE26
:10400F00A3E0FFC3900302E09FFF900301E09ECF68
:10401F002401CF3400900309F0A3EFF09002FFE0EA
:10402F00FEA3E0FFC3900304E09FFF900303E09E15
:10403F00CF2401CF340090030BF0A3EFF0C290E434
:10404F00FDFCD390030CE09D90030BE09C402EE40D
:10405F00FBFAD390030AE09B900309E09A40179074
:10406F000307E0FEA3E0F580EEF5A0C2B6D2B60BD3
:0F407F00BB00010A80DC0DBD00010C80C5D29092
:01408E00220F
:10408F0090021FEEF0A3EFF0A3ECF0A3EDF0A3EB83
:07409F00F0A3EAF0A3E9F031
:1040A60090022AE024FE606B146040240270649043
:1040B600022BE0FF7E007C017D1012282690022252
:1040C600E02FFB900221E03EFAEB240FFEE43A904B
:1040D6000234F0A3CEF090021FE0FEA3E0FF240717
:1040E600125E8390022C7410F0804E90022BE0FF3B
:1040F6007E007C017D10122826900222E02FFB9084
:104106000221E03EFAEB241F125E6F90022C7440EF
:10411600F0802690022BE0FF7E007C017D101228A5
:1041260026900222E02FFB900221E03EFAEB2417B4
:10413600125E6F90022C7430F07F2C126A81C2904E
:1041460090022CE0D394004067E4A3F090022DE0A7
:10415600FFC394085048900223E0FBA3E0FAA3E0D3
:10416600F91227CEFD7C0074807E00A80708800621
:10417600CEA2E713CE13D8F8FFEE5CFEEF5D4E60DD
:10418600059002268003900228E0FEA3E0F580EE6B
:10419600F5A0C2B6D2B690022DE004F080AE900231
:1041A60024E475F00112288D90022CE014F0809022
:0241B600D290A5
:0141B80022E4
:10340E009002A4EEF0A3EFF0A3ECF0A3EDF0A3EB8B
:07341E00F0A3EAF0A3E9F0BE
:10342500A3E024FD601B24E7602224FD6025243FE2
:10343500602D24FD602F24E7603724FC703FE48075
:103445003E9002B074F8F0A3E4F080399002B074B5
:103455000780059002B074FFF0A374E0F080269019
:1034650002B0E480059002B074F8F0A3741FF080F8
:10347500149002B07407F0A374FFF0800874FF90F5
:1034850002B0F0A3F09002ACE0FEA3E0FFEE705CAA
:10349500EF24FD601B24E7602224FD6025243F60A6
:1034A5002D24FD602F24E7603724FC703FE4803E27
:1034B5009002B274F8F0A3E4F080399002B2740778
:1034C50080059002B274FFF0A374E0F080269002AC
:1034D500B2E480059002B274F8F0A3741FF0801472
:1034E5009002B27407F0A374FFF0800874FF900295
:1034F500B2F0A3F09002AEE024FE607814604024A0
:103505000270719002AFE0FF7E007C017D101228F1
:10351500269002A7E02FFB9002A6E03EFAEB240FCF
:10352500FEE43A900234F0A3CEF09002A4E0FEA3AC
:10353500E0FF2407125E839002B47410F080689057
:1035450002AFE0FF7E007C017D101228269002A7C5
:10355500E02FFB9002A6E03EFAEB241FFEE43A9032
:103565000234F0A3CEF09002A4125E7C9002B474F3
:1035750040F080339002AFE0FF7E007C017D1012A9
:1035850028269002A7E02FFB9002A6E03EFAEB2446
:1035950017FEE43A900234F0A3CEF09002A4125E36
:1035A5007C9002B47430F07F2C126A81C290900234
:1035B500B4E0D394004067E4A3F09002B5E0FFC304
:1035C500940850489002A8E0FBA3E0FAA3E0F912A2
:1035D50027CEFD7C0074807E00A807088006CEA259
:1035E500E713CE13D8F8FFEE5CFEEF5D4E60059055
:1035F50002B080039002B2E0FEA3E0F580EEF5A0F4
:10360500C2B6D2B69002B5E004F080AE9002A9E44D
:1036150075F00112288D9002B4E014F08090D290DC
:013625002282
:103E000090021FEEF0A3EFF0A3ECF0A3EDF0A3EB14
:073E1000F0A3EAF0A3E9F0C2
:103E170090022AE024FE60781460392402707190C1
:103E2700022BE0FF7E007C017D10122826900222E3
:103E3700E02FFB900221E03EFAEB240FFEE43A90DC
:103E47000234F0A3CEF090021F125E7C90022C7415
:103E570020F0807690022BE0FF7E007C017D10121F
:103E67002826900222E02FFB900221E03EFAEB2465
:103E77001FFEE43A900234F0A3CEF090021FE0FE5A
:103E8700A3E0FF241F125E8390022C7480F0803A17
:103E970090022BE0FF7E007C017D10122826900205
:103EA70022E02FFB900221E03EFAEB2417FEE43AD2
:103EB700900234F0A3CEF090021FE0FEA3E0FF24AF
:103EC70017125E8390022C7448F07F2C126A81C20D
:103ED7009090022CE0D394004067E4A3F090022D69
:103EE700E0FFC394085048900223E0FBA3E0FAA345
:103EF700E0F91227CEFD7C0074807E00A8070880B9
:103F070006CEA2E713CE13D8F8FFEE5CFEEF5D4EA8
:103F170060059002268003900228E0FEA3E0F5806A
:103F2700EEF5A0C2B6D2B690022DE004F080AE90B6
:103F37000224E475F00112288D90022CE014F08021
:033F470090D29085
:013F4A002254
:103626009002ECEEF0A3EFF0A3ECF0A3EDF0A3EB29
:07363600F0A3EAF0A3E9F0A4
:10363D00A3E024FD601B24E7602224FD6025243FC8
:10364D00602D24FD602F24E7603724FC703FE4805B
:10365D003E9002F974F8F0A3E4F080399002F97409
:10366D000780059002F974FFF0A374E0F0802690B6
:10367D0002F9E480059002F974F8F0A3741FF0804C
:10368D00149002F97407F0A374FFF0800874FF9092
:10369D0002F9F0A3F09002F4E024FD601B24E76032
:1036AD002224FD6025243F602D24FD602F24E7603A
:1036BD003724FC703FE4803E9002FB74F8F0A3E4E5
:1036CD00F080399002FB740780059002FB74FFF0C7
:1036DD00A374E0F080269002FBE480059002FB7459
:1036ED00F8F0A3741FF080149002FB7407F0A3741C
:1036FD00FFF0800874FF9002FBF0A3F09002F5E05C
:10370D0024FE6078146039240270719002F6E0FF97
:10371D007E007C017D101228269002EFE02FFB9099
:10372D0002EEE03EFAEB240FFEE43A900234F0A3F1
:10373D00CEF09002EC125E7C9002F77420F0807651
:10374D009002F6E0FF7E007C017D1012282690028B
:10375D00EFE02FFB9002EEE03EFAEB241FFEE43A81
:10376D00900234F0A3CEF09002ECE0FEA3E0FF2433
:10377D001F125E839002F77480F0803A9002F6E09B
:10378D00FF7E007C017D101228269002EFE02FFBBA
:10379D009002EEE03EFAEB2417FEE43A900234F08C
:1037AD00A3CEF09002ECE0FEA3E0FF2417125E839F
:1037BD009002F77448F07F2C126A81C2909002F744
:1037CD00E0D394004067E4A3F09002F8E0FFC394C7
:1037DD000850489002F0E0FBA3E0FAA3E0F91227AD
:1037ED00CEFD7C0074807E00A807088006CEA2E77F
:1037FD0013CE13D8F8FFEE5CFEEF5D4E6005900220
:10380D00F980039002FBE0FEA3E0F580EEF5A0C287
:10381D00B6D2B69002F8E004F080AE9002F1E475F5
:0F382D00F00112288D9002F7E014F08090D290F5
:01383C002269
:0E47540090021FEFF0A3EBF0A3EAF0A3E9F050
:104762001228B9FFAEF0900223E0FBA3E0FAA3E027
:10477200F91228B9FD900226E5F0F0A3EDF09002BF
:104782001FE024FD606824027031EF2408FDE43E3E
:10479200FCC3ED94E0EC9401500474088062900232
:1047A20027E02410FD900226E03400FCC3ED9410B3
:1047B200EC9401507AA3E024108067EF240CFDE40E
:1047C2003EFCC3ED94E0EC94015004740C803190F3
:1047D2000227E02418FD900226E03400FCC3ED9489
:1047E20010EC94015006A3E0241880368041EF2497
:1047F20010FDE43EFCC3ED94E0EC9401500974100A
:104802002FFFE43EFE8031900227E02420FD90023B
:1048120026E03400FCC3ED9410EC94015011A3E0A7
:104822002420F0900226E03400F0E4FEFF8009E448
:10483200FEFF900226F0A3F0900220E0FBA3E0FA34
:10484200A3E0F9EE8FF012291C900226E0F9A3E012
:10485200FF900223E0FBA3E0FAA3E0C98FF0022954
:014862001C39
:0E48630090021FEFF0A3EBF0A3EAF0A3E9F040
:104871001228B9FFAEF0900223E0FBA3E0FAA3E017
:10488100F91228B9FD900226E5F0F0A3EDF09002AF
:104891001FE024FD606824027031EF240FFDE43E27
:1048A100FCC3ED94E0EC94015004740F806290021B
:1048B10027E02410FD900226E03400FCC3ED9410A3
:1048C100EC9401507AA3E024108067EF2418FDE4F2
:1048D1003EFCC3ED94E0EC940150047418803190D7
:1048E1000227E02418FD900226E03400FCC3ED9479
:1048F10010EC94015006A3E0241880368041EF2487
:1049010020FDE43EFCC3ED94E0EC940150097420D9
:104911002FFFE43EFE8031900227E02420FD90022B
:1049210026E03400FCC3ED9410EC94015011A3E097
:104931002420F0900226E03400F0E4FEFF8009E438
:10494100FEFF900226F0A3F0900220E0FBA3E0FA24
:10495100A3E0F9EE8FF012291C900226E0F9A3E002
:10496100FF900223E0FBA3E0FAA3E0C98FF0022944
:014971001C29
:10383D00A3F0A3E4F0A37478F0900203E0FF75F019
:10384D00648490026EF0EF75F06484AFF0EF75F064
:10385D000A84A3F0EF75F00A84A3E5F0F090020E50
:10386D007401F0A37402F0A37409F0A37401F0A322
:10387D007402F0A3746EF0A37403F074FFA3F0A3AD
:10388D00F0A374F8F0A3E4F0A37403F0900206E043
:0A389D0090021AF07B017A0279070D
:0B38A70090020BEBF0A3EAF0A3E9F0A5
:1038B2001228B9FF90021BE5F0F0A3EFF090020E80
:1038C200E0FBA3E0FAA3E0F91228B9FF90021DE59C
:1038D200F0F0A3EFF0900214E0D394005003023909
:1038E2008D900211E0FBA3E0FAA3E0F91227CEFFCC
:1038F200C3940A5005EF24308010900211E0FBA31C
:10390200E0FAA3E0F91227CE2437FD900219E0FB7A
:10391200E4FF12229C90021DE0FCA3E0FD7B017AF1
:1039220000799A900215E0FFA3E0900226CFF0A35F
:10393200EFF0900217E0FFA3E0900228CFF0A3EF90
:10394200F0900219E090022AF090021AE090022B05
:10395200F090021BE0FEA3E0FF12408F900219E0FC
:10396200FF9002237401F0A37402F0A3741DF07B94
:10397200017A02791B124754900212E475F0011287
:10398200288D900214E014F00238D790021BE0F95F
:10399200A3E0FF90020BE0FBA3E0FAA3E0C98FF0E3
:1039A20012291C90021DE0F9A3E0FF90020EE0FB39
:0B39B200A3E0FAA3E0C98FF002291C7B
:0B4972009002B6EBF0A3EAF0A3E9F01E
:10497D001228B9FF9002C4E5F0F0A3EFF09002B950
:10498D00E0FBA3E0FAA3E0F91228B9FF9002C6E517
:10499D00F0F0A3EFF09002BFE0D394005003024A71
:1049AD004F9002BCE0FBA3E0FAA3E0F91227CEFF83
:1049BD00C3940A5005EF243080109002BCE0FBA395
:1049CD00E0FAA3E0F91227CE2437FD9002C2E0FBF6
:1049DD00E4FF12229C9002C6E0FCA3E0FD7B017A6D
:1049ED0000799A9002C0E09002ABF09002C1E0FF16
:1049FD009002ACE4F0A3EFF09002C2E09002AEF0B2
:104A0D009002C3E09002AFF09002C4E0FEA3E0FF7D
:104A1D0012340E9002C2E0FF9002237401F0A374D1
:104A2D0002F0A374C6F07B017A0279C41247549048
:104A3D0002BDE475F00112288D9002BFE014F00262
:104A4D0049A29002C4E0F9A3E0FF9002B6E0FBA3F7
:104A5D00E0FAA3E0C98FF012291C9002C6E0F9A379
:104A6D00E0FF9002B9E0FBA3E0FAA3E0C98FF002EA
:024A7D00291CF2
:045ACF00E4FDFCFEF8
:105AD300900204EEF0A3EFF0A3ECF0A3EDF0A3EB40
:105AE300F0C3940A5005E024308006900208E024B5
:105AF30037FD90020DE0FBE4FF12229C900206E0CA
:105B0300FCA3E0FD7B017A00799A900209E0FFA3F0
:105B1300E0900226CFF0A3EFF090020BE0FFA3E0AA
:105B2300900228CFF0A3EFF090020DE090022AF04C
:105B330090020EE090022BF0900204E0FEA3E0FF3F
:035B430002408F8E
:105F4A00900348EEF0A3EFF0A3ECF0A3EDF0A3EB7F
:105F5A00F0C3940A5005E02430800690034CE024F4
:105F6A0037FD90034FE0FBE4FF12229C90034AE0C6
:105F7A00FCA3E0FD7B017A00799A90034DE0900240
:105F8A00ABF090034EE0FF9002ACE4F0A3EFF09088
:105F9A00034FE09002AEF0900350E09002AFF09011
:0A5FAA000348E0FEA3E0FF02340EFE
:0B4D8300900208EBF0A3EAF0A3E9F0B7
:104D8E001228B9FF900218E5F0F0A3EFF090020B95
:104D9E00E0FBA3E0FAA3E0F91228B9FF90021AE5AE
:104DAE00F0F0A3EFF0900211E0D394005003024E06
:104DBE004E90020EE0FBA3E0FAA3E0F91227CEFD1F
:104DCE00900216E0FBE4FF12229C90021AE0FCA374
:104DDE00E0FD7B017A00799A900212E0FFA3E09049
:104DEE000226CFF0A3EFF0900214E0FFA3E09002B2
:104DFE0028CFF0A3EFF0900216E090022AF0900276
:104E0E0017E090022BF0900218E0FEA3E0FF124094
:104E1E008F900216E0FF9002237401F0A37402F04B
:104E2E00A3741AF07B017A02791812475490020F7C
:104E3E00E475F00112288D900211E014F0024DB3CA
:104E4E00900218E0F9A3E0FF900208E0FBA3E0FA5D
:104E5E00A3E0C98FF012291C90021AE0F9A3E0FF1B
:104E6E0090020BE0FBA3E0FAA3E0C98FF002291C2D
:0B4F73009002C8EBF0A3EAF0A3E9F005
:104F7E001228B9FF9002D6E5F0F0A3EFF09002CB25
:104F8E00E0FBA3E0FAA3E0F91228B9FF9002D8E5FE
:104F9E00F0F0A3EFF09002D1E0D394005003025052
:104FAE00359002CEE0FBA3E0FAA3E0F91227CEFD86
:104FBE009002D4E0FBE4FF12229C9002D8E0FCA306
:104FCE00E0FD7B017A00799A9002D2E09002ABF07C
:104FDE009002D3E0FF9002ACE4F0A3EFF09002D485
:104FEE00E09002AEF09002D5E09002AFF09002D6C3
:104FFE00E0FEA3E0FF12340E9002D4E0FF900223F5
:10500E007401F0A37402F0A374D8F07B017A0279D4
:10501E00D61247549002CFE475F00112288D9002FB
:10502E00D1E014F0024FA39002D6E0F9A3E0FF9076
:10503E0002C8E0FBA3E0FAA3E0C98FF012291C908E
:10504E0002D8E0F9A3E0FF9002CBE0FBA3E0FAA3C5
:07505E00E0C98FF002291CDC
:065FB4007B2FE4FDFCFE62
:105FBA00900204EEF0A3EFF0A3ECF0A3EDF0AF0330
:105FCA00AD0790020DE0FBE4FF12229C900206E06E
:105FDA00FCA3E0FD7B017A00799A900209E0FFA315
:105FEA00E0900226CFF0A3EFF090020BE0FFA3E0CF
:105FFA00900228CFF0A3EFF090020DE090022AF071
:10600A0090020EE090022BF0900204E0FEA3E0FF63
:03601A0002408FB2
:1061A000900351EEF0A3EFF0A3ECF0A3EDF0AF03FA
:1061B000AD07900358E0FBE4FF12229C900353E0EC
:1061C000FCA3E0FD7B017A00799A900356E09002EF
:1061D000ABF0900357E0FF9002ACE4F0A3EFF09037
:1061E0000358E09002AEF0900359E09002AFF090B7
:0A61F0000351E0FEA3E0FF02340EAD
:10452600A3F0A37402F0E4A3F0A3F0A37407F0745D
:10453600FFA3F07402A3F09001FFE090021AF07B53
:05454600017A0279007A
:0B454B0090020BEBF0A3EAF0A3E9F0F4
:104556001228B9FF90021BE5F0F0A3EFF090020ECF
:10456600E0FBA3E0FAA3E0F91228B9FF90021DE5EB
:10457600F0F0A3EFF0900214E0D39400500302464B
:1045860010900211E0FBA3E0FAA3E0F9900219E013
:10459600FD121E3290021DE0FCA3E0FD7B017A00B5
:1045A600799A900215E0FFA3E0900226CFF0A3EFE0
:1045B600F0900217E0FFA3E0900228CFF0A3EFF0FF
:1045C600900219E090022AF090021AE090022BF075
:1045D60090021BE0FEA3E0FF123E00900219E0FFEE
:1045E6009002237401F0A37402F0A3741DF07B0102
:1045F6007A02791B124863900212E475F0021228BF
:104606008D900214E014F002457B90021BE0F9A3A2
:10461600E0FF90020BE0FBA3E0FAA3E0C98FF012E3
:10462600291C90021DE0F9A3E0FF90020EE0FBA317
:0A463600E0FAA3E0C98FF002291C8E
:0B514C009002DAEBF0A3EAF0A3E9F018
:105157001228B9FF9002E8E5F0F0A3EFF09002DD26
:10516700E0FBA3E0FAA3E0F91228B9FF9002EAE511
:10517700F0F0A3EFF09002E3E0D39400407B9002BD
:10518700E0E0FBA3E0FAA3E0F99002E6E0FD121EDF
:10519700329002EAE0FCA3E0FD7B017A00799A9065
:1051A70002E4E09002F3F09002E5E09002F4F09060
:1051B70002E6E09002F5F09002E7E09002F6F09048
:1051C70002E8E0FEA3E0FF1236269002E6E0FF9039
:1051D70002237401F0A37402F0A374EAF07B017A4E
:1051E7000279E81248639002E1E475F00212288D13
:1051F7009002E3E014F002517C9002E8E0F9A3E0AA
:10520700FF9002DAE0FBA3E0FAA3E0C98FF01229CE
:105217001C9002EAE0F9A3E0FF9002DDE0FBA3E0C7
:09522700FAA3E0C98FF002291C72
:0B39BD00900203EFF0A3EDF0A3EBF08D
:1039C80090025AE064057003023B31900206125ED1
:1039D800DF900203E0547FF0900205E024F97003C1
:1039E800023A68147003023AD824026003023B23A7
:1039F800900207E4F0749012383D90020E7401F0C2
:103A0800A37402F0A37409F0A374FFF0A3744AF03E
:103A1800A3747FF0A37401F074FFA3F0A3F0A37460
:103A2800F8F0A3E4F0A37403F0900206E090021A01
:103A3800F07B017A02790712454B9002041238494B
:103A480090020E7401F0A37402F0A37409F0A37439
:103A5800FFF0A3744AF0A37482F0A37403023B003E
:103A6800900207E4F0747012383D90020E7401F071
:103A7800A37402F0A37409F0A374FFF0A3744AF0CE
:103A8800A3747FF0A37401F074FFA3F0A3F0A374F0
:103A9800F8F0A3E4F0A37403F0900206E090021A91
:103AA800F07B017A02790712454B900204123849DB
:103AB80090020E7401F0A37402F0A37409F0A374C9
:103AC800FFF0A3744AF0A37489F0A37405023B00C5
:103AD800900207E4F0A3746C12383E90020E740151
:103AE800F0A37402F0A37409F0A374FFF0A3744A5E
:103AF800F0A37494F0A37406F074FFA3F0A3F0A3EA
:103B080074F8F0A3E4F0A37403F0900206E09002C6
:103B18001AF07B017A02790712454B900206E0FF02
:093B2800126AC990025A7405F0FA
:013B31002271
:0B5A5700900203EFF0A3EDF0A3EBF0D2
:105A620090025AE064046064900205125EDF9002C4
:105A720006E4F0A374A0F0A3E4F0A37478F090021B
:105A82000E7401F0A37402F0A37408F0A374FFF083
:105A9200A3744AF0A374A1F0A37405F074FFA3F0F9
:105AA200A3F0A374F8F0A3E4F0A37403F09002054A
:105AB200E090021AF07B017A02790612454B9002BD
:0C5AC20005E0FF126AC990025A7404F05B
:015ACE0022B5
:05545900900378EFF064
:10545E009001F8E07038900378E0F9FF7E007C014F
:10546E007D10122826EF24F0FDE43EFCEF2410FF01
:10547E00EE340190020CF0A3EFF0A374F8F0A3E465
:10548E00F0A3E9F07BE07A01E4FFFE12506F900189
:10549E00F8E075F010A4FF900379E5F0F0A3EFF0BB
:1054AE00A3E4F0A374F0F090020E7401F0A3740361
:1054BE00F0A3747BF0A37401F0A37402F0A3744103
:1054CE00F0A37401F074FFA3F0A3F0A374F8F0A39B
:1054DE00E4F0A37403F0900378E090021AF07B01DD
:0754EE007A0379790238A767
:05004E009001FFEFF03E
:1000530090025AE0640A7003020E0F9001FFE0FD64
:1000630074FFFFFE125EE5E4900200F0A3F0A3F03C
:10007300A3F07B0190020B04F0A37402F0A37402BB
:10008300F0A374FFF0A3744AF0A374ACF0A3740359
:10009300F074FFA3F0A3F0A374F8F0A3E4F0A37447
:1000A30003F09001FFE0900217F07A027900124DFD
:1000B30083900254E0C4540FFB74FF900209F0A331
:1000C300F0A374F8F0A3E4F0A37403F09001FFE04D
:1000D30090020EF07F30125ACF900254E0540FFB7F
:1000E30074FF900209F0A3F0A374F8F0A3E4F0A363
:1000F3007403F09001FFE090020EF07F40125ACF9C
:1001030074FF900209F0A3F0A374F8F0A3E4F0A342
:100113007403F09001FFE090020EF07F50125FB481
:10012300900255E0C4540FFB74FF900209F0A3F052
:10013300A374F8F0A3E4F0A37403F09001FFE0903C
:10014300020EF0E4FDFC7F60FE125AD3900255E0EC
:10015300540FFB74FF900209F0A3F0A374F8F0A30B
:10016300E4F0A37403F09001FFE090020EF0E4FDCD
:10017300FC7F70FE125AD374FF900209F0A3F0A320
:1001830074F8F0A3E4F0A37403F09001FFE090028D
:100193000EF07F80125FB4900256E0C4540FFB74DC
:1001A300FF900209F0A3F0A374F8F0A3E4F0A374A2
:1001B30003F09001FFE090020EF0E4FDFC7F90FE5F
:1001C300125AD3900256E0540FFB74FF900209F0C9
:1001D300A3F0A374F8F0A3E4F0A37403F09001FF79
:1001E300E090020EF0E4FDFC7FA0FE125AD374FFF0
:1001F300900209F0A3F0A374F8F0A3E4F0A374034E
:10020300F09001FFE090020EF07B20E4FDFC7FB054
:10021300FE125FBA74FF900209F0A3F0A374F8F022
:10022300A3E4F0A37403F09001FFE090020EF07BCF
:1002330020E4FDFC7FE0FE125FBA900257E0C45455
:100243000FFB74FF900209F0A3F0A374F8F0A3E48A
:10025300F0A37403F09001FFE090020EF0E4FDFCC4
:100263007FF0FE125AD3900257E0540FFB74FF90B5
:100273000209F0A3F0A374F8F0A3E4F0A37403F06D
:100283009001FFE090020EF0E4FDFCFF7E01125AA4
:10029300D374FF900209F0A3F0A374F8F0A3E4F081
:1002A300A37403F09001FFE090020EF07B3AE4FDAB
:1002B300FC7F107E01125FBA900258E0C4540FFB1A
:1002C30074FF900209F0A3F0A374F8F0A3E4F0A381
:1002D3007403F09001FFE090020EF0E4FDFC7F2038
:1002E3007E01125AD3900258E0540FFB74FF900220
:1002F30009F0A3F0A374F8F0A3E4F0A37403F0905F
:1003030001FFE090020EF0E4FDFC7F307E01125A03
:10031300D3900200E4F0A37420F0A3E4F0A37422CA
:10032300F090020E7401F0A37402F0A37402F0A320
:1003330074FFF0A3744AF0A374B0F0A37406F0E45E
:10034300A3F0A3F0A37407F0A374E0F074031245C1
:100353003BE4900200F0A3F0A3F0A37448F09002F2
:100363000E7401F0A37402F0A37402F0A374FFF0FF
:10037300A3744AF0A374BDF0A37404F0E4A3F0A340
:10038300F0A374F8F0741F124537900200E4F0A351
:100393007478F0A3E4F0A37448F090020CE4F0A3A3
:1003A3007460F0A374F8F0A3E4F09001FFE090020E
:1003B30010F07B9C7A007D487F7812506B9002642A
:1003C300E0FF75F0648490026EF0EF75F06484AF23
:1003D300F0A3EFF075F00A84A3E5F0F090026FE06C
:1003E30075F00A84F090026EE0601F90020E7401B3
:1003F300F0A37402F0A37402F0A37401F0A37402D7
:10040300F0A3746EF0A37403803F90026FE0900238
:100413000E601C7401F0A37402F0A37402F0A374C1
:1004230001F0A37402F0A3746FF0A37402801A7432
:1004330001F0A37402F0A37402F0A37401F0A37497
:1004430002F0A37470F0A37401F074FFA3F0A3F09F
:10045300A374F8F0A3E4F0A37402F09001FFE0901A
:10046300021AF07B017A0279001238A7E4900200A5
:10047300F0A3F0A3F0A3746BF090020E7401F0A349
:100483007402F0A37402F0A374FFF0A3744AF0742F
:10049300C6124526900200E4F0A37448F0A3E4F0EA
:1004A300A3746BF090020CE4F0A37483F0A374F8CC
:1004B300F0A3E4F09001FFE0900210F07D6B125086
:1004C30065900265E0FF75F0648490026EF0EF754D
:1004D300F06484AFF0A3EFF075F00A84A3E5F0F0C5
:1004E30090026FE075F00A84F090026EE0601F9056
:1004F300020E7401F0A37402F0A37402F0A374015A
:10050300F0A37402F0A3746EF0A37403803F90020F
:100513006FE090020E601C7401F0A37402F0A374E8
:1005230002F0A37401F0A37402F0A3746FF0A37438
:1005330002801A7401F0A37402F0A37402F0A3748E
:1005430001F0A37402F0A37470F0A37401F074FFBC
:10055300A3F0A3F0A374F8F0A3E4F0A37402F09063
:1005630001FFE090021AF07B017A0279001238A7AA
:10057300900200E4F0A374A0F090020E7401F0A3C3
:100583007402F0A37402F0A374FFF0A3744AF0742E
:10059300CB124526900200E4F0A374E8F0A3E4F044
:1005A300A3746BF090020CE4F0A37483F0A374F8CB
:1005B300F0A3E4F09001FFE0900210F07B0C7A01CD
:1005C3007D6B7C007FE87E0012506F900266E0FF37
:1005D30075F0648490026EF0EF75F06484AFF0A35D
:1005E300EFF075F00A84A3E5F0F090026FE075F088
:1005F3000A84F090026EE0601F90020E7401F0A373
:100603007402F0A37402F0A37401F0A37402F0A3C4
:10061300746EF0A37403803F90026FE090020E604B
:100623001C7401F0A37402F0A37402F0A37401F02C
:10063300A37402F0A3746FF0A37402801A7401F020
:10064300A37402F0A37402F0A37401F0A37402F084
:10065300A37470F0A37401F074FFA3F0A3F0A37468
:10066300F8F0A3E4F0A37402F09001FFE090021A03
:10067300F07B017A0279001238A79002007401F02E
:10068300A37440F090020E7401F0A37402F0A374FB
:1006930002F0A374FFF0A3744AF0A374D0124527A9
:1006A3009002007401F0A37488F0A3E4F0A3746BC8
:1006B300F090020CE4F0A37483F0A374F8F0A3E4C5
:1006C300F09001FFE0900210F07BAC7A017D6B7C2F
:1006D300007F887E0112506F900267E0FF75F0641F
:1006E3008490026EF0EF75F06484AFF0A3EFF075C1
:1006F300F00A84A3E5F0F090026FE075F00A84F04D
:1007030090026EE0601F90020E7401F0A37402F079
:10071300A37402F0A37401F0A37402F0A3746EF047
:10072300A37403803F90026FE090020E601C74017B
:10073300F0A37402F0A37402F0A37401F0A3740293
:10074300F0A3746FF0A37402801A7401F0A374020F
:10075300F0A37402F0A37401F0A37402F0A3747005
:10076300F0A37401F074FFA3F0A3F0A374F8F0A353
:10077300E4F0A37402F09001FFE090021AF07B0111
:100783007A0279001238A7E4900200F0A3F0A3F0F4
:10079300A3748EF090020E7401F0A37402F0A3749C
:1007A30002F0A374FFF0A3744AF0A374D512452793
:1007B300900200E4F0A37448F0A3E4F0A3748EF075
:1007C30090020CE4F0A374A6F0A374F8F0A3E4F091
:1007D3009001FFE0900210F07D8E12506590026848
:1007E300E0FF75F0648490026EF0EF75F06484AFFF
:1007F300F0A3EFF075F00A84A3E5F0F090026FE048
:1008030075F00A84F090026EE0601F90020E74018E
:10081300F0A37402F0A37402F0A37401F0A37402B2
:10082300F0A3746EF0A37403803F90026FE0900214
:100833000E601C7401F0A37402F0A37402F0A3749D
:1008430001F0A37402F0A3746FF0A37402801A740E
:1008530001F0A37402F0A37402F0A37401F0A37473
:1008630002F0A37470F0A37401F074FFA3F0A3F07B
:10087300A374F8F0A3E4F0A37402F09001FFE090F6
:10088300021AF07B017A0279001238A7900200E481
:10089300F0A374F0F090020E7401F0A37402F0A3BD
:1008A3007402F0A374FFF0A3744AF0A374DA124540
:1008B300279002007401F0A37438F0A3E4F0A3744A
:1008C3008EF090020CE4F0A374A6F0A374F8F0A3E6
:1008D300E4F09001FFE0900210F07B5C7A017D8EE2
:1008E3007C007F387E0112506F900269E0FF75F043
:1008F300648490026EF0EF75F06484AFF0A3EFF0C0
:1009030075F00A84A3E5F0F090026FE075F00A84B5
:10091300F090026EE0601F90020E7401F0A3740267
:10092300F0A37402F0A37401F0A37402F0A3746E35
:10093300F0A37403803F90026FE090020E601C747A
:1009430001F0A37402F0A37402F0A37401F0A37482
:1009530002F0A3746FF0A37402801A7401F0A374FD
:1009630002F0A37402F0A37401F0A37402F0A37461
:1009730070F0A37401F074FFA3F0A3F0A374F8F074
:10098300A3E4F0A37402F09001FFE090021AF07B5D
:10099300017A0279001238A7E4900200F0A3F0A3D1
:1009A300F0A374AFF090020E7401F0A37402F0A3ED
:1009B3007402F0A374FFF0A3744AF0A374DF12452A
:1009C30027900200E4F0A37448F0A3E4F0A374AF0B
:1009D300F090020CE4F0A374C7F0A374F8F0A3E45E
:1009E300F09001FFE0900210F07B6C7A007DAF1273
:1009F300506990026AE0FF75F0648490026EF0EF34
:100A030075F06484AFF0A3EFF075F00A84A3E5F00A
:100A1300F090026FE075F00A84F090026EE0601FC0
:100A230090020E7401F0A37402F0A37402F0A37495
:100A330001F0A37402F0A3746EF0A37403803F90DB
:100A4300026FE090020E601C7401F0A37402F0A325
:100A53007402F0A37401F0A37402F0A3746FF0A303
:100A63007402801A7401F0A37402F0A37402F0A359
:100A73007401F0A37402F0A37470F0A37401F07412
:100A8300FFA3F0A3F0A374F8F0A3E4F0A37402F0BF
:100A93009001FFE090021AF07B017A02790012388C
:100AA300A7900200E4F0A374F0F090020E7401F03A
:100AB300A37402F0A37402F0A374FFF0A3744AF0CA
:100AC300A374E41245279002007401F0A37438F074
:100AD300A3E4F0A374AFF090020CE4F0A374C7F0A6
:100AE300A374F8F0A3E4F09001FFE0900210F07B10
:100AF3005C7A017DAF7C007F387E0112506F9002DB
:100B03006BE0FF75F0648490026EF0EF75F064841F
:100B1300AFF0A3EFF075F00A84A3E5F0F090026F55
:100B2300E075F00A84F090026EE0601F90020E748C
:100B330001F0A37402F0A37402F0A37401F0A37490
:100B430002F0A3746EF0A37403803F90026FE090F1
:100B5300020E601C7401F0A37402F0A37402F0A3EC
:100B63007401F0A37402F0A3746FF0A37402801AEB
:100B73007401F0A37402F0A37402F0A37401F0A350
:100B83007402F0A37470F0A37401F074FFA3F0A3D4
:100B9300F0A374F8F0A3E4F0A37402F09001FFE073
:100BA30090021AF07B017A0279001238A7E49002CE
:100BB30000F0A3F0A3F0A374D1F090020E7401F03F
:100BC300A37402F0A37402F0A374FFF0A3744AF0B9
:100BD300A374E9F0A37404F0E4A3F0A3F0A374F8FE
:100BE300F0A3741F124538900200E4F0A37478F068
:100BF300A3E4F0A374D1F090020CE4F0A374E9F041
:100C0300A374F8F0A3E4F09001FFE0900210F07BEE
:100C13009C7A007DD17C007F787E0012506F900219
:100C23006CE0FF75F0648490026EF0EF75F06484FD
:100C3300AFF0A3EFF075F00A84A3E5F0F090026F34
:100C4300E075F00A84F090026EE0601F90020E746B
:100C530001F0A37402F0A37402F0A37401F0A3746F
:100C630002F0A3746EF0A37403803F90026FE090D0
:100C7300020E601C7401F0A37402F0A37402F0A3CB
:100C83007401F0A37402F0A3746FF0A37402801ACA
:100C93007401F0A37402F0A37402F0A37401F0A32F
:100CA3007402F0A37470F0A37401F074FFA3F0A3B3
:100CB300F0A374F8F0A3E4F0A37402F09001FFE052
:100CC30090021AF07B017A0279001238A790020091
:100CD300E4F0A374F0F090020E7401F0A37402F038
:100CE300A37402F0A374FFF0A3744AF0A374F21286
:100CF30045279002007401F0A37438F0A3E4F0A335
:100D030074D1F090020CE4F0A374E9F0A374F8F04A
:100D1300A3E4F09001FFE0900210F07B5C7A017D88
:100D2300D17C007F387E0112506F90026DE0FF7519
:100D3300F06484A3F0EF75F06484AFF0A3EFF07573
:100D4300F00A84A3E5F0F090026FE075F00A84F0F6
:100D530090026EE0601F90020E7401F0A37402F023
:100D6300A37402F0A37401F0A37402F0A3746EF0F1
:100D7300A37403803F90026FE090020E601C740125
:100D8300F0A37402F0A37402F0A37401F0A374023D
:100D9300F0A3746FF0A37402801A7401F0A37402B9
:100DA300F0A37402F0A37401F0A37402F0A37470AF
:100DB300F0A37401F074FFA3F0A3F0A374F8F0A3FD
:100DC300E4F0A37402F09001FFE090021AF07B01BB
:100DD3007A0279001238A790020C7401F0A3741000
:100DE300F0A374F8F0A3E4F09001FFE0900210F098
:100DF3007BE07A017DF07C00E4FFFE12506F9001EE
:0C0E0300FFE0FF126AC990025A740AF066
:010E0F0022C0
:052E8000900203EFF0D9
:102E8500125EE0900204E4F0A37450F0A3E4F0A312
:102E95007478F0900241E0FF75F0648490026EF062
:102EA500EF75F06484AFF0EF75F00A84A3F0EF7569
:102EB500F00A84A3E5F0F090026EE0601F90020E28
:102EC5007401F0A37402F0A37406F0A37401F0A3D7
:102ED5007402F0A3746EF0A37403803F90026FE058
:102EE50090020E601C7401F0A37402F0A37406F046
:102EF500A37401F0A37402F0A3746FF0A3740280AD
:102F05001A7401F0A37402F0A37406F0A37401F01F
:102F1500A37402F0A37470F0A37401F074FFA3F01E
:102F2500A3F0A374F8F0A3E4F0A37403F0900203F4
:102F3500E090021AF07B017A0279041238A7900218
:102F45000E7401F0A37402F0A37406F0A374FFF0ED
:102F5500A3744AF0A374F7F0A37401F074FFA3F00F
:102F6500A3F0A374F8F0A3E4F0A37403F0900203B4
:102F7500E090021AF07B017A02790412454B900227
:102F850042E0FF75F0648490026EF0EF75F06484A2
:102F9500AFF0EF75F00A84A3F0EF75F00A84A3E5AE
:102FA500F0F090026EE0601F90020E7401F0A374C1
:102FB50002F0A37406F0A37401F0A37402F0A374E5
:102FC5006EF0A37403803F90026FE090020E601CC8
:102FD5007401F0A37402F0A37406F0A37401F0A3C6
:102FE5007402F0A3746FF0A37402801A7401F0A345
:102FF5007402F0A37406F0A37401F0A37402F0A3A5
:103005007470F0A37401F074FFA3F0A3F0A374F837
:10301500F0A3E4F0A37403F0900203E090021AF029
:103025007B017A0279041238A790020E7401F0A38D
:103035007402F0A37406F0A374FFF0A3744AF0A31E
:10304500747FF0A37401F074FFA3F0A3F0A374F8E8
:10305500F0A3E4F0A37403F0900203E090021AF0E9
:103065007B017A02790412454B900243E0FF75F02B
:10307500648490026EF0EF75F06484AFF0EF75F044
:103085000A84A3F0EF75F00A84A3E5F0F090026ED0
:10309500E0601F90020E7401F0A37402F0A37406A1
:1030A500F0A37401F0A37402F0A3746EF0A374038B
:1030B500803F90026FE090020E601C7401F0A374D3
:1030C50002F0A37406F0A37401F0A37402F0A374D4
:1030D5006FF0A37402801A7401F0A37402F0A37454
:1030E50006F0A37401F0A37402F0A37470F0A37446
:1030F50001F074FFA3F0A3F0A374F8F0A3E4F0A328
:103105007403F0900203E090021AF07B017A0279D1
:10311500041238A790020E7401F0A37402F0A37490
:1031250006F0A374FFF0A3744AF0A374FAF0A37435
:1031350005F074FFA3F0A3F0A374F8F0A3E4F0A3E3
:103145007403F0900203E090021AF07B017A027991
:103155000412454B900203E0FF126AC990025A74AB
:0231650011F067
:013167002245
:05601D00900203EFF00A
:10602200125EE0900204E4F0A374B0F0A3E4F0A3E3
:106032007478F090020E7401F0A37402F0A3740657
:10604200F0A374FFF0A3744BF0A37405F0A37404DF
:10605200F074FFA3F0A3F0A374F8F0A3E4F0A37428
:1060620003F0900203E090021AF07B017A027904B5
:1060720012454B900203E0FF126AC990025A741251
:01608200F02D
:0160830022FA
:08316800900203EFF0A3EDF06B
:1031700090025AE0640B700302340D900205125E57
:10318000DF303F30900206E4F0A374A0F0A3E4F037
:10319000A37478F090020E7401F0A37402F0A3748B
:1031A00008F0A374FFF0A3744BF0A3740EF0A374A3
:1031B000050233DC900203E064FD60030232A79055
:1031C0000206F0A37470F0A3E4F0A37478F0900208
:1031D00004E0FF75F0648490026EF0EF75F0648493
:1031E000AFF0EF75F00A84A3F0EF75F00A84A3E561
:1031F000F0F090026EE0601F90020E7401F0A37474
:1032000002F0A37408F0A37401F0A37402F0A37495
:103210006EF0A37403803F90026FE090020E601C7A
:103220007401F0A37402F0A37408F0A37401F0A376
:103230007402F0A3746FF0A37402801A7401F0A3F7
:103240007402F0A37408F0A37401F0A37402F0A355
:103250007470F0A37401F074FFA3F0A3F0A374F8EA
:10326000F0A3E4F0A37403F0900205E090021AF0DA
:103270007B017A0279061238A7900207E02410F049
:10328000900206E03400F090020E7401F0A3740284
:10329000F0A37408F0A374FFF0A3744BF0A37419A7
:1032A000F0A374070233DC900206E4F0A37480F00C
:1032B000A3E4F0A37478F0900203E0FF75F0648457
:1032C00090026EF0EF75F06484AFF0EF75F00A8451
:1032D000A3F0EF75F00A84A3E5F0F090020E7401FC
:1032E000F0A37402F0A37408F0A37401F0A37402B5
:1032F000F0A3746EF0A37403F074FFA3F0A3F0A323
:1033000074F8F0A3E4F0A37403F0900205E09002D7
:103310001AF07B017A0279061238A790020E740126
:10332000F0A37402F0A37408F0A374FFF0A3744A2E
:10333000F0A3747FF0A37401F074FFA3F0A3F0A3D3
:1033400074F8F0A3E4F0A37403F0900205E0900297
:103350001AF07B017A02790612454B900204E0FFD5
:1033600075F0648490026EF0EF75F06484AFF0EF56
:1033700075F00A84A3F0EF75F00A84A3E5F0F090ED
:10338000020E7401F0A37402F0A37408F0A3740198
:10339000F0A37402F0A3746EF0A37403F074FFA39F
:1033A000F0A3F0A374F8F0A3E4F0A37403F0900288
:1033B00005E090021AF07B017A0279061238A79094
:1033C000020E7401F0A37402F0A37408F0A374FF5A
:1033D000F0A3744BF0A37428F0A37403F074FFA35C
:1033E000F0A3F0A374F8F0A3E4F0A37403F0900248
:1033F00005E090021AF07B017A02790612454B90A3
:0D3400000205E0FF126AC990025A740BF039
:01340D00229C
:055CA700900203EFF084
:105CAC0090025AE0640C6064900203125EDF900272
:105CBC0004E4F0A37490F0A3E4F0A37478F09002E1
:105CCC000E7401F0A37402F0A37406F0A374FFF039
:105CDC00A3744BF0A3742FF0A37406F074FFA3F01D
:105CEC00A3F0A374F8F0A3E4F0A37403F090020300
:105CFC00E090021AF07B017A02790412454B900273
:0C5D0C0003E0FF126AC990025A740CF008
:015D18002268
:055D1900900203EFF011
:105D1E0090025AE0640D6064900203125EDF9002FE
:105D2E0004E4F0A37490F0A3E4F0A37478F090026E
:105D3E000E7401F0A37402F0A37406F0A374FFF0C6
:105D4E00A3744BF0A3743CF0A37406F074FFA3F09D
:105D5E00A3F0A374F8F0A3E4F0A37403F09002038D
:105D6E00E090021AF07B017A02790412454B900200
:0C5D7E0003E0FF126AC990025A740DF095
:015D8A0022F6
:055D8B00900203EFF09F
:105D900090025AE0640E6064900203125EDF90028B
:105DA00004E4F0A37490F0A3E4F0A37478F09002FC
:105DB0000E7401F0A37402F0A37406F0A374FFF054
:105DC000A3744BF0A37449F0A37406F074FFA3F01E
:105DD000A3F0A374F8F0A3E4F0A37403F09002031B
:105DE000E090021AF07B017A02790412454B90028E
:0C5DF00003E0FF126AC990025A740EF022
:015DFC002284
:055DFD00900203EFF02D
:105E020090025AE0640F6064900203125EDF900217
:105E120004E4F0A37490F0A3E4F0A37478F0900289
:105E22000E7401F0A37402F0A37406F0A374FFF0E1
:105E3200A3744BF0A37456F0A37406F074FFA3F09E
:105E4200A3F0A374F8F0A3E4F0A37403F0900203A8
:105E5200E090021AF07B017A02790412454B90021B
:0C5E620003E0FF126AC990025A740FF0AE
:015E6E002211
:054E7E00900203EFF0BB
:104E830090025AE064037003024F72900203125EB1
:104E9300DF900204E4F0A37478F0A3E4F0A3747841
:104EA300F090020E7401F0A37402F0A37406F0A351
:104EB30074FFF0A3744BF0A37463F0A37404F07451
:104EC300FFA3F0A3F0A374F8F0A3E4F0A37403F03A
:104ED300900203E090021AF07B017A0279041245F2
:104EE3004B90020B7401F0A37402F0A37406F0A3B9
:104EF30074FFF0A3744BF0A3746CF0A37401F0740B
:104F0300FFA3F0A3F0A374F8F0A3E4F0A37402F0FA
:104F1300900203E0900217F07B017A027904124DAC
:104F23008390020E7401F0A37402F0A37406F0A33D
:104F330074FFF0A3744BF0A3746EF0A37403F074C6
:104F4300FFA3F0A3F0A374F8F0A3E4F0A37403F0B9
:104F5300900203E090021AF07B017A027904124571
:0F4F63004B900203E0FF126AC990025A7403F0E8
:014F7200221C
:103B320090027BEEF0A3EFF0A3ECF0A3EDF0A3EB89
:013B4200F092
:103B4300900282E0FF90027FE08FF0A4FF90027C5E
:103B5300E02FFF90027BE035F0CF24FFFDEF34FF31
:103B6300FCC004C00590028AE0FF7E007C017D104A
:103B730012282690027EE02FFB90027DE03EFA9011
:103B83000281E0FF900280E08FF0A42BFFE5F03A82
:103B9300CF24FFCF34FF900234F0A3EFF090027BE9
:103BA300E0FEA3E0FFD005D004125E877F2C126AEB
:103BB30081C290E490028BF0900280E0FF90028B30
:103BC300E0C39F4003023C9DE490028FF09002818A
:103BD300E0FF90028FE0C39F4003023C94E4900215
:103BE3008CF090027FE0131313541FFF90028CE0BC
:103BF300C39F4003023C8BE4A3F0E490028EF09059
:103C03000282E0FF90028EE0C39F506590027FE046
:103C1300131313541FFF90028BE0FEEF8EF0A4FFEB
:103C2300A3E07C002FFFEC35F0FE900287E0FBA3BE
:103C3300E0FAA3E0F98F828E831227E7FF90028DCB
:103C4300E0FEC374079EFEEFA806088002C313D8E4
:103C5300FC30E0059002838003900285E0FEA3E040
:103C6300F580EEF5A0C2B6D2B690028EE004F080E5
:103C73008E90028DE004F0E064086003023BFD9047
:103C8300028CE004F0023BE590028FE004F0023B7B
:0C3C9300D090028BE004F0023BBBD2900A
:013C9F002202
:1041B900D2C2D2B7C290D2917F327E00126902C2B6
:1041C900917FC87E00126902D2917F327E00126906
:1041D900027FE2126A817F3B126A1D7F02126A1D09
:1041E9007F54126A1D7FE0126A817F01126A1D7E67
:1041F900001269027FE0126A817F03126A1D7F0142
:10420900126A817FE6126A817F01126A1D7F331269
:104219006A1D1F126A1D7FB0126A817F18126A1DFA
:104229007F20126A1D7F01126A1D7FDF126A1D7FBE
:1042390001126A1D7F0F126A1DE4FF126A1D7FB405
:10424900126A817F02126A1D7F0C126A1DFF126AAF
:104259001D7F2A126A1D7F28126A1DFF126A1D120C
:104269006A1D126A1D7FB6126A817F01126A1D7F5B
:104279001D126A1DFF126A1D7F0B126A1D7F09122A
:104289006A1DFF126A1D126A1D7F3A126A817F50E8
:10429900126A1D7FF0126A817F03126A1D7FB812AC
:1042A9006A817F01126A1D126A1D7FBA126A817FB3
:1042B90001126A1DFBFA7D107C011FFE1267397F0E
:1042C90029126A81E4FDFF7EF8125EE5E4FF126AB5
:0A42D900C943B22053B1DFD2B52271
:10670C003000097D0A7F021260E780F47B017A0277
:10671C00795D9002047411F07F007E05125C337F6A
:0D672C000112004E7D0A7F021260E780F727
:0F6A9000CFB5CDB3B3F5CABCBBAF002E2E2E00D1
:0562620042023AB40005
:03000300020006F2
:03000600C2A8325B
:03001B0002000ED2
:03000E00C2AB3250
:03002B00020016BA
:03001600C2AD3246
:0300330002001EAA
:03001E00C2AE323D
:1067F20090023BE02400F090023AE034B4F0E0FE74
:10680200A3E0F5EAEEF5FAC2D8900008E0600214BF
:02681200F02272
:10681400C2ACE4FFEFC39D50141227CEF599309912
:0F682400FDC299740129F9E43AFA0F80E7D2AC6A
:016833002242
:0B6AD500C2AC8F993099FDC299D2AC81
:016AE0002293
:104C840075D902E4F5D8F5E9F5F990023AE0FEA306
:104C9400E0F5EAEEF5FA75DA49D2DE75BB70D2902A
:104CA400D2C1D2C5D2C4C29412652A7E007F217DAE
:104CB400007B017A02793C122A8A7F647E001269A1
:104CC4000212664212659C1269951268341241B947
:104CD400D200E4FD7F32126AED9001FFE4F0A37488
:104CE40090F0A3E4F0A37478F090020E7401F0A3A2
:104CF4007402F0A37401F0A374FFF0A3746AF0A328
:104D04007490F0A37405F074FFA3F0A3F0A374F8F7
:104D1400F0A3E4F0A37403F0E4A3F07B017A017937
:104D2400FF12454B90020B7401F0A37402F0A374BC
:104D340001F0A374FFF0A3746AF0A3749BF0A3744E
:104D440003F074FFA3F0A3F0A374F8F0A3E4F0A3BA
:104D54007403F0E4A3F07B017A0179FF124D83E43C
:104D6400FF126AC99002547408F0A3F0A3F0A3F0F0
:0E4D7400A3F0E490025AF0A37419F0E4A3F047
:014D8200220E
:076B11007D28E4FB02558F13
:10691B00EF54F024E0600B24A0600A24707009028D
:09692B0017A50264781252302213
:1063B700124C847F287D101265637C687D92E4FB14
:1063C700FA7F011264B47C687D54E4FBFA7F021201
:1063D70064B47C677D0CE4FBFA7F031264B47F1C12
:1063E700126B11AF1C12691B303EF3C23E120E1026
:0263F70080EC38
:1068AF00C2947FC87E00126902126A60D2C07C63F4
:0C68BF007DB7E4FBFAFF1264B40080FD1A
:105BBD00900206EEF0A3EFF0A3EBF0A3EAF0A3E959
:015BCD00F0E7
:105BCE00C2C17F0612003ED2C1C2C17F0212003E88
:105BDE00900206E0FF12003E900206A3E0FF1200C4
:105BEE003EE490020CF0A3F090020BE0FFC3900293
:105BFE000DE09F90020CE094005027900208E0FB0D
:105C0E00A3E475F0011228A3A9F0FA1227CEFF1211
:105C1E00003E90020DE004F070CE90020CE004F015
:045C2E0080C6D2C199
:015C3200224F
:1065D400900380EEF0A3EFF0A3EDF0C2C17F0612AA
:1065E400003ED2C1C2C17F0212003E900380E0FF90
:1065F40012003E900380A3E0FF12003E900382E06D
:07660400FF12003ED2C1228B
:0F5C33009001FFEEF0A3EFF0A3EBF0A3EAF0E98E
:105C42001269ED7F0312003E9001FFE0FF12003E59
:105C52009001FFA3E0FF12003EE4900205F0A3F0E2
:105C6200900204E0FFC3900206E09F900205E094D8
:105C720000502A7FF012003E900201E0FBA3E4757F
:105C8200F0011228A3A9F0FAE5CF12281490020617
:105C9200E004F070CB900205E004F080C37F0A12AA
:045CA20069F3D2C10F
:015CA60022DB
:06660B00900383EEF0EFA6
:106611001269ED7F0312003E900383E0FF12003EFA
:10662100900383A3E0FF12003E7FF012003E90032F
:1066310085E5CFF07F0A1269F3D2C1900385E0FFAF
:016641002236
:1069AC00EFD3940040107D887C13ED1D70011CED1D
:0669BC004C70F71F80EA99
:0169C20022B2
:0669ED00A3F0C2C17F0A05
:0D69F300EFD3940040077E02DEFE1F80F30C
:016A00002273
:076B1800D2F4C1BF003A00F6
:106267000121000126004101F9004101B00041016F
:10627700FB004101A10041019E004101FD004101D8
:0A628700A0004101F80041019F0052
:10659C0053B2F743B10843B21043B110D2B4D2B3E3
:1065AC005389F0438901758A67758CFFC28D538EB0
:1065BC007FD2A9D28C9001FE74F0F0C28BD28A30BB
:0865CC00B303D2AA22D20F2270
:030013000268CBB5
:1068CB00C2AFC0E0C083C082C2AAD208C20A900184
:0C68DB00F9E4F0D082D083D0E0D2AF32DC
:03000B00022AB610
:102AB600C2AFC0E0C0F0C083C082C0D075D000C035
:102AC60000C002C003C004C005C006C007C28C75A2
:102AD6008CFF758A67D28CA2B39235300836900186
:102AE600F9E02410F0E054F064506003022BE5C2D4
:102AF60008F030351A200E0A300D075321C3D20EC6
:102B0600D2B49001FE74F0F09001FBE4022BB1D236
:102B160009022BE5200903022BE59001F9E02410B8
:102B2600F0E0FF54F064A06003022BE5EF540FF0D1
:102B3600E004F0E0540FFB640A6003022BCEC209E6
:102B460030356F9001FBE0FE54F024FF303101B3C5
:102B5600400E9001A1E4F0EE540F9001FBF0804688
:102B66009001A174E6F09001FCE0FF9001FBE0C447
:102B7600540F24A9F582E43401F583EFF09001FBAC
:102B8600E02410F0E0FF54F0C394704019EF540FA6
:102B9600F0300D03300B02D2309001A1E4F0900129
:102BA6009E740AF0D2339001FE74F0F0C28BD2AA62
:102BB600802DD20F200E0A300D075321C3D20ED21C
:102BC600B49001FBE4F08017BB0906A23592318070
:102BD6000E9001FCE0C313F0303504E04480F0E5CC
:102BE60021540C640C7036303524C2B4C2349001C2
:102BF600B0F05321F39001FBE0540F24A2F582E4D8
:102C06003401F583E09001FAF0D20C022CDE532158
:102C1600C3D20E9001FBE054F0F0022CD6200C0338
:102C2600022CDEA234303501B35003022CCA9001C7
:102C3600B0E02410F0E0FF54F064A06003022CDE44
:102C4600EF540FF0E004F0E0540FFFBF09119001BC
:102C5600FBE0540F24FFB39234A23492B48079BFC0
:102C66000A06D234D2B480709001B0E0540F640BDF
:102C76007037C20C9001FBE004F0E0FF540FC394E0
:102C8600074018EF54F0F05321C39001FE74F0F0A2
:102C960043260C90019E740AF080089001FE740A87
:102CA600F0D20BC28BD2AA802F9001FAE0FF30E05F
:102CB60006D234D2B48004C234C2B4EFC313900136
:102CC600FAF080145321C39001FBE054F0F0D20EC9
:102CD600D2B49001FE74F0F0E52154037020900107
:102CE600FEE0600614F07002D20A300F11C20A30FC
:102CF600350CC20FC28BD2AA9001FE74F0F090017F
:102D0600A1E0600B14F070079001FBE0540FF09007
:102D1600019EE0600614F07002C233E52154236080
:102D260003022E65300E05C20E022E57A2337232F2
:102D36005003022E659001A0E02447FFE433FE9085
:102D460001FDE0FB7A00C3EF9BFFEE9AFE7C007D5F
:102D560047122838EDC394075003022E5CE024B1D5
:102D6600F582E43401F583E09001A2F0EB2401FF43
:102D7600EA33FE7C007D471228389001FDEDF0E035
:102D8600FF24B1F582E43401F583E09001A3F0EF6E
:102D96002401FFE433FE7C007D471228389001FDB4
:102DA600EDF0E0FF24B1F582E43401F583E0900113
:102DB600A4F0EF2401FFE433FE7C007D471228389F
:102DC6009001FDEDF0E0FF24B1F582E43401F583D6
:102DD600E09001A5F0EF2401FFE433FE7C007D477F
:102DE6001228389001FDEDF0E0FF24B1F582E434BD
:102DF60001F583E09001A6F0EF2401FFE433FE7CA9
:102E0600007D471228389001FDEDF0E0FF24B1F572
:102E160082E43401F583E09001A7F0EF2401FFE49A
:102E260033FE7C007D471228389001FDEDF0E0FF6F
:102E360024B1F582E43401F583E09001A8F0EF2493
:102E460001FFE433FE7C007D471228389001FDED3A
:102E5600F043212880099001A0E4F09001FDF0D014
:102E660007D006D005D004D003D002D000D0D0D0F1
:0A2E760082D083D0F0D0E0D2AF325A
:0B573B00900206EBF0A3EAF0A3E9F0F7
:10574600A37407F0C2AF050A9001A0E02447FFE466
:1057560033FE9001FDE0FDC3EF9DFFEE9400FE7C5D
:10576600007D47122838EDC394464008D50A02D278
:10577600AF7F0022900209E0FF14F0EF603990023B
:1057860006E0FBA3E475F0011228A3A9F0FA12279C
:10579600CEFF9001A0E0FE24B1F582E43401F5834A
:1057A600EFF0EE2401FFE433FE7C007D471228383B
:0E57B6009001A0EDF080BDD50A02D2AF7F01B8
:0157C40022C2
:0E6A9F00EFC4540F75F00AA4FEEF540F2EFF43
:016AAD0022C6
:066298007B017A0279414E
:10629E009000041227E7FFB4FF149000051227E7C1
:1062AE00B4FF0B9000061227E7B4FF02D322900230
:1062BE004CE06F701E9000051227E7FF90024DE034
:1062CE00B507109000061227E7FF90024EE0B507C3
:0562DE0002D322C322DF
:1066AB009000041227E7FF90024CE06F6002C322B8
:1066BB009000051227E7FF90024DE06F6002C322A6
:1066CB009000061227E7FF90024EE06F6002C32294
:0266DB00D322C8
:0B6AED00900248EFF0A3F0A3EDF022B0
:0100090022D4
:1061FA00E490023DF0A3F0A37402F0A3744BF09074
:10620A00023C7409F07F03126B1FE4FFFE126A4E10
:10621A007F02126B1F90023CE0FF14F0EF6021A393
:10622A00E475F0011228A3AFF0FE90023FE475F086
:10623A00011228A385F082F583E0FD1269C380D597
:03624A00026B09DB
:10632C00E490023DF0A3F0A37402F0A3744BF09040
:10633C00023C7409F07F01126B1F90023CE0FF14C9
:10634C00F0EF6021A3E475F0011228A3AFF0FE1268
:10635C0069D990023FE475F0011228A385F082F50B
:08636C0083EFF080D5026B09FC
:106642007F01126B1FE4FFFE1269D9BF5A03026376
:106652002C90024B745AF0A37401F0A37409F0A3B6
:1066620014F0A374FFF0A3F0A3F0A37410F0A374CA
:066672000AF01261FA2299
:1017A500C2AF050A78417C027D017B017A0179A9E6
:1017B5007E007F071227A8C230D50A02D2AF7B016F
:1017C5007A0279417D0712681430000B900244E0DB
:1017D50064046003021E31900244E0122A64184A30
:1017E500041B2D061B32071B37081B3C091B460C27
:1017F5001B460D1B460E1B460F1B53101B53111B7F
:1018050053121B53131AAC141AAC151AA9161888BF
:10181500191B111C1AAC201B41211B41221B412302
:101825001B41241B532B1B142C1B532E1AE82F1D55
:1018350021311D21321B56461B01491DE75A185BF4
:101845007300001E31200003021E31C200E4FDFFBB
:10185500126AED021E057B017A0279411266AB40E0
:1018650003021E3190024CE0900241F090024DE0DF
:10187500900242F090024EE0900243F0A37474F09F
:1018850002573B900241E0547F900259F09002428A
:10189500E0547F900258F0900243E0543F90025785
:1018A500F0900245E0543F900256F0900246E05415
:1018B5001F900255F0900247E0900254F0E0C454A6
:1018C5000FFB74FF900209F0A3F0A374F8F0A3E4F2
:1018D500F0A37403F0A37401F0E4FDFC7F30FE1265
:1018E5005AD3900254E0540FFB74FF900209F0A301
:1018F500F0A374F8F0A3E4F0A37403F0A37401F06B
:10190500E4FDFC7F40FE125AD3900255E0C4540F0B
:10191500FB74FF900209F0A3F0A374F8F0A3E4F0C0
:10192500A37403F0A37401F0E4FDFC7F60FE125A7A
:10193500D3900255E0540FFB74FF900209F0A3F019
:10194500A374F8F0A3E4F0A37403F0A37401F0E426
:10195500FDFC7F70FE125AD3900256E0C4540FFB73
:1019650074FF900209F0A3F0A374F8F0A3E4F0A3C8
:101975007403F0A37401F0E4FDFC7F90FE125AD3CA
:10198500900256E0540FFB74FF900209F0A3F0A3F8
:1019950074F8F0A3E4F0A37403F0A37401F0E4FD7C
:1019A500FC7FA0FE125AD3900257E0C4540FFB747B
:1019B500FF900209F0A3F0A374F8F0A3E4F0A37478
:1019C50003F0A37401F0E4FDFC7FF0FE125AD390FE
:1019D5000257E0540FFB74FF900209F0A3F0A374C3
:1019E500F8F0A3E4F0A37403F0A37401F0E4FDFCA4
:1019F500FF7E01125AD3900257E0C4540FFB74FFC7
:101A0500900209F0A3F0A374F8F0A3E4F0A3740323
:101A1500F0A37401F0E4FDFC7FF0FE125AD39002AE
:101A250057E0540FFB74FF900209F0A3F0A374F87C
:101A3500F0A3E4F0A37403F0A37401F0E4FDFCFF4C
:101A45007E01125AD3900258E0C4540FFB74FF90E4
:101A55000209F0A3F0A374F8F0A3E4F0A37403F073
:101A6500A37401F0E4FDFC7F207E01125AD390029D
:101A750058E0540FFB74FF900209F0A3F0A374F82B
:101A8500F0A3E4F0A37403F0A37401F0E4FDFC7F7C
:101A9500307E01125AD390025AE0640A6003021E96
:101AA50031021D1C021B4690024CE0FF900241E0F2
:101AB5006F701E90024DE0FE900242E0FFB50611E8
:101AC50090024EE0FE900243E0FDB50604D23F8051
:101AD5000A900242E0FFA3E0FDC23FE4900205F058
:101AE500023168900242E0547FFFA3E0FD90024579
:101AF500E0541FFBE4900206F00239BD12629840E3
:101B050003021E31E4FDFF7EF8025EE5021E0512AA
:101B150062984003021E31C2AF050AE4F5DAC2A994
:101B2500C28CC2AA75C72022E4FF025CA7E4FF02AB
:101B35005D19E4FF025D8BE4FF025DFDE4FF024EEB
:101B45007E900246E0FFA3E0FDE4FB025A57021E29
:101B550026900241E024F6501F7003021CC324FCAA
:101B65007003021C8A147003021C51147003021CBA
:101B75001824FB6065021CEC9001F8E070209002CF
:101B85000C04F0A37410F0A374F8F0A3E4F0A3041C
:101B9500F07BE0FA7DF07C00E4FFFE12506F9001CF
:101BA500F8E075F010A4FFAEF0900241E0FB74FF81
:101BB500900209F0A3F0A374F8F0A3E4F0A3740372
:101BC500F0A37401F07DF07C00125AD39001F8E087
:101BD50004F0B41E02E4F0021E269001F8E075F050
:101BE50010A4FFAEF074FF900209F0A3F0A374F8FF
:101BF500F0A3E4F0A37403F0A37401F07B4D7DF032
:101C05007C00125FBA9001F8E004F0B41E02E4F023
:101C1500021E269001F8E075F010A4FFAEF074FFE7
:101C2500900209F0A3F0A374F8F0A3E4F0A3740301
:101C3500F0A37401F07B527DF07C00125FBA900135
:101C4500F8E004F0B41E02E4F0021E269001F8E06C
:101C550075F010A4FFAEF074FF900209F0A3F0A395
:101C650074F8F0A3E4F0A37403F0A37401F07B53BC
:101C75007DF07C00125FBA9001F8E004F0B41E021A
:101C8500E4F0021E269001F8E075F010A4FFAEF016
:101C950074FF900209F0A3F0A374F8F0A3E4F0A395
:101CA5007403F0A37401F07B427DF07C00125FBAEF
:101CB5009001F8E004F0B41E02E4F0021E26900242
:101CC5000C7401F0A37410F0A374F8F0A3E4F0A36E
:101CD50004F07BE0FA7DF07C00E4FFFE12506FE437
:101CE5009001F8F0021E26E49001F8F090020C0431
:101CF500F0A37410F0A374F8F0A3E4F0A304F07B50
:101D0500E0FA7DF07C00E4FFFE12506F90025AE08D
:101D1500640A6003021E317F01021DE49001FFE4A5
:101D2500F0A37410F0A3E4F0A374F0F090020E7425
:101D350001F0A37402F0A37401F0A374FFF0A3747F
:101D45006BF0A37418F0A37402F074FFA3F0A3F072
:101D5500A374F8F0A3E4F0A37403F0E4A3F07B010B
:101D65007A0179FF12454B90020B7401F0A37402BE
:101D7500F0A37401F0A374FFF0A3746BF0A3741DBA
:101D8500F0A37401F074FFA3F0A3F0A374F8F0A31B
:101D9500E4F0A37403F0E4A3F07B017A0179FF1268
:101DA5004D8390020E7401F0A37402F0A37401F048
:101DB500A37401F0A37402F0A37445F0A37401F0B9
:101DC50074FFA3F0A3F0A374F8F0A3E4F0A37403E5
:101DD500F0E4A3F07B017A0179FF1238A7E4FF0252
:101DE5006AC9900245E0B40105E4FF022E80900225
:101DF50045E0B40226E4FF12601D90025C7432F0E7
:101E0500900241E090024CF0900242E090024DF0C9
:101E1500900243E090024EF00261FA900245E070B4
:0C1E25000B7F01126AC990025A740AF087
:011E3100228E
:10647800C2AF050A78417C027D017B017A0179A2CD
:106488007E007F071227A8C232D50A02D2AF7B014D
:106498007A0279417D07126814900244E024FD7065
:0C64A8000A300007E4FD7F96126AED2226
:106892003030077F287D101257C53032077F287DA0
:0D68A200201257C57D017F021260E780E3E0
:10523000900249E0605A14F0E07055A3E0600990D4
:10524000024AE014F0E0704230004590024CE090D9
:105250000241F090024DE0900242F090024EE09048
:105260000243F0A37403F090024FE0900245F090E7
:105270000250E0900246F0900251E0900247F07B2D
:10528000017A02794112573B8006900248E0A3F070
:1052900090025BE014F0704E7419F0B23D90025A27
:1052A000E0640A704174FF900209303D16F0A3F0EB
:1052B000A374F8F0A3E4F0A37403F0A37401F07BEB
:1052C0003A8014F0A3F0A374F8F0A3E4F0A37403FD
:1052D000F0A37401F07B20E4FDFC7F107E01125FDF
:1052E000BA7F01126AC990025CE0600F14F0700B83
:0B52F0007F01126AC990025A740AF094
:0152FB002290
:106854007D047F021260E7900249E060097F287D91
:0F686400801257C580EA7F287D801257C580E1DA
:10683400D2C1D2C5D2C4C29453CEBF53927F539116
:106844007FD2973097FD43CEDF43CDC053AFFD22B7
:0D003E008FCFE5CD30E7FB43CD80AFCF2263
:10678600C294D2C1D2C5D2C4D293D2CA53CEBF7597
:10679600CEC4D295D29743CDC043AF0243B5024390
:0567A600B602D29422AE
:03004B0002584D0B
:10584D00C0E0C083C082C0D075D000C000C001C010
:05585D0002C003C007BA
:10586200C2AF43CDC0203A1BAF1A051A74392FF5C7
:1058720082E43401F583E5CFF0E51A6464703DF506
:105882001A8039900138E0602D900138E014F090D0
:105892000136E004F0900138E0601B90011EE0FB4D
:1058A200A3E0FAA3E0F9900136E0F58275830012D5
:0E58B20027E7F5CF8006D238C23AD293D2AFA4
:1058C000D007D003D002D001D000D0D0D082D08376
:0358D000D0E032F3
:02629100C13E0C
:10652A009000007400F0A37409F0E4A3F0A3F0A3B0
:10653A00F0A3F0A3F0A3F075985053890F43892074
:10654A00758BF6858B8D53877F438E40C28FD28E93
:09655A00C298C299D29CD2AC2275
:030023000242E3B3
:1042E300C2AFC0E0C0F0C083C082C0D075D000C0F0
:0742F30000C004C005C00774
:1042FA002098030243F5C298AF99900003E0700238
:10430A00A3E0600C900008E070069000020243CC23
:10431A009000087405F0900003E475F0011228A3D8
:10432A00FC740925F0F58274003CF583EFF09000E7
:10433A0002E014602A14603F1470030243D024037D
:10434A0060030243ECEFB45A0F9000027401F0903C
:10435A0000077406F00243F5900003E40243F2906A
:10436A000007E014F060030243F59000027402F0C3
:10437A0090000704F08074900007E014F0E0FDB4A8
:10438A00010AEF900005F0A3E4F0805FED705CEFA6
:10439A00FD900006E02DF0900005E03400F0D3A374
:1043AA00E09480900005E09400900002501374039A
:1043BA00F0900006E02402F0900005E03400F0805E
:1043CA002AE4F0A3802290000574FFF5F012288DEC
:1043DA0045F07017EFB41602D23E900002E4F0A343
:0B43EA008006900002E4F0A3F0A3F0B6
:1043F500D007D005D004D000D0D0D082D083D0F063
:05440500D0E0D2AF324F
:0B608400900362EBF0A3EAF0A3E9F048
:10608F00E4FDE92401F9E43AFAA3EBF0A3EAF0A363
:10609F00E9F0900362E0FBA3E0FAA3E0F9900008B7
:1060AF001228E42409FEE435F0900368F0A3CEF043
:1060BF0090036874FFF5F01228A345F06017900362
:1060CF0065E0FBA3E475F0011228A3A9F0FA1227EB
:0760DF00CE2DFD80DBAF05B3
:0160E6002297
:0B5B4600900206EBF0A3EAF0A3E9F0E8
:105B5100E4FDE92401F9E43AFAA3EBF0A3EAF0A3A6
:105B6100E9F0900206E0FBA3E0FAA3E0F990000857
:105B71001228E42409FEE435F090020CF0A3CEF0E3
:105B810090020C74FFF5F01228A345F06017900203
:105B910009E0FBA3E475F0011228A3A9F0FA12278A
:105BA100CE2DFD80DB900209E0FBA3E0FAA3E0F932
:0B5BB1001227CE6D60037F00227F01F1
:015BBC0022C6
:100E1000C23E90024CE0900241F090024DE0900200
:100E200042F090024EE0900243F07B017A00790993
:100E30009001FFEBF0A3EAF0A3E9F0900004122781
:100E4000E7FF90024CE06F60030217A49001FFE0FF
:100E5000FBA3E0FAA3E0F99000051227E7FF900258
:100E60004DE06F60030217A49000061227E7FF9081
:100E7000024EE06F60030217A4125B46EF700F9002
:100E800002447481F07B017A02794102573B90025F
:100E9000447402F09001FFE0FBA3E0FAA3E0F990B4
:100EA00000071227E7900245F07B017A0279411290
:100EB000573B900012E0D3940550030217A4900012
:100EC00014E0640360030217A4785D7C027D017B5B
:100ED000017A007918FE7F111227A87B017A027926
:100EE0005D90020B7411F07F007E05125BBD9002D5
:100EF00002E4F0A37478F0A3E4F0A37448F0900245
:100F00000CE4F0A37460F0A374F8F0A3E4F0A3047D
:100F1000F07B9C7A007D487C007F787E0012506FC9
:100F2000900264E0FF75F0648490026EF0EF75F05B
:100F30006484AFF0A3EFF075F00A84A3E5F0F090BD
