:0610DD0075E7828FE52299
:08000300E4F5E7F5E5F5E6225E
:10106200AB07AA068DE28AE38BE475E64675E6B91C
:01107200225B
:10107300AD07AC068CE38DE475E64675E6B9AFE2E1
:01108300224A
:0F10A500AD07AC068CE38DE475E64675E6B9221F
:10050700D290D291D292D293D294C290000020B0CE
:10051700037F032220B1037F022220B2037F01223F
:1005270020B5037F132220B7037F0E22D290C291FA
:10053700000020B0037F062220B1037F052220B2EE
:10054700037F042220B5037F142220B7037F0F22E5
:10055700D291C292000020B0037F092220B1037F0D
:10056700082220B2037F072220B5037F162220B777
:10057700037F1122D292C293000020B0037F0B2287
:1005870020B1037F002220B2037F0A2220B5037F18
:10059700152220B7037F1022D293C294000020B007
:1005A700037F0D2220B1037F182220B2037F0C2284
:1005B70020B5037F172220B7037F1222D2947FFF33
:0105C7002211
:100AFB00D2B0D2B1D2B2D2B5D2B77D047F02120935
:100B0B00E91205078F3CE53CF460EF7D047F021290
:100B1B0009E9120507EFB53CE17F3DE53C4460FD7B
:100B2B00120811120507EFB53C097D047F0212096B
:0F0B3B00E980F07F3DE53C4480FD12081180BB4E
:100F4100900092EFF0E4A3F0A3F0A37446F0A37431
:0F0F5100FFF0A3F0A3F07B017A0079920209125E
:100F6000900092EFF0E4A3F0A3F0A37447F0A37411
:0F0F7000FFF0A3F0A3F07B017A0079920209123F
:040F2100023AB400DC
:100EDF0075985053890F438920758BF6858B8D53E9
:100EEF00877F438E40C28FD28EC298C299D29CD236
:020EFF00AC2223
:100F0100C2ACE4FFEFC39D5014120456F599309919
:0F0F1100FDC299740129F9E43AFA0F80E7D2ACD6
:010F200022AE
:100E4A0075D902E4F5D8F5E9F5F9853BEAE53AF50D
:100E5A00FA75DA49D2AED2DE120986120D847521EC
:080E6A0001E4FD7F320210C219
:0710D6007D3DE4FB0206670B
:100D50008F34E53454E024C0601324E0601224E0B2
:100D6000601624E0601A248070190205C8020DEA9A
:100D7000E534541FFF020F41E534541FFF020F609A
:040D8000120B4A22E6
:100CDF00120E4A7F3D7D10120D197C0F7DBDE4FB76
:100CEF00FA7F01120C687C0A7DFBE4FBFA7F02128B
:100CFF000C687C0F7D7FE4FBFA7F03120C687F3951
:0A0D0F001210D6AF39120D5080F417
:10104F001210847C0C7DDFE4FBFAFF120C684387DF
:03105F000180FB12
:0300230002000ECA
:03000E00C2AC324F
:100F2500012000012200011A00011900011C000125
:0B0F35000A00010800011E0001090075
:100D840043B10853B2F743B11043B210D2B4D2B353
:100D94005389F0438901758A67758CFFC28D538E20
:100DA4007FD2A9D28C751FE6D28A30B303D2AA228D
:030DB400D2072241
:030013000210B424
:0E10B400C2AFC2AAD200C202751A00D2AF3279
:03000B00020036BA
:10003600C2AFC0E0C0F0C083C082C0D075D000C0DF
:1000460000C002C003C004C005C006C007C28C754C
:100056008CFF758A67D28CA2B3921530003074106B
:10006600251AF51A54F06450600302012FC200F5F8
:100076001A30151520060A3005075320C3D206D2BA
:10008600B4751FF0751C008071D20102012F20018A
:100096000302012F7410251AF51A54F064A06003A8
:1000A60002012F531A0F051AE51A540FFF640A703E
:1000B60063C20130154AE51C54F024FF301101B328
:1000C6004008750A00531C0F802D750AE6E51CC40E
:1000D600540F2412F8A61D7410251CF51C54F0C3E9
:1000E60094704013531C0F300503300302D2107571
:1000F6000A0075080AD213751FF0C28BD2AA80298E
:10010600D20720060A3005075320C3D206D2B4759B
:100116001C008015BF0906A2159211800CE51DC3AF
:1001260013F51D301503431D80E520540C640C7037
:1001360026301518C2B4C214F5195320F3E51C5421
:100146000F240BF8E6F51BD2040201F15320C3D2AB
:1001560006531CF00201EC2004030201F1A2143044
:100166001501B3407974102519F51954F064A0707F
:100176007A53190F0519E519540FFFBF090FE51C2E
:10018600540F24FFB39214A21492B4805EBF0A06E1
:10019600D214D2B48055E519540F640B7029C204E9
:1001A600051CE51C540FC394074011531CF0532043
:1001B600C3751FF043220C75080A8005751F0AD205
:1001C60003C28BD2AA8024E51B30E006D214D2B437
:1001D6008004C214C2B4E51BC313F51B800D532063
:1001E600C3531CF0D206D2B4751FF0E52054037039
:1001F6001AE51F6005D51F02D20230070EC2023073
:100206001509C207C28BD2AA751FF0E50A6006D58A
:100216000A03531C0FE5086005D50802C213E52042
:1002260054236003020345300605C20602033AA2C0
:100236001372125003020345E509248DFFE433FED1
:10024600E51EFB7A00C3EF9BFFEE9AFE7C007D8DD8
:1002560012049CEDC39407500302033F7400251E4D
:10026600F582E43400F583E0F50BEB2401FFEA3375
:10027600FE7C007D8D12049C8D1E7400251EF58269
:10028600E43400F583E0F50CE51E2401FFE433FEBB
:100296007C007D8D12049C8D1E7400251EF582E463
:1002A6003400F583E0F50DE51E2401FFE433FE7C02
:1002B600007D8D12049C8D1E7400251EF582E4348B
:1002C60000F583E0F50EE51E2401FFE433FE7C0015
:1002D6007D8D12049C8D1E7400251EF582E434006B
:1002E600F583E0F50FE51E2401FFE433FE7C007D77
:1002F6008D12049C8D1E7400251EF582E43400F5D3
:1003060083E0F510E51E2401FFE433FE7C007D8DBD
:1003160012049C8D1E7400251EF582E43400F583BC
:10032600E0F511E51E2401FFE433FE7C007D8D120D
:10033600049C8D1E4320288006750900751E00D07A
:1003460007D006D005D004D003D002D000D0D0D03C
:0A03560082D083D0F0D0E0D2AF32A5
:060912008B358A3689379F
:10091800753807C2AF0525E509248DFFE433FEC30A
:10092800EF951EFFEE9400FE7C007D8D12049CED79
:10093800C3948C4008D52502D2AF7F0022AF38156A
:1009480038EF6032AB350537E537AA367002053621
:1009580014F9120456FF74002509F582E43400F5F1
:1009680083EFF0E5092401FFE433FE7C007D8D125E
:0D097800049C8D0980C7D52502D2AF7F01F8
:01098500224F
:100CA40090000412046FFFF4600990009DE06F60EF
:100CB40002C32290000512046FFFF4600990009EA5
:100CC400E06F6002C32290000612046FFFF4600913
:0B0CD40090009FE06F6002C322D3225B
:0B10C200900099EFF0A3F0A3EDF022E6
:100AA400E490008DF0A3F09000907400F0A3749C87
:100AB400F090008F7409F07F031210DDE4FFFE1242
:100AC40010A57F021210DD90008FE0FF14F0EF609C
:100AD4002390008DE475F0011204F1AFF0FE900054
:100AE40090E475F0011204F185F082F583E0FD12C3
:070AF400106280D302000331
:100B9700E490008DF0A3F09000907400F0A3749C93
:100BA700F090008F7409F07F011210DD90008FE044
:100BB700FF14F0EF602390008DE475F0011204F14B
:100BC700AFF0FE121073900090E475F0011204F17B
:0C0BD70085F082F583EFF080D30200036C
:100986007F011210DDE4FFFE121073BF5A03020B43
:100996009790009C745AF0902000E49390009DF08C
:1009A600902001E49390009EF0902002E493900042
:1009B6009FF0902003E4939000A0F0902004E4932D
:1009C6009000A1F0902005E4939000A2F0902006FC
:1009D600E4939000A3F0902007E4939000A4F01213
:0309E6000AA4223E
:1005C800C2AF052578927C007D017B007A00791204
:1005D8007E007F07120430C210D52502D2AF300842
:1005E80008900095E064047075900095E014602E02
:1005F80024D5604F24287066300863C208900092A2
:10060800E090009DF0900093E090009EF0900094A0
:10061800E090009FF0120AA4E4FDFF0210C29000CF
:100628009DE0900092F090009EE0900093F0900082
:100638009FE0900094F0A37402F07B017A00799215
:100648000209127B017A007992120CA45010C2AFF1
:0F0658000525E4F5DAC2A9C28CC2AA75E72022F3
:100DEA00C2AF052578927C007D017B007A00790BE1
:100DFA007E007F07120430C212D52502D2AF9000BE
:100E0A0095E024FD700A300807E4FD7F961210C2AF
:010E1A0022B5
:100FBD003010077F3D7D201208113012077F3D7DD7
:0D0FCD00401208117D017F021209E980E346
:100B4A0090009AE0604614F0E07041A3E07005302E
:100B5A00083A800C90009BE014F0E0702F30082CCB
:100B6A0090009DE0900092F090009EE0900093F03B
:100B7A0090009FE0900094F0A37403F0E4A3F0A324
:0D0B8A00F0A3F07B017A007992120912228B
:100F7F007D047F021209E990009AE060097F3D7DB0
:0F0F8F00A012081180EA7F3D7DA012081180E1B9
:08200000010203FFFFFF100BBA
:0910CD000102040810204080001B
:10108400E4F524F52CF525752604F52BF52302103B
:0110940095C6
:100C6800A907AF05AE04E9C39404502DC2AF05250A
:100C7800E99010CD93552C60037F0022E99010CDA8
:100C880093422C4224AD03AC02AB01120896121019
:0C0C98003BD52502D2AF7F01227F002255
:100FDA00EFC394045010C2AF0525EF9010CD934291
:090FEA0024D52502D2AF02103B10
:100FF300EFC394045011C2AF0525EF9010CD93F4C5
:081003005224D52502D2AF22D0
:0C00260074272FF8E4F6120FF302103BD1
:10100B00E524552CFFE4F52BEF20E00BEFC313FF8A
:07101B00052BE52BB404F1E5
:0110220022AB
:100E9800C2AF0525E523D3940040021523E523704E
:100EA8000BF52512100B120E1B7F0122D52502D23D
:040EB800AF7F0022E6
:10103B00C2AF0525E523700612100B120016D5253D
:04104B0002D2AF22FC
:100F9E00E4FF74272FF8E6600F1674272FF8E6701B
:0F0FAE0007EF9010CD9342240FBF04E602103BD3
:100EBC0074272526F8A607C2AF052574272526F822
:100ECC00E6600AAF26120FF312103B80EED5250216
:030EDC00D2AF2270
:1009E90074272526F8A605EF24FE600F1460192444
:1009F900027041AF261200267F042274272526F8AB
:100A0900E6FF120EBC7F0822C2AF052574272526F2
:100A1900F8E670037F0822AF26120FF312103BD5B8
:100A29002502D2AF74272526F8E66005E4F67F048F
:0E0A3900227F082274272526F8E4F67FFF228C
:100D1900C2AF0525EDC394054025EF6022F8E4F63E
:100D2900E804F8A605EF2402F87604EF2403F8E4B2
:100D3900F6EF2404F8E4F6D52502D2AF7F0122D5D7
:070D49002502D2AF7FFF225B
:10066700C2AF052574272526F8A6030581AE81A804
:1006770006A607ED2403F9E5269010CD9347F7A8C2
:1006870005E670200581AF81A807A605AF26120FE2
:10069700F312103BAF81A807E6FD158174272526C5
:1006A700F8E670DBED2403F9E5269010CD93F457B7
:1006B700F7A805E6D39400402F16E82402F806EDC4
:1006C70004F9ED2402F8E6C39740027604AF81A847
:1006D70007E6FF1581ED2402F8E62DF8E6A807F6F0
:1006E700D52502D2AF7F01221581D52502D2AF7F52
:0106F7000200
:0106F80022DF
:02081100AE0730
:10081300C2AF0525EE04F8E624FCFFA806E6C39F55
:1008230050690581AF81A807A605A806A900E82499
:1008330002F8E62704FDEE04F8E6FFEDC39F40054A
:10084300ED9F2404FDAF81A807E6FFEE2DF8A60770
:100853001581A80606E664017029E82403F8E6FD7D
:10086300E4FFED20E008EDC313FD0FBF04F4EFC375
:100873009404500FEE2403F9EF9010CD93F457F73F
:10088300120FDAD52502D2AF7F0122D52502D2AFCE
:020893007F08DC
:010895002240
:0F109500E4FF742D2FF8764D0FBF05F6E4F5320A
:0110A4002229
:100BE300742D2FF8E6FE742E2FF8E6FDAC06C39C99
:100BF300FCEF04FFEFD39526500EECF404FB742DA9
:100C03002FF8EB26F60F80ECC3E5819D04FFAB05BF
:100C13000DA803E6AA060EA802F6DFF2C3E5819C3F
:020C2300F58159
:010C250022AC
:100C2600742D2FF8E6FEFD742E2FF8E6FC742E25A3
:100C360026F8E6FBC3EE9BFE600EAB050DA803E6A9
:100C4600AA040CA802F6DEF2AE05C3EC9EFDE5266C
:100C560004FEEED39F500A742D2EF8ED26F60E8074
:010C6600F19C
:010C6700226A
:10102300742D2FF8E6FD7FF90DF8A6077406A805C1
:08103300F6AF058F8102100BDE
:100E72007E01EFB526030E8008EFC395265002E4EB
:100E8200FEEE14600A14600A24027009020BE302E7
:050E92000C26121023E4
:010E97002238
:03003300020A4777
:100A4700C2AFC0E0C0F0C083C082C0D075D000C0C4
:100A570000C001C002C003C004C005C006C007E44F
:100A6700253BF53B74B4353AF53A853BEAE53AF56B
:100A7700FAC2D875E13A0523D2AF120F9E120E982B
:100A8700D007D006D005D004D003D002D001D000C3
:0D0A9700D0D0D082D083D0F0D0E0D2AF32EA
:10089600C006C007EB9010CD934233EBC3952650AC
:1008A6002EC3E5269BFA742E2BF9740327F709DA73
:1008B600F9A88174032581F581742E2BF98707C366
:1008C600E5819FFA0AA981E6F71819DAFA802C74ED
:1008D6002E2526F8C3EB9526FA74FD26F608DAF9D6
:1008E600742E2526F8E6F9E924FDFF742D2BF8E68B
:1008F600C39FFAA807E7F60809DAFA742D2BF8E67B
:0C090600F9D0E0F709D0E0F709E4F7228F
:100DB700D025E526B4040280229010CD93553370D8
:100DC7001AD007D006D005D004D003D002D001D066
:100DD70000D0D0D082D083D0F0D0E00525D5250231
:030DE700D2AF2266
:0D001600C0259010CDE5269342330206F977
:1006F900AA81A88108742E252BF9E7FF742E2526D7
:10070900F9E7F9E52BD395264033EFC399FEE7F6D0
:100719000809DEFA742E2526F9E7D39AFF1888818D
:10072900E52BC39526FE600F742D2526F9EFF404F9
:10073900FF09EF27F7DEFA852B26020DB7E52B65B2
:10074900266036E8C39FFE1819E6F7DEFA742E25EF
:1007590026F9E7D39AFF742E252BF9E7F581E526CB
:10076900C3952B600CFE742D252BF909EF27F7DEB5
:0C077900FA852B261581020DB7020DB782
:100E1B0074046526700F74EF2581F5817416C0E09C
:100E2B007400C0E03274FC2581F5819010CDE5266D
:0F0E3B0093F45233C02574F9C0E07406C0E0325E
:030000000207856F
:0C078500787FE4F6D8FD75814C0207CCAB
:10036000E709F608DFFA8046E709F208DFFA803E7F
:1003700088828C83E709F0A3DFFA8032E309F6086C
:10038000DFFA8078E309F208DFFA807088828C83D4
:10039000E309F0A3DFFA806489828A83E0A3F60888
:1003A000DFFA805889828A83E0A3F208DFFA804C62
:1003B00080D280FA80C680D4806980F28033801039
:1003C00080A680EA809A80A880DA80E280CA8033A2
:1003D00089828A83ECFAE493A3C8C582C8CCC5831A
:1003E000CCF0A3C8C582C8CCC583CCDFE9DEE780EA
:1003F0000D89828A83E493A3F608DFF9ECFAA9F069
:10040000EDFB2289828A83ECFAE0A3C8C582C8CCBE
:10041000C583CCF0A3C8C582C8CCC583CCDFEADED7
:10042000E880DB89828A83E493A3F208DFF980CC39
:1004300088F0EF60010E4E60C388F0ED2402B40432
:100440000050B9F582EB2402B4040050AF232345D9
:0604500082239003B0734B
:10045600BB010689828A83E0225002E722BBFE02A4
:09046600E32289828A83E49322D7
:10046F00BB010CE58229F582E5833AF583E0225042
:10047F0006E92582F8E622BBFE06E92582F8E2228C
:0D048F00E58229F582E5833AF583E49322A6
:10049C00BC000BBE0029EF8DF084FFADF022E4CC44
:1004AC00F875F008EF2FFFEE33FEEC33FCEE9DEC0D
:1004BC00984005FCEE9DFE0FD5F0E9E4CEFD22ED53
:1004CC00F8F5F0EE8420D21CFEADF075F008EF2F9D
:1004DC00FFED33FD4007985006D5F0F222C398FD8E
:0504EC000FD5F0EA222B
:1004F100A3F8E0C5F025F0F0E582158270021583BE
:06050100E0C838F0E8221A
:1007910002104FE493A3F8E493A34003F68001F21F
:1007A10008DFF48029E493A3F85407240CC8C33369
:1007B100C4540F4420C8834004F456800146F6DF38
:1007C100E4800B0102040810204080900F21E47E98
:1007D100019360BCA3FF543F30E509541FFEE4932D
:1007E100A360010ECF54C025E060A840B8E493A3F4
:1007F100FAE493A3F8E493A3C8C582C8CAC583CA1F
:10080100F0A3C8C582C8CAC583CADFE9DEE780BED6
:010F400000B0
:00000001FF
