:1022FC00EF1FAA0670011E4A6014E4FCFDC3ED94A6
:0E230C0020EC940350EA000DBD00010C80EFA0
:01231A0022A0
:10233800EF1FAC0670011E4C600E0000000000008C
:0923480000000000000080E82202
:0422DA007F147E00EF
:1022DE00D3EF9400EE940040147D847C03ED1D70CA
:0D22EE00011CED4C70F7EF1F70E61E80E341
:0122FB0022C0
:10231B00D3EF9400EE940040130000000000000087
:0D232B000000000000EF1F70E71E80E4229C
:0100090022D4
:1019A40075BB7075B23075B10875B442E4F5B375A2
:1019B400CA0CF5C975C13AD209D20AD20BD20CD2DB
:1019C4000DD20ED20FD210D211D212D213D214D2FF
:1019D40015D216D200C201C203F50AF50BF508F5BB
:1019E4000EF50FF510F50DC204C2B443B28053B125
:0F19F4007FF511900040F0A3F0750CFFD2AF22E9
:03000300020006F2
:03000600C2A8325B
:03000B000223A12C
:1023A100C2AF050D300404B2B48002C2B4D2AF3260
:03001B000215A526
:1015A500C0E0C0F0C083C082C0D075D000C000C00C
:1015B50001C002C003C004C005C006C007C2AFC257
:1015C5008E758D10758B00C28FD28E75C13A05113F
:1015D500E511C394194021751100900040E0700297
:1015E500A3E0601490004074FFF5F012222B45F043
:1015F50070061223BD1221A7D2AFD007D006D005A1
:10160500D004D003D002D001D000D0D0D082D08376
:05161500D0F0D0E0322E
:0300230002001EBA
:03001E00C2AC323F
:10237D00759850759CF6438E15C298C299C29CC231
:02238D00AC2280
:102351005389F0438902758A10858A8C438E80C225
:062361008DC28CD2A922FE
:1023670053890F438910758D10E4F58B538EBFD2B7
:06237700ABC28FD28E22E2
:10226D00C2AFC2ACC299EDD394004014122212F544
:10227D00993099FDC299740129F9E43AFA1D80E665
:05228D00C2ACD2AF223B
:10238F00C2AFC2ACC2998F993099FDC299C2ACD27B
:02239F00AF226B
:1010A1001200091219A412235112236712237D126F
:1010B100161A1223BA7FD07E071222DE12205D1289
:1010C1002292900040E4F0A3741EF0120EACE50CE5
:1010D100F460F8E50C54F060030211E6900040E082
:1010E1007002A3E0701ED200C201C203F50AF50B23
:1010F100F508F50EF50FF51012205D12229212235C
:10110100BA0211DDE50C24F6500B601514700302D0
:1011110011C40211DD850F0E85100F850C1002110F
:10112100DA300023E50F75F00AA4FFE50E75F064CF
:10113100A42F2510F50AC200D201E4F50EF50FF532
:10114100101220A10211DA300122E50F75F00AA474
:10115100FFE50E75F064A42F2510F50BC201D20333
:10116100E4F50EF50FF5101220E5806D30036DE505
:101171000F75F00AA4FFE50E75F064A42F2510F594
:1011810008C203D200E4F50EF50FF5107F05121A1F
:10119100C1AF0A121AC1AF0B121AC1AF08121AC19C
:1011A1007F5A121AC1751205E50A2512F512250B8F
:1011B100F5122508F512245AF512FF121AC1122050
:1011C1005D8016D200C201C203E4F50AF50BF508F1
:1011D100F50EF50FF51012205D122292900040E4F9
:1011E100F0A3741EF0AF0C12238F750CFF0210CC0C
:101AC100751340D204E4F50DD28CE50DC395134096
:101AD100F9C28C858C8AE4FEEF30E004D2048002E6
:101AE100C204E4F50DD28CE50DC3951340F9C28C07
:101AF100858C8AEFC313FF0EBE08DDC2B475134097
:101B0100C204E4F50DD28CE50DC3951340F9C28CE6
:071B1100858C8AC2B4C204F6
:011B180022AA
:100EAC00300903020FA6C290D291D29220151030B5
:100EBC00930D1222DA309307D209D215E4F50C20E7
:100ECC000B1030940D1222DA309407D209D20B7524
:100EDC000C01200C1030950D1222DA309507D20936
:100EEC00D20C750C02200D1030960D1222DA3096B1
:100EFC0007D209D20D750C03D290C291200E10307E
:100F0C00930D1222DA309307D209D20E750C0420FD
:100F1C000F1030940D1222DA309407D209D20F75CB
:100F2C000C0520101030950D1222DA309507D209DD
:100F3C00D210750C0620111030960D1222DA309654
:100F4C0007D209D211750C07D291C292201210301F
:100F5C00930D1222DA309307D209D212750C0820A5
:100F6C00131030940D1222DA309407D209D2137573
:100F7C000C0920141030950D1222DA309507D20985
:100F8C00D214750C0A20161030960D1222DA3096F7
:100F9C0007D209D216750C0BD2922009030210A0AD
:100FAC00C290D291D29230151020930D1222DA20D9
:100FBC009307C209C215750C10300B1020940D123A
:100FCC0022DA209407C209C20B750C11300C1020C8
:100FDC00950D1222DA209507C209C20C750C12303D
:100FEC000D1020960D1222DA209607C209C20D753B
:100FFC000C13D290C291300E1020930D1222DA20D5
:10100C009307C209C20E750C14300F1020940D12E8
:10101C0022DA209407C209C20F750C15301010206B
:10102C00950D1222DA209507C209C210750C1630E4
:10103C00111020960D1222DA209607C209C21175E2
:10104C000C17D291C29230121020930D1222DA207A
:10105C009307C209C212750C1830131020940D128C
:10106C0022DA209407C209C213750C19301410200F
:10107C00950D1222DA209507C209C214750C1A308C
:10108C00161020960D1222DA209607C209C2167588
:05109C000C1BD29222A2
:0323BA00C2B52287
:0323BD00D2B52274
:0F21DD0074002534F582E43400F583E0FF7D01C2
:1021EC00ED7004C2C68002D2C68F80D2CB7F017E36
:1021FC0000122338C2CA7F017E00122338D2CA7F54
:06220C00017E00022338F0
:0923B100EF24B0FFE4FD0221EC71
:10161A00C2C6D2CBD2CAC2C1C2B57F017E001222D3
:10162A00FCD2C1E4FD7FE21221ECE4FD7FAE12217F
:10163A00ECE4FD7FA31221ECE4FD7FC81221ECE467
:10164A00FD7FA01221ECE4FD7FA61221ECE4FD7FD0
:10165A002C1221ECE4FD7F2F1221ECE4FD7F811294
:10166A0021ECE4FD7F181221ECE4FDFF1221ECE4E9
:10167A00FD7F201221ECE4FD7FAF1221EC02216CE8
:0211F1008D3639
:1011F300EFB40E0040030212C7901203F8282873BD
:1012030002122D02123902124502125002125B021F
:10121300126602127102127C0212870212920212E9
:101223009D0212A80212B30212BE7538FF7539006F
:10123300753A260212C77538FF753900753A3602BA
:1012430012C77538FF753900753A4680777538FFD0
:10125300753900753A56806C7538FF753900753AE3
:101263006680617538FF753900753A768056753832
:10127300FF753900753A86804B7538FF75390075EF
:101283003A9680407538FF753900753AA6803575F2
:1012930038FF753900753AB6802A7538FF753900FD
:1012A300753AC6801F7538FF753900753AD68014B4
:1012B3007538FF753900753AE680097538FF753959
:1012C30000753AF6E536702CF537AB38AA39A93AEA
:1012D300122212FF74002537F582E43400F583EF00
:1012E300F07401253AF53AE43539F5390537E53730
:1012F300B410D722E4F537AB38AA39A93A1222122F
:10130300F4FF74002537F582E43400F583EFF074BD
:1013130001253AF53AE43539F5390537E537B4109F
:01132300D6F3
:0113240022A6
:020A06008D372A
:100A0800EF14B448004003020E4A900A2075F00320
:100A1800A4C58325F0C58373020AF8020B04020BF0
:100A280010020B1C020B28020B34020B40020B4C69
:100A3800020B58020B64020B70020B7C020B88023B
:100A48000B94020BA0020BAC020BB8020BC4020BF6
:100A5800D0020BDC020BE8020BF4020C00020C0CB7
:100A6800020C18020C24020C30020C3C020C480246
:100A78000C54020C60020C6C020C78020C84020C00
:100A880090020C9C020CA8020CB4020CC0020CCC04
:100A9800020CD8020CE4020CF0020CFC020D080255
:100AA8000D14020D20020D2C020D38020D44020D0A
:100AB80050020D5C020D68020D74020D80020D8C4F
:100AC800020D98020DA4020DB0020DBC020DC80261
:100AD8000DD3020DDE020DE9020DF4020DFF020E28
:100AE8000A020E15020E20020E2B020E36020E41CD
:100AF8007539FF753A01753B06020E4A7539FF755F
:100B08003A01753B26020E4A7539FF753A01753B65
:100B180046020E4A7539FF753A01753B66020E4A60
:100B28007539FF753A01753B86020E4A7539FF75AE
:100B38003A01753BA6020E4A7539FF753A01753BB5
:100B4800C6020E4A7539FF753A01753BE6020E4A30
:100B58007539FF753A02753B06020E4A7539FF75FD
:100B68003A02753B26020E4A7539FF753A02753B03
:100B780046020E4A7539FF753A02753B66020E4AFF
:100B88007539FF753A02753B86020E4A7539FF754D
:100B98003A02753BA6020E4A7539FF753A02753B53
:100BA800C6020E4A7539FF753A02753BE6020E4ACF
:100BB8007539FF753A03753B06020E4A7539FF759C
:100BC8003A03753B26020E4A7539FF753A03753BA1
:100BD80046020E4A7539FF753A03753B66020E4A9E
:100BE8007539FF753A03753B86020E4A7539FF75EC
:100BF8003A03753BA6020E4A7539FF753A03753BF1
:100C0800C6020E4A7539FF753A03753BE6020E4A6D
:100C18007539FF753A04753B06020E4A7539FF753A
:100C28003A04753B26020E4A7539FF753A04753B3E
:100C380046020E4A7539FF753A04753B66020E4A3C
:100C48007539FF753A04753B86020E4A7539FF758A
:100C58003A04753BA6020E4A7539FF753A04753B8E
:100C6800C6020E4A7539FF753A04753BE6020E4A0C
:100C78007539FF753A05753B06020E4A7539FF75D9
:100C88003A05753B26020E4A7539FF753A05753BDC
:100C980046020E4A7539FF753A05753B66020E4ADB
:100CA8007539FF753A05753B86020E4A7539FF7529
:100CB8003A05753BA6020E4A7539FF753A05753B2C
:100CC800C6020E4A7539FF753A05753BE6020E4AAB
:100CD8007539FF753A06753B06020E4A7539FF7578
:100CE8003A06753B26020E4A7539FF753A06753B7A
:100CF80046020E4A7539FF753A06753B66020E4A7A
:100D08007539FF753A06753B86020E4A7539FF75C7
:100D18003A06753BA6020E4A7539FF753A06753BC9
:100D2800C6020E4A7539FF753A06753BE6020E4A49
:100D38007539FF753A07753B06020E4A7539FF7516
:100D48003A07753B26020E4A7539FF753A07753B17
:100D580046020E4A7539FF753A07753B66020E4A18
:100D68007539FF753A07753B86020E4A7539FF7566
:100D78003A07753BA6020E4A7539FF753A07753B67
:100D8800C6020E4A7539FF753A07753BE6020E4AE8
:100D98007539FF753A08753B06020E4A7539FF75B5
:100DA8003A08753B26020E4A7539FF753A08753BB5
:100DB80046020E4A7539FF753A08753B66020E4AB7
:100DC8007539FF753A08753B8680777539FF753A2E
:100DD80008753BA6806C7539FF753A08753BC68067
:100DE800617539FF753A08753BE680567539FF75A8
:100DF8003A09753B06804B7539FF753A09753B26EC
:100E080080407539FF753A09753B4680357539FF5D
:100E1800753A09753B66802A7539FF753A09753B3D
:100E280086801F7539FF753A09753BA68014753998
:100E3800FF753A09753BC680097539FF753A09751A
:100E48003BE6E537702EF538AB39AA3AA93B1222B2
:100E580012F53C74002538F582E43400F583E53C4E
:100E6800F07401253BF53BE4353AF53A0538E538A9
:100E7800B420D522E4F538AB39AA3AA93B1222129C
:100E8800F53CF4FF74002538F582E43400F583EF6F
:100E9800F07401253BF53BE4353AF53A0538E53879
:030EA800B420D49F
:010EAB002224
:091325007533017D087B0A7F018C
:06132E008F308D31AF038A
:101334008F35E535C394305005AD331211F1E535E1
:10134400B43017E4F53474002534F582E43400F540
:1013540083E4F00534E534B410ECE535B43118E435
:10136400F53474002534F582E43400F58374FFF019
:101374000534E534B410EBE4FD7F401221ECAF30CA
:101384001223B1853135E531C4540FF53153310F92
:1013940074102531F531E4FDAF311221EC8535317E
:1013A40053310FE4FDAF311221ECE4F5341221DDA9
:1013B4000534E534C3940840F4E4FD7F401221EC85
:1013C400E53004FF1223B1853531E531C4540FF5FE
:1013D4003153310F74102531F531E4FDAF31122151
:1013E400EC85353153310FE4FDAF311221EC753406
:0D13F400081221DD0534E534C3941040F4E7
:0114010022C8
:041402007D487F01A1
:061406008F318D32AE03B0
:10140C008E36EE600AF46007AD34AF36120A06EE83
:10141C007016F53574002535F582E43400F583E457
:10142C00F00535E535B420ECBEFF18E4F535740055
:10143C002535F582E43400F58374FFF00535E53588
:10144C00B420EBE4FD7F401221ECAF311223B185C7
:10145C003236E532C4540FF53253320F7410253244
:10146C00F532E4FDAF321221EC85363253320FE403
:10147C00FDAF321221ECE4F535740025351221E173
:10148C000535E535C3941040F0E4FD7F401221ECA6
:10149C00E53104FF1223B1853632E532C4540FF521
:1014AC003253320F74102532F532E4FDAF32122173
:1014BC00EC85363253320FE4FDAF321221EC753528
:1014CC0010740025351221E10535E535C394204013
:0114DC00F01F
:0114DD0022EC
:1021A700E4F530E530C454F0FDE4F534FBFF1214D8
:1021B700060530E530C3940840E9E4F530E530C45E
:1021C70054F0FDE4F534FB7F021214060530E530C8
:0521D700C3940840E87C
:0121DC0022E0
:042241008F148D1554
:10224500E5157004F51780037517FFE4F516E51617
:10225500C454F0FD851534AB17AF141214060516DA
:07226500E516C3940840E7F1
:01226C00224F
:10216C001221A7E4F5347B097D187F01121406E4D3
:10217C00F5347B0A7D287F01121406E4F5347B0BC1
:10218C007D387F01121406E4F5347B0C121402E442
:0B219C00F5347B0D7D587F0102140616
:102129001221A77533017B017D187F0112132E75CA
:1021390033017D2012132A7534017B117D287F011B
:102149001214067534017B127D387F01121406754D
:1021590034017B061214027534017B077D587F0117
:0321690002140657
:101F8A001221A77533017B027D187F0112132E756A
:101F9A0033017B0A7D207F0112132E7534017B0FDA
:101FAA007D287F011214067534017B107D387F016C
:101FBA001214067534017B171214027534017B184A
:071FCA007D587F010214069F
:101FD1001221A77533017B037D187F0112132E7522
:101FE10033017B0A7D207F0112132E7534017B0F93
:101FF1007D287F011214067534017B107D387F0125
:102001001214067534017B131214027534017B140A
:072011007D587F0102140657
:101A03001221A77533017B047D087F0112132E7504
:101A130033017B0A7D107F0112132E7534017B2362
:101A23007D187F011214067534017B247D287F0104
:101A33001214067534017B0F7D387F01121406756D
:101A430034017B101214027534017B137D587F011E
:0F1A53001214067534017B147D687F010214069E
:101A62001221A77533017B057D087F0112132E75A4
:101A720033017B0A7D107F0112132E7534017B0620
:101A82007D187F011214067534017B077D287F01C2
:101A92001214067534017B1F7D387F0112140675FE
:101AA20034017B201214027534017B0F7D587F01B3
:0F1AB2001214067534017B107D687F0102140643
:10168A001221A77533017B06E4FD7F0112132E1286
:10169A0013257534017B0F7D107F011214067534F2
:1016AA00017B107D207F011214067534017B1D7D9C
:1016BA00307F011214067534017B287D407F0112A8
:1016CA0014067534017B067D507F011214067534A9
:1016DA00017B077D607F011214067534017B1B7D37
:0616EA00707F01021406EE
:1016F0001221A77533017B07E4FD7F0112132E121F
:1017000013257534017B347D107F01121406753466
:10171000017B357D207F011214067534017B367DF7
:10172000307F011214067534017B377D407F011232
:1017300014067534017B387D507F01121406753410
:10174000017B397D607F011214067534017B3A7D7F
:06175000707F0102140687
:1014DE008F188D191221A78518337B017D08E4FF23
:1014EE0012132E8518337B0A7D10E4FF12132E85FE
:1014FE0018347B347D18E4FF1214068518347B35BE
:10150E007D28E4FF1214068518347B387D38E4FFFD
:10151E001214068518347B397D48E4FF12140685B3
:10152E0018347B3A7D58E4FF1214068518347B423A
:10153E007D68E4FF1214068519337B027D087F0255
:10154E0012132E8519337B0A7D107F0212132E85FE
:10155E0019347B347D187F021214068519347B35BD
:10156E007D287F021214068519347B387D387F0260
:10157E001214068519347B397D487F0212140685B4
:10158E0019347B3A7D587F021214068519347B4339
:07159E007D687F02021406C4
:101B19001221A7E4F5347B067D087F01121406E43F
:101B2900F5347B077D187F01121406E4F5347B1B1D
:101B39007D287F01121406E4F5347B1C7D387F0172
:101B4900121406E4F5347B1D121402E4F5347B1EED
:101B59007D587F01121406E4F5347B0D7D687F0101
:031B69000214065D
:101E04001221A7E4F5347B017D0CFF121406E4F5DE
:101E1400347B047D1CFF121406E4F5347B057D2C11
:101E2400FF121406E4F5347B447D3CFF121406E4EF
:101E3400F5347B0F7D4CFF121406E4F5347B107DE2
:101E44005CFF121406E4F5337B0C7D6CFF02132E49
:101E54001221A7E4F5347B017D0CFF121406E4F58E
:101E6400347B047D1CFF121406E4F5347B057D2CC1
:101E7400FF121406E4F5347B0E7D3CFF121406E4D5
:101E8400F5347B0F7D4CFF121406E4F5347B107D92
:101E94005CFF121406E4F5337B0C7D6CFF02132EF9
:102018001221A7E4F5347B017D14FF121406E4F5C0
:10202800347B047D24FF121406E4F5347B057D34EB
:10203800FF121406E4F5347B0F7D44FF121406E406
:10204800F5347B107D54FF121406E4F5337B0C7DC8
:0520580064FF02132EDD
:101B6C001221A7E4F5347B0F7D087F01121406E4E3
:101B7C00F5347B107D187F01121406E4F5347B13C9
:101B8C007D287F01121406E4F5347B147D387F0127
:101B9C00121406E4F5347B15121402E4F5347B16AA
:101BAC007D587F01121406E4F5347B0D7D687F01AE
:031BBC000214060A
:101BBF001221A7E4F5347B0F7D087F01121406E490
:101BCF00F5347B107D187F01121406E4F5347B1376
:101BDF007D287F01121406E4F5347B147D387F01D4
:101BEF00121406E4F5347B19121402E4F5347B1A4F
:101BFF007D587F01121406E4F5347B0D7D687F015B
:031C0F00021406B6
:101C12001221A7E4F5347B0F7D087F01121406E43C
:101C2200F5347B107D187F01121406E4F5347B171E
:101C32007D287F01121406E4F5347B187D387F017C
:101C4200121406E4F5347B19121402E4F5347B1AFB
:101C52007D587F01121406E4F5347B0D7D687F0107
:031C620002140663
:101EA4001221A7E4F5347B017D0CFF121406E4F53E
:101EB400347B047D1CFF121406E4F5347B057D2C71
:101EC400FF121406E4F5347B387D3CFF121406E45B
:101ED400F5347B397D4CFF121406E4F5347B3A7DEE
:101EE4005CFF121406E4F5337B0C7D6CFF02132EA9
:101756001221A7E4F5347B017D047F01121406E40F
:10176600F5347B047D147F01121406E4F5347B0501
:101776007D247F01121406E4F5347B2A7D347F0133
:10178600121406E4F5347B2B7D447F01121406E423
:10179600F5347B067D547F01121406E4F5347B078D
:1017A6007D647F01121406E4F5337B0C7D747F01A2
:0317B60002132EED
:101EF4001221A7E4F5347B017D147F01121406E45A
:101F0400F5347B047D247F01121406E4F5347B054B
:101F14007D347F01121406E4F5347B067D447F0191
:101F2400121406E4F5347B077D547F01121406E491
:0B1F3400F5337B0C7D647F0102132E4F
:1017B9001221A7E4F5347B017D047F01121406E4AC
:1017C900F5347B027D147F01121406E4F5347B03A2
:1017D9007D247F01121406E4F5347B047D347F01F6
:1017E900121406E4F5347B057D447F01121406E4E6
:1017F900F5347B067D547F01121406E4F5347B072A
:101809007D647F01121406E4F5337B0C7D747F013E
:0318190002132E89
:101C65001221A7E4F5347B067D087F01121406E4F2
:101C7500F5347B077D187F01121406E4F5347B11DA
:101C85007D287F01121406E4F5347B127D387F012F
:101C9500121406E4F5347B19121402E4F5347B1AA8
:101CA5007D587F01121406E4F5347B0D7D687F01B4
:031CB50002140610
:101CB8001221A7E4F5347B067D087F01121406E49F
:101CC800F5347B077D187F01121406E4F5347B1187
:101CD8007D287F01121406E4F5347B127D387F01DC
:101CE800121406E4F5347B15121402E4F5347B165D
:101CF8007D587F01121406E4F5347B0D7D687F0161
:031D0800021406BC
:101D0B001221A7E4F5347B067D087F01121406E44B
:101D1B00F5347B077D187F01121406E4F5347B1331
:101D2B007D287F01121406E4F5347B147D387F0186
:101D3B00121406E4F5347B19121402E4F5347B1A01
:101D4B007D587F01121406E4F5347B0D7D687F010D
:031D5B0002140669
:101D5E001221A7E4F5347B067D087F01121406E4F8
:101D6E00F5347B077D187F01121406E4F5347B13DE
:101D7E007D287F01121406E4F5347B147D387F0133
:101D8E00121406E4F5347B15121402E4F5347B16B6
:101D9E007D587F01121406E4F5347B0D7D687F01BA
:031DAE0002140616
:10181C001221A7E4F5347B25FD7F01121406E4F5B3
:10182C00347B267D107F01121406E4F5347B0F7D8A
:10183C00207F01121406E4F5347B107D307F0112F9
:10184C001406E4F5347B1C7D407F01121406E4F58C
:10185C00347B1F7D507F01121406E4F5347B207D10
:10186C00607F01121406E4F5347B0D7D707F01025C
:02187C00140650
:10187E001221A7E4F5347B25FD7F01121406E4F551
:10188E00347B267D107F01121406E4F5347B217D16
:10189E00207F01121406E4F5347B227D307F011285
:1018AE001406E4F5347B1C7D407F01121406E4F52A
:1018BE00347B1F7D507F01121406E4F5347B207DAE
:1018CE00607F01121406E4F5347B0D7D707F0102FA
:0218DE001406EE
:1018E0001221A7E4F5347B25FD7F01121406E4F5EF
:1018F000347B267D107F01121406E4F5347B217DB4
:10190000207F01121406E4F5347B227D307F011222
:101910001406E4F5347B1C7D407F01121406E4F5C7
:10192000347B237D507F01121406E4F5347B247D43
:10193000607F01121406E4F5347B0D7D707F010297
:0219400014068B
:101942001221A7E4F5347B38FD7F01121406E4F579
:10195200347B397D107F01121406E4F5347B3A7D25
:10196200207F01121406E4F5347B347D307F0112AE
:101972001406E4F5347B357D407F01121406E4F54C
:10198200347B197D507F01121406E4F5347B1A7DF5
:10199200607F01121406E4F5347B0D7D707F010235
:0219A200140629
:101DB1001221A7E4F5347B3C7D087F01121406E46F
:101DC100F5347B3D7D187F01121406E4F5347B3E2A
:101DD1007D287F01121406E4F5347B3F7D387F01B5
:101DE100121406E4F5347B19121402E4F5347B1A5B
:101DF1007D587F01121406E4F5347B0D7D687F0167
:031E0100021406C2
:101F3F001221A7E4F5347B3B7D107F01121406E4D8
:101F4F00F5347B3C7D207F01121406E4F5347B3D94
:101F5F007D307F01121406E4F5347B407D407F0114
:101F6F00121406E4F5347B417D507F01121406E410
:0B1F7F00F5347B0D7D607F010214062D
:10205D001221A7E4F5347B01FDFF121406E4F534DB
:10206D007B047D10FF121406E4F5347B057D20FF03
:10207D00121406E4F5347B457D30FF121406E4F5A9
:10208D00347B487D40FF121406E4F5347B087D5007
:04209D00FF02140624
:1020A1001221A7E4F5347B01FDFF121406E4F53497
:1020B1007B047D10FF121406E4F5347B057D20FFBF
:1020C100121406E4F5347B467D30FF121406E4F564
:1020D100347B487D40FF121406E4F5347B087D50C3
:0420E100FF021406E0
:1020E5001221A7E4F5347B01FDFF121406E4F53453
:1020F5007B047D10FF121406E4F5347B057D20FF7B
:10210500121406E4F5347B477D30FF121406E4F51E
:10211500347B487D40FF121406E4F5347B087D507E
:04212500FF0214069B
:10229200E4F533AB0E7D607F0212132EE4F533AB0F
:1022A2000F7D687F0212132EE4F533AB107D707F31
:0422B2000202132EE3
:1022B600E4F5337B0D7D607F0212132EE4F5337B4C
:1022C6000D7D687F0212132EE4F5337B0D7D707F42
:0422D6000202132EBF
:100026000000E0F0180818F000000F1F3020301F05
:10003600001010F8F80000000020203F3F202000AC
:10004600007078080888F8700030382C2623313084
:100056000030388888C878300018382020311F0EC4
:100066000000C0E030F8F80000070724243F3F24D2
:1000760000F8F888888808080019392120311F0EF1
:1000860000E0F09888981800000F1F3120311F0EED
:1000960000383808C8F838080000003F3F00000064
:1000A6000070F8880888F870001C3E2321233E1C47
:1000B60000E0F0180818F0E00000313322331F0F7B
:1000C600000000C0C0C0000000000030303000005A
:1000D6004040C0F0F0C040400202030F0F0302028E
:1000E60000000030303000000000000C0C0C000056
:1000F60000000000000000000000000000000000FA
:10010600003031F7F60022AAAAAABFBFAAAAAA22DD
:100116000000003F3F18007F7F0A0A0A6A7F3F00FF
:100126000006F6F6B6B6B6FEFEB6B6F6F60600005B
:100136000C0C7F7F0C0C0C0F0F2C6C7F3F0C0C00F3
:10014600000C3C3040F07C1FDBD818587838000093
:1001560010380E03406030180F070C18306020006E
:10016600CCFCBFCF8C30D84CD7D3168C18D0D0004F
:100176001919197F0D007F097F7F001F407F3F00FF
:10018600000000000202C6FC78C00000000000006B
:100196000030180C060301000001070C183020007F
:1001A6001818FFFF98003F7F6C6C6666763000007B
:1001B60003637F3F01007F7F353535357F7F000044
:1001C6002038FFE7703018F8F91B1EF8F818000001
:1001D60013131B1B0B6960311B0E1F3B3060600045
:1001E6000000000000000000000000000000000009
:1001F600000000363600000000000000000000008D
:100206000C6CEC8CFC3C40703FCFCC0C3C3C0000B2
:1002160010381C07074C6030180F070C18302000E8
:100226006066EEE800FEFE0703FEFE06FEFE000028
:1002360040603F1F30676762606F6F62676760008C
:100246006030FCFF030CECEC2CFFFF2CECEC0C00FC
:1002560000007F7F00606D3D191F3731616120000E
:100266000000FFFF333333FFFF333333FFFF00005C
:1002760040703F0F0303037F7F0303637F3F00004C
:1002860000000000FCFC0000000000000000000070
:100296000000000019190000000000000000000026
:1002A6000000667E7EE7FF7E6600FEFE66E6E7638A
:1002B6000000331B637F3F0B5B703F0F007F7F00A7
:1002C60000CE6E0606E6EF9FD666B68666CE8E0032
:1002D6000006067B7B61637F7F63637B780000009B
:1002E60086C6FEFEC6C60006F6F68686FEFE8000BA
:1002F600011F1F0C1F1F000C0D0D0D2D617F3F00F0
:10030600C0C0C3DBDBDBDBDBDBDBDBFFFFC0C0004E
:100316000030311B1A0C6C7F3F0C1E1B3130100055
:10032600000000000202C6FC78C0000000000000C9
:100336000030180C060301000001070C18302000DD
:100346000006F606FEFE2030186C67676C18303023
:10035600000C0D6D617F3F006F606F60787F6700F6
:100366006062E6EC0000C6C606FEFEC6C6C606000D
:1003760000003F3F08303F3F303F3F3030303000D5
:1003860000B0B89E9E9898FFFF98989898800000B5
:1003960000616131190D0703070D19313161200024
:1003A60000FEFE06F606FE80E0FE1E18F8F81800AF
:1003B60020331B0C0718534161371C1E3761600040
:1003C6006030FCFF03F0D0DC4F77267E5EC6C000AF
:1003D60000007F7F000F40526A2D35161A08000074
:1003E60006E6E6667E7EC0F0FF9F18F8F818000065
:1003F600003F3F180C6C60301B0F0E1B3160600015
:10040600000000FCFCCCCCCC0CFFFF0CCFCF0C00CA
:100416000020781F07080F6F30190F1E33617838D8
:100426000C0CFCFC0C0C3030FFFF3030F0F0000000
:1004360018181F0F2C6C301C0F0360607F3F0000E4
:1004460000FEFE0636B6F67FBFB6363636360600F0
:10045600307F0F00181B1B1B7F7F1B1B1B1B1800ED
:100466000006E6E6C6C6C6C6C6C6C6FEFE0000004E
:1004760000003F7F60606060606060617938000006
:10048600002266CC00626A6A6A7F7F6A6A6A6200D4
:1004960000703C0600007F7F151515557F7F000014
:1004A600009CDC4C6C2C0D0F0E2C6C4CCC9C1C0058
:1004B600006060666666667E7E666666666060008A
:1004C60000F000FFFF3020CC7C9F0FECEC0C8C8CF6
:1004D6000000007F7F022361321B0C070F1B316077
:1004E60000180CFEFFABAAAAAAAAAAFAFA020000F2
:1004F60000484C4C666F3F36363E6E664040000004
:100506000C0CFCFC0C0C3030FFFF3030F0F000001F
:1005160018181F0F2C6C301C0F0360607F3F000003
:100526000018DCDFDBDCDCD8003F7F686C64300061
:1005360000007F7F0A6A7F3F003F7F64667230005B
:1005460003FFFF2323FFFF0006FEFE06FEFE00005C
:10055600181F1F19097F7F0C30311F0E1B31100029
:100566002062C60C0002F6F4303F3F30F4F600007D
:1005760000703C0E00007F7F050525657F3F00006B
:100586000000062636BEEE6626361BCB8303000029
:100596000020331B0B03637F3F0101091933000061
:1005A600006078EE66300CCCECFCDFCFCCECCC8C6B
:1005B600003233331B1B59603F1F003F7F60717150
:1005C600C0FEFEC6FEC0FEC6FEFEC0FC00FFFF006B
:1005D600607F1F603F603F607F3F0007607F3F0096
:1005E60000FEFEE6BE0E30786CE7E76C3830200081
:1005F600007F7F0C0F301B0B637F3F030B3B3000EC
:10060600808080BEBEB6B6B6B6B6B6BEBE80800028
:10061600010101010F0F0D2D6D6D6D3D1D010100D5
:10062600000C8CECFCBC8FEFEC8C8C8C8C0C0000E2
:10063600001819191919197F7F19191919180000A5
:100646000018181818181BFEFC181818181800009F
:10065600006063636363637F7F636363636000005B
:100666000006E6E6C6C6C6C6C6C6C6FEFE0000004C
:1006760000003F7F60606060606060617938000004
:1006860000185B7E98FF7F3E5BE0FF1F18F8F818A6
:100696000043436F3F1B1B1F3760331F1C376140EE
:1006A6000000062636BEEE6626361BCB8303000008
:1006B6000020331B0B03637F3F0101091933000040
:1006C6006078EE66300CCCECFCDFCFCCECCC8C004A
:1006D6003233331B1B59603F1F003F7F607171002F
:1006E6006062E6EC00F3F3B7BFFBFFB7F3F100007F
:1006F60040603F1F306F6F62626F6F626F6F6000A6
:100706004070FCFF030CACACACAFAFACACAC0C00B7
:1007160000007F7F00007E7E363636367E7E000005
:10072600000606E6E60606FEFEC6C6C6C6060000C5
:100736003030303F3F30303F3F30303030303000A7
:10074600003C3C0DEFEEACAFAFACEEEF0D3C3C0029
:100756000000003C3D0D0D7F7F0D0D2D3C1C000063
:10076600006060E3EE04F0FFDFC3C3DFFFF030306C
:100776000000003F3F186863373C181E3761602051
:1007860000202EAEAAAAAEFAFAAEAAAAAE2E200073
:100796006060607F7F6A6A6A6A6A6A7F7F606000FB
:1007A6001818FFFF9800FEFEC6C6D6D6DECE00009D
:1007B60003637F3F01007F7F40633C18376340003F
:1007C600121A7F5F5A7F4FBA8C5E77267E4E46009E
:1007D600010101757555555555555575750101003C
:1007E60000063636363636FEFF3333333300000026
:1007F600030303030363637F3F030303030303004E
:100806001898FFFF981800FEFE0606FEFE00000080
:1008160006037F7F0123703F0F00003F7F6070005B
:10082600808080BEBEB6B6B6B6B6B6BEBE80800006
:10083600010101010F0F0D2D6D6D6D3D1D010100B3
:100846000000C0C6C6C6C6FEFEC6C6C6C6C6C00030
:100856000000406030180F07003F7F6060607878C6
:1008660000FEFE3666C6760676C6F636FEFE000044
:10087600007F7F0C0603060C060307647F3F00001B
:100886006078DEE63000309CBFEFECBC9C040000D4
:10089600262737361611037F7E3636367F7F0100D0
:1008A6001898FFFF183830186C676F6C98B02000E6
:1008B60006037F7F033033373C33333C3F3330000E
:1008C6000066CC00FE06F606FE00FC00FFFF0000F8
:1008D60000701E0063380F001B3007607F3F00006A
:1008E6004070FCFF030CACACACAFAFACACAC0C00D6
:1008F60000007F7F00007E7E363636367E7E000024
:10090600808080BEBEB6B6B6B6B6B6BEBE80800025
:10091600010101010F0F0D2D6D6D6D3D1D010100D2
:100926000000C0C0C0C0C0C0C0C0C0C0C0C0C0C041
:1009360000000000000000000000000000000000B1
:1009460000000C0C0C0C0C0C0C0C0C0C0C0000001D
:100956001818181818181818181818181818180029
:100966000000FFFF03FBFB5B5F5F5B5BFBFB0300C2
:1009760040701F07301B2B637F3F030B1B330000A8
:100986000000FEFE06163666C6C666361606000069
:1009960000007F7F606C6663616163666C60000067
:1009A6000000FEFEB6B6B6B7F7F6B6B6BEBE800017
:1009B60060703F0F6171391F0F6D6D7D3D01010044
:1009C60000FCFC0CCCCCCCCFFFFCCCCCCCCC0000BF
:1009D600603F1F10180C06037F7F03060C181000DB
:1009E600808080BEBEB6B6B6B6B6B6BEBE80800045
:1009F600010101010F0F0D2D6D6D6D3D1D010100F2
:0300000002000EED
:0C000E00787FE4F6D8FD75813C0210A15B
:10221200BB010689828A83E0225002E722BBFE02CA
:09222200E32289828A83E49322FD
:10222B00C5F0F8A3E028F0C5F0F8E582158270023E
:06223B001583E038F022DB
:00000001FF
