:0755F5007F0A1255FCD2846D
:1055FC00E4FEEEC39F501500000000000000000008
:0C560C000000000000000000000E80E61E
:01561800226F
:1056C400C2847F0A1255FCD2851255F7C285125541
:0656D400FCC2840255FC3B
:10571B00C2847F0A1255FCC2851255F7D2851255E9
:04572B00FCC2842216
:1056DA00AD07C2847F0A1255FCED24FF928512554C
:0656EA00F7C2840255FC2A
:1055D0007DF67C09D285C2841255F530850FED1D0C
:1055E00070011CED4C70F412571BC28422C2847FE0
:0455F0000A1255FC4A
:0155F4002294
:07557400A3F01256C47FA250
:02557B00AD077A
:10557D00C284E4FC7F0A1255FCED30E704D285802D
:10558D0002C285ED25E0FD1255F5C2840CECB40880
:06559D00E3D2850255D0A7
:10563B00D285E4FCD284ED25E0FDA285E4334DFD5B
:0E564B00C2847F0A1255FC0CECB408E8AF05CF
:01565900222E
:10572F00AB05AA07125576AF0212557BAF03125580
:04573F007B02571B77
:06549A00900365EFF0ED48
:1054A000125574900365E0FF12557BE4900367F09A
:1054B000900366E0FFA3E0C39F50161232E7FF128D
:1054C000557B740129F9E43AFA900367E004F0800F
:0454D000DF02571B85
:02561900AB07DD
:10561B00125576AF0312557B1256C47FA312557BDE
:0F562B0012563BAC077F011256DA12571BAF0421
:01563A00224D
:0F503E00900362EFF0A3EDF0A3EBF0A3EAF0E92B
:10504D00125574900362E0FF12557B1256C47FA374
:10505D0012557BE4900367F0900363E0FF900367C4
:10506D00E0C39F503212563B900364E0FBA3E0FA7D
:10507D00A3E0F9A3E0FEF582758300EF12333F90B4
:10508D000363E014FFEEC39F5005E4FF1256DA9060
:0F509D000367E004F080C17F011256DA02571B4F
:104FCA004200097800C127C126C120C123C1A4C15A
:0B4FDA00A5C12141005F0041018C00D7
:03001B0002000ED2
:03000E00C2AB3250
:03002B00020016BA
:03001600C2AD3246
:0300330002001EAA
:03001E00C2AE323D
:03004B00020006AA
:0400060053AFFD32C5
:0C57BC00D2C67FE87E031256ABC2C622A4
:1056AB00EF4E60147D847C03ED1D70011CED4C707E
:0856BB00F7EF1F70EB1E80E801
:0156C30022C4
:08511600900364EEF0A3EFF03A
:10511E00E4A3F0A3F07F011257D7E4900368F09058
:10512E000364E0FEA3E0FF125743900366E02FF006
:10513E00900365E004F07006900364E004F09003C1
:10514E0068E004F0E0C3940640D5900364E0FEA34B
:10515E00E0FF125743900367EFF01257C8900366B3
:0C516E00E0FFA3E0B507037F01227F00F3
:01517A002212
:1052D000E4900370F07B01A304F0A37400F0A374C6
:1052E00052F07F011257D7E4FF900371E0FBA3E077
:1052F000FAA3E0F91232E7FE900370E02EF090037B
:1053000072E475F0011233B60FEFB406DC1257C821
:05531000900370E0FFB6
:015315002275
:08517B00900364EEF0A3EFF0D5
:10518300E4A3F07B01A304F0A37400F0A37452F032
:105193007F011257D7E4900366F0900364E0FEA307
:1051A300E0FF125743900367E0FBA3E0FAA3E0F9A3
:1051B300EF12332D900368E475F0011233B69003B8
:1051C30065E004F07006900364E004F0900366E089
:0B51D30004F0E0C3940740C20257C87C
:0838AD00900365EEF0A3EFF0BB
:1038B500900368EEF0A3EFF01252D0900058EFF0AD
:1038C50075C13D90036E7403F07F031257D79003C3
:1038D50065E0FEA3E0FF12577C7F021257D79003E5
:1038E50068E0FFA3E0900365CFF0A3EFF090036AD3
:1038F5007401F0A37400F0A37452F0E4900367F030
:10390500900365E0FEA3E0FF90036AE0FBA3E0FA05
:10391500A3E0F91232E7FD1256F090036BE475F05F
:10392500011233B6900366E004F07006900365E07B
:1039350004F0900367E004F0E0C3940740C29003ED
:103945006A7401F0A37400F0A37452F0E490036765
:10395500F0900365E0FEA3E0FF90036AE0FBA3E0BF
:10396500FAA3E0F91232E7FD1256F090036BE47505
:10397500F0011233B6900366E004F070069003651B
:10398500E004F0900367E004F0E0C3940740C27FD1
:10399500011257D790036D7403F090036A7401F018
:1039A500A37400F0A37452F0900368E0FFA3E090C5
:1039B5000365CFF0A3EFF0E4A3F0900367E0C394B1
:1039C5000E504E900365E0FEA3E0FF1257439003AF
:1039D5006AE0FBA3E0FAA3E0F91232E7B5073290FB
:1039E500036BE475F0011233B6900366E004F070E2
:1039F50006900365E004F0900367E004F0E0B40787
:103A0500B990036A7401F0A37400F0A37452F080B6
:103A1500A9900367E0C3940E500B90036DE014F07A
:103A2500600302399F90036DE0700B90036EE01404
:093A3500F060030238CE0257C80C
:104AB1009003637403F0E4FFFE125116EF6401608A
:104AC10008900363E014F070ED900363E060207FD1
:104AD100011257D7E4FFFE125743900362EFF01221
:104AE10057C8900362E0B45A06E4FFFE02517B907E
:104AF10003637403F07F077E00125116EF640160B7
:104B010008900363E014F070EC900363E060287F89
:104B1100011257D77F077E00125743900362EFF0CF
:104B21001257C8900362E0B45A0D7F077E001251FC
:104B31007BE4FFFE0238AD900052745AF0A3740179
:104B4100F0A374FEF0E4A3F0A374E1F0A3E4F01287
:0A4B510052D0900058EFF01257C840
:014B5B002237
:03003B000249FA7D
:1049FA00C0E0C0F0C083C082C0D075D000C000C083
:104A0A0001C002C003C004C005C006C007C2AF90FF
:104A1A00000AE02400F0900009E03478F0E0FEA3F8
:104A2A00E0F5EAEEF5FAC2D8900197E0600214F0D8
:104A3A009001A6E0600D14F0E070089001A0F0A3C8
:104A4A00F0A3F012493D20C314202004D220801D77
:104A5A0020231AD223D221C224C225801020240462
:104A6A00D2248009202506D225C220C22390005FC5
:104A7A00E004F0B43214E4F090018CE004F0B41EC7
:104A8A0009E4F0900358E04480F0D2AFD007D00692
:104A9A00D005D004D003D002D001D000D0D0D0822B
:074AAA00D083D0F0D0E03210
:1055A30043CA0353C9FC4396205395DFC2C8C2C9FB
:1055B300C2A5D281D282D29443CA0853C9F7C2CBBF
:0D55C30043928053917FD297D222D2C3220F
:104C9F007E007F547D007B017A00790C12346D9079
:104CAF00000D7480F0A3E4F090002BF0A3F09000BF
:104CBF003FF0F5D9F5D8F5E9F5F9900009E0FEA335
:104CCF00E0F5EAEEF5FA75DA49D2DE1255A312577E
:104CDF00BC1257D012523BD2AF7FC87E001256ABD8
:104CEF00124AB1900056E0FEA3E0FF124D3412536A
:104CFF00E07E007F607D2C7C0112545EE4900024E6
:104D0F00F0A3F0900022F0A3F0FD7F01125794E47E
:104D1F0090000BF07B017A00790B7D017F91123EA1
:054D2F006C75C13E227D
:102E580075BB707F647E001256AB124C9F12550BE7
:102E6800900382E0FF900380F0900381E0900012CD
:102E7800F0A3EFF0900383E0900014F0A37419F02E
:102E8800900384E0900016F0900385E0900017F01E
:102E9800900386E0900018F07B017A007912124EB8
:102EA8005F75C13E302A0312121530100312004E0E
:102EB800301203122889301803125316301A0312DD
:102EC8005541302105C22112576A900358E0FF206E
:102ED800E003022F7B54FEF090000DE030E733E46E
:102EE800900012F0A3F0A3F0A3742CF0A374FFF0E9
:102EF800A3F0A3F07B017A007912124E5F7B007A6F
:102F0800007900E4FD7F03123E6C90000C74FAF027
:102F1800806190000EE054786059E054606017902A
:102F280001B2E0FF640C6004EFB4050AE4FD12444A
:102F380064E49001B2F0900040E0900012F090003C
:102F480041E0900013F0900042E0900014F0A37468
:102F580018F0900043E0900016F0900044E09000D4
:102F680017F0900045E0900018F07B017A00791284
:102F7800124E5F900358E0FF30E14054FDF090009E
:102F880047E0900012F0900048E0900013F09000A5
:102F980049E0900014F0A3742BF090004AE09000F0
:102FA80016F090004BE0900017F090004CE0900075
:102FB80018F07B017A007912124E5F900358E0FFF7
:102FC80020E703023057547FF012550B900382E03C
:102FD800FF900380E06F6077900381E0547FF0C337
:102FE8009460506BA3E0547FF0C394605061A3E0F9
:102FF800543FF0C394245057A3E0543FF0C3943295
:10300800504DA3E0541FF0C394135043A3E0FF9422
:1030180099503C900382E0FE900380F0900381E099
:10302800900012F0A3EEF0900383E0900014F0A358
:103038007419F0900384E0900016F0900385E090F6
:103048000017F0A3EFF07B017A007912124E5F901F
:103058000358E030E21454FBF090000DE054DFF028
:103068009001B2E0FFE4FD124464900358E030E4BC
:103078000D54EFF090023EE0FFE4FD12434E900342
:1030880058E0FF30E33A54F7F090000F7475F0A35E
:103098007430F0900053E0900012F0900054E090EB
:1030A8000013F0900055E0900014F0A3748CF0A386
:1030B80074FFF0A3F0A3F07B017A007912124E5F3F
:1030C800900358E030E51654DFF07B007A00790071
:1030D800E4FD7F03123E6C90000C74FAF0900358E4
:1030E800E030E60D54BFF090023EE0FF7D01124350
:1030F8004E202B03022EA9900198E07002A3E060F5
:0431080003022EA9E7
:10310C007B017A0179AB90035F04F0A3EAF0A3E9A9
:10311C00F0900007123300FF6480600DEF64826052
:10312C0008EF648360030231ECD282C2AF90035F7C
:10313C00E0FBA3E0FAA3E0F99000081233E2240CC0
:10314C00FFE435F0FE78377C027D017B017A017952
:10315C00AB1232C1D2AF7B017A02793790035FEBAD
:10316C00F0A3EAF0A3E9F0FF90018F7402F0A3EF53
:10317C00F09000081233E2240CFEE435F090019834
:10318C00F0A3CEF0E4A3F0A3F0C29990019AE0FE74
:10319C00A3E0FF90018FE0FCA3E02FF582EC3EF55D
:1031AC0083E0F599900007123300FF64806004EF10
:1031BC00B4822D90035FE0FBA3E0FAA3E0F990004A
:1031CC000412330090004EF0900005123300900072
:1031DC004FF0900006123300900050F0A3745FF093
:0231EC00C22BF4
:0331EE00022EA905
:0D57AF00202705D287D22722C287C22722D9
:0757D000C287C227C2862236
:10550B007B017A0379817D047F0212503E7B017A05
:10551B000379857D027F0712503E900381E0547F13
:10552B00F0A3E0547FF0A3E0543FF0A3E0543FF02E
:06553B00A3E0541FF02262
:0300260002550B75
:105691007B017A0379817D047F0212549A7B017A1E
:0A56A1000379857D027F0702549A09
:10567600E4FDFF12572F7D087F0A12572F7D127FF8
:0B5686000112572F7DF07F0D02572FFF
:104FE500012000012200011A00011900011C000125
:104FF5000A00010800011E0001090001210001232A
:1050050000410359004102EC0041035B004102DD10
:10501500004102DB0041035D004102DC00C128C103
:055025002941035800C1
:10523B0053B2F743B10843B21043B110D2B5D2B257
:10524B00D2B4D2B35389F0438901758A67758CFF49
:10525B00C28D538E7FD2A9D28C751FF090035E74D2
:10526B00F0F0C289D288D2B9C28BD28A30B204D2C2
:0E527B00A88002D20730B303D2AA22D20F229B
:0300030002579F02
:10579F00C2AFC289C2A8D200C202751A00D2AF32FC
:0300130002565A38
:10565A00C0E0C083C082C2AFC2AAD208C20A900305
:0C566A0059E4F0D2AFD082D083D0E032FF
:03000B00021B4392
:101B4300C0E0C0F0C083C082C0D075D000C000C068
:101B530002C003C004C005C006C007C2AFC28C7573
:101B63008CFF758A67D28CA2B29215A2B3921D30F4
:101B730000307410251AF51A54F064506003021CE7
:101B830040C200F51A30151520060A300507532008
:101B9300C3D206D2B5751FF0751C008071D2010245
:101BA3001C40200103021C407410251AF51A54F03E
:101BB30064A06003021C40531A0F051AE51A540F60
:101BC300FF640A7063C20130154AE51C54F024FF18
:101BD300301101B34008750A00531C0F802D750A9C
:101BE300E6E51CC4540F2412F8A61D7410251CF539
:101BF3001C54F0C394704013531C0F30050330037F
:101C030002D210750A0075080AD213751FF0C28933
:101C1300D2A88029D20720060A3005075320C3D251
:101C230006D2B5751C008015BF0906A21592118056
:101C33000CE51DC313F51D301503431D8030083615
:101C4300900359E02410F0E054F064506003021D47
:101C530046C208F0301D1A200E0A300D075321C367
:101C6300D20ED2B490035E74F0F090035BE4021DD5
:101C730011D209021D46200903021D46900359E0B3
:101C83002410F0E0FF54F064A06003021D46EF54FB
:101C93000FF0E004F0E0540FFB640A6003021D2E12
:101CA300C209301D7090035BE0FE54F024FF30192D
:101CB30001B3400E9002DDE4F0EE540F90035BF0AD
:101CC30080479002DD74E6F090035CE0FF90035BD5
:101CD300E0FEC4540F24E5F582E43402F583EFF00B
:101CE30090035BE02410F0E0FF54F0C394704019BC
:101CF300EF540FF0300D03300B02D2189002DDE4E5
:101D0300F09002DB740AF0D21B90035E74F0F0C211
:101D13008BD2AA802ED20F200E0A300D075321C377
:101D2300D20ED2B490035BE4F08018BB0906A21D67
:101D33009219800F90035CE0FFC313F0301D04E0A1
:101D43004480F0E520540C640C702B301518C2B598
:101D5300C214F5195320F3E51C540F240BF8E6F5D0
:101D63001BD204021E1E5320C3D206531CF0D2B54D
:101D7300751FF0021E1E200403021E1E7410251977
:101D8300F51954F0FFBF501EA214301501B34005DE
:101D9300D229021E1E5320C3531CF0D206D2B5759E
:101DA3001FF0C2298075302972EF64A0706DC229BB
:101DB30053190F0519E519540FFFBF090FE51C54FB
:101DC3000F24FFB39214A21492B5804FBF0A06D218
:101DD30014D2B58046E519540F640B7029C204056B
:101DE3001CE51C540FC394074011531CF05320C32C
:101DF300751FF043220C75080A8005751F0AD2036C
:101E0300C289D2A88015E51B30E006D214D2B58072
:101E130004C214C2B5E51BC313F51BE521540C64BE
:101E23000C7036301D24C2B4C21C9002ECF0532156
:101E3300F390035BE0540F24DEF582E43402F58370
:101E4300E090035AF0D20C021F175321C3D20E9015
:101E5300035BE054F0F0021F0F200C03021F17A2D4
:101E63001C301D01B35003021F039002ECE0241049
:101E7300F0E0FF54F064A06003021F17EF540FF06B
:101E8300E004F0E0540FFFBF091190035BE0540F2F
:101E930024FFB3921CA21C92B48079BF0A06D21C01
:101EA300D2B480709002ECE0540F640B7037C20C14
:101EB30090035BE004F0E0FF540FC394074018EF76
:101EC30054F0F05321C390035E74F0F043230C905D
:101ED30002DB740AF0800890035E740AF0D20BC22E
:101EE3008BD2AA802F90035AE0FF30E006D21CD297
:101EF300B48004C21CC2B4EFC31390035AF080141D
:101F03005321C390035BE054F0F0D20ED2B490039C
:101F13005E74F0F0E5205403701AE51F6005D51FC9
:101F230002D20230070EC202301509C207C289D29B
:101F3300A8751FF0E5215403702090035EE060064E
:101F430014F07002D20A300F11C20A301D0CC20FF6
:101F5300C28BD2AA90035E74F0F0E50A6006D50A3C
:101F630003531C0FE5086005D50802C2139002DD78
:101F7300E0600B14F0700790035BE0540FF09002E5
:101F8300DBE0600614F07002C21BE52054236003FB
:101F93000220AE300605C2060220A3A2137212501D
:101FA300030220AEE5092447FFE433FEE51EFB7A76
:101FB30000C3EF9BFFEE9AFE7C007D47123361ED79
:101FC300C3940750030220A874ED251EF582E43460
:101FD30002F583E0F50BEB2401FFEA33FE7C007D81
:101FE300471233618D1E74ED251EF582E43402F52C
:101FF30083E0F50CE51E2401FFE433FE7C007D47FE
:102003001233618D1E74ED251EF582E43402F583CF
:10201300E0F50DE51E2401FFE433FE7C007D47124D
:1020230033618D1E74ED251EF582E43402F583E0E1
:10203300F50EE51E2401FFE433FE7C007D471233D9
:10204300618D1E74ED251EF582E43402F583E0F5FF
:102053000FE51E2401FFE433FE7C007D471233614C
:102063008D1E74ED251EF582E43402F583E0F51030
:10207300E51E2401FFE433FE7C007D471233618DAE
:102083001E74ED251EF582E43402F583E0F511E5B7
:102093001E2401FFE433FE7C007D471233618D1E55
:1020A3004320288006750900751E00E5215423602E
:1020B300030221F2300E05C20E0221E4A21B721AA2
:1020C30050030221F29002DCE02424FFE433FE906B
:1020D300035DE0FB7A00C3EF9BFFEE9AFE7C007D7D
:1020E30024123361EDC3940750030221E9E0243441
:1020F300F582E43403F583E09002DEF0EB2401FF84
:10210300EA33FE7C007D2412336190035DEDF0E041
:10211300FF2434F582E43403F583E09002DFF0EF2B
:102123002401FFE433FE7C007D2412336190035DC0
:10213300EDF0E0FF2434F582E43403F583E090020C
:10214300E0F0EF2401FFE433FE7C007D24123361D1
:1021530090035DEDF0E0FF2434F582E43403F5836E
:10216300E09002E1F0EF2401FFE433FE7C007D24E4
:1021730012336190035DEDF0E0FF2434F582E43423
:1021830003F583E09002E2F0EF2401FFE433FE7CE9
:10219300007D2412336190035DEDF0E0FF2434F5FC
:1021A30082E43403F583E09002E3F0EF2401FFE4DB
:1021B30033FE7C007D2412336190035DEDF0E0FF7C
:1021C3002434F582E43403F583E09002E4F0EF2451
:1021D30001FFE433FE7C007D2412336190035DED47
:1021E300F043212880099002DCE4F090035DF0D2F3
:1021F300AFD007D006D005D004D003D002D000D092
:0A220300D0D082D083D0F0D0E032BA
:0D52890090000EE04488F07B017A0079125D
:105296001232E7900040F090000112330090004176
:1052A600F0900002123300900042F0900004123396
:1052B60000900043F0900005123300900044F090F7
:0A52C6000006123300900045F022AC
:104B5C009003687401F0A37400F0A37443F07B011C
:044B6C007A00791240
:104B7000900365EBF0A3EAF0A3E9F0900365E0FB96
:104B8000A3E0FAA3E0F91232E7FFF460189003689B
:104B9000E0FBA3E0FAA3E0F91232E7FE6F6006EE55
:104BA000F46002C322900365E0FBA3E0FAA3E0F9FE
:104BB000900001123300FFF4601B900368E0FBA338
:104BC000E0FAA3E0F9900001123300FE6F6006EEF8
:104BD000F46002C322900365E0FBA3E0FAA3E0F9CE
:104BE000900002123300FFF4601B900368E0FBA307
:104BF000E0FAA3E0F9900002123300FE6F6006EEC7
:074C0000F46002C322D3227D
:104ED600900387EBF0A3EAF0A3E9F0A3E0FBA3E0DD
:104EE600FAA3E0F91232E7FF900387E0FBA3E0FAAA
:104EF600A3E0F91232E76F6002C32290038AE0FB57
:104F0600A3E0FAA3E0F9900001123300FF900387B3
:104F1600E0FBA3E0FAA3E0F99000011233006F6012
:104F260002C32290038AE0FBA3E0FAA3E0F9900013
:104F360002123300FF900387E0FBA3E0FAA3E0F937
:0D4F46009000021233006F6002C322D322DC
:104E4F00A3F0A374FFF0A3F0A3F07B017A00791213
:0B4E5F00900368EBF0A3EAF0A3E9F079
:104E6A00A37407F0C2AFE5092447FFE433FEC3EF9A
:104E7A00951EFFEE9400FE7C007D47123361EDC360
:104E8A0094464005D2AF7F002290036BE0FF14F0F6
:104E9A00EF6034900368E0FBA3E475F0011233CCB1
:104EAA00A9F0FA1232E7FF74ED2509F582E434021B
:104EBA00F583EFF0E5092401FFE433FE7C007D472A
:0B4ECA001233618D0980C2D2AF7F015E
:014ED50022BA
:104C070090000DE0541FF0A3E4F09000157490F0AD
:064C17007B017A00791216
:0B4C1D00900365EBF0A3EAF0A3E9F0C0
:104C2800A37407F0C2AF9002DCE02424FFE433FE53
:104C380090035DE0FDC3EF9DFFEE9400FE7C007DD8
:104C480024123361EDC394234005D2AF7F00229034
:104C58000368E0FF14F0EF6039900365E0FBA3E41C
:104C680075F0011233CCA9F0FA1232E7FF9002DC9A
:104C7800E0FE2434F582E43403F583EFF0EE2401FA
:104C8800FFE433FE7C007D241233619002DCEDF0FA
:064C980080BDD2AF7F01D8
:014C9E0022F3
:06578E001253A4E4FDFF2C
:0B579400900019EFF0A3F0A3EDF0224D
:0A57060090000DE054F7F0E4FDFF01
:0B57100090001CEFF0A3F0A3EDF022CE
:0B220D00900365EBF0A3EAF0A3E9F0FA
:10221800900022E0FEA3E04E600302232D7F08FE1B
:1022280012486CAA06A9077B01900368EBF0A3EAA1
:10223800F0A3E9F04A7002FF22900365E0FBA3E0F7
:10224800FAA3E0F91232E7FF900368E0FBA3E0FA93
:10225800A3E0F9EF12332D900365E0FBA3E0FAA3A6
:10226800E0F9900001123300FF900368E0FBA3E05F
:10227800FAA3E0F9900001EF12333F900365E0FB09
:10228800A3E0FAA3E0F9900002123300FF9003687C
:10229800E0FBA3E0FAA3E0F9900002EF12333F90CD
:1022A8000365E0FBA3E0FAA3E0F990000412330011
:1022B80054E0FF900368E0FBA3E0FAA3E0F9900084
:1022C80003EF12333FE92403F9E43AFAC003C002EA
:1022D800C0011232E7FF900365E0FBA3E0FAA3E038
:1022E800F9900003123300541F4FD001D002D003DD
:1022F80012332D900368E0FBA3E0FAA3E0F9900005
:1023080006E4F5F012341A900004E4F5F012341AD9
:10231800AE02AF01900022EEF0A3EFF0A3EEF0A31F
:10232800EFF07F0122900022E0FEA3E0AA0602233C
:10233800F390036BA3E0FAA3E04A7003022403902E
:102348000365E0FBA3E0FAA3E0F91232E7FF90038C
:102358006BE0FBA3E0FAA3E0F91232E76F70799023
:102368000365E0FBA3E0FAA3E0F990000112330053
:10237800FF90036BE0FBA3E0FAA3E0F990000112E1
:1023880033006F7053900365E0FBA3E0FAA3E0F914
:10239800900002123300FF90036BE0FBA3E0FAA366
:1023A800E0F9900002123300B5072D900365E0FBB9
:1023B800A3E0FAA3E0F9900003123300541FFF9042
:1023C800036BE0FBA3E0FAA3E0F9900003123300EB
:1023D800541FB507037F032290036BE0FBA3E0FAC9
:1023E800A3E0F99000061233E2AAF0F990036B74A7
:1023F80001F0A3EAF0A3E9F0022339900024E0FEFB
:10240800A3E0AA06F990036B7401F0A3EAF0A3E92C
:10241800F0900365E0FBA3E0FAA3E0F99000041252
:10242800330054E0FF90036BE0FBA3E0FAA3E0F96C
:1024380090000312330054E0C39F50030225827FAB
:10244800087E0012486CAA06A9077B01900368EB76
:10245800F0A3EAF0A3E9F04A7002FF22900365E0D6
:10246800FBA3E0FAA3E0F91232E7FF900368E0FB70
:10247800A3E0FAA3E0F9EF12332D900365E0FBA384
:10248800E0FAA3E0F9900001123300FF900368E03E
:10249800FBA3E0FAA3E0F9900001EF12333F9003A9
:1024A80065E0FBA3E0FAA3E0F9900002123300FF15
:1024B800900368E0FBA3E0FAA3E0F9900002EF12B2
:1024C800333F900365E0FBA3E0FAA3E0F990000432
:1024D80012330054E0FF900368E0FBA3E0FAA3E0A6
:1024E800F9900003EF12333FE92403F9E43AFAC004
:1024F80003C002C0011232E7FF900365E0FBA3E0CE
:10250800FAA3E0F9900003123300541F4FD001D012
:1025180002D00312332D900368A3E0FAA3E0AE02C1
:10252800FFA3E0FBA3E0FAA3E0F9900006EE8FF02A
:1025380012341AAC02AD01900368E0FBA3E0FAA3E1
:10254800E0F9900004EC8DF012341A900006E4F5DE
:10255800F012341A900024EEF0A3EFF090002BE074
:10256800FEA3E04E7011900368A3E0FAA3E0FF9089
:10257800002BEAF0A3EFF07F022290036BE0FBA3AD
:10258800E0FAA3E0F9803990036BA3E0FAA3E04AEC
:10259800700302275E900365E0FBA3E0FAA3E0F96D
:1025A80090000412330054E0FF90036BE0FBA3E0BB
:1025B800FAA3E0F990000312330054E0C39F5017C8
:1025C8009000041233E2AAF0F990036B7401F0A3AF
:1025D800EAF0A3E9F080B07F087E0012486CAA06F2
:1025E800A9077B01900368EBF0A3EAF0A3E9F04A9E
:1025F8007002FF22900365E0FBA3E0FAA3E0F91262
:1026080032E7FF900368E0FBA3E0FAA3E0F9EF12DA
:10261800332D900365E0FBA3E0FAA3E0F9900001F5
:10262800123300FF900368E0FBA3E0FAA3E0F990FF
:102638000001EF12333F900365E0FBA3E0FAA3E04B
:10264800F9900002123300FF900368E0FBA3E0FA60
:10265800A3E0F9900002EF12333F900365E0FBA37B
:10266800E0FAA3E0F990000412330054E0FF90036D
:1026780068E0FBA3E0FAA3E0F9900003EF12333F10
:10268800E92403F9E43AFAC003C002C0011232E7B0
:10269800FF900365E0FBA3E0FAA3E0F990000312C2
:1026A80033004FD001D002D00312332D900368A31A
:1026B800E0FAA3E0AE02FFA3E0FBA3E0FAA3E0F98F
:1026C8009000061233E22404F582E435F0F583EE37
:1026D800F0A3EFF0AE02AF01900368E0FBA3E0FACD
:1026E800A3E0F9900004EE8FF012341A90036BE027
:1026F800FBA3E0FAA3E0F99000061233E2FF90038F
:1027080068E0FBA3E0FAA3E0F9900006E5F08FF09B
:1027180012341AAE02AF0190036BE0FBA3E0FAA3F8
:10272800E0F9900006EE8FF012341A900368E0FB8F
:10273800A3E0FAA3E0F99000061233E2FF90002B21
:10274800E0B5F00FA3E0B5070AAF0190002BEAF05F
:10275800A3EFF07F022290036BA3E0FAA3E04A60A4
:10276800030228867F08FE12486CAA06A9077B0187
:10277800900368EBF0A3EAF0A3E9F04A7002FF22A5
:10278800900365E0FBA3E0FAA3E0F91232E7FF90BB
:102798000368E0FBA3E0FAA3E0F9EF12332D9003FE
:1027A80065E0FBA3E0FAA3E0F9900001123300FF13
:1027B800900368E0FBA3E0FAA3E0F9900001EF12B0
:1027C800333F900365E0FBA3E0FAA3E0F990000231
:1027D800123300FF900368E0FBA3E0FAA3E0F9904E
:1027E8000002EF12333F900365E0FBA3E0FAA3E099
:1027F800F990000412330054E0FF900368E0FBA353
:10280800E0FAA3E0F9900003EF12333FE92403F95B
:10281800E43AFAC003C002C0011232E7FF90036530
:10282800E0FBA3E0FAA3E0F99000031233004FD0D5
:1028380001D002D00312332D900368E0FBA3E0FA25
:10284800A3E0F9FF900022E0FCA3E0FD2404F58258
:10285800E43CF583EAF0A3EFF0900006EC8DF0126B
:10286800341A900004E4F5F012341AAF01900022F3
:10287800EAF0A3EFF090002A7402F07F04227F00B0
:01288800222D
:0935670024F6F07B017A007912D0
:0B357000900365EBF0A3EAF0A3E9F084
:10357B00900022E0FEA3E0AA06F97B01900368EB22
:10358B00F0A3EAF0A3E9F04E70030238AC900365A8
:10359B00E0FBA3E0FAA3E0F9900004123300FF90E4
:1035AB000026E06F7034900005123300FF90002767
:1035BB00E06F7026900006123300FF900028E0B5F4
:1035CB000718900003123300541FFF900029E0549A
:1035DB001FB50706E4A3F002366490002BE0FEA3B0
:1035EB00E0FF4E6074900365E0FBA3E0FAA3E0F903
:1035FB00900004123300FD8F828E83E06D705A9021
:10360B000005123300FF90002BE0FCA3E0FDF582D8
:10361B008C83A3E06F7042900006123300FF8D8203
:10362B008C83A3A3E06F7031900003123300541FFF
:10363B00FF8D828C83A3A3A3E0541FB5071B9000BF
:10364B002BE0FEA3E02406F582E43EF583E0FFA326
:10365B00E090002BCFF0A3EFF0900365E0FBA3E02D
:10366B00FAA3E0F9900004123300FF900368E0FB2B
:10367B00A3E0FAA3E0F91232E76F600302388990F6
:10368B000365E0FBA3E0FAA3E0F990000512330019
:10369B00FF900368E0FBA3E0FAA3E0F990000112AE
:1036AB0033006F6003023889900365E0FBA3E0FAF7
:1036BB00A3E0F9900006123300FF900368E0FBA330
:1036CB00E0FAA3E0F99000021233006F60030238B6
:1036DB0089900365E0FBA3E0FAA3E0F990000312E5
:1036EB003300541FFF900368E0FBA3E0FAA3E0F95B
:1036FB00900003123300541F6F704F90000612336B
:10370B00E245F07013900024F0A3F0900022F0A398
:10371B00F0900368A3023881900368E0FBA3E0FA02
:10372B00A3E0F99000061233E2FFAEF0900022EE18
:10373B00F0A3EFF08E832404F582E43583F583E464
:10374B00F0A3F0AE02AF010238860238899003680D
:10375B00A3E0FAA3E04A70030238AC900365E0FBE8
:10376B00A3E0FAA3E0F9900004123300FF90036882
:10377B00E0FBA3E0FAA3E0F91232E76F6003023833
:10378B0089900365E0FBA3E0FAA3E0F99000051232
:10379B003300FF900368E0FBA3E0FAA3E0F990008D
:1037AB00011233006F6003023889900365E0FBA3BD
:1037BB00E0FAA3E0F9900006123300FF900368E0F3
:1037CB00FBA3E0FAA3E0F99000021233006F600351
:1037DB00023889900365E0FBA3E0FAA3E0F99000BF
:1037EB0003123300541FFF900368E0FBA3E0FAA31E
:1037FB00E0F9900003123300541F6F600302388905
:10380B009000061233E245F070219000041233E26F
:10381B002406F582E435F0F583E4F0A3F090000480
:10382B001233E2FF900024E5F08041900368E0FB47
:10383B00A3E0FAA3E0F99000061233E2FFAEF0909A
:10384B0000041233E22406F582E435F0F583EEF042
:10385B00A3EFF09000041233E2FFAEF090000612DB
:10386B0033E22404F582E435F0F583EEF0A3EFF0B8
:10387B00900368A3E0FAA3E0AE02FF023FB490030B
:10388B0068E0FBA3E0FAA3E0F99000061233E2AA8A
:10389B00F0F99003687401F0A3EAF0A3E9F00237A2
:0138AB0058C4
:0138AC0022F9
:1051DE009002D9E0900015F07B017A0079127D01E2
:1051EE001232E7900026F090000112330090002753
:1051FE00F0900002123300900028F0900004123359
:10520E0000900029F0A37401F0ED6005900022805B
:10521E000390002BE0FEA3E02406F582E43EF58326
:0D522E00E0FFA3E090002BCFF0A3EFF022F3
:01000A0022D3
:0100110022CC
:0453A000F0A3E0F0A6
:1053A40090000DE0FEA3E0FFEE54066009D2C9C2EE
:1053B400C8C2A5C2CB22EF30E209C2C9C2C8D2A575
:1053C400C2CB2290000EE030E309C2C9C2C8C2A514
:0C53D400D2CB22C2C9C2A5C2C8C2CB22E3
:103A3E0090000DE05401FEA3E054804E6003023B63
:103A4E00B790002AE064026003023AEA900022E096
:103A5E00FEA3E0AA06F97B01900365EBF0A3EAF062
:103A6E00A3E9F04A701490000DE0540EFEA3E0544A
:103A7E001C4E6003023BB7023B15900365E0FBA3AF
:103A8E00E0FAA3E0F91232E7900012F09000011272
:103A9E003300900013F0900002123300900014F0E7
:103AAE00A3742FF0900003123300900016F0E4126E
:103ABE004E55EF64016003023BB7900365E0FBA334
:103ACE00E0FAA3E0F9900003123300541F900015A2
:103ADE00F07B017A0079127D01023BAA900022E070
:103AEE00FEA3E0AA06F97B01900365EBF0A3EAF0D2
:103AFE00A3E9F04A702090000DE0540EFEA3E054AE
:103B0E001C4E6003023BB790000BF07A00790B7DE0
:103B1E00017F91023E6C90002BE0FEA3E0AA06F915
:103B2E007B01900365EBF0A3EAF0A3E9F04A700382
:103B3E00023A5A900365E0FBA3E0FAA3E0F9900085
:103B4E0003123300FF54E0FE900029E054E06E6053
:103B5E0003023A5A1232E7900012F090000112332B
:103B6E0000900013F0900002123300900014F0A3A6
:103B7E00742FF0A3EFF0E4124E55BF012C900365A5
:103B8E00E0FBA3E0FAA3E0F9900003123300541F08
:103B9E00900015F07B017A007912E4FD1251EE903F
:093BAE00000DE04401F0A3E0F079
:013BB70022EB
:10004E0075C13E1257AFC2AF78127C007D017B00A6
:10005E007A0079127E007F071232C1C210D2AF90A1
:10006E000015E01234470B660200DE03068105021E
:10007E00280602280702280802280901210A06A8D4
:10008E000B064C0C064C0D064C0E064C0F03FF10C7
:10009E0003FF1103FF1203FF130837140837150669
:1000AE00F2160881180B3B1910F51A08372009BAF9
:1000BE002B0D66740D0B810DB3830DB3840E8385EA
:1000CE000E83860F5F89102F8A0D28F500001214FB
:1000DE00900012E0900016F0900013E0900017F0E0
:1000EE00900014E0900018F09000157404F0900049
:1000FE000EE030E7089000127480F08005E4900066
:10010E0012F0302607900012E04440F0E490001305
:10011E000206479002D774FFF09001A7E07002A389
:10012E00E060127F017E001256AB75C13E9002D781
:10013E00E014F070E49003627401F0A37402F0A373
:10014E0074C3F0900362E0FBA3E0FAA3E0F9745AE3
:10015E0012332D900014E0FF900362E0FBA3E0FA4F
:10016E00A3E0F990000AEF12333F900362E0FBA385
:10017E00E0FAA3E0240BF9E43AA801FCAD037B01FD
:10018E007A0079167E007F031232C1900015E0FFCF
:10019E00900362E0FBA3E0FAA3E0F9900007EF12F0
:1001AE00333F900008E475F00412341A1250B390E5
:1001BE000362E0FBA3E0FAA3E0F99000081233E239
:1001CE00FDE9240AF9E43AFAE92DF9EA35F0FAEFF5
:1001DE0012332D900362E0FBA3E0FAA3E0F9900046
:1001EE00081233E2240BF582E435F0F5837416120F
:1001FE00333F9000081233E2240CFEE435F09001F8
:10020E00A7F0A3CEF0E4A3F0A3F0539AFD1232E7C9
:10021E00F59B900015742D020B2E900013E0B4FA8E
:10022E000F900053E0FF900012E06F600302121473
:10023E00900015E09002D9F0900016E054E0900284
:10024E00DAF07B017A00791212220D9002D8EFF0CB
:10025E007003021214900012E0900016F09000133A
:10026E00E0900017F0900014E0900018F09000530A
:10027E00E0900012F0900054E0900013F0900055C2
:10028E00E0900014F09002D9E0241B900015124E5D
:10029E0058302835900016E0900012F0900017E0CC
:1002AE00900013F0900018E0900014F07427124E96
:1002BE004F900012E0900016F0900013E09000179F
:1002CE00F0900014E0900018F090000DE05409FE3C
:1002DE00A3E054804E600302121490000EE030E250
:1002EE00479002D8E06404600302121490000DE0FF
:1002FE0030E403021214900026E0900012F09000F9
:10030E0027E0900013F0900028E0900014F0A37402
:10031E002EF0E4A3124E54EF640160030212149007
:10032E00000DE044100203FA9002D8E06401704818
:10033E0090000DE030E403021214900016E09000DD
:10034E0012F0900017E0900013F0900018E090006B
:10035E0014F0A3742FF09002D9E0FFA3E04F9000A9
:10036E0016124E58EF640160030212141251DE9001
:10037E00000DE044010203FA90000DE030E40302A8
:10038E001214900022E0FEA3E0F5828E83A3A3A3B5
:10039E00E0541F9002D9F0900022A3E0F5828E83E4
:1003AE00E0900012F0900022A3E0F5828E83A3E08D
:1003BE00900013F0900022A3E0F5828E83A3A3E0B9
:1003CE00900014F0A3742FF0900022A3E0F5828E1B
:1003DE0083A3A3A3E0900016124E58EF64016003AE
:1003EE000212141251DE90000DE04401F0A3E0F071
:1003FE0022900013E0B4FB0F900053E0FF90001228
:10040E00E06F6003021214900012E0FF900016E0FD
:10041E006F60030204BF900013E0FF900017E06FBF
:10042E0060030204BF900014E0FF900018E06F60BC
:10043E00030204BF9002D774FFF09001A7E0700290
:10044E00A3E060127F017E001256AB75C13E900292
:10045E00D7E014F070E49003627401F0A37402F01C
:10046E00A374C3F0900362E0FBA3E0FAA3E0F97477
:10047E005A12332D900362E0FBA3E0FAA3E0240AA4
:10048E00F9E43AA801FCAD037B017A0079127E00F3
:10049E007F031232C1900362E0FBA3E0FAA3E024D3
:1004AE000DF9E43AA801FCAD037B017A00791280C4
:1004BE007B9002D774FFF09001A7E07002A3E0607A
:1004CE00127F017E001256AB75C13E9002D7E0142A
:1004DE00F070E49003627401F0A37402F0A374C38D
:1004EE00F0900362E0FBA3E0FAA3E0F9745A123332
:1004FE002D900362E0FBA3E0FAA3E0240AF9E43AAC
:10050E00A801FCAD037B017A0079127E007F0312F5
:10051E0032C1900362E0FBA3E0FAA3E0240DF9E4FC
:10052E003AA801FCAD037B017A0079167E007F03A9
:10053E001232C1900015E0FF900362E0FBA3E0FAD7
:10054E00A3E0F9900007EF12333F900008E475F036
:10055E000612341A1250B3900362E0FBA3E0FAA322
:10056E00E0F99000081233E2FDE9240AF9E43AFAC0
:10057E00E92DF9EA35F0FAEF12332D900362E0FB24
:10058E00A3E0FAA3E0F99000081233E2240BF582FF
:10059E00E435F0F583741612333F9000081233E2FF
:1005AE00240CFEE435F09001A7F0A3CEF0E4A3F006
:1005BE00A3F0539AFD1232E7F59B900015E0123529
:1005CE006790000EE030E253900026E0FF90001698
:1005DE00E06F7047900027E0FF900017E06F703BD0
:1005EE00900028E0FF900018E06F702F900029E037
:1005FE00541FFF900015E0541FB5071F90000DE02B
:10060E0030E403021214900015742E124E58BF01DE
:10061E000A90000DE04410F0A3E0F0900022E0FEFE
:10062E00A3E04E600302121420280302121490005D
:10063E00157428F0A374FFF0A3F0A3020B2E900004
:10064E000EE030E703021214125290900015E09063
:10065E000046F090001524FAF012357090000EE06E
:10066E0044C0F0E030E20854FB124C101253A4E4E4
:10067E00FD802290000EE030E70302121490000E6F
:10068E00E044C0F0E030E20854FB124C101253A4C8
:10069E001252907D057F3202087E90000EE020E718
:1006AE0026900053E0900012F0900054E09000135A
:1006BE00F0900055E0900014F0A37418F0A374FFAE
:1006CE00F0A3F0A3020B2E124B5C501190000EE023
:1006DE0054BFF04420F07D037FFA02087EE4FD7FD4
:1006EE000102087E90000EE020E726900053E09075
:1006FE000012F0900054E0900013F0900055E0903E
:10070E000014F0A37418F0A374FFF0A3F0A3020B6F
:10071E002E124B5C400302083190000EE054DFF0C5
:10072E004410124C101253A47D0C7FFA1257949061
:10073E00000DE0540E7012900015742A124E58904F
:10074E00000DE04440F0A3E0F0900053E0FF900075
:10075E0016E06F7028900054E0FF900017E0B50788
:10076E001C900055E0FF900018E0B507109001B204
:10077E00E0FF7D01124464E49001B2F0229002D7B2
:10078E0074FFF09001A7E07002A3E060127F017E7B
:10079E00001256AB75C13E9002D7E014F070E49093
:1007AE0003627401F0A37402F0A374C3F0900362A9
:1007BE00E0FBA3E0FAA3E0F9745A12332D90036222
:1007CE00E0FBA3E0FAA3E0240AF9E43AA801FCADA9
:1007DE00037B017A0079167E007F031232C19003EB
:1007EE0062E0FBA3E0FAA3E0240DF9E43AA801FCD1
:1007FE00AD037B017A0079127E007F031232C19025
:10080E000046E0FF900362E0FBA3E0FAA3E0F9905C
:10081E000007EF12333F900008E475F00612341A09
:10082E000211AEE4FD7F01804790000EE030E72616
:10083E00900053E0900012F0900054E0900013F0FE
:10084E00900055E0900014F0A37418F0A374FFF01C
:10085E00A3F0A3020B2E12528990000EE054FBF06F
:10086E009000157490F0124C1D1253A47D247FFA43
:10087E00025794124C0712578E9002D774FFF090C5
:10088E0001A7E07002A3E060127F017E001256AB5A
:10089E0075C13E9002D7E014F070E49003627401CB
:1008AE00F0A37402F0A374C3F0900362E0FBA3E024
:1008BE00FAA3E0F9745A12332D900362E0FBA3E021
:1008CE00FAA3E0240AF9E43AA801FCAD037B017A0D
:1008DE000079127E007F031232C1900362E0FBA307
:1008EE00E0FAA3E0240DF9E43AA801FCAD037B0184
:1008FE007A0079167E007F031232C1900362E0FB0C
:10090E00A3E0FAA3E0F9900007747512333F90004C
:10091E0008E475F00612341A1250B3900362E0FB2D
:10092E00A3E0FAA3E0F99000081233E2FDE9240AED
:10093E00F9E43AFAE92DF9EA35F0FAEF12332D908F
:10094E000362E0FBA3E0FAA3E0F99000081233E2A1
:10095E00240BF582E435F0F583741612333F9000C4
:10096E00081233E2240CFEE435F09001A7F0A3CE7A
:10097E00F0E4A3F0A3F0539AFD1232E7F59B90003A
:10098E000DE054117003123A3E900022E0FEA3E0F7
:10099E004E600302121420280302121490001574E4
:1009AE0028F0A374FFF0A3F0A3020B2E90000DE02D
:1009BE0054F7F0900022E0FEA3E04E701F90000D61
:1009CE00E0540EFEA3E0541C4E701190000BF07B11
:1009DE00017A00790B7D017F91123E6C1253A4E4D3
:1009EE00FDFF1257109002D774FFF09001A7E07030
:1009FE0002A3E060127F017E001256AB75C13E90DD
:100A0E0002D7E014F070E49003627401F0A3740254
:100A1E00F0A374C3F0900362E0FBA3E0FAA3E0F945
:100A2E00745A12332D900362E0FBA3E0FAA3E02484
:100A3E000AF9E43AA801FCAD037B017A0079127E33
:100A4E00007F031232C1900362E0FBA3E0FAA3E041
:100A5E00240DF9E43AA801FCAD037B017A00791666
:100A6E007E007F031232C1900362E0FBA3E0FAA383
:100A7E00E0F9900007747512333F900008E475F0AA
:100A8E000612341A1250B3900362E0FBA3E0FAA3ED
:100A9E00E0F99000081233E2FDE9240AF9E43AFA8B
:100AAE00E92DF9EA35F0FAEF12332D900362E0FBEF
:100ABE00A3E0FAA3E0F99000081233E2240BF582CA
:100ACE00E435F0F583741612333F9000081233E2CA
:100ADE00240CFEE435F09001A7F0A3CEF0E4A3F0D1
:100AEE00A3F0539AFD1232E7F59B90000EE030E42E
:100AFE0012900015742AF090000DE04440F0A3E02F
:100B0E00124E58900022E0FEA3E04E701D202803E6
:100B1E000212149000157428F0A374FFF0A3F0A332
:100B2E00F07B017A007912024E5F023A3EE49003A6
:100B3E0081F0900013E0900382F0900014E0900397
:100B4E0083F078847C037D017B017A0079167E0028
:100B5E007F031232C1025691900016E0248060216C
:100B6E0024FE601D24F9600A1460072470600302DD
:100B7E000CB590000DE054DFF0E490001FF0020C75
:100B8E00FE900050E0FF900014E06F60030212141C
:100B9E00900051F09002D774FFF09001A7E0700220
:100BAE00A3E060127F017E001256AB75C13E90022B
:100BBE00D7E014F070E49003627401F0A37402F0B5
:100BCE00A374C3F0900362E0FBA3E0FAA3E0F97410
:100BDE005A12332D900012E0FF900362E0FBA3E067
:100BEE00FAA3E0F9900001EF12333F900013E0906A
:100BFE00000212333F900014E090000312333F9036
:100C0E000053E090000412333F900005E412333F8E
:100C1E00900006E412333F900007740212333F90A7
:100C2E000008E475F00212341A900016E090000AE3
:100C3E0012333F90000B740112333F1250B39003E6
:100C4E0062E0FBA3E0FAA3E0F99000081233E2FDA4
:100C5E00E9240AF9E43AFAE92DF9EA35F0FAEF1245
:100C6E00332D900362E0FBA3E0FAA3E0F9900008B5
:100C7E001233E2240BF582E435F0F5837416123349
:100C8E003F9000081233E2240CFEE435F09001A7E9
:100C9E00F0A3CEF0E4A3F0A3F0539AFD1232E7F5E1
:100CAE009BE4900050F02290005EE0FF900014E074
:100CBE006F600BE0F4600790005EE0B4FF3C9000C4
:100CCE000DE054DFF0E490001FF0900016E024D405
:100CDE00601E24EE601A14601724FC601324FA6060
:100CEE000F24F5600B2461600724D86003021214F0
:100CFE00900016E0FF7D01024464020DAC9000509E
:100D0E00E0FF900014E06F6003021214900051F0A7
:100D1E0090023EE0FFE4FD02434E90005CE0FF9047
:100D2E000012E06F703090005DE0FF900013E06FF6
:100D3E00702490005EE0FF900014E0B5071890005C
:100D4E000DE054DFF0E490001FF0900016E0FB7D04
:100D5E00017FF402422C804690005CE0FF9000126E
:100D6E00E06F703A90005DE0FF900013E06F702E20
:100D7E0090005EE0FF900014E0B5072290000DE0B9
:100D8E0054DFF0E490001FF09001B2E0FF7B017A97
:100D9E0000791690036A7403F07D01023D179000EE
:100DAE001F7401F0229002D774FFF09001A7E0703B
:100DBE0002A3E060127F017E001256AB75C13E9019
:100DCE0002D7E014F070E49003627401F0A3740291
:100DDE00F0A374C3F0900362E0FBA3E0FAA3E0F982
:100DEE00745A12332D900053E0FF900362E0FBA380
:100DFE00E0FAA3E0F9900001EF12333F900054E0C7
:100E0E0090000212333F900055E090000312333FE2
:100E1E00900053E090000412333F900005E412332B
:100E2E003F900006E412333F900015E09000071249
:100E3E00333F900008E475F00412341A900014E069
:100E4E0090000A12333F900362E0FBA3E0FAA3E0A6
:100E5E00240BF9E43AA801FCAD037B017A00791664
:100E6E007E007F031232C1900362E0FBA3E0FAA37F
:100E7E00E0F90211AE9002D774FFF09001A7E07076
:100E8E0002A3E060127F017E001256AB75C13E9048
:100E9E0002D7E014F070E49003627401F0A37402C0
:100EAE00F0A374C3F0900362E0FBA3E0FAA3E0F9B1
:100EBE00745A12332D900053E0FF900362E0FBA3AF
:100ECE00E0FAA3E0F9900001EF12333F900054E0F6
:100EDE0090000212333F900055E090000312333F12
:100EEE00900053E090000412333F900005E412335B
:100EFE003F900006E412333F900015E09000071279
:100F0E00333F900008E475F00512341A900362E046
:100F1E00FBA3E0FAA3E0240AF9E43AA801FCAD032E
:100F2E007B017A0079127E007F031232C190001786
:100F3E00E0FF900362E0FBA3E0FAA3E0F990000D5E
:100F4E00EF12333F900018E090000E12333F021163
:100F5E00AE9002D774FFF09001A7E07002A3E0609C
:100F6E00127F017E001256AB75C13E9002D7E0147F
:100F7E00F070E49003627401F0A37402F0A374C3E2
:100F8E00F0900362E0FBA3E0FAA3E0F9745A123387
:100F9E002D900362E0FBA3E0FAA3E02401F9E43A0A
:100FAE00A801FCAD037B017A0079537E007F03120A
:100FBE0032C17E007F037D00900362E0FBA3E0FA66
:100FCE00A3E02404F9E43AFA12346D900015E0FF20
:100FDE00900362E0FBA3E0FAA3E0F9900007EF12A2
:100FEE00333F900008E475F00512341A900012E0B9
:100FFE0090000A12333F900013E090000B12333F23
:10100E00900016E090000C12333F900017E0900015
:10101E000D12333F900018E090000E12333F021174
:10102E00AE9002D774FFF09001A7E07002A3E060CB
:10103E00127F017E001256AB75C13E9002D7E014AE
:10104E00F070E49003627401F0A37402F0A374C311
:10105E00F0900362E0FBA3E0FAA3E0F9745A1233B6
:10106E002D900362E0FBA3E0FAA3E02401F9E43A39
:10107E00A801FCAD037B017A0079537E007F031239
:10108E0032C17E007F037D00900362E0FBA3E0FA95
:10109E00A3E02404F9E43AFA12346D900015E0FF4F
:1010AE00900362E0FBA3E0FAA3E0F9900007EF12D1
:1010BE00333F900008E475F00412341A900012E0E9
:1010CE0090000A12333F900013E090000B12333F52
:1010DE00900016E090000C12333F900017E0900045
:1010EE000D12333F0211AE9002D774FFF09001A79C
:1010FE00E07002A3E060127F017E001256AB75C154
:10110E003E9002D7E014F070E49003627401F0A3F5
:10111E007402F0A374C3F0900362E0FBA3E0FAA3A1
:10112E00E0F9745A12332D900362E0FBA3E0FAA3A8
:10113E00E02401F9E43AA801FCAD037B017A0079C1
:10114E00537E007F031232C17E007F037D00900329
:10115E0062E0FBA3E0FAA3E02404F9E43AFA1234C5
:10116E006D900015E0FF900362E0FBA3E0FAA3E0B0
:10117E00F9900007EF12333F900008E475F0031268
:10118E00341A900012E090000A12333F900013E0E0
:10119E0090000B12333F900014E090000C12333F7E
:1011AE001250B3900362E0FBA3E0FAA3E0F99000C3
:1011BE00081233E2FDE9240AF9E43AFAE92DF9EAD4
:1011CE0035F0FAEF12332D900362E0FBA3E0FAA3A1
:1011DE00E0F99000081233E2240BF582E435F0F5C5
:1011EE0083741612333F9000081233E2240CFEE48F
:1011FE0035F09001A7F0A3CEF0E4A3F0A3F0539A3C
:06120E00FD1232E7F59B22
:0112140022B7
:1028890075C13EC2AFC21278127C007D017B007A0D
:1028990000790B7E007F071232C1D2AF900015E09C
:1028A9001234472CD1052C9B0C2C9B0D2C9B0E2CE8
:1028B9009B0F2A2D102A2D112A2D122A2D132D3C5A
:1028C900142D3C152E2B1729B5182E3C1A2CF81B44
:1028D9002DF41C2D3C202B6D212B6D222B6D232BD0
:1028E9006D2429C92629ED2729DB282A992A2B179E
:1028F9002B29312C299B2E294B2F2DA8382DCE3948
:102909002CFD3E2CFD3F2CFD432CFD492CFD542E66
:102919001E5B2E4D712CF8732D9D892D9D8A2CF8E7
:10292900F32CF8F400002E5790000DE090000D30C4
:10293900E70D547FF090000FE4F0A374FAF022023F
:102949002D1B90000DE054FEF0A3E030E703022EAA
:102959005790002AE064026003E0702390000DE0C4
:1029690030E403022E57900015742E124E58EF646E
:10297900016003022E5790000DE04410022DA39030
:10298900000EE04404124C161253A47D037FFA0290
:102999002CF590000DE054EFF0A3E054FBF0E4FDBA
:1029A900FF125794124C111253A48011124C0712A2
:1029B900578E90000DE054116003022E57023A3EE3
:1029C90012570690000DE044041253A00D7F260211
:1029D9002E3912570690000DE044021253A00D7FC4
:1029E90028022E3990000DE054F9F01253A47D010C
:1029F9007F27124464900022E0FEA3E04E600302A8
:102A09002E5790000DE0540EFEA3E0541C4E6003B7
:102A1900022E5790000BF07B017A00790B7D017F24
:102A290091023E6C900015E090000BF09000151299
:102A3900356790000EE030E249900026E0FF9000F3
:102A490016E06F703D900027E0FF900017E06F706F
:102A590031900028E0FF900018E06F702590002960
:102A6900E0541FFF900015E06F701790000EE054BE
:102A7900FB124C1012578E90000DE0A320E40312B4
:102A89003A3E90000BE0FF900015F07D01022E39CF
:102A990090000EE030E442546FF078477C007D01ED
:102AA9007B017A0079407E007F071232C1E49000F1
:102AB90040F0A3F0A3F0A3F0A3F0A3F090000DE081
:102AC90054BFF0E4FDFF12579490000DE044081242
:102AD90053A07D0C7FFA025710900040E09000123D
:102AE900F0900041E0900013F0900042E090001453
:102AF900F0A3742BF0900043E0900016F09000448E
:102B0900E0900017F0900045E09000188052900086
:102B19000DE054F7F0900022E0FEA3E04E701F9004
:102B2900000DE0540EFEA3E0541C4E701190000BF2
:102B3900F07B017A00790B7D017F91123E6C125373
:102B4900A4E4FDFF12571090000EE020E403022ECA
:102B590057900015742AF090000DE04440F0A3E06E
:102B6900F0022E159002D774FFF09001A7E07002D1
:102B7900A3E060127F017E001256AB75C13E900240
:102B8900D7E014F070E49003627401F0A37402F0CA
:102B9900A374C3F0900362E0FBA3E0FAA3E0F97425
:102BA9005A12332D900053E0FF900362E0FBA3E03B
:102BB900FAA3E0F9900001EF12333F900054E0903E
:102BC900000212333F900055E090000312333F900A
:102BD9000053E090000412333F900005E412333FA4
:102BE900900006E412333F900362E0FBA3E0FAA3EE
:102BF900E0240AF9E43AA801FCAD037B017A0079E3
:102C0900167E007F031232C1900015E024E5FF9083
:102C19000362E0FBA3E0FAA3E0F9900007EF1233A7
:102C29003F900008E475F00312341A1250B3900370
:102C390062E0FBA3E0FAA3E0F99000081233E2FD99
:102C4900E9240AF9E43AFAE92DF9EA35F0FAEF123A
:102C5900332D900362E0FBA3E0FAA3E0F9900008AA
:102C69001233E2240BF582E435F0F583741612333E
:102C79003F9000081233E2240CFEE435F09001A7DE
:102C8900F0A3CEF0E4A3F0A3F0539AFD1232E7F5D6
:102C99009B2290000EE030E70A9001B2E0FFE4FDCC
:102CA900022E39900015E024FA12356990000EE0E1
:102CB90044C0F0E030E20854FB124C101253A41245
:102CC9005290E4FD7F32802490000EE030E7030249
:102CD9002E5790000EE044C0F0E030E20854FB1299
:102CE9004C101253A4125290E4FD7F320257949073
:102CF900000D801E900016E0F4600AA3E0F4600560
:102D0900A3E0B4FF0A9001B2E0FF7D01022E3990E1
:102D1900000DE04420F0A3E0F0900016E090005C84
:102D2900F0900017E090005DF0900018E090005ED0
:102D3900022E4590000EE030E727900053E0900006
:102D490012F0900054E0900013F0900055E09000CC
:102D590014F07418124E4F900015E0FFE4FD022E96
:102D69003912528990000EE054FBF0900015E09062
:102D7900000BF09000157490F0124C1D1253A47DB5
:102D8900247FFA12579490000BE0FF900015F07D14
:102D990001022E3990000DE04420F0A3E0F02290CA
:102DA9000059E014F0E07003022E577FF47E0112FF
:102DB90056AB900059E0B4020A900015E0FF7D017E
:102DC900124464804790005AE014F0E07003022E28
:102DD900577FF47E011256AB90005AE0B4020A9074
:102DE9000015E0FF7D01124464802190005BE0142E
:102DF900F0E0605A7FF47E011256AB90005BE0B4BC
:102E0900020A900015E0FF7D011244647B017A00FB
:102E19007912024E5F7FF47E011256AB7D017F5A13
:102E2900800E7FF47E011256AB900015E0FF7D0104
:102E390002446490000DE04420F0A3E0F090001FEC
:0E2E49007432F022C2B5E4FFFE1238ADD2B5ED
:012E57002258
:10531600C2AF78127C007D017B017A0279E57E00BE
:105326007F071232C1C218D2AF900015E024707008
:105336002490000DE0FEA3E0FF30E219EE20E41514
:10534600900015742E124E58BF010A90000DE044CD
:0653560010F0A3E0F022BC
:10554100C2AFC21A78127C007D017B017A0279DE3A
:105551007E007F071232C1D2AF900015E024A46013
:105561000A2422700D7D017F3A80047D017F5C1247
:035571004464226D
:10493D0090001AE0602314F0E0701EA3E07009905F
:10494D000358E04401F0801190001BE014F0E0707A
:10495D000280EC900019E0A3F090001DE06023149C
:10496D00F0E0701EA3E07009900358E04402F0805F
:10497D001190001EE014F0E0700280EC90001CE03D
:10498D00A3F090001FE0601214F0700E90000DE087
:10499D0030E507900358E04404F0900051E0600BBF
:1049AD0014F07007900358E04410F090000CE06094
:1049BD000B14F07007900358E04408F090000FE0DE
:1049CD007002A3E0601590000F74FFF5F01233B67E
:1049DD0045F07007900358E04420F0900021E0600E
:0C49ED000B14F07007900358E04440F0F9
:0149F900229B
:08502A004102D700C12AC12B8D
:104D3400900365EEF0A3EFF0C28EE490018DF0A332
:104D4400F0A37402F0A37437F0E4900192F0A3F09E
:104D5400A3F0A3F0A3F0A3F090019AF0A3F09001C4
:104D640098F0A3F075985053890F438920900365F8
:104D7400E0FEA3E0FFC39460EE94094011438E402B
:104D8400AB07AA06E4F9F8FF7ECA7D088015538EA6
:104D9400BF900365E0FEA3E0FBAA06E4F9F87F8078
:104DA4007EBBFDFC12535CEFF404F58B858B8D53B5
:0F4DB400877FC28FD28EC298C299D29CD2AC2276
:1053E00090019C7401F0A374ABF0A37402F0A37459
:1053F000C3F0E4A3F0A3F0A3F0A3F0A3F0A3F0A301
:10540000F09001A9F0A3F09001A7F0A3F0759A50D5
:10541000538EF7438E04759CF6438E1043AF0122E2
:0300230002478A07
:10478A00C2AFC0E0C083C082C0D075D000C004C030
:10479A0006C007309805C29802485B209903024870
:1047AA005BC299900199E024FFF0900198E034FFF0
:1047BA00F090019BE004F0700690019AE004F090FA
:1047CA000198E07002A3E0601B90019AE0FEA3E06A
:1047DA00FF90018FE0FCA3E02FF582EC3EF583E029
:1047EA00F599806D90018FE0FEA3E02405F582E43F
:1047FA003EF583E0FF64F06004EFB4FD0D900051D4
:10480A00E4F09000217432F0804790018FE0FEA31B
:10481A00E0FF240EF582E43EF583E0701B90005120
:10482A00F0EF240CF582E43EF583E0900021B40118
:10483A00057414F0801B801690018FE0FEA3E0241B
:10484A0007F582E43EF583E0B48306900021740AFA
:10485A00F0D007D006D004D0D0D082D083D0E0D216
:02486A00AF326B
:03004300023BB8C5
:103BB800C2AFC0E0C0F0C083C082C0D075D000C022
:093BC80000C004C005C006C007DE
:103BD100E59A20E003023CB9539AFEAF9B9001A6FF
:103BE10074C8F09001A1E475F0011233CCFC74AB00
:103BF10025F0F58274013CF583EFF09001A0E0140B
:103C0100602A14603F147003023C94240360030291
:103C11003CB0EFB45A0F9001A07401F09001A5746B
:103C210006F0023CB99001A1E4023CB69001A5E086
:103C310014F06003023CB99001A07402F09001A558
:103C410004F080749001A5E014F0E0FDB4010AEFE6
:103C51009001A3F0A3E4F0805FED705CEFFD9001B3
:103C6100A4E02DF09001A3E03400F0D3A3E0948010
:103C71009001A3E094009001A050137403F090010F
:103C8100A4E02402F09001A3E03400F0802AE4F0E3
:103C9100A380229001A374FFF5F01233B645F070B2
:103CA10017EFB41602D22A9001A0E4F0A380069087
:103CB10001A0E4F0A3F0A3F0E59A30E142539AFDAC
:103CC1009001A8E024FFF09001A7E034FFF09001FB
:103CD100AAE004F070069001A9E004F09001A7E0C9
:103CE1007002A3E060199001A9E0FEA3E0FF90013A
:0F3CF1009EE0FCA3E02FF582EC3EF583E0F59B0F
:103D0000D007D006D005D004D000D0D0D082D08348
:073D1000D0F0D0E0D2AF3289
:0750AC00E090000B12333FFE
:0B50B300900370EBF0A3EAF0A3E9F01B
:1050BE00E4FDE92401F9E43AFAA3EBF0A3EAF0A344
:1050CE00E9F0900370E0FBA3E0FAA3E0F99000088A
:1050DE001233E22409FEE435F0900376F0A3CEF00D
:1050EE0090037674FFF5F01233CC45F06017900301
:1050FE0073E0FBA3E475F0011233CCA9F0FA12327F
:07510E00E72DFD80DBAF057A
:015115002277
:0B4F5300900365EBF0A3EAF0A3E9F087
:104F5E00E4FDE92401F9E43AFAA3EBF0A3EAF0A3A5
:104F6E00E9F0900365E0FBA3E0FAA3E0F9900008F6
:104F7E001233E22409FEE435F090036BF0A3CEF079
:104F8E0090036B74FFF5F01233CC45F0601790036D
:104F9E0068E0FBA3E475F0011233CCA9F0FA1232EB
:104FAE00E72DFD80DB900368E0FBA3E0FAA3E0F9B8
:0B4FBE001232E76D60037F00227F01CC
:014FC90022C5
:103E6C00900368EFF0A3EDF0A3EBF0A3EAF0A3E965
:013E7C00F055
:103E7D009002D774FFF09001A7E07002A3E06012EA
:103E8D007F017E001256AB75C13E9002D7E014F053
:103E9D0070E490036D7401F0A37402F0A374C3F089
:103EAD0090036DE0FBA3E0FAA3E0F9745A12332DF1
:103EBD00900053E0FF90036DE0FBA3E0FAA3E0F95F
:103ECD00900001EF12333F900054E0900002123346
:103EDD003F900055E090000312333F900004EF1225
:103EED00333F900005E412333F900006E412333F58
:103EFD00900368E090000712333F900369E0FFFDE7
:103F0D00900008E48DF012341AEF6029900369E0F7
:103F1D00FF7E0090036DE0FBA3E0FAA3E0240AF915
:103F2D00E43AA801FCAD0390036AE0FBA3E0FAA319
:103F3D00E0F91232C190036DE0FBA3E0FAA3E0F9C2
:103F4D001250B390036DE0FBA3E0FAA3E0F99000EB
:103F5D00081233E2FDE9240AF9E43AFAE92DF9EA07
:103F6D0035F0FAEF12332D90036DE0FBA3E0FAA3C9
:103F7D00E0F99000081233E2240BF582E435F0F5F8
:103F8D0083741612333F9000081233E2240CFEE4C2
:103F9D0035F09001A7F0A3CEF0E4A3F0A3F0539A6F
:063FAD00FD1232E7F59B56
:013FB30022EB
:08457500900365EFF0A3EDF0E7
:10457D009002D774FFF09001A7E07002A3E06012E3
:10458D007F017E001256AB75C13E9002D7E014F04C
:10459D0070E49003677401F0A37402F0A374C3F088
:1045AD00900367E0FBA3E0FAA3E0F9745A12332DF0
:1045BD00900053E0FF900367E0FBA3E0FAA3E0F95E
:1045CD00900001EF12333F900054E090000212333F
:1045DD003F900055E090000312333F900004EF121E
:1045ED00333F900005E412333F900006E412333F51
:1045FD00900007740112333F900008E475F0021229
:10460D00341A900365E090000A12333F900366124E
:10461D0050AC900367E0FBA3E0FAA3E0F99000082B
:10462D001233E2FDE9240AF9E43AFAE92DF9EA3503
:10463D00F0FAEF12332D900367E0FBA3E0FAA3E04D
:10464D00F99000081233E2240BF582E435F0F5837E
:10465D00741612333F9000081233E2240CFEE43539
:10466D00F09001A7F0A3CEF0E4A3F0A3F0539AFDD0
:05467D001232E7F59B7D
:014682002215
:08446400900365EFF0A3EDF0F9
:10446C009002D774FFF09001A7E07002A3E06012F5
:10447C007F017E001256AB75C13E9002D7E014F05E
:10448C0070E49003677401F0A37402F0A374C3F09A
:10449C00900367E0FBA3E0FAA3E0F9745A12332D02
:1044AC009001AFE0FF900367E0FBA3E0FAA3E0F913
:1044BC00900001EF12333F9001B0E09000021233F4
:1044CC003F9001B1E090000312333F900053E09015
:1044DC00000412333F900005E412333F900006E4D1
:1044EC0012333F900007740212333F900008E475BA
:1044FC00F00212341A900365E090000A12333F90D8
:10450C0003661250AC900367E0FBA3E0FAA3E0F95A
:10451C009000081233E2FDE9240AF9E43AFAE92D95
:10452C00F9EA35F0FAEF12332D900367E0FBA3E0C4
:10453C00FAA3E0F99000081233E2240BF582E4357B
:10454C00F0F583741612333F9000081233E2240CFA
:10455C00FEE435F09001A7F0A3CEF0E4A3F0A3F0B5
:08456C00539AFD1232E7F59BA2
:014574002224
:08434E00900365EFF0A3EDF010
:104356009002D774FFF09001A7E07002A3E060120C
:104366007F017E001256AB75C13E9002D7E014F075
:1043760070E49003677401F0A37402F0A374C3F0B1
:10438600900367E0FBA3E0FAA3E0F9745A12332D19
:1043960090004EE0FF900367E0FBA3E0FAA3E0F98C
:1043A600900001EF12333F90004FE090000212336D
:1043B6003F900050E090000312333F900053E0908E
:1043C600000412333F900005E412333F900006E4E8
:1043D60012333F900007740212333F900008E475D1
:1043E600F00212341A900365E090000A12333F90EF
:1043F60003661250AC900367E0FBA3E0FAA3E0F972
:104406009000081233E2FDE9240AF9E43AFAE92DAC
:10441600F9EA35F0FAEF12332D900367E0FBA3E0DB
:10442600FAA3E0F99000081233E2240BF582E43592
:10443600F0F583741612333F9000081233E2240C11
:10444600FEE435F09001A7F0A3CEF0E4A3F0A3F0CC
:0D445600539AFD1232E7F59BE4900050F000
:014463002236
:0B422C00900365EFF0A3EDF0A3EBF0B2
:104237009002D774FFF09001A7E07002A3E060122C
:104247007F017E001256AB75C13E9002D7E014F095
:1042570070E49003687401F0A37402F0A374C3F0D0
:10426700900368E0FBA3E0FAA3E0F9745A12332D38
:10427700900053E0FF900368E0FBA3E0FAA3E0F9A6
:10428700900001EF12333F900054E0900002123388
:104297003F900055E090000312333F900004EF1267
:1042A700333F900005E412333F900006E412333F9A
:1042B700900007740212333F900008E475F0031270
:1042C700341A900365E090000A12333F900366E0CA
:1042D70090000B12333F900367E090000C12333FBE
:1042E7001250B3900368E0FBA3E0FAA3E0F9900053
:1042F700081233E2FDE9240AF9E43AFAE92DF9EA6A
:1043070035F0FAEF12332D900368E0FBA3E0FAA330
:10431700E0F99000081233E2240BF582E435F0F55A
:1043270083741612333F9000081233E2240CFEE424
:1043370035F09001A7F0A3CEF0E4A3F0A3F0539AD1
:06434700FD1232E7F59BB8
:01434D00224D
:103D1700900365EFF0A3EDF0A3EBF0A3EAF0A3E9BE
:013D2700F0AB
:103D28009002D774FFF09001A7E07002A3E0601240
:103D38007F017E001256AB75C13E9002D7E014F0A9
:103D480070E490036B7401F0A37402F0A374C3F0E1
:103D580090036BE0FBA3E0FAA3E0F9745A12332D49
:103D6800900053E0FF90036BE0FBA3E0FAA3E0F9B7
:103D7800900001EF12333F900054E090000212339C
:103D88003F900055E090000312333F900004EF127B
:103D9800333F900005E412333F900006E412333FAE
:103DA800900007740212333F90036AE0FF2402FD7B
:103DB800E4339000088DF012341A900365E0900007
:103DC8000A12333F900366E090000B12333F7E00E7
:103DD80090036BE0FBA3E0FAA3E0240CF9E43AA813
:103DE80001FCAD03900367E0FBA3E0FAA3E0F9123E
:103DF80032C190036BE0FBA3E0FAA3E0F91250B3E1
:103E080090036BE0FBA3E0FAA3E0F99000081233FB
:103E1800E2FDE9240AF9E43AFAE92DF9EA35F0FA7B
:103E2800EF12332D90036BE0FBA3E0FAA3E0F990C7
:103E380000081233E2240BF582E435F0F58374169A
:103E480012333F9000081233E2240CFEE435F09060
:103E580001A7F0A3CEF0E4A3F0A3F0539AFD123229
:033E6800E7F59BE0
:013E6B002234
:05468300900393EFF02D
:104688009002D774FFF09001A7E07002A3E06012D7
:104698007F017E001256AB75C13E9002D7E014F040
:1046A80070E49003947401F0A37402F0A374C3F04F
:1046B800900394E0FBA3E0FAA3E0F9745A12332DB7
:1046C800900053E0FF900394E0FBA3E0FAA3E0F925
:1046D800900001EF12333F900054E0900002123333
:1046E8003F900055E090000312333F900004EF1212
:1046F800333F900005E412333F900006E412333F45
:10470800900007E412333F900008E475F00112347A
:104718001A900393E090000A12333F1250B39003AB
:1047280094E0FBA3E0FAA3E0F99000081233E2FD5D
:10473800E9240AF9E43AFAE92DF9EA35F0FAEF1230
:10474800332D900394E0FBA3E0FAA3E0F99000086E
:104758001233E2240BF582E435F0F5837416123334
:104768003F9000081233E2240CFEE435F09001A7D4
:10477800F0A3CEF0E4A3F0A3F0539AFD1232E7F5CC
:014788009B95
:01478900220D
:105757009001A7E4F0A304F0E4A3F0A3F0539AFDAB
:035767008F9B22F3
:101215007B017A0179AB900362EBF0A3EAF0A3E9D5
:10122500F0C22A124F53EF7003021B429001B2E045
:10123500FF64017003021B427D011245757B017A33
:101245000179AB900362EBF0A3EAF0A3E9F090001B
:1012550007123300FF6480600CEF64826007EF645F
:10126500836002C22BEF12344718B904157F0515A8
:10127500360C15360D15360E15360F15541015543A
:10128500111554121554131824141824151AB417CB
:101295001311191AFB1A17981B1A2E1C182420183B
:1012A5002426180827184F2813922C18FE3819EAF7
:1012B5003912E73A17D43E17D43F17D44317D44908
:1012C50017D45417275A1A745C17D47315C6751397
:1012D500F08013F08214958318838918838A00009F
:1012E5001B38900015743AF0900362E0FBA3E0FA16
:1012F500A3E0F990000A123300600990001674010A
:10130500F0021AA4E4900016F0021AA478817C0376
:101315007D017B017A0179B57E007F061232C1908D
:101325000381E0C394605022A3E0C39460501BA3E3
:10133500E0C394245014A3E0C39432500DA3E0C33A
:1013450094135006A3E094994004E4FD803A1256A4
:101355009178127C007D017B017A0379817E007F83
:10136500031232C178167C007D017B017A037984F2
:101375007E007F031232C19000157419F07B017A4B
:10138500007912124E5F7D017F19021B3F900362A7
:10139500E0FBA3E0FAA3E0F990000A123300F46041
:1013A5001C90000B123300F4601390000C123300F4
:1013B500F4600A90000512330064FE70267D017FFB
:1013C5002C1244649001A7E07002A3E06003008042
:1013D500F3E4F5DAC2A9C28CC2A8F5A8F5AF75C7C2
:1013E5002080FE900015742C02176B900198E07018
:1013F50002A3E06003D22B22D282C2AF900362E047
:10140500FBA3E0FAA3E0F99000081233E2240CFFF5
:10141500E435F0FE78377C027D017B017A0179ABFA
:101425001232C1D2AF90018F7402F0A37437F090DD
:101435000362E0FBA3E0FAA3E0F99000081233E2AF
:10144500240CFEE435F0900198F0A3CEF0E4A3F06F
:10145500A3F0C29990019AE0FEA3E0FF90018FE00E
:10146500FCA3E02FF582EC3EF583E0F599900004AE
:1014750012330090004EF090000512330090004F9B
:10148500F0900006123300900050F0A3745FF02234
:10149500900198E07002A3E06003D22B22D282C2B1
:1014A500AF900362E0FBA3E0FAA3E0F99000081215
:1014B50033E2240CFFE435F0FE78377C027D017BB6
:1014C500017A0179AB1232C1D2AF90018F7402F06B
:1014D500A37437F0900362E0FBA3E0FAA3E0F99070
:1014E50000081233E2240CFEE435F0900198F0A3D5
:1014F500CEF0E4A3F0A3F0C29990019AE0FEA3E038
:10150500FF90018FE0FCA3E02FF582EC3EF583E030
:10151500F59990000412330090004EF090000512EA
:10152500330090004FF0900006123300900050F009
:101535002290000EE030E717900362E0FBA3E0FA8B
:10154500A3E0F9900007123300FFE4FD021B3F788A
:10155500127C007D017B017A0079537E007F0312A6
:1015650032C1900362E0FBA3E0FAA3E0F990000723
:10157500123300900015F0E9803190000EE030E75D
:1015850007E4FD7F05021B3F78127C007D017B018E
:101595007A0079537E007F031232C19000157405DD
:1015A500F0900362E0FBA3E0FAA3E0240AF9E43A31
:1015B500FA78167C007D017E007F031232C1021B82
:1015C5002F90000DE05408FEA3E054104E7006FD68
:1015D5007F75021B3F90000DE030E607E4FD7F7547
:1015E500021B3F90000EE020E403021684900040A9
:1015F500E0FF9001B5E0FEB50718900041E0FF90CF
:1016050001B6E0B5070C900042E0FF9001B7E06F2E
:10161500605F900043E0B50616A3E0FF9001B6E0D9
:10162500B5070C900045E0FF9001B7E06F60429070
:101635000040E0FF9001B8E0FEB50718900041E0DA
:10164500FF9001B9E0B5070C900042E0FF9001BAA8
:10165500E06F601D900043E06E7024A3E0FF9001F1
:10166500B9E0B5071A900045E0FF9001BAE0B5076B
:101675000EE4FD7F051257947D017F75021B3F9097
:10168500000DE020E303021720900047E0FF9001E2
:10169500B5E0FEB50718900048E0FF9001B6E0B54B
:1016A500070C900049E0FF9001B7E06F605F900084
:1016B5004AE0B50616A3E0FF9001B6E0B5070C9029
:1016C500004CE0FF9001B7E06F6042900047E0FFFB
:1016D5009001B8E0FEB50718900048E0FF9001B909
:1016E500E0B5070C900049E0FF9001BAE06F601D7E
:1016F50090004AE06E7024A3E0FF9001B9E0B507C1
:101705001A90004CE0FF9001BAE0B5070EE4FD7FAA
:10171500051257107D017F75021B3FE4FD7F7502A1
:101725001B3F9001B0E064FE6003021B429001B5CF
:10173500E0900053F0C2AFE4FFFE1238ADD2AF9097
:101745000053E0900012F0900054E0900013F090E8
:101755000055E0900014F0A3745BF0900053E09006
:101765000016F0021B2FF0900362E0FBA3E0FAA342
:10177500E0F990000A123300900016F090000B1269
:101785003300900017F090000C123300900018F011
:10179500021B2F9001B8E0900012F09001B2E0908A
:1017A5000015F0900362E0FBA3E0FAA3E0F99000D6
:1017B5000A123300900016F090000B1233009000CF
:1017C50017F090000C123300900018F0021B2F90B8
:1017D50001B2E0900015F0900362E0FBA3E0FAA3EC
:1017E500E0F990000A123300900016F090000B12F9
:1017F5003300900017F090000C123300900018F0A1
:10180500021B2F9001B2E0900015F0A374FFF0A326
:10181500F0A3F07B017A007912124E5FC228229064
:10182500000EE020E70790000DE030E30A9001B2DA
:10183500E0FFE4FD021B3F9001B2E0900015F0A32C
:1018450074FFF0A3F0A3F0021B2F90000EE020E739
:101855000790000DE030E30A9001B2E0FFE4FD02DD
:101865001B3F9001B2E0900015F0A374FFF0A3F0C8
:10187500A3F07B017A007912124E5FD228229001E3
:10188500B5E0900012F09001B6E0900013F0E4A3EB
:10189500F09001B2E0900015F09001B7E0900016CD
:1018A500F09001B8E0900017F09001B9E0900018B1
:1018B500F0021B2F90000CE07003021B42E4F09035
:1018C500000F7475F0A37430F0900053E09000128F
:1018D500F0900054E0900013F0900055E090001453
:1018E500F0A3748BF0A374FFF0A3F0A3F07B017A4F
:1018F500007912124E5FD226229001B5E0FFD394F3
:101905000050030219E3EF940A40030219E3EF14B0
:10191500B40900507B90192875F003A4C58325F000
:10192500C5837302194302194502195102195D0253
:10193500196402197002197702198302198A8050F5
:101945009000567409F0A37460F0804E90005674B0
:1019550012F0A374C0F08042900056742580189050
:1019650000567438F0A37440F0802F900056744BE5
:1019750080189000567470F0A37480F0801C90005D
:10198500567496800590005674E1F0A3E4F0800A41
:101995009000567404F0A374B0F0900056E0FEA3D6
:1019A500E0FF124D34E4FFFE1238AD900053E09095
:1019B5000012F0900054E0900013F0900055E09074
:1019C5000014F0A37438F09001B5E0900016F07B98
:1019D500017A007912124E5F900059021A69E4FDEE
:1019E5007F38021B3F9001B5E0FF6004640170324F
:1019F500900053E0900012F0900054E0900013F036
:101A0500900055E0900014F0A37439F09001B5E012
:101A1500900016F07B017A007912124E5F90005A01
:101A25008042E4FD7F39021B3F9001B5E0FF600471
:101A350064017034900053E0900012F0900054E07F
:101A4500900013F0900055E0900014F0A3741CF082
:101A55009001B5E0900016F07B017A007912124EE4
:101A65005F90005B7403F022E4FD7F1C021B3F9036
:101A750001B5E0FF6032D3940A502D900053E090F9
:101A85000012F0900054E0900013F0900055E090A3
:101A95000014F0A3745CF09001B5E0900016F07BA3
:101AA500017A007912024C1DE4FD7F5C021B3F9018
:101AB50001B5E0FF600464017036900053E09000CA
:101AC50012F0900054E0900013F0900055E0900063
:101AD50014F0A37417F09001B5E0900016F0900192
:101AE500B6E0900017F09001B7E0900018F0803A4A
:101AF500E4FD7F178044900053E0900012F09000C1
:101B050054E0900013F0900055E0900014F0A37499
:101B15001AF09001B5E0900016F09001B6E0900043
:101B250017F09001B7E0900018F07B017A00791268
:0D1B3500024E5F9001B2E0FFE4FD12446437
:011B42002280
:0B40F20090038DEBF0A3EAF0A3E9F0CF
:1040FD009002D774FFF09001A7E07002A3E0601268
:10410D007F017E001256AB75C13E9002D7E014F0D0
:10411D0070E49003907401F0A37402F0A374C3F0E3
:10412D00900390E0FBA3E0FAA3E0F9745A12332D4B
:10413D00900390E0FBA3E0FAA3E02401F9E43AA890
:10414D0001FCAD0390038DE0FBA3E0FAA3E0F97E43
:10415D00007F031232C190038DE0FBA3E0FAA3E0D0
:10416D002404F9E43AFAC003C002C001A3E0FBA3A2
:10417D00E0FAA3E02404F9E43AA801FCAD03D00170
:10418D00D002D0037E007F031232C190038DE0FB7D
:10419D00A3E0FAA3E0F9900003123300FF9003901F
:1041AD00E0FBA3E0FAA3E0F9900007EF12333F9094
:1041BD000008E4F5F012341A1250B3900390E0FBAE
:1041CD00A3E0FAA3E0F99000081233E2FDE9240A16
:1041DD00F9E43AFAE92DF9EA35F0FAEF12332D90B8
:1041ED000390E0FBA3E0FAA3E0F99000081233E29C
:1041FD00240BF582E435F0F583741612333F9000ED
:10420D00081233E2240CFEE435F09001A7F0A3CEA2
:0E421D00F0E4A3F0A3F0539AFD1232E7F59BF4
:01422B002270
:10542000900399EFF09002D774FFF09001A7E0701D
:1054300002A3E060127F017E001256AB75C13E9060
:1054400002D7E014F070E49001A7E4F0A304F0E4C4
:0E545000A3F0A3F0539AFD900399E0F59B2280
:0554D400900397EFF0CA
:1054D9009002D774FFF0900198E07002A3E0601287
:1054E9007F017E001256AB75C13E9002D7E014F0E1
:1054F90070E4C2AC900397E0F5993099FDC299D256
:01550900ACF5
:01550A00227E
:10576A0030220BC222C297D286D287D22722C2AF58
:02577A0080FEAF
:0100120022CB
:0657D70075C7828FC52298
:0857C800E4F5C7F5C5F5C622A2
:1056F000AB07AA06AF058FC2EAF5C3AF038FC47527
:06570000C65A75C6A52281
:10574300AD07AC06ECF5C3AF058FC475C65A75C675
:04575300A5AFC2221A
:10577C00AD07AC06ECF5C3AF058FC475C65A75C63C
:02578C00A52254
:03000000024DC3EB
:0C4DC300787FE4F6D8FD758125024E0AC9
:1031F100E709F608DFFA8046E709F208DFFA803EC0
:1032010088828C83E709F0A3DFFA8032E309F608AC
:10321100DFFA8078E309F208DFFA807088828C8314
:10322100E309F0A3DFFA806489828A83E0A3F608C8
:10323100DFFA805889828A83E0A3F208DFFA804CA2
:1032410080D280FA80C680D4806980F28033801079
:1032510080A680EA809A80A880DA80E280CA8033E2
:1032610089828A83ECFAE493A3C8C582C8CCC5835A
:10327100CCF0A3C8C582C8CCC583CCDFE9DEE7802A
:103281000D89828A83E493A3F608DFF9ECFAA9F0A9
:10329100EDFB2289828A83ECFAE0A3C8C582C8CCFF
:1032A100C583CCF0A3C8C582C8CCC583CCDFEADE18
:1032B100E880DB89828A83E493A3F208DFF980CC7A
:1032C10088F0EF60010E4E60C388F0ED2402B40473
:1032D1000050B9F582EB2402B4040050AF2323451A
:0632E100822390324173CC
:1032E700BB010689828A83E0225002E722BBFE02E5
:0932F700E32289828A83E4932218
:10330000BB010CE58229F582E5833AF583E0225082
:1033100006E92582F8E622BBFE06E92582F8E222CC
:0D332000E58229F582E5833AF583E49322E6
:10332D00BB010689828A83F0225002F722BBFE017F
:02333D00F32279
:10333F00F8BB010DE58229F582E5833AF583E8F0C4
:10334F00225006E92582C8F622BBFE05E92582C870
:02335F00F22258
:10336100BC000BBE0029EF8DF084FFADF022E4CC50
:10337100F875F008EF2FFFEE33FEEC33FCEE9DEC19
:10338100984005FCEE9DFE0FD5F0E9E4CEFD22ED5F
:10339100F8F5F0EE8420D21CFEADF075F008EF2FA9
:1033A100FFED33FD4007985006D5F0F222C398FD9A
:0533B1000FD5F0EA2237
:1033B600C5F0F8A3E028F0C5F0F8E58215827002A2
:0633C6001583E038F0223F
:1033CC00A3F8E0C5F025F0F0E582158270021583B4
:0633DC00E0C838F0E82211
:1033E200BB0110E58229F582E5833AF583E0F5F029
:1033F200A3E0225009E92582F886F008E622BBFE06
:103402000AE92582F8E2F5F008E222E5832AF5834B
:08341200E993F5F0A3E9932210
:10341A00F8BB0111E58229F582E5833AF583E8F0E4
:10342A00E5F0A3F0225009E92582C8F608A6F022A1
:0D343A00BBFE09E92582C8F2E5F008F22288
:10535C00C2D5E830E70FB2D5E4C39BFBE49AFAE47C
:10536C0099F9E498F8EC30E717B2D512539212344D
:10537C00D5E4C39BFBE49AFAE499F9E498F880032A
:10538C001234D530D50DE4C39FFFE49EFEE49DFDA1
:04539C00E49CFC226F
:10344700D083D082F8E4937012740193700DA3A314
:1034570093F8740193F5828883E473740293686028
:06346700EFA3A3A380DF28
:10346D00EF4E6012EF60010EEDBB010B89828A8376
:10347D00F0A3DFFCDEFA2289F05007F709DFFCA983
:0C348D00F022BBFEFCF309DFFCA9F022DA
:10486C0090036EEEF0A3EFF0A37403F0A37478F052
:10487C00900370E0FEA3E0F5828E83E0FEA3E0FFE0
:10488C004E7003FEFF228F828E83A3A3E0FCA3E075
:10489C00FD90036EE0FAA3E0FBC3ED9BEC9A500A8B
:1048AC00900370EEF0A3EFF080C68F828E83A3A3EB
:1048BC00E0FCA3E0C39BFDEC9AFC900372F0A3ED2B
:1048CC00F0C39410EC940050178F828E83E0FCA3FD
:1048DC00E0FD900370E0FAA3E0F5828A83EC80455A
:1048EC00900373E024FCF0900372E034FFF0E0FDE1
:1048FC00A3E08F828E83A3A3CDF0A3EDF0EF24046D
:10490C00FFE43EFE900373E02FFF900372E03EFE47
:10491C00900370F0A3EFF090036EE0FDA3E08F82A4
:10492C008E83A3A3CDF0A3EDF0EF2404FFE43EFEB1
:01493C002258
:0B5032004803780000000000000000B0
:10545E00EF4E7008FE7F01ED1D70011C900378EE7B
:10546E00F0A3EFF0A3ECF0A3EDF0900378E0FEA331
:10547E00E0FFF5828E83E4F0A3F0ED24FCFDEC3426
:0C548E00FF8F828E83A3A3F0A3EDF02219
:103FB40090036BEEF0A3EFF04E70030240F1900318
:103FC4007AE07002A3E070030240F190036BE0FE1C
:103FD400A3E024FCFFEE34FFFEA37403F0A3747883
:103FE400F090036DE0FCA3E0F5828C83E0FCA3E099
:103FF400FD90036FECF0A3EDF04C602090036BE0B8
:10400400FCA3E0FD90036FE0FAA3E0FBD39DEA9CE0
:10401400500A90036DEAF0A3EBF080C590036FE0C3
:104024007002A3E0604D8F828E83A3A3E0FCA3E023
:10403400FD90036CE02DFD90036BE03CFC90036F5E
:10404400E0FAA3E0FB6D7002EA6C70278B828A832E
:10405400A3A3E0FCA3E02404FDE43C8F828E83A3AD
:10406400A38DF01233B690036FE0FCA3E0F5828CCD
:1040740083800390036FE0FDA3E08F828E83CDF0F5
:10408400A3EDF090036DE0FCA3E0FDF5828C83A327
:10409400A3E0FAA3E0FBED2BFDEC3ACD2404CD34F0
:1040A40000FCED6F7002EC6E70338F828E83A3A3DD
:1040B400E0FCA3E02404FDE43CFC90036DE0FAA3DF
:1040C400E0FBF5828A83A3A3EC8DF01233B68F82D2
:1040D4008E83E0FFA3E08B828A83CF800C90036DF4
:0E40E400E0FCA3E0F5828C83EEF0A3EFF02267
:104DCF00022E58E493A3F8E493A34003F68001F274
:104DDF0008DFF48029E493A3F85407240CC8C333E5
:104DEF00C4540F4420C8834004F456800146F6DFB4
:104DFF00E4800B0102040810204080904FCAE47E2B
:104E0F00019360BCA3FF543F30E509541FFEE493A8
:104E1F00A360010ECF54C025E060A840B8E493A36F
:104E2F00FAE493A3F8E493A3C8C582C8CAC583CA9A
:104E3F00F0A3C8C582C8CAC583CADFE9DEE780BE52
:01503D000072
:1034990075F008758200EF2FFFEE33FECD33CDCCEA
:1034A90033CCC58233C5829BED9AEC99E58298406D
:1034B9000CF582EE9BFEED9AFDEC99FC0FD5F0D64A
:1034C900E4CEFBE4CDFAE4CCF9A88222B800C1B974
:1034D9000059BA002DEC8BF084CFCECDFCE5F0CBB2
:1034E900F97818EF2FFFEE33FEED33FDEC33FCEBEB
:1034F90033FB10D703994004EB99FB0FD8E5E4F9A6
:10350900FA227818EF2FFFEE33FEED33FDEC33FC92
:10351900C933C910D7059BE99A4007EC9BFCE99A86
:10352900F90FD8E0E4C9FAE4CCFB2275F010EF2FCB
:10353900FFEE33FEED33FDCC33CCC833C810D707CB
:103549009BEC9AE899400AED9BFDEC9AFCE899F806
:0E3559000FD5F0DAE4CDFBE4CCFAE4C8F92299
:00000001FF
