:10047B000821C0C0C0C0C0C0C0C0202629000800D1
:10048B0010A76258430322F80047B610181D1CC76B
:10049B0000B2EA2A0011598135090E060405000C39
:0304AB0011F178D4
:10054100E4FDFCC3ED9FEC9E50070DBD00010C8046
:10055100F2E4FCFDC3ED9FEC9E50070DBD00010CC4
:0205610080F226
:010563002275
:0D063B00D292D2B2D297D296D295D293220B
:1005C200000000000000000000000000000000EF3A
:0905D2001F70011E144E70E82296
:07066800C293C297D2932256
:100586001206687F887E131205411205A41201ED3A
:0E0596007B007A0079217559087F3E0204E54A
:10051700E4FEC297FDEF30E704D2958002C295EF63
:1005270025E0FFD2970000EE25E0FE3096010EC2CF
:090537009700000DBD08DEAF06BF
:010540002298
:10000300C2932096FD7F301205172096FDD29322CE
:1005A400D2937F017E001205C2C2937F017E0012A6
:0E05B40005C2D2937F297E001205C202000309
:10061700AC05C2932096FD120517AF04120517D239
:0206270093221C
:0604E5008B568A5789586E
:1004EB00EF4440FFC2932096FD120517E4FCECC3CA
:1004FB0095595015AB56AA57A9588C827583001283
:0B050B00041AFF1205170C80E5D293C4
:0105160022C2
:0B065500C2932096FD120517D29322DD
:1005DB00EF4480FFC2932096FD120517E4FF12052E
:0305EB0017D29391
:0105EE0022EA
:0604B1008B1A8A1B891C56
:1004B700EF44C0FFC2932096FD120517E4FCECC37E
:1004C700951D5017E4FF120517AB1AAA1BA91C8C20
:0D04D70082758300EF1204590C80E3D2936C
:0104E40022F5
:1005EF00EF44C0FFC2932096FD120517E4FF1205DA
:0305FF0017D2937D
:0106020022D5
:1001ED00AD297F0C120617AD2A7F0B120617AD2B0A
:1001FD007F0C120617AD2C7F0D120617AD2D7F0E3D
:10020D00120617AD2E7F0F120617AD2F7F10120697
:10021D0017AD307F11120617AD317F12120617ADD3
:10022D00327F13120617AD337F14120617AD347FCC
:10023D000A120617AD357F15120617AD367F21123E
:10024D000617AD377F22120617AD387F1812061725
:10025D00AD397F19120617AD3A7F1A120617AD3B4D
:10026D007F1B120617AD3C7F1C120617AD3D7F1D7F
:10027D00120617AD3E7F23120617AD3F7F241206DF
:10028D0017AD407F25120617AD417F26120617AD1B
:10029D00427F29120617AD437F2C120617AD447FFE
:1002AD002D120617AD457F2E120617AD46E4FF122F
:1002BD000617AD477F02120617AD487F07120617C6
:1002CD00AD497F08120617AD4A7F09120617AD4BCF
:1002DD007F06120617AD4C7F1E120617AD4D7F1F00
:0A02ED00120617AD4E7F200206171F
:100564008D547F3F1206178554597F3F1204E520AE
:1005740092FD7F3512065530B2FD20B2FD7F3B025D
:0205840006551A
:060383008B5A8A5B895CC5
:10038900AB5DAA5EA95F12040125E025E0F5637F54
:100399003B1205EFEF547F605C7F3F1205DB8F62F4
:1003A900AB5DAA5EA95F120401FFE562D39F5032DB
:1003B900AB5AAA5BA95C85621D7F3F1204B1AB5D94
:1003C900AA5EA95FE5621204477B007A007960752D
:1003D9001D027F3F1204B17F3A120655E561548030
:1003E900FF22AB5DAA5EA95FE5621204477F3A125C
:0703F90006557F00227F0082
:0104000022D9
:0204AE00C1008B
:030013000206766C
:03067600C28B3202
:100016007590FFE4F59275910575B0FD75B2827520
:10002600B104C200F552F553D2B175E13F7FE87EC7
:10003600FD120541C2B112062912066F75E13F9005
:100046000FF0E4F54FE493FF7411254FF8A607A3CC
:10005600054FE54FB407EE75185A7F647E191205F1
:10006600411205867B007A0079117D081205647FAE
:1000760039120655E4F551D28A75E13FE5534552EA
:1000860060030201AA20B4030201AAF55030000859
:1000960030B105C2B1755001C2B77F0D7E001205A1
:1000A60041E4FF1206038F4FD2B7E551C3940550C2
:1000B6000B74052551F582E434008044E551C39460
:1000C6000A502D755163900005E0900000F09000F5
:1000D60006E0900001F0900007E0900002F090002A
:1000E60008E0900003F0900009E0900004F0801A08
:1000F600E551C394695010749C2551F582E434FF90
:10010600F583E54FF08003755164E551D3940A50A9
:1001160003020198E4FFFEFDFCF54F7405254FF53B
:1001260082E43400F583E02FFFE43EFE7400254FA1
:10013600F582E43400F583E02DFDE43CFC054FE553
:100146004FB405D7D3EF9DEE9C4011EF9DFBEE9C7F
:10015600FAD3EB9464EA940040178010C3ED9FFF36
:10016600EC9EFED3EF9464EE94004005754F01803B
:1001760003E4F54FE54FB40115200016D2007518BB
:10018600067B007A0079117D081205648004C2009E
:10019600C2B1055130000DE550700930B104C2B14D
:1001A6008002D2B120B402B2B1D3E5539403E55232
:1001B60094004007E4F552F55380080553E5537063
:1001C6000205527F3912065512063B43B10853B257
:1001D600F7D2AFD2AAC28B75870253B1F743B208E2
:0701E600C2AFC28B02007FD3
:0D0648008F1E120660AF1E12060302066030
:10060300EF4488F5C500000000E5C530E4FB53C5A1
:04061300EFAFC6225D
:10062900438E4075985A758920758BE1758DE1D295
:020639008E220F
:07066F00E4F5C675C5802209
:08066000C2998F993099FD2227
:030000000202F702
:0C02F700787FE4F6D8FD75816302033EB9
:10040100BB010689828A83E0225002E722BBFE02F9
:09041100E32289828A83E493222C
:10041A00BB010CE58229F582E5833AF583E0225097
:10042A0006E92582F8E622BBFE06E92582F8E222E1
:0D043A00E58229F582E5833AF583E49322FB
:10044700BB010689828A83F0225002F722BBFE0194
:02045700F3228E
:10045900F8BB010DE58229F582E5833AF583E8F0D9
:10046900225006E92582C8F622BBFE05E92582C885
:02047900F2226D
:10030300020016E493A3F8E493A34003F68001F2FA
:1003130008DFF48029E493A3F85407240CC8C333FB
:10032300C4540F4420C8834004F456800146F6DFCA
:10033300E4800B010204081020408090047BE47EDB
:10034300019360BCA3FF543F30E509541FFEE493BF
:10035300A360010ECF54C025E060A840B8E493A386
:10036300FAE493A3F8E493A3C8C582C8CAC583CAB1
:10037300F0A3C8C582C8CAC583CADFE9DEE780BE69
:0104B000004B
:00000001FF
