:020000040000FA
:10000000A0190010210400002504000027040000AE
:10001000290400002B0400002D0400000000000053
:100020000000000000000000000000002F0400009D
:10003000310400000000000033040000350400001B
:1000400037040000370400003704000037040000C4
:1000500037040000370400003704000037040000B4
:1000600037040000370400003704000037040000A4
:100070003704000037040000370400003704000094
:1000800037040000370400007F17000093070000CA
:100090003B0F00002520000037040000370400005B
:1000A0003704000037040000370400003704000064
:1000B000370400003B17000037040000370400003D
:1000C00000F002F800F040F80CA030C808382418FE
:1000D0002D18A246671EAB4654465D46AC4201D180
:1000E00000F032F87E460F3E0FCCB6460126334272
:1000F00000D0FB1AA246AB4633431847C822000083
:10010000E8220000103A02D378C878C1FAD8520722
:1001100001D330C830C101D504680C6070470000BD
:100120000023002400250026103A01D378C1FBD813
:10013000520700D330C100D50B6070471FB5C046D1
:10014000C0461FBD10B510BD02F0FFF81146FFF705
:10015000F5FF00F0BEFB02F017F903B4FFF7F2FF62
:1001600003BC02F01BF9000062B6704770B505468B
:100170000C46164602E00FCC0FC5103E102EFAD2E8
:10018000082E02D303CC03C5083E042E07D301CCAE
:1001900001C5361F03E021782970641C6D1C761E92
:1001A000F9D270BD10B500248848406AC005030F1D
:1001B00002F0FBF810090B0D0F11131517191B1D79
:1001C0001F2123252729824C1DE0824C1BE0824CF5
:1001D00019E0824C17E0824C15E0824C13E0824C0F
:1001E00011E0824C0FE0824C0DE0824C0BE0824C1F
:1001F00009E0824C07E0824C05E0824C03E0824C2F
:1002000001E0824C00BF00BF7048406AC006800E0B
:10021000811C204601F0E9FF04466C484030006B29
:100220008007800F06D0012808D0022824D0032898
:1002300072D124E07648774908606DE06348403029
:1002400000688007800F06D0012808D002280AD055
:1002500003280FD10AE06E486E4908600AE06C4836
:100260006C49086006E06B48046003E000206949BF
:10027000086000BF00BF4FE0664804604CE0534890
:10028000403000688007800F06D0012818D002286F
:100290002AD003283ED139E04C488068FF218131C3
:1002A000084203D05A485B49086008E04748806824
:1002B000C006C00E401C564948435649086029E014
:1002C00042488068FF218131084203D0504851499B
:1002D000086008E03D488068C006C00E401C4C49DC
:1002E00048434C49086015E038488068FF21813157
:1002F000084202D04748046007E034488068C006DE
:10030000C00E401C60434349086003E0002041499F
:10031000086000BF00BF00BF00BF2C484030816BA9
:100320003C48006801F061FF3A49086010BD10B513
:100330003948806B2021884337498863002023494E
:100340000862002401E000BF641CC82CFBD301201C
:100350001E49403108604860002048600120486024
:1003600000BF1A4840304068C007C00FF9D02320B2
:10037000164988602848806B802188432649886315
:1003800000BF1248C068C007C00FFAD003200F4951
:10039000403108630120486300204863012048631E
:1003A00000BF0A484030406BC007C00FF9D00120A1
:1003B00006494031886319480449803108600120AA
:1003C00048618861C861FFF7EDFE10BD0080044000
:1003D000801A060020A1070000350C00E0C81000BC
:1003E000C05C1500006A180040771B0080841E0066
:1003F000C0912100009F240040AC2700E03229007A
:1004000020402C00604D2F0000D4300040E133002C
:10041000001BB70000000010008204405F000100D4
:1004200008480047FEE7FEE7FEE7FEE7FEE7FEE7D7
:10043000FEE7FEE7FEE7FEE703480449044A054BF2
:1004400070470000C1000000A0060010A0190010B5
:10045000A0170010A017001070B504460D463220FA
:100460007E4908600846446085607D497D4A12687F
:1004700090477B48006870BD70B504460D4616462F
:10048000332076490860084644608560C660764837
:10049000086173497148734A126890477048006850
:1004A00070BD70B504460D4634206C49086008469E
:1004B000446085606C48C86069496848694A126848
:1004C00090476748006870BD70B504460D463520FA
:1004D000624908600846446085606149614A126863
:1004E00090475F48006870BD10B536205B490860D2
:1004F0005B495A485B4A126890475948006810BDEA
:1005000010B537205549086055495448554A126876
:1005100090475348006810BD70B504460D46164616
:1005200038204E490860084644608560C6604C49E2
:100530004C4A126890474A48006870BD70B504463E
:100540000D4672B6102C02DD62B6022070BDA807FF
:10055000800F02D062B60320F8E707210846FFF7B4
:100560007BFFC6B207210846FFF79BFFC6B20721F3
:100570000846FFF7A9FFC6B207210846FFF76CFF40
:10058000C6B22102072212038818FF22013229462F
:10059000FFF772FFC6B22102072212038818FF225A
:1005A00001322946FFF7B8FFC6B2002E02D062B66C
:1005B0000120CBE762B60020C8E7F7B582B0064657
:1005C0000F4672B6B007800F03D062B6032005B0A5
:1005D000F0BDF81DC4B20498000B401CC0B20090DE
:1005E000254629462046FFF737FFC0B2019029462D
:1005F0002046FFF756FFC0B2019029462046FFF77C
:1006000063FFC0B2019029462046FFF725FFC0B224
:10061000019020033146049AFFF72EFFC0B20190EB
:1006200020033146049AFFF777FFC0B2019001988A
:10063000002802D062B60120C9E762B60020C6E7F2
:1006400010B50346002006E0072424031C19245C8F
:100650000C54521E401C002AF6D110BD440000105C
:10066000640000100400001080BB000070B586B06C
:100670000546142101A801F0B6FD00263146761C7E
:1006800001A8455400240CE0D148005DA84206D0E2
:10069000CF48025D3046711CCEB201A90A54601CDD
:1006A000C4B2CB48005D002801D0132CECDB14222F
:1006B00001A9C74801F038FDC548093880780221F2
:1006C0000143C34809388170807804210143C04840
:1006D0000938817006B070BD70B586B0054614212A
:1006E00001A801F080FD002600240CE0B848005D60
:1006F000A84206D0B648025D3046711CCEB201A9B0
:100700000A54601CC4B2B248005D002801D0132C0A
:10071000ECDB142201A9AE4801F006FD6846007921
:10072000002808D1AA480938807802218843014668
:10073000A74809388170A648093880780421014308
:10074000A3480938817006B070BD0120A149086135
:10075000002048610120486188619E484038006857
:100760000121C90308439B49403908609A489B49C5
:10077000486003200860AA20886055208860704780
:100780009448403800684021084392494039086045
:10079000704710B501209249086092480078401CCB
:1007A00090490870084600780A2868DB0020087025
:1007B000874815304079401CC1B2854815304171D9
:1007C00040793C285BDB002181481530417100797C
:1007D000401CC1B27E481530017100793C284EDBC7
:1007E00000217B4815300171C078401CC1B27848A7
:1007F0001530C170C078182841DB002174481530CD
:10080000C1708078401CC1B27148153081700146BA
:100810004978022911D101460878C117890F0918B2
:1008200089108900411A08D1694915318A784978B7
:100830006D4B595C491C8A4207DC654915318A7841
:100840004978694B595C8A4219DD012160481530AD
:1008500081704078401CC1B25D48153041704078CD
:100860000C280CDD01215A481530417001460978E9
:10087000481C642101F0C3FC55481530017010BDBF
:1008800010B5544840380068012189020843514995
:10089000403908600120554908607D20C000C860CB
:1008A000032048617D21C9005148006801F09DFC8A
:1008B0004E4988610120486000BF1320012181401A
:1008C0004C48016000BF0321132000F049F810BD1F
:1008D000704700BFFFF72BFDFFF752FFFFF7D0FF78
:1008E00024223B492B39FF200130FFF7A9FE38486D
:1008F0002B3800780A280CDD092035492B3908707F
:10090000002048702422FF21013131482B38FFF7A5
:1009100054FE2F482B388078002808D12C480938FD
:100920008078810889002A480938817007E02848C2
:100930000938807803210143254809388170FFF781
:1009400013FC00F0A0FE22492B39087801F05EF973
:1009500000F054F800F090F901E000F04BFAFCE7E9
:1009600010B5002819DA244A03071B0F083B9B081F
:100970009B00D2588307DC0EFF23A3409A438B07CA
:100980001B0E8407E40EA3401A431B4B0407240FDD
:10099000083CA408A4001A5118E0164A03231B02BD
:1009A000D21883089B00D2588307DC0EFF23A34094
:1009B0009A438B071B0E8407E40EA3401A430D4B8A
:1009C000032424021B198408A4001A5110BD00003E
:1009D000AF000010C0800440FFFFFF000040004057
:1009E00000400140180000100C0000100080014081
:1009F0000000001000E100E01CED00E096480068F7
:100A0000402108439449086094480068C008C00029
:100A10009249086008468068C008C00088608F4816
:100A20004038C06BC008C0008C494039C8630846D4
:100A3000806BC008C0008863894800684915084376
:100A40008749086087480068102108438549086085
:100A50008548006830210843834908607F48406822
:100A6000C008C0007D4948607E4800682021884356
:100A70007C4908607D48C06B102108437B49C863EE
:100A80007B48C06B202108437949C8630846C06B86
:100A9000102108437649C8637648C06B012149029A
:100AA00088437449C86370477048C06B10218843FD
:100AB0006E49C86370476D48C06B102108436B498D
:100AC000C86370476A48C06B202188436849C8637F
:100AD00070476748C06B202108436549C863704769
:100AE000014600201FE08022114206D1604AD26BED
:100AF00010239A435E4BDA6305E05D4AD26B102304
:100B00001A435B4BDA635B4AD26B01235B021A43E5
:100B1000584BDA631A46D26B01235B029A43554B5A
:100B2000DA63421CD0B20828DDDB704710B525E03F
:100B3000002220E003788024234206D14C4BDB6B5B
:100B40001024A3434A4CE36305E0494BDB6B1024BC
:100B50002343474CE363474BDB6B0124640223438D
:100B6000444CE3632346DB6B01246402A343414C02
:100B7000E363531CDAB2082ADCDB401C0B464C1E34
:100B8000E1B2002BD4D110BD0020394AD26B102322
:100B90001A43374BDA63002118E0364AD26B01233F
:100BA0005B021A43334BDA634206100E2F4AD26BB4
:100BB00020231A4201D0012210432E4AD26B012376
:100BC0005B029A432B4BDA634A1CD1B20829E4DB5F
:100BD000704730B50A460021254CE46B10252C43A4
:100BE000234DEC631FE00021002318E0214CE46B4F
:100BF00001256D022C431F4DEC634C06210E1B4C4E
:100C0000E46B20252C4201D001242143194CE46BD4
:100C100001256D02AC43174DEC635C1CE3B2082B5D
:100C2000E4DB0170401C1446551EEAB2002CDAD1F8
:100C300030BD77B50E461446FFF736FF6D460320EC
:100C4000287004212846FFF771FF31462046FFF740
:100C5000C0FFFFF730FF7EBD80800440404004406D
:100C6000008001500080025000800350C03F0250BD
:100C7000C03F0350C03F015010B5FB480068402101
:100C80000843F9490860F9480069C008C000F749FD
:100C9000086108464069C008C0004861084680698C
:100CA000C008C00088610846C069C008C000C861AB
:100CB000EE484030C068C008C000EC494031C86010
:100CC000EB48006880210843E9490860E94800686A
:100CD000E9490843E7490860E3480068012109043D
:100CE0000843E1490860E148806902210843DF497F
:100CF00088610846406A01210843DC494862DB48B4
:100D00004030C06801210843D8494031C860D64806
:100D10008038406801210843D34980394860D2486F
:100D20000068C9140843D04908600020CF49403109
:100D300008630820CC494861CF48C330CF490860D8
:100D400002204860C820086103200862C648803835
:100D5000406804210843C44980394860C24800689B
:100D6000012189040843C04908600820C861C248BD
:100D7000C330C349086002204860C82008610320CE
:100D8000086200BF142001218140BE48016000BFFD
:100D90000221142000F001FCB848406908210843F2
:100DA000B64948618020B84908702020487000206A
:100DB00088704020C870002008710021B24841713D
:100DC0007F2181711F2181710020AF490872487213
:100DD00088720021AC48C1727F2101731F214173C9
:100DE000807AA94988730846C17AC173A748A64981
:100DF000086110BDA449487AA549C96B08229143EE
:100E0000A34AD163C107C90F06D1A249C96B802289
:100E10009143A04AD16305E09E49C96B80221143EA
:100E20009C4AD1630221084207D19949C96B01222A
:100E300052029143964AD16306E09549C96B01225B
:100E400052021143924AD1630421084207D19049CA
:100E5000C96B0122920291438D4AD16306E08C490D
:100E6000C96B012292021143894AD16308210842C9
:100E700006D18749C96B04229143854AD16305E0B5
:100E80008349C96B04221143814AD1638049C96BEC
:100E9000082211437E4AD1637B4A527A511CCA17F9
:100EA000120F5218121112018A1A774B5A72704798
:100EB00030B5754C2378DC17240FE4182411724DDB
:100EC0006D7A6C436400714D64196F4D2A7AD517A1
:100ED0002D0FAD182D116D0060196B4C6378DC0F70
:100EE000E4186410684D2A78D5172D0FAD182D1110
:100EF0006C436400211819E00288604B9A600A88EC
:100F00005F4B9A60801C891C5F4A127A10325E4BDC
:100F10001A721A46127A1B789A4207DB00225A4B41
:100F20001A721A46527A521C5A7204E0534AD26814
:100F300002231A42E0D100BF30BD00B5FFF7B8FF71
:100F400003204E49086200BD10B54F4CA072E172FB
:100F500022736373A073E17310BDF7B50B464A4E5D
:100F6000B6785E433546F617760F7619F610464F7B
:100F70003F69F6190246C7177F0F3F18FF10F11996
:100F8000414DAA7BD5176D0FAD18ED10ED00551B27
:100F9000ECB2029A002A05D00A780125A5402A431E
:100FA0000A7004E00A780125A540AA430A70FEBD34
:100FB000F0B504460D4616461F46B4420AD106E077
:100FC00029466A1CD5B201222046FFF7C6FFBD4262
:100FD000F6D10BE0BD4209D106E02046621CD4B236
:100FE00001222946FFF7B9FFB442F6D1F0BDF0B5B2
:100FF00004460D4616461F462B46324629462046D5
:10100000FFF7D6FF3B46324629463046FFF7D0FF72
:101010003B46324639462046FFF7CAFF3B4622464A
:1010200029462046FFF7C4FFF0BDF3B5164EF67B08
:10103000154FBF787E433546F617760F7619F610B2
:10104000114F3F69F619104FBB7BDF177F0FFF1859
:10105000FF10F1190C4DAB7BDD176D0FED18ED1086
:10106000ED005D1BEAB275E0808004404040044022
:1010700000800050008002500C0600000000044078
:101080000080054000E100E04C0500104C0100101C
:10109000C03F0250C03F0050002458E00378802534
:1010A0002B4205D00B78012595402B430B7004E0B3
:1010B0000B7801259540AB430B70FF4B9B7B5B1C72
:1010C000FD4DAB732B469D7B1B7B9D422EDBFA4B6C
:1010D0009B7AF94DAB732B46DB7B5B1CDDB2F64B89
:1010E000DD73DD7B5B7B9D4202DBF34BDD7ADD73E1
:1010F000F14EF67BF04FBF787E433546F617760FFC
:101100007619F610EC4F3F69F619EB4FBB7BDF17F2
:101110007F0FFF18FF10F119E74DAB7BDD176D0F47
:10112000ED18ED10ED005D1BEAB20AE0531CDD176F
:101130006D0FED18ED10ED005D1BEAB2002A00D135
:10114000491C03785B061B0E0370631CDCB2082C81
:10115000A4DB401C019B5D1EEDB20195002B9BD1D1
:10116000FCBDFFB587B014461D4610E20220059075
:1011700020787E2827DC2078202824DB0120059099
:101180000C2D06D0102D09D0182D0CD0202D14D1E7
:101190000EE0CA4E0C27062004900EE0C84E102721
:1011A0000820049009E0C74E30270C20049004E08A
:1011B000C54E40271020049000BF00BF2078203883
:1011C00078438619F1E02078AA2828D16078A128F0
:1011D00025DB6078FE2822DC0C2D06D0102D09D0EE
:1011E000182D0CD0202D14D10EE0B44E0C27062063
:1011F00004900EE0B24E10270820049009E0B14E92
:1012000030270C20049004E0AF4E402710200490BB
:1012100000BF00BF6078A13878438619C5E0207808
:10122000AB2828D16078A12825DB6078C02822DC93
:101230000C2D06D0102D09D0182D0CD0202D14D136
:101240000EE09E4E0C27062004900EE09C4E1027C8
:101250000820049009E09B4E30270C20049004E005
:10126000994E40271020049000BF00BF607843389B
:101270007843861999E02078A1282DDB2078A328CF
:101280002ADC6078A12827DB0C2D06D0102D09D090
:10129000182D0CD0202D14D10EE0002618270B207D
:1012A00004900EE0894E20270F20049009E0884E1C
:1012B00048271820049004E0864E802720200490C0
:1012C00000BF00BF2078A1385E2148436178A13972
:1012D00040187843861968E02078A92825D16078DD
:1012E000A12822DB0C2D06D0102D09D0182D0CD0F2
:1012F000202D14D10EE0002618270B2004900EE0BC
:10130000724E20270F20049009E0714E48271820C4
:10131000049004E06F4E80272020049000BF00BF9F
:1013200060787930784386193FE02078B0283CDB3C
:101330002078F72839DC6078A12836DB0C2D06D020
:10134000102D09D0182D0CD0202D14D10EE0002620
:1013500018270B2004900EE05C4E20270F200490ED
:1013600009E05B4E48271820049004E0594E80277E
:101370002020049000BF00BF0C2D0BD12078B03886
:101380005E2148436178A1394018FF3079307843B5
:1013900086190AE02078B0385E2148436178A13987
:1013A00040184D49401878438619059824184B4A2F
:1013B00039463046FFF73DFC08984019401EC3B23D
:1013C000049907984018401EC2B208990798FFF781
:1013D000BBFD002005900599481C05903F48405CE6
:1013E00006903549C97B344A927851430B46C91758
:1013F0004A0FD118C910304A126989182E4A907BB9
:10140000C217520F1218D210891800912A49887BEE
:10141000C117490F0918C910C900411AC9B2019171
:1014200000200390A9E0012002908DE08021069821
:10143000084209D000980078012201998A4010439F
:10144000C1B20098017008E000980278012101986B
:10145000814010468843009908701748807B401CE3
:10146000154988730846817B007B814245DB124821
:10147000807A114988730846C07B401CC1B20E486F
:10148000C173C17B407B814202DB0B48C17AC173CF
:101490000949C97B084A927851430B46C9174A0F3C
:1014A000D118C910044A12698918034A907BC217DF
:1014B000520F1218D21013E04C05001000BE1D0090
:1014C00080D71D0000FF1D00505A1E00D0C9020029
:1014D0009081060000DF0E004E030000CC000010DB
:1014E000891800914849887BC117490F0918C9100C
:1014F000C900411AC9B201910FE00199481CC117F6
:10150000490F0918C910C900411AC9B201910198BF
:10151000002802D10098401C009006984006000E5A
:1015200006900298C117490F0918C910C900411A3D
:1015300006D10598411CC9B205913449085C069052
:101540000298401CC0B2029004990298884200DCC4
:101550006CE70299481EC117490F0918C910C90044
:10156000411A06D00598411CC9B205912749085C6B
:1015700006900398401CC0B203900398A84200DA7A
:1015800051E70498801C07990818C0B2079020788A
:10159000002800D0EAE50BB0F0BD10B5002819DA3C
:1015A0001B4A03071B0F083B9B089B00D25883076D
:1015B000DC0EFF23A3409A438B071B0E8407E40E27
:1015C000A3401A43124B0407240F083CA408A400AC
:1015D0001A5118E00F4A03231B02D21883089B00FC
:1015E000D2588307DC0EFF23A3409A438B071B0EC0
:1015F0008407E40EA3401A43064B032424021B195C
:101600008408A4001A5110BD4C050010CC00001035
:101610001CED00E000E100E010B5002819DAFB4AFB
:1016200003071B0F083B9B089B00D2588307DC0E67
:10163000FF23A3409A438B071B0E8407E40EA340AD
:101640001A43F24B0407240F083CA408A4001A51C3
:1016500018E0EF4A03231B02D21883089B00D258DC
:101660008307DC0EFF23A3409A438B071B0E8407DE
:10167000E40EA3401A43E64B032424021B198408FA
:10168000A4001A5110BD10B5E2484069C008C0005E
:10169000E049486108468069C008C0008861DE48AA
:1016A000C06B10218843DC49C863DC480068102106
:1016B0000843DA4908600846006840218843D74952
:1016C0000860D7480068012149020843D4490860EE
:1016D0000120D44908607D20C000C8600320486113
:1016E000D149D248006800F080FDCE4988610120D0
:1016F0004860122000F06FFA02211220FFF78CFFE1
:10170000E620CB490870CB48406840218843C9494E
:1017100048600846C06840218843C649C8600846FA
:10172000006940210843C34908611D2000F053FAB5
:1017300001211D20FFF770FF10BDBE48C069402188
:101740000843BC49C86100BF1D2001218140B04849
:101750008030016000BFB848008801210843B649C5
:1017600008800846008804218843B3490880084659
:101770000088B24909788843AF4908807047012042
:10178000A8490860AE480078401CAD49087001E0E7
:10179000FFF730FBFCE770B504460725A949097837
:1017A0001D31A94A1278881A1D2100F028FD1C2934
:1017B00001DB002070BD0EE02078A449A14A127818
:1017C0008854641C1D219F480078401C00F017FDC0
:1017D000C8B29C4908702846691ECDB20028EBD1DA
:1017E0000120E7E7014608110A2250430907090FC3
:1017F0004218D0B2704710B59548C078122876D0FC
:1018000012DC0E2874D008DC012827D004281ED052
:101810000C286ED00D2820D1D9E00F286AD01028CE
:1018200069D0112819D1D6E02F287ED008DC1328E2
:101830007CD0192860D02C2879D02E280DD117E122
:10184000382819D0832873D0842806D1B9E081487C
:10185000C07F042108437F49C8771AE17D482038BA
:1018600040787B4908700020487088700220C8705A
:101870000846FFF790FF0CE175480079754920395B
:1018800008702422FF21013172482038FEF795FEAE
:1018900070482038037800F088FD0B25070A0D10EA
:1018A0001316191C1F2225004B2424011AE04B2477
:1018B000640117E04B24A40114E04B24E40111E07F
:1018C000E124A4010EE04B2424020BE0E124E40116
:1018D00008E04B24640205E0E124240202E0E12454
:1018E000640200BF00BF204600F090F9D1E073E031
:1018F0006EE06BE06DE06DE0554909784806400EFA
:10190000FFF770FF53492031487151494978480623
:10191000400EFFF767FF4F49203108714C49897825
:101920008806800EFFF75EFF03E01FE055E0AEE0A3
:1019300042E048492031C870454909798806800E3F
:10194000FFF750FF43492031887041494979C80663
:10195000C00EFFF747FF3F49203148703C49887966
:10196000FFF740FF3B492031087092E03948801C66
:101970008078012101433748801C81703448007908
:10198000C106C90E3348801CC17031480178314806
:10199000401D41702E4841782E48401D81702C48D2
:1019A00081782C48401DC170C01E807804210143FD
:1019B0002848801C81706CE025494879FEF756FE66
:1019C00067E023494879FEF787FE62E000BF00BF69
:1019D00000BF00BF00BF00BF00BF1D480079FF2847
:1019E00007D01B4801791B48401D4078814200D038
:1019F0004FE017484079FF282ED015484179154807
:101A0000401D8078814227D043E000001CED00E0BB
:101A100000E100E080400440C03F015000800150E0
:101A20008080044000400140809698000000001033
:101A300036000010008002501A0000101C00001038
:101A40002500001022000010210000109D0500104C
:101A500037000010A400001062488079FF2806D0EB
:101A6000604881796048C078814200D011E000BFB1
:101A70005D48C01E8078410849005B48C01E8170E7
:101A80008078042101435848C01E817001E000BFE6
:101A9000FEE700BF10BD1CB554480088FF2101318E
:101AA000084212D008225249684600F03DFB4F48D8
:101AB0000088FF21013188434C490880072269468C
:101AC000484800F031FBFFF796FE4A4909781D317E
:101AD000494A1278881A1D2100F091FB072979DB09
:101AE000464845490978415C684601701D214248D5
:101AF0000078401C00F083FBC8B23F4908703F48A3
:101B00000978415C684641701D213B480078401CC3
:101B100000F075FBC8B23849087038480978415C54
:101B2000684681701D2134480078401C00F067FB36
:101B3000C8B23149087031480978415C6846C170C3
:101B40001D212D480078401C00F059FBC8B22A49DD
:101B500008702A480978415C684601711D212648B1
:101B60000078401C00F04BFBC8B2234908702348A2
:101B70000978415C684641711D211F480078401C6E
:101B800000F03DFBC8B21C4908701C480978415C54
:101B9000684681711D2118480078401C00F02FFB19
:101BA000C8B215490870134909781D31124A1278D4
:101BB000881A1D2100F023FB072904DA00201049B0
:101BC00008701049087007226946064800F0ACFA10
:101BD000FFF711FE1CBDC206D20E012191400A4A38
:101BE0001160704737000010A90000101A000010A3
:101BF000280000102400001023000010BA05001077
:101C0000220000102100001000E100E070B5054640
:101C10000020FB490870087188704870F948006816
:101C2000012109040843F7490860F748406A012187
:101C30000843F54948620846806A01210843F24991
:101C40008862F0480068012109030843ED490860F3
:101C5000012088618320ED49C8602B4600F0A5FB78
:101C60000B25070A0D101316191C1F2225004B24E3
:101C700024011DE04B2464011AE04B24A40117E069
:101C80004B24E40114E0E124A40111E04B242402DC
:101C90000EE0E124E4010BE04B24640208E0E124BF
:101CA000240205E0E124640200BFE124240200BF15
:101CB00000BFD4488169D648006800F096FA06094A
:101CC0002146304600F091FA0446200ACF49486088
:101CD000E0B208600320C8608720886000BF15203C
:101CE00001218140CB48016000BF0121152000F097
:101CF000DAF90120C549486070BD10B5C6480079C1
:101D0000C6494978884200D010BDC34840790028B0
:101D100000D0F9E7C0488079002800D0F4E7BE4839
:101D2000C079802816D000BFBB484078BC490871F4
:101D3000B94880784871B848C0788871B748407809
:101D400008700020487088708120C8700846FFF72E
:101D500022FDD9E7B04C0934241D2178641C0029E8
:101D600000D0E1E72178641C052900D0DCE7207869
:101D7000012800DDD8E72078A9490871641C207883
:101D8000022842DA641C2221A448801C00F029FAAF
:101D90000C222146A148801C00F0C6F92422FF2114
:101DA00001319E48FEF709FC24229C49FF200130A6
:101DB000FEF746FC99488078002808D197482230E1
:101DC00080788108890095482230817007E0934827
:101DD000223080780321014390482230817000BF77
:101DE00080208F4908718C48807848718A48C07873
:101DF00088718A48407808700020487088700220F6
:101E0000C8700846FFF7C7FC7EE72078022826D175
:101E100022218248801C00F0E4F92422FF210131B4
:101E20007E48FEF7CAFB24227C49FF200130FEF7E2
:101E300007FC7A488078002808D1784822308078DA
:101E40008108890075482230817007E0734822308C
:101E5000807803210143714822308170C0E700BFC0
:101E600052E710B56648407865498978884275D050
:101E70000520634908710846407867490C5C604951
:101E80004978481C642100F0BAF9C8B25C4948702E
:101E90000846037800F089FA0B0711203242525AA3
:101EA000637685939D005A2C06D100205449C87052
:101EB000012008700320487191E05148C078001952
:101EC0004F49C87008464079401E0006000E487110
:101ED00001D10220087082E050484078A04207D12A
:101EE0004748C07800194649C8700320087004E0CC
:101EF0000020434908704870887070E0002C07D1BA
:101F00003F48C07800193E49C8700420087004E0BA
:101F100000203B4908704870887060E0002C07D1B1
:101F20003748C07800193649C8700520087004E0A9
:101F30000020334908704870887050E03048C078FD
:101F400000192F49C8700620087048E02C48C07856
:101F500000192B49C8700720087040E040E028486D
:101F6000C07800192649C870084644714079132882
:101F700002D10820087004E0002021490870487050
:101F800088702CE01E48C07800191D49C8700846AA
:101F90004079401E0006000E487101D109200870EA
:101FA0001DE01748C078A04203D10A2014490870E8
:101FB00004E0002012490870487088700FE0162C69
:101FC00001D1FFF79AFE00200D4908704870887013
:101FD00005E000200A4908704870887000BF0EE0D4
:101FE0000748007900280AD005480079401E0006FD
:101FF000000E0349087102D108704870887010BD46
:102000003E0000108080044080400440008000407A
:102010000000001000E100E0D7050010840000106F
:102020003700001010B5002437E03A4880680E21D0
:102030000840042802D00C282DD115E0002410E01F
:102040003448006834498978344A50543249897890
:10205000481C642100F0D3F8C8B22F498870601C76
:10206000C4B2082CECDB17E00EE02A4800682A49CD
:1020700089782A4A505428498978481C642100F0FC
:10208000BEF8C8B22449887022484069C007C00F12
:102090000128EAD000E000BF00BF1E488068C007EA
:1020A000C00FC2D010BD10B5002819DA1C4A0307B2
:1020B0001B0F083B9B089B00D2588307DC0EFF23B5
:1020C000A3409A438B071B0E8407E40EA3401A43D8
:1020D000134B0407240F083CA408A4001A5118E06D
:1020E000104A03231B02D21883089B00D25883078F
:1020F000DC0EFF23A3409A438B071B0E8407E40EDC
:10210000A3401A43074B032424021B198408A4008C
:102110001A5110BD008000403E000010D70500108D
:102120001CED00E000E100E0F8B5042A2CD38307A1
:1021300012D00B78491C0370401C521E83070BD031
:102140000B78491C0370401C521E830704D00B7887
:10215000491C0370401C521E8B079B0F05D0C91AE7
:10216000DF002023DE1B08C90AE0FDF7FFFFF8BDF2
:102170001D4608C9FD401C46B4402C4310C0121F28
:10218000042AF5D2F308C91A521EF0D40B78491C60
:102190000370401C521EEAD40B78491C0370401C8B
:1021A000521EE4D409780170F8BD01E004C0091F93
:1021B0000429FBD28B0701D50280801CC90700D0FF
:1021C0000270704700290BD0C30702D00270401C78
:1021D000491E022904D3830702D50280801C891E70
:1021E000E3E70022EEE70022DFE7002203098B424B
:1021F0002CD3030A8B4211D300239C464EE00346A6
:102200000B433CD4002243088B4231D303098B4259
:102210001CD3030A8B4201D394463FE0C3098B428F
:1022200001D3CB01C01A524183098B4201D38B01E8
:10223000C01A524143098B4201D34B01C01A52418B
:1022400003098B4201D30B01C01A5241C3088B42D0
:1022500001D3CB00C01A524183088B4201D38B00BB
:10226000C01A524143088B4201D34B00C01A52415D
:10227000411A00D201465241104670475DE0CA0F34
:1022800000D04942031000D34042534000229C46F4
:1022900003098B422DD3030A8B4212D3FC228901FE
:1022A00012BA030A8B420CD3890192118B4208D3D4
:1022B000890192118B4204D389013AD0921100E036
:1022C0008909C3098B4201D3CB01C01A524183094A
:1022D0008B4201D38B01C01A524143098B4201D377
:1022E0004B01C01A524103098B4201D30B01C01AA2
:1022F0005241C3088B4201D3CB00C01A524183081C
:102300008B4201D38B00C01A5241D9D243088B4271
:1023100001D34B00C01A5241411A00D20146634614
:1023200052415B10104601D34042002B00D5494278
:10233000704763465B1000D3404201B50020C046A1
:10234000C04602BD704770477047754600F022F8DE
:10235000AE46050069465346C008C000854618B021
:1023600020B5FEF769F860BC00274908B64600268C
:10237000C0C5C0C5C0C5C0C5C0C5C0C5C0C5C0C535
:10238000403D49008D4670470446C046C046204641
:10239000FDF7E3FE004870473C0600100149182095
:1023A000ABBEFEE726000200704730B47446641EE0
:1023B0002578641CAB4200D21D46635D5B00E318C8
:1023C00030BC1847E4230000000000104400000067
:1023D0000401000028240000440000105C190000E3
:1023E00020010000006CDC02F11FFF1F001BB70082
:1023F0001F1C1F1E1F1E1F1F1E1F1E1F0000000070
:1024000000000000000000000000000000000000CC
:1024100000000000000000000000000000000000BC
:082420000000000000000000B4
:04000005000000C136
:00000001FF
