:09171B00010204081020408000C6
:10169800E4F525F52DF526752704F52CF524021615
:0116A800CB76
:10137D00A907AF05AE04E9C39404502DC2AF0526ED
:10138D00E990171B93552D60037F0022E990171BE1
:10139D0093422D4225AD03AC02AB01120E0A120091
:0C13AD000ED52602D2AF7F01227F002265
:1015FB00EFC394045010C2AF0526EF90171B934214
:09160B0025D52602D2AF02000E23
:10161400EFC394045011C2AF0526EF90171B93F447
:081624005225D52602D2AF22A7
:0C16F80074282FF8E4F612161402000EFD
:10162C00E525552DFFE4F52CEF20E00BEFC313FF60
:07163C00052CE52CB404F1BC
:011643002284
:10155B00C2AF0526E524D3940040021524E5247080
:10156B000BF52612162C12148A7F0122D52602D2D5
:04157B00AF7F00221C
:10000E00C2AF0526E524700612162C120026D52640
:04001E0002D2AF2239
:1015C200E4FF74282FF8E6600F1674282FF8E670EF
:0F15D20007EF90171B9342250FBF04E602000E90
:10157F0074282527F8A607C2AF052674282527F853
:10158F00E6600AAF2712161412000E80EED526025F
:03159F00D2AF22A6
:10103E0074282527F8A605EF24FE600F14601924E6
:10104E00027041AF271216F87F042274282527F864
:10105E00E6FF12157F7F0822C2AF052674282527CA
:10106E00F8E670037F0822AF2712161412000ED571
:10107E002602D2AF74282527F8E66005E4F67F0431
:0E108E00227F082274282527F8E4F67FFF222F
:1013B900C2AF0526EDC394054025EF6022F8E4F697
:1013C900E804F8A605EF2402F87604EF2403F8E40C
:1013D900F6EF2404F8E4F6D52602D2AF7F0122D530
:0713E9002602D2AF7FFF22B4
:100AD400C2AF052674282527F8A6030581AE81A890
:100AE40006A607ED2403F9E52790171B9347F7A8FB
:100AF40005E670200581AF81A807A605AF27121669
:100B04001412000EAF81A807E6FD1581742825276D
:100B1400F8E670DBED2403F9E52790171B93F457EF
:100B2400F7A805E6D39400402F16E82402F806ED52
:100B340004F9ED2402F8E6C39740027604AF81A8D5
:100B440007E6FF1581ED2402F8E62DF8E6A807F67E
:100B5400D52602D2AF7F01221581D52602D2AF7FDE
:010B6400028E
:010B6500226D
:020D0800AE0734
:100D0A00C2AF0526EE04F8E624FCFFA806E6C39F58
:100D1A0050690581AF81A807A605A806A900E8249D
:100D2A0002F8E62704FDEE04F8E6FFEDC39F40054E
:100D3A00ED9F2404FDAF81A807E6FFEE2DF8A60774
:100D4A001581A80606E664017029E82403F8E6FD81
:100D5A00E4FFED20E008EDC313FD0FBF04F4EFC379
:100D6A009404500FEE2403F9EF90171B93F457F7EE
:100D7A001215FBD52602D2AF7F0122D52602D2AFA9
:020D8A007F08E0
:010D8C002244
:100E0A00C006C007EB90171B934234EBC3952750DB
:100E1A002EC3E5279BFA742F2BF9740327F709DAF7
:100E2A00F9A88174032581F581742F2BF98707C3EB
:100E3A00E5819FFA0AA981E6F71819DAFA802C7473
:100E4A002F2527F8C3EB9527FA74FD26F608DAF959
:100E5A00742F2527F8E6F9E924FDFF742E2BF8E60E
:100E6A00C39FFAA807E7F60809DAFA742E2BF8E600
:0C0E7A00F9D0E0F709D0E0F709E4F72216
:10142500D026E527B40402802290171B935534700B
:101435001AD007D006D005D004D003D002D001D0F1
:1014450000D0D0D082D083D0F0D0E00526D52602BA
:03145500D2AF22F1
:0D002600C02690171BE527934234020B669D
:100B6600AA81A88108742F252CF9E7FF742F252761
:100B7600F9E7F9E52CD395274033EFC399FEE7F65D
:100B86000809DEFA742F2527F9E7D39AFF1888811A
:100B9600E52CC39527FE600F742E2527F9EFF40484
:100BA600FF09EF27F7DEFA852C27021425E52C65C9
:100BB600276036E8C39FFE1819E6F7DEFA742F257C
:100BC60027F9E7D39AFF742F252CF9E7F581E52756
:100BD600C3952C600CFE742E252CF909EF27F7DE41
:0C0BE600FA852C27158102142502142525
:10148A0074046527700F74EF2581F5817426C0E016
:10149A007400C0E03274FC2581F58190171BE527A2
:0F14AA0093F45234C0267466C0E0740BC0E03275
:0F16CB00E4FF742E2FF876540FBF05F6E4F533C5
:0116DA0022ED
:10127700742E2FF8E6FE742F2FF8E6FDAC06C39CFC
:10128700FCEF04FFEFD39527500EECF404FB742E0C
:101297002FF8EB26F60F80ECC3E5819D04FFAB0525
:1012A7000DA803E6AA060EA802F6DFF2C3E5819CA5
:0212B700F581BF
:0112B9002212
:1012BA00742E2FF8E6FEFD742F2FF8E6FC742F2506
:1012CA0027F8E6FBC3EE9BFE600EAB050DA803E60E
:1012DA00AA040CA802F6DEF2AE05C3EC9EFDE527D1
:1012EA0004FEEED39F500A742E2EF8ED26F60E80D9
:0112FA00F102
:0112FB0022D0
:10164400742E2FF8E6FD7F660DF8A607740BA80527
:08165400F6AF058F8102162C90
:101535007E01EFB527030E8008EFC395275002E41F
:10154500FEEE14600A14600A240270090212770282
:0515550012BA12164459
:01155A00226E
:030033000210F9BF
:1010F900C2AFC0E0C0F0C083C082C0D075D000C00C
:1011090000C001C002C003C004C005C006C007E496
:101119002542F54274B43541F5418542EAE541F588
:10112900FAC2D80524D2AF1215C212155BD007D066
:1011390006D005D004D003D002D001D000D0D0D041
:0A11490082D083D0F0D0E0D2AF32A4
:06173C0075E7828FE52233
:08172D00E4F5E7F5E5F5E6221D
:1016A900AB07AA068DE28AE38BE475E64675E6B9CF
:0116B900220E
:1016BA00AD07AC068CE38DE475E64675E6B9AFE294
:0116CA0022FD
:0F16DB00AD07AC068CE38DE475E64675E6B922E3
:10168600EF24FF92979296EF24FF921890004AEF6C
:02169600F02240
:0917240020B4037F00227FFF22A4
:10133D00D2B47D047F0212103E1217248F43E54371
:10134D00F460EF7D047F0212103E121724EFB543B7
:10135D00E17F44E5434430FD120D08121724EFB52B
:10136D0043097D027F0212103E80F075E13D80C27F
:100D8D00201279900057E0900065F0900058E090A7
:100D9D000066F0900059E0900067F0900057E090E9
:100DAD000069F0900058E090006AF0900059E090D2
:100DBD00006BF0EF7046301022C210900048E090AA
:100DCD000057F0900049E0900058F0E4A3F0F53E94
:100DDD00FF1216869000687471801720110F900015
:100DED005BE0900069F090006874088005900068E1
:0D0DFD007412F07B017A007965120E8D22D0
:041233000241B400C0
:1014B900C2ACE490007DF090007DE0C39D5019120C
:1014C900066CF5993099FDC299740129F9E43AFA43
:0A14D90090007DE004F080DFD2AC4B
:0114E30022E6
:0C170400C2AC8F993099FDC299D2AC2282
:100F7B0075D902E4F5D8F5E9F5F98542EAE541F5CD
:100F8B00FA75DA49D2AED2DE75E13D4392C8539180
:100F9B0037C29312091A1213F01214E4C212C211BF
:100FAB0090004B7432F0A3F090005AE030E004E470
:100FBB00FF80027F01121686E4FDFF1217109000CE
:100FCB00007464F0900062E0FF121704A3E0FF02CC
:020FDB001704F9
:071735007D44E4FB020AD42D
:10150D008F35E53554F024E0600F24F0600E24F0A3
:10151D00601224307011020377020FDDE535540F90
:08152D00FF020D8D12076B2275
:10115300120F7B7F447D101213B975E13D7C157D21
:10116300A2E4FBFA7F0112137D7C137D3DE4FBFABD
:101173007F0212137D7C167D5CE4FBFA7F0312135E
:101183007D75E13D7F40121735AF4012150D75E1B6
:101193003D301505C215120A3B3016E8C216120C73
:0311A3007E80E16A
:101673001216987C117D53E4FBFAFF12137D438706
:031683000180FBE8
:10123700012000012100011A00011900011C000111
:101247000A00010800011E00010900410000644175
:0F12570000480241004908C112C111C113C11062
:1013F00043B10453B2FB53B17F43B280C2B7D2B200
:101400005389F0438901758A67758CFFC28D538EAD
:101410007FD2A9D28C751FF0C289D28830B203D294
:05142000A822D2072202
:030003000216EAF8
:0E16EA00C2AFC2A8D200C202751A00D2AF323F
:03000B00020036BA
:10003600C2AFC0E0C0F0C083C082C0D075D000C0DF
:1000460000C002C003C004C005C006C007C28C754C
:100056008CFF758A67D28CA2B2920D300030741074
:10006600251AF51A54F06450600302012FC200F5F8
:100076001A300D1520060A3005075320C3D206C2D2
:10008600B7751FF0751C008071D20102012F200187
:100096000302012F7410251AF51A54F064A06003A8
:1000A60002012F531A0F051AE51A540FFF640A703E
:1000B60063C201300D4AE51C54F024FF300901B338
:1000C6004008750A00531C0F802D750AE6E51CC40E
:1000D600540F2412F8A61D7410251CF51C54F0C3E9
:1000E60094704013531C0F300503300302D2087579
:1000F6000A0075080AD20B751FF0C289D2A880299A
:10010600D20720060A3005075320C3D206C2B775A8
:100116001C008015BF0906A20D9209800CE51DC3BF
:1001260013F51D300D03431D80E520540C640C703F
:100136002B300D18D2B7C20CF5195320F3E51C5419
:100146000F240BF8E6F51BD2040202085320C3D293
:1001560006531CF0C2B7751FF00202082004030202
:10016600020874102519F51954F0FFBF501EA20C91
:10017600300D01B34005D2130202085320C3531CAD
:10018600F0D206C2B7751FF0C2138076301373EF34
:1001960064A0706EC21353190F0519E519540FFFA9
:1001A600BF0910E51C540F24FFB3920CA20CB392A6
:1001B600B7804FBF0A06D20CC2B78046E519540F66
:1001C600640B7029C204051CE51C540FC394074038
:1001D60011531CF05320C3751FF043210C75080AF8
:1001E6008005751F0AD203C289D2A88015E51B3087
:1001F600E006D20CC2B78004C20CD2B7E51BC3130B
:10020600F51BE5205403701AE51F6005D51F02D2C1
:100216000230070EC202300D09C207C289D2A87584
:100226001FF0E50A6006D50A03531C0FE5086005B2
:10023600D50802C20BE5205423600302035C300696
:1002460005C206020351A20B720A500302035CE5C3
:10025600092447FFE433FEE51EFB7A00C3EF9BFF4C
:10026600EE9AFE7C007D471206C4EDC39407500348
:100276000203567401251EF582E43400F583E0F589
:100286000BEB2401FFEA33FE7C007D471206C48D8A
:100296001E7401251EF582E43400F583E0F50CE5B5
:1002A6001E2401FFE433FE7C007D471206C48D1E2A
:1002B6007401251EF582E43400F583E0F50DE51E94
:1002C6002401FFE433FE7C007D471206C48D1E74B4
:1002D60001251EF582E43400F583E0F50EE51E24C3
:1002E60001FFE433FE7C007D471206C48D1E7401B7
:1002F600251EF582E43400F583E0F50FE51E2401A2
:10030600FFE433FE7C007D471206C48D1E74012572
:100316001EF582E43400F583E0F510E51E2401FFA6
:10032600E433FE7C007D471206C48D1E7401251E33
:10033600F582E43400F583E0F511E51E2401FFE4BF
:1003460033FE7C007D471206C48D1E43202880069E
:10035600750900751E00D007D006D005D004D0035D
:10036600D002D000D0D0D082D083D0F0D0E0D2AFAF
:010376003254
:070E8600F07B017A007965A1
:060E8D008B368A3789381C
:100E9300753907C2AF0526E5092447FFE433FEC3CE
:100EA300EF951EFFEE9400FE7C007D471206C4ED15
:100EB300C394464008D52602D2AF7F0022AF39152E
:100EC30039EF6032AB360538E538AA37700205379B
:100ED30014F912066CFF74012509F582E43400F558
:100EE30083EFF0E5092401FFE433FE7C007D471224
:0D0EF30006C48D0980C7D52602D2AF7F014D
:010F000022CE
:0612FC007B017A00796518
:10130200900004120685FFF46009900057E06F60B8
:1013120002C322900005120685FFF460099000586E
:10132200E06F6002C322900006120685FFF4600996
:0B133200900059E06F6002C322D3223C
:10145800900004120685FF900057E06F6002C322D7
:10146800900005120685FF900058E06F6002C322C5
:10147800900006120685FF900059E06F6002C322B3
:02148800D3226D
:0B171000900053EFF0A3F0A3EDF022D7
:0411EE008E368F3773
:1011F200E4F538F5397F0112173CE4F53AAF37AE22
:10120200361216BAEF2538F5380537E5377002057C
:1012120036053AE53AC3940E40E3AF37AE361216BE
:10122200BA8F3912172DE539B538037F01227F00B5
:011232002299
:1015E100E4FF7B017A007956FE12066C2FFF74012D
:0915F10029F9E43AFA0EBE0EF0ED
:0115FA0022CE
:0C109C00F01215E1900064EFF0E4FFFE9C
:0410A8008E368F37BA
:1010AC00753901753A00753B567F0312173CAF3703
:1010BC00AE361216DB7F0212173CE4F538AB39AAB8
:1010CC003AA93B12066CFDAF37AE361216A9740165
:1010DC00253BF53BE4353AF53A0537E53770020523
:0D10EC00360538E538C3940F40D302172DA8
:0411A6008E368F37BB
:1011AA00E4F538753901753A00753B567F01121717
:1011BA003CE4F538AF37AE361216BAAB39AA3AA9BB
:1011CA003BEF1206B27401253BF53BE4353AF53A9A
:1011DA000537E537700205360538E538C3940F4000
:0411EA00D302172DE8
:10091A00E4FFFE1211EEBF011E7F0112173CE4FF35
:10092A00FE1216BA8F3512172D904000E493B53592
:10093A0006E4FFFE0211A67F007E021211EEEF64AA
:10094A000170267F0112173C7F007E021216BA8FB1
:10095A003512172D904000E493B5350D7F007E02C5
:10096A001211A6E4FFFE020A377F007E041211EE7E
:10097A00EF6401702D7F0112173C7F007E0412166E
:10098A00BA8F3512172D904000E493B535147F00C5
:10099A007E041211A6E4FFFE1210A87F007E020256
:1009AA000A37904000E493900056F0904001E49397
:1009BA00900057F0904002E493900058F090400362
:1009CA00E493900059F0904004E49390005AF09018
:1009DA004005E49390005BF0904006E49390005C3D
:1009EA00F0904007E49390005DF0904008E4939003
:1009FA00005EF0904009E49390005FF090400AE4B2
:100A0A0093900060F090400BE493900061F0904066
:100A1A000CE493900062F090400DE493900063120E
:100A2A00109C7F007E021210A87F007E041210A87C
:010A3A002299
:10037700C2AF052678657C007D017B007A00791283
:100387007E007F07120646C208D52602D2AF30127A
:100397000B900068E064046003020575900068E054
:1003A70012071903FE0103D20404350E04351204A3
:1003B700501804252304AD2C04C65605025A052BF4
:1003C7005B0543A40463F4000005752012030205CE
:1003D700751212FC4003020575C21290004C74326C
:1003E700F090005AE030E004E4FF80027F0112162B
:1003F70086E4FDFF0217101212FC400302057590F8
:100407000057E0900065F0900058E0900066F0908B
:100417000059E0900067F0A37402F002057212120F
:10042700FC40030205757F02121686D211221212B2
:10043700FC400302057590005AE030E004E4FF80B9
:10044700027F01121686C2112290005AE030E004A2
:10045700E4FF80027F01121686C211227B017A0017
:1004670079651214584003020575900065E0FFC3D3
:10047700940F400302057590004DE4F0A3EFF07F61
:100487000112173C90004DE0FEA3E0FF1216BA9050
:100497000066EFF012172D90006874F5F07B017A73
:1004A7000079650205721212FC4003020575C2AF9E
:1004B7000526E4F5DAC2A9C28CC2A875E720229006
:1004C700005FE0900065F0900060E0900066F090BB
:1004D7000061E0900067F0A37457F090005FE09030
:1004E7000069F0900060E090006AF0900061E09091
:1004F700006BF07B017A0079658070900067E0708F
:100507006DD210753EFA90004B7432F0A3F07F0263
:10051700121686900065E0900048F0900066E09023
:100527000049F022900069E090005712109C7F006C
:100537007E021210A87F007E040210A8900057E0E8
:10054700900065F0900058E0900066F0900059E048
:10055700900067F090006974A4F0E4A3F0A3F09012
:0F05670000687402F07B017A007965120E8D2214
:100FDD00C2AF052678657C007D017B007A00790B18
:100FED007E007F07120646C20AD52602D2AF9000B8
:100FFD0068E024EE601224A16021246E703230125C
:10100D002FE4FD7F9602171090005AE030E004E4C3
:10101D00FF80027F01121686C21122D2B712109DD7
:10102D007F007E021210A87F007E041210A8C2B7A6
:01103D002290
:1015A2003008077F447D10120D08300A077F447D02
:1015B20020120D087D017F0212103E75E13D80E090
:10076B00900054E0605814F0E07053A3E070053033
:10077B00124C800C900055E014F0E0703B30123EB0
:10078B00900057E0900065F0900058E0900066F004
:10079B00900059E0900067F0A37403F090005FE0C5
:1007AB00900069F0900060E090006AF0900061E0CA
:1007BB0090006B120E868006900053E0A3F0900021
:1007CB004BE014F07015A3E090004BF090004AE062
:1007DB00B40208B218A21892979296E53D453C6078
:1007EB0043E53D153D7002153C14453C70369000B9
:1007FB0057E0900065F0A374FBF090007CE0900054
:10080B0067F0900057E0900069F0900058E090007E
:10081B006AF0900059E090006BF0900068748412BD
:10082B000E86C214E53F6051153FE53F704B9000BB
:10083B007BE0FFB4041A900074E0FE900073E02E8E
:10084B00FE900075E02EFEA3E06E7028D21580247A
:10085B00EFB40620900074E0FF900073E02FFF9040
:10086B000075E02FFFA3E02FFFA3E02FFFA3E0B560
:10087B000702D216E490007BF0E53E600AD53E07F6
:10088B00C210E4FF12168630B202807C900000E0AA
:10089B00607C14F07078D293C2B77D647F02121023
:1008AB003E20B232D293C2B775E13D7F011216865C
:1008BB007D287F0212103E75E13DE4FF1216867D06
:1008CB00287F0212103E30B2DBC29390000074649A
:1008DB00F0E4FF021686C293C2B7C293C2B77F0180
:1008EB001216867D787F0212103E75E13DE4FF12F1
:1008FB0016867D787F0212103E75E13D30B2DBE447
:0E090B00FF121686C2B7C2939000007464F00B
:0109190022BB
:10165C007D047F0212103E900054E07F447D4012C6
:07166C000D0875E13D80E966
:1012660041007C0041007B00C115C116C117C114A5
:1014E400D2B0D2B175985053877F53890F43892066
:1014F400758DD8758BD853877F538EBFC28FD28E8C
:09150400C298C299D29CD2AC221B
:03002300020F01C8
:100F0100C2AFC0E0C083C082C0D075D000C006C0EF
:100F110007309902C299309852C298E599F490002D
:100F210072F0753F0590007BE0701D900072E0FF4C
:100F3100B4053890007BE0FE04F074732EF582E472
:100F41003400F583EFF08023900072E0FF90007B86
:100F5100E0FE04F074732EF582E43400F583EFF0C3
:100F610090007BE0C394074002E4F0D007D006D0A4
:0A0F7100D0D082D083D0E0D2AF329E
:100A3B00C2AF0526786C7C007D017B017A0079734F
:100A4B007E007F041206467E007F047D007B017AC8
:100A5B0000797312073FD52602D2AF90006DE0FFED
:100A6B0090006CE02FFF90006EE0FE2FFFA3E06F75
:100A7B007056EE147052753C01753D5E2014479014
:100A8B00006DE0FF90007CF0900057E0900065F067
:100A9B00A374FBF0A3EFF0900057E0900069F09087
:100AAB000058E090006AF0900059E090006BF090D5
:100ABB0000687483F07B017A007965120E8D9000CB
:090ACB006DE090007CF0D21422D1
:100C7E00C2AF0526786C7C007D017B017A0079730A
:100C8E007E007F061206467E007F067D007B017A7F
:100C9E0000797312073FD52602D2AF90006DE0FFA8
:100CAE0090006CE02FFFE433FE90006EE07C002F8E
:100CBE00FFEC3EFEA3E0FD7A002FFFEA3EFEA3E02E
:100CCE00FC2FFFEA3EFEA3E0B5072EEAB5062AED9D
:100CDE007027EC24A67022D210753EFA90004B7449
:100CEE0032F0A3F07F0212168690006DE09000485D
:0A0CFE00F090006EE0900049F02233
:0F4000005A01080001C0FFFFFFFFFFFF0304008C
:03000000020BF2FE
:0C0BF200787FE4F6D8FD758153020C39C1
:10057600E709F608DFFA8046E709F208DFFA803E67
:1005860088828C83E709F0A3DFFA8032E309F60854
:10059600DFFA8078E309F208DFFA807088828C83BC
:1005A600E309F0A3DFFA806489828A83E0A3F60870
:1005B600DFFA805889828A83E0A3F208DFFA804C4A
:1005C60080D280FA80C680D4806980F28033801021
:1005D60080A680EA809A80A880DA80E280CA80338A
:1005E60089828A83ECFAE493A3C8C582C8CCC58302
:1005F600CCF0A3C8C582C8CCC583CCDFE9DEE780D2
:100606000D89828A83E493A3F608DFF9ECFAA9F050
:10061600EDFB2289828A83ECFAE0A3C8C582C8CCA6
:10062600C583CCF0A3C8C582C8CCC583CCDFEADEBF
:10063600E880DB89828A83E493A3F208DFF980CC21
:1006460088F0EF60010E4E60C388F0ED2402B4041A
:100656000050B9F582EB2402B4040050AF232345C1
:0606660082239005C6731B
:10066C00BB010689828A83E0225002E722BBFE028C
:09067C00E32289828A83E49322BF
:10068500BB010CE58229F582E5833AF583E022502A
:1006950006E92582F8E622BBFE06E92582F8E22274
:0D06A500E58229F582E5833AF583E493228E
:1006B200BB010689828A83F0225002F722BBFE0127
:0206C200F32221
:1006C400BC000BBE0029EF8DF084FFADF022E4CC1A
:1006D400F875F008EF2FFFEE33FEEC33FCEE9DECE3
:1006E400984005FCEE9DFE0FD5F0E9E4CEFD22ED29
:1006F400F8F5F0EE8420D21CFEADF075F008EF2F73
:10070400FFED33FD4007985006D5F0F222C398FD63
:050714000FD5F0EA2200
:10071900D083D082F8E4937012740193700DA3A36F
:1007290093F8740193F5828883E473740293686083
:06073900EFA3A3A380DF83
:10073F00EF4E6012EF60010EEDBB010B89828A83D1
:10074F00F0A3DFFCDEFA2289F05007F709DFFCA9DE
:0C075F00F022BBFEFCF309DFFCA9F02235
:100BFE00021673E493A3F8E493A34003F68001F284
:100C0E0008DFF48029E493A3F85407240CC8C333F7
:100C1E00C4540F4420C8834004F456800146F6DFC6
:100C2E00E4800B0102040810204080901233E47E11
:100C3E00019360BCA3FF543F30E509541FFEE493BB
:100C4E00A360010ECF54C025E060A840B8E493A382
:100C5E00FAE493A3F8E493A3C8C582C8CAC583CAAD
:100C6E00F0A3C8C582C8CAC583CADFE9DEE780BE65
:011276000077
:00000001FF
