:100B33008800C0C0C0C0C0C0C0C0A0230800080057
:100B430010A76258430322F800475610181D1C4390
:100B53004091EA2A0011598135090E060405002047
:100CE200E4FDFCC3ED9FEC9E50070DBD00010C809E
:100CF200F2E4FCFDC3ED9FEC9E50070DBD00010C1C
:020D020080F27D
:010D040022CC
:100D4300000000000000000000000000000000EFB1
:090D53001F70011E144E70E8220D
:070DE300C294C297D29422D2
:100D0500120DE37F887E13120CE2120D2512087373
:100D15007BFE7A00790078447408F27F3E020BCEA0
:100C6800E4FEC297FDEF30E704D2958002C295EF0B
:100C780025E0FFD2970000EE25E0FE3096010EC277
:0A0C88009700000DEDB408DDAF0683
:010C9200223F
:100DC900C2942096FD7F30120C682096FDD29422A1
:100D2500D2947F017E00120D43C2947F017E001292
:0E0D35000D43D2947F297E00120D43020DC99A
:040D8B00E2FD7F0CFA
:100D8F00AC05C2942096FD120C68AF04120C68D209
:020D9F0094229C
:0A0BCE007841EBF208EAF208E9F2C0
:100BD800EF4440FFC2942096FD120C68E4FC784470
:100BE800E2FFECC39F50197841E2FB08E2FA08E201
:100BF800F98C827583001206ABFF120C680C80DE3C
:020C0800D29484
:010C0A0022C7
:0B001600C2942096FD120C68D29422C8
:100DA100EF4480FFC2942096FD120C68E4FF120C00
:030DB10068D29471
:010DB400221C
:0A0B8F00784AEBF208EAF208E9F2F6
:100B9900EF44C0FFC2942096FD120C68E4FC784D26
:100BA900E2FFECC39F501BE4FF120C68784AE2FB9A
:100BB90008E2FA08E2F98C82758300EF1206EA0C62
:040BC90080DCD29466
:010BCD002205
:100DB500EF44C0FFC2942096FD120C68E4FF120CAC
:030DC50068D2945D
:010DC8002208
:100873007808120D8B08E2FD7F0B120D8F08120D05
:100883008B08E2FD7F0D120D8F08E2FD7F0E120D26
:100893008F08E2FD7F0F120D8F08E2FD7F10120D0E
:1008A3008F08E2FD7F11120D8F08E2FD7F12120DFA
:1008B3008F08E2FD7F13120D8F08E2FD7F14120DE6
:1008C3008F08E2FD7F0A120D8F08E2FD7F15120DDE
:1008D3008F08E2FD7F21120D8F08E2FD7F22120DAA
:1008E3008F08E2FD7F18120D8F08E2FD7F19120DAC
:1008F3008F08E2FD7F1A120D8F08E2FD7F1B120D98
:100903008F08E2FD7F1C120D8F08E2FD7F1D120D83
:100913008F08E2FD7F23120D8F08E2FD7F24120D65
:100923008F08E2FD7F25120D8F08E2FD7F26120D51
:100933008F08E2FD7F29120D8F08E2FD7F2C120D37
:100943008F08E2FD7F2D120D8F08E2FD7F2E120D21
:100953008F08E2FDE4FF120D8F08E2FD7F02120D06
:100963008F08E2FD7F07120D8F08E2FD7F08120D4D
:100973008F08E2FD7F09120D8F08E2FD7F06020D4D
:010983008FE4
:100CBD00783FEDF27F3F120D8FE27844F27F3F12C5
:100CCD000BCE20B5FD7F3512001630B3FD20B3FDE0
:050CDD007F3B02001640
:0A098400783FEBF208EAF208E9F20E
:10098E0008E2FB08E2FA08E2F912069225E025E0F9
:10099E007848F27F3B120DB5EF547F60787F3F129F
:1009AE000DA118EFF27842E2FB08E2FA08E2F91222
:1009BE000692FEEFD39E5043783FE2FB08E2FA0820
:1009CE00E2F97847E2784DF27F3F120B8F7847E2DB
:1009DE00FF7842E2FB08E2FA08E2F9EF1206D87B52
:1009EE00FE7A007945784D7402F27F3F120B8F7FAD
:1009FE003A1200167846E25480FF227847E2FF78DA
:100A0E0042E2FB08E2FA08E2F9EF1206D87F3A1248
:070A1E0000167F00227F009B
:010A250022AE
:030B6300812BFFE4
:03001300020D7467
:100D7400C0E0C0D075D000C000C2AA782C7401F2C3
:070D8400D000D0D0D0E03216
:10041200C290C29175E13F120D05D290783912084F
:100422005A000000009000AF7401F07508177509BA
:10043200717F807E257D007C00120C937FAA120DB5
:10044200D9120C0BD2AFE4782CF2D2ACD2AAD28A57
:100452007F34120016E49000B4F07837F2C299C2E9
:1004620098D2ACD2AF7839E2FC08E2FD08E2FE088D
:10047200E22401FFE43EFEE43DFDE43CFC78391257
:10048200084E75E13FD3E50994E0E508942E402338
:10049200E4783EF2783EE2FFC39408501174CD2F07
:1004A200F582E43400F583E4F0E204F280E6E4F558
:1004B20008F509782CE2640160030205D5C2907840
:1004C2003D7418F2E408F2783EE2FFC3940850113A
:1004D20074B52FF582E43400F583E4F0E204F2808F
:1004E200E6784274FEF2087400F208743DF27B0171
:1004F2007A0079B5120984EF70030205C575E13FF0
:100502009000BCE0645560030205C5782BE2FFF45D
:10051200600C9000B5E0FEEF6E60030205C5E47862
:100522003EF2783EE2FFC394085022E2FE24B5F583
:1005320082E43400F583E0FD74CD2EF582E43400CC
:10054200F583E0B50507783EE204F280D5EFC39467
:10055200085070E4F508F5097B017A0079B5120AB2
:10056200B2E4783EF2783EE2FF24B5F582E434004C
:10057200F583E0FE74CD2FF582E43400F583EEF0CE
:10058200E204F2E2B408DE9000B6E064FA702F9062
:1005920000B8E0B406289000BC74AAF0E4783EF2F9
:1005A20075E13F7F361200167B017A0079B57D082E
:1005B200120CBD783EE204F2E2C3940140E27F34C1
:1005C200120016E4782CF275E13F7F34120016D245
:1005D20090D2AA7FC07ED47D017C007839E2FB08EC
:1005E200E2F908E2FA08E2CBF8D312083D400978B2
:1005F2003912085A00000000300A02C20A20080319
:1006020002068DC290C208C2AFE4783EF2783EE2A2
:10061200FF2458F582E43400F583E0FE74AD2FF533
:1006220082E43400F583EEF0E204F2E2B407DED2B3
:10063200AF9000B0E0FF645A6005EF642F7047EF9F
:10064200B42F0D9000B1E0541F9000B0F0E4A3F07D
:100652009000B0E0B406079000ADE0782BF2900075
:10066200B474AAF0E4783EF275E13F7F36120016C8
:100672007B017A0079AD7D08120CBD783EE204F26E
:10068200E2C3940140E27F34120016D29002046762
:100B6600020800000120000121004100A700410009
:100B76005F004100A9004100500041004E004100C5
:080B8600AB0041004F00C1105B
:100C0B00C2B7D2B243B28053B17F5389F04389014B
:100C1B00758A27758CFFC28DD2A9D28C9000AC74CB
:0F0C2B00F0F0C289D28830B203D2A822D20722B9
:03000300020D5C8F
:100D5C00C0E0C083C082C2A8D200C2029000A7E447
:080D6C00F0D082D083D0E03208
:03000B00020026CA
:10002600C0E0C0F0C083C082C0D075D000C000C0A0
:1000360002C003C004C005C006C007C28C758CFF91
:10004600758A27D28CA2B2920D0509E509700205C0
:10005600083000369000A7E02410F0E054F0645019
:10006600600302015BC200F0300D1A20060A30055B
:10007600075320C3D206C2B79000AC74F0F09000CC
:10008600A9E4020127D20102015B20010302015B00
:100096009000A7E02410F0E0FF54F064A060030293
:1000A600015BEF540FF0E004F0E0540FFB640A60CC
:1000B60003020144C201300D6F9000A9E0FE54F026
:1000C60024FF300901B3400E900050E4F0EE540FC7
:1000D6009000A9F0804690005074E6F09000AAE0E7
:1000E600FF9000A9E0C4540F2458F582E43400F5CB
:1000F60083EFF09000A9E02410F0E0FF54F0C394E1
:10010600704019EF540FF0300503300302D2089007
:100116000050E4F090004E740AF0D20B9000AC74DC
:10012600F0F0C289D2A8802DD20720060A30050732
:100136005320C3D206C2B79000A9E4F08017BB09CA
:1001460006A20D9209800E9000AAE0C313F0300DAE
:1001560004E04480F0E520540C640C703E300D241D
:10016600D2B7C20C90005FF05320F39000A9E05480
:100176000F2451F582E43400F583E09000A8F0D214
:10018600040202725320C3D2069000A9E054F0F094
:10019600C2B79000AC74F0F00202722004030202AF
:1001A6007290005FE02410F0E054F0FD6450702679
:1001B600A20C300D01B34005D2100202725320C3C7
:1001C6009000A9E054F0F0D206C2B79000AC74F0EB
:1001D600F0C210020272201003020272ED64A060E7
:1001E60003020272C21090005FE0540FF0E004F0C8
:1001F600E0540FFFBF09129000A9E0540F24FFB38B
:10020600920CA20CB392B78063BF0A06D20CC2B797
:10021600805A90005FE0540F640B7037C204900060
:10022600A9E004F0E0FF540FC394074018EF54F020
:10023600F05320C39000AC74F0F043210C90004EB4
:10024600740AF080089000AC740AF0D203C289D216
:10025600A880199000A8E0FF30E006D20CC2B78053
:1002660004C20CD2B7EFC3139000A8F0E5205403E4
:1002760070209000ACE0600614F07002D2023007E5
:1002860011C202300D0CC207C289D2A89000AC740C
:10029600F0F0900050E0600B14F070079000A9E0B9
:1002A600540FF090004EE0600614F07002C20BE5A9
:1002B60020542360030203F9300605C2060203EB4D
:1002C600A20B720A50030203F990004FE02447FF85
:1002D600E433FE9000ABE0FB7A00C3EF9BFFEE9A9F
:1002E600FE7C007D4712070CEDC394075003020302
:1002F600F0E02460F582E43400F583E0900051F0EC
:10030600EB2401FFEA33FE7C007D4712070C9000C8
:10031600ABEDF0E0FF2460F582E43400F583E09075
:100326000052F0EF2401FFE433FE7C007D47120704
:100336000C9000ABEDF0E0FF2460F582E43400F5AC
:1003460083E0900053F0EF2401FFE433FE7C007D50
:100356004712070C9000ABEDF0E0FF2460F582E455
:100366003400F583E0900054F0EF2401FFE433FEFF
:100376007C007D4712070C9000ABEDF0E0FF246097
:10038600F582E43400F583E0900055F0EF2401FF98
:10039600E433FE7C007D4712070C9000ABEDF0E0E5
:1003A600FF2460F582E43400F583E0900056F0EF18
:1003B6002401FFE433FE7C007D4712070C9000AB5E
:1003C600EDF0E0FF2460F582E43400F583E0900070
:1003D60057F0EF2401FFE433FE7C007D4712070C43
:1003E6009000ABEDF0432028800990004FE4F09098
:1003F60000ABF0D007D006D005D004D003D002D091
:0C04060000D0D0D082D083D0F0D0E03203
:0A0AB200783FEBF208EAF208E9F2DF
:100ABC00087407F2C2AF90004FE02447FFE433FE06
:100ACC009000ABE0FDC3EF9DFFEE9400FE7C007D3B
:100ADC004712070CEDC394464005D2AF7F00227835
:100AEC0042E2FF14F2EF603A783FE2FB0808E2F9C9
:100AFC002401F218E2FA3400F2120692FF90004F31
:100B0C00E0FE2460F582E43400F583EFF0EE24017E
:100B1C00FFE433FE7C007D4712070C90004FEDF094
:060B2C0080BDD2AF7F0185
:010B320022A0
:100C9300AB07AA06A905A8047F7C7E087D017C001A
:100CA30012079D12082F8F8B8F8DE4F5877589218D
:0A0CB300759850C299C298D28E22A3
:03002300020C3A92
:100C3A00C0E0C0D075D000C000309819C29878378B
:100C4A00E2242DF8E599F27837E204F2E2D3940926
:0E0C5A0040037409F2C299D000D0D0D0E0322D
:0A0DD900C2998F993099FDC299224A
:03000000020A26CB
:0C0A2600787FE4F6D8FD758122020A6D8D
:10069200BB010689828A83E0225002E722BBFE0266
:0906A200E32289828A83E4932299
:1006AB00BB010CE58229F582E5833AF583E0225004
:1006BB0006E92582F8E622BBFE06E92582F8E2224E
:0D06CB00E58229F582E5833AF583E4932268
:1006D800BB010689828A83F0225002F722BBFE0101
:0206E800F322FB
:1006EA00F8BB010DE58229F582E5833AF583E8F046
:1006FA00225006E92582C8F622BBFE05E92582C8F2
:02070A00F222D9
:10070C00BC000BBE0029EF8DF084FFADF022E4CCD1
:10071C00F875F008EF2FFFEE33FEEC33FCEE9DEC9A
:10072C00984005FCEE9DFE0FD5F0E9E4CEFD22EDE0
:10073C00F8F5F0EE8420D21CFEADF075F008EF2F2A
:10074C00FFED33FD4007985006D5F0F222C398FD1B
:05075C000FD5F0EA22B8
:1007610075F008758200EF2FFFEE33FECD33CDCC4F
:1007710033CCC58233C5829BED9AEC99E5829840D2
:100781000CF582EE9BFEED9AFDEC99FC0FD5F0D6AF
:10079100E4CEFBE4CDFAE4CCF9A88222B800C1B9D9
:1007A1000059BA002DEC8BF084CFCECDFCE5F0CB17
:1007B100F97818EF2FFFEE33FEED33FDEC33FCEB50
:1007C10033FB10D703994004EB99FB0FD8E5E4F90B
:1007D100FA227818EF2FFFEE33FEED33FDEC33FCF8
:1007E100C933C910D7059BE99A4007EC9BFCE99AEC
:1007F100F90FD8E0E4C9FAE4CCFB2275F010EF2F31
:10080100FFEE33FEED33FDCC33CCC833C810D70730
:100811009BEC9AE899400AED9BFDEC9AFCE899F86B
:0E0821000FD5F0DAE4CDFBE4CCFAE4C8F922FE
:0E082F00C3E49FFFE49EFEE49DFDE49CFC22DA
:10083D00EB9FF5F0EA9E42F0E99D42F0E89C45F011
:01084D002288
:0C084E00ECF208EDF208EEF208EFF222E6
:10085A00D083D082E493F208740193F2087402936D
:09086A00F208740393F2740473A4
:100A3200020412E493A3F8E493A34003F68001F2C4
:100A420008DFF48029E493A3F85407240CC8C333C5
:100A5200C4540F4420C8834004F456800146F6DF94
:100A6200E4800B0102040810204080900B33E47EE6
:100A7200019360BCA3FF543F30E509541FFEE49389
:100A8200A360010ECF54C025E060A840B8E493A350
:100A9200FAE493A3F8E493A3C8C582C8CAC583CA7B
:100AA200F0A3C8C582C8CAC583CADFE9DEE780BE33
:010B8E000066
:00000001FF
