:020000040000FA
:10000000E81B001085030000890300008B0300003B
:100010008D0300008F03000091030000000000002A
:10002000000000000000000000000000930300003A
:1000300095030000000000009703000099030000F2
:100040009B0300009B0300009B0300009B03000038
:100050009B0300009B0300009B0300009B03000028
:100060009B0300009B0300009B0300009B03000018
:100070009B0300009B0300009B0300009B03000008
:100080009B0300009B0300005D3300009705000008
:100090009B030000714300009B0300009B030000D2
:1000A0009B0300009B0300009B0300009B030000D8
:1000B0009B0300009B03000017330000D1040000E5
:1000C00000F002F800F04DF80CA030C808382418F1
:1000D0002D18A246671EAB4654465D46AC4201D180
:1000E00000F03FF87E460F3E0FCCB6460126334265
:1000F00000D0FB1AA246AB4633431847F854000021
:1001000018550000103A02D378C878C1FAD85207BF
:1001100001D330C830C101D504680C6070470000BD
:100120000023002400250026103A01D378C1FBD813
:10013000520700D330C100D50B60704710B5642959
:1001400002D104F0EDFE10BD732902D105F0C6F90D
:1001500010BD002010BD1FB5C046C0461FBD10B564
:1001600010BD05F0D3F91146FFF7F5FF00F0FCFED6
:1001700005F0EBF903B4FFF7F2FF03BC05F0F0F96B
:1001800062B6704770B505460C46164602E00FCCC5
:100190000FC5103E102EFAD2082E02D303CC03C591
:1001A000083E042E07D301CC01C5361F03E0217899
:1001B0002970641C6D1C761EF9D270BD70B55A4949
:1001C0000020496AC905090F10292BD20B007B4476
:1001D0001B79DB189F4407090B0D0F111315171915
:1001E0001B1D1F21232551481CE051481AE051488E
:1001F00018E0514816E0514814E0514812E05148C7
:1002000010E051480EE051480CE051480AE05148D6
:1002100008E0514806E0514804E0514802E05148E6
:1002200000E05148404D696AC906890E891C04F0F6
:10023000D5FF4E490A6B4E4C9207920F11D0012AFE
:1002400004D0022A2BD0032A35D10DE00A68920788
:10025000920F06D0012A04D0022A20D0032A2AD1E4
:100260002FE04448206026E00A689207920F06D0EB
:10027000012A0AD0022A14D0032A1CD121E0A8683E
:10028000C005800F05D03B4809E0A868C005800F75
:10029000F9D1A868374AC006C00E401C5043206000
:1002A00009E0AA68D205920FF9D1AA68D206D20E47
:1002B000521C42432260896B206804F08FFF20604B
:1002C00070BD0020EBE7F0B42B4A906B20218843EF
:1002D0009063154900230B62184600BF401CC828D4
:1002E000FBD32248012505604560436045604468B2
:1002F000E407FCD023248C60946B8026B443946381
:10030000CA68D207FCD00321016345634363456398
:10031000416BC907FCD085631948184901604561E4
:100320008561C561F0BC49E700800440801A060081
:1003300020A1070000350C00E0C81000C05C1500CB
:10034000006A180040771B0080841E00C0912100C5
:10035000009F240040AC2700E032290020402C0000
:10036000604D2F0000D4300040E133004080044055
:1003700000000010001BB700008204405F00010075
:100380008080044008480047FEE7FEE7FEE7FEE7FE
:10039000FEE7FEE7FEE7FEE7FEE7FEE70348044967
:1003A000044A054B70470000C1000000E808001037
:1003B000E81B0010E8190010E819001070B40025BF
:1003C00085B000950195029503956E4604953070B1
:1003D00001222946FE4B06E0844202D0B454521C4E
:1003E000D2B2491CC9B25C18FF34FF340234247BFA
:1003F000002C01D01329EFD36946F6481EC90646E2
:100400000C361EC60499C161F3490879820704D4E9
:10041000F24A157022221043087105B070BC704773
:1004200030B485B0002100910191029103910C46F6
:10043000E74A6D46049106E0834202D02B55641CC6
:10044000E4B2491CC9B25318FF33FF3302331B7B9C
:10045000002B01D01329EFD369461EC9DD480C30AB
:100460001EC01C380499C1612878002806D1DA49D9
:10047000FD220879104020221043087105B030BCDD
:100480007047D748012101610022426141618161C9
:10049000D44801680122D20311430160D348D249F4
:1004A000416003210160AA2181605521816070476C
:1004B000CC480168402211430160CD480169C90858
:1004C000C9000161CB480168022291430160704775
:1004D000C848C16902221143C161704770B4BC4E63
:1004E0000022701E337811467F24801C0578D218B4
:1004F00049194378D2B2C9B2641EF6D15018FE2110
:10050000715C70BC0818C0B27047F1B5B04E0022E3
:10051000701E3378C0B011467F24801C0578D21835
:1005200049194378D2B2C9B2641EF6D15018FE21DF
:10053000715C0818B049C877AC48AA218160552180
:100540008160032586153246A149409801F0E7FDF8
:10055000032432466846409901F060FD9C496B4691
:1005600000201F780A78974206D1401C5B1C491C6A
:1005700080B2FF28F5D906E0FF2804D8641E2406BF
:10058000240EE6D101E0002C03D16D1E2D062D0EA8
:10059000D9D141B0F0BDF8B59848012707608F4D1B
:1005A000974C2879401CC0B228711E2841D3894835
:1005B000C16A491CC162207A401C20720020287147
:1005C000617D491CC9B261753C292DD36075217DBF
:1005D000491CC9B221753C2926D32075E17C491CF0
:1005E000C9B2E17418291FD3E074A07C854B401C6C
:1005F000C2B2A274617C2046007C022905D1860724
:1006000003D19E78761CB24202D85B5C9A420BD929
:10061000491CC9B2A77461740C2905D96774401CC0
:10062000642104F0DBFD21746B4840220179114301
:10063000017160891021084373496081487901285C
:1006400001D9401E4871E878002819D0401E0006E4
:10065000000EE87014D16878BF21084068705C48CB
:10066000A97842788A4208D041700F208004FFF7B1
:100670004CFF3D200004FFF748FF032001F008FF76
:10068000F8BD70B5574801684215114301605F4CD1
:10069000012525607D20C000E060032060615D4889
:1006A0005B49006804F09AFDA06165605A49A8049E
:1006B00008605A490868FF2212049043AA051043B3
:1006C000086070BD70B547480168021511430160AC
:1006D0004A4C012525607D20C000E0600320606158
:1006E0004C484F49006804F079FDA06165604A49B3
:1006F000E8040860494801680902090AE203114355
:10070000016070BD704738B5032304461A4645A101
:1007100004F0A2FB102100910323224600211020A7
:1007200002F0CDF938BDF8B506462B480079C10670
:1007300001D4C0064AD1294906224878C978104018
:10074000084343D12E4D39A1EA7C304604F084FBA6
:1007500010240021032332460846009402F0AFF92A
:1007600034A1304604F078FB0023324619461020AD
:10077000009402F046FC2A7D2CA1304604F06CFB6C
:100780000323324600212020009402F098F92AA188
:10079000304604F061FB00233246194630200094B5
:1007A00002F02FFC6A7D21A1304604F055FB0323A3
:1007B000324600214020009402F081F91FA130460A
:1007C00004F04AFB00233246194639E03CE00000C1
:1007D000780000107802001078010010040000106A
:1007E000C080044080800440FFFFFF0000400040C4
:1007F000004004400080005058010010008001407B
:1008000098020010100000105E000010004001402F
:10081000809698000000001000E100E010E400E085
:10082000307500005625642E2564000025303264A2
:1008300000000000CAB10000B7D60000C3EB000002
:100840005020009402F0DDFBF8BDF7481423811E10
:10085000401E00228A708270091D001D0A700270FD
:100860005B1EF7D1704770B400220A70EE4A0B7815
:100870005C00155D002D0AD00678B5420AD1A41897
:1008800064784578AC4205D170BC0120704770BCDB
:10089000002070475B1CDBB20B70282BE7D370BCC9
:1008A00002207047F8B5054668460027DE4C077001
:1008B00001784B00E25C002A0BD02E78B24222D1A4
:1008C0001A1952786B789A421DD1012003F068FB07
:1008D000F8BD384603F064FB684601782A78480082
:1008E00022546A7800194270084603F059FB6846A2
:1008F00000784000205C03F053FB6846007840001D
:1009000000194078E2E7491CC9B201702829CFD309
:10091000022003F045FBF8BDF8B5C34C217800294F
:100920004DD0694600230B700A785600A55D002D56
:100930000BD00778BD420AD135196D784678B5429B
:1009400005D10878272808D316E00020F8BD521CEE
:10095000D2B20A70282AE7D314E009784D0028198A
:100960008278002A08D06255C2784270491CC8B209
:10097000694608702728F0D3684600784000235461
:100980000019437068460370684600784000205C98
:1009900000280FD003F004FB6946087840000019D6
:1009A000407803F0FDFA69460878401CC0B2087030
:1009B0002828E9D32078002801D00120F8BD0220A2
:1009C000F8BD10B5FC21994804F004FC10BDF1B548
:1009D000974882B04379C1790122007A029C062BA4
:1009E00004D0072B05D0082B0BD106E0FA2900D143
:1009F000032269460A70487003E0022268460270CA
:100A000041706846FFF74EFF0025874E2F4668006D
:100A1000315C002943D0012904D0022924D00329C4
:100A200039D10AE08019427882A1204604F014FAF4
:100A30002078641C0028FBD12CE04321C94321709D
:100A40002C21C9436170A7702178641C0029FBD157
:100A50008019641E427877A1204604F0FDF92078C1
:100A6000641C0028FBD115E03121C94321703F21CE
:100A7000C9436170A7702178641C0029FBD18019DB
:100A8000641E42786BA1204604F0E6F92078641CCD
:100A90000028FBD1641E6D1CEDB2282DB7D3641E57
:100AA0002770029804F00EFB082804D9029804F07D
:100AB00009FB0C2804D960A261A1204604F0CCF9FE
:100AC00003B0F0BDF1B55A4882B04379C179012233
:100AD000007A029C062B04D0072B05D0082B0BD1E3
:100AE00006E0FA2900D1032269460A70487003E043
:100AF00002226846027041706846FFF70DFF022827
:100B00005CD00025484E2F466800315C002943D058
:100B1000012904D0022924D0032939D10AE08019FF
:100B2000427844A1204604F097F92078641C0028FC
:100B3000FBD12CE04321C94321702C21C9436170B2
:100B4000A7702178641C0029FBD18019641E4278AB
:100B500038A1204604F080F92078641C0028FBD1DD
:100B600015E03121C94321703F21C9436170A7704D
:100B70002178641C0029FBD18019641E42782DA1C4
:100B8000204604F069F92078641C0028FBD1641E1B
:100B90006D1CEDB2282DB7D3641E2770029804F0A7
:100BA00091FA082804D9029804F08CFA0C2804D988
:100BB00021A223A1204604F04FF9012003B0F0BD8B
:100BC00038B5204C194D208900280BD1102128461A
:100BD00001F04BFF2081002804D11021284601F0AC
:100BE00044FF208182B210216020602A10D9009138
:100BF00061890023401A00B22A46194601F05FFFBE
:100C0000218960896031401C04F0E8FA618138BDB7
:100C1000801A0091C10F08184010002300B22A4624
:100C2000194601F04CFF38BDB002001083010010DE
:100C30007801001025642C00BAF4BDD0000000003B
:100C40002573000078020010F8B506460922FEA1BF
:100C500004F05AFA34462078641C0028FBD1FE4880
:100C6000FC4DC11D2A78FF31641E1027FA31002A7D
:100C700019D08018FF30FF300230027B002A3DD0AF
:100C8000F6A1204604F0E8F82078641C0028FBD187
:100C9000641EF4A2F4A1204604F0DEF82078641C5F
:100CA0000028FBD114E00A7B002A26D0EBA12046C5
:100CB00004F0D2F82078641C0028FBD1641EE9A25D
:100CC000E9A1204604F0C8F82078641C0028FBD174
:100CD00002F0B3FAE88002F0ADFA032001F0D8FB8D
:100CE0000023324619461846009701F0E8FEA8791D
:100CF00002F09DFA2878401C2870F8BD002028706A
:100D00000A7B002AF9D0D5A1204604F0A5F8207866
:100D1000641C0028FBD1641ED2A2D3A1204604F09B
:100D20009BF82078641C0028FBD1D1E7F8B5CF4DA3
:100D3000C94C6888002804D11021A01C01F095FE40
:100D4000688080B21027CA496026602827D9887F2A
:100D500002280BD003280097288818D0301A0023C7
:100D600000B2A21C194601F0AAFE08E000972888EC
:100D70000023301A00B2A21C194601F0F8FF69885E
:100D800028886031401C04F029FA2980F8BD301A07
:100D9000002300B2A21C194601F091FEE6E7897F0C
:100DA00002290DD0032917D0301AC10F081840109E
:100DB000002300B2A21C1946009701F080FEF8BD86
:100DC000301AC10F08184010002300B2A21C1946A7
:100DD000009701F0CCFFF8BD301AC10F0818401081
:100DE000002300B2A21C1946009701F068FE688833
:100DF000E6E7A04801690422114301619E491007FA
:100E000008609E480168FF22120491430122D20526
:100E1000114301607047F8B5642104F0DFF9303008
:100E20000F46C6B2964C384626700A2104F0D6F911
:100E300005463035657038460A2104F0CFF9303167
:100E40000020A170E070302E06D125706170A07076
:100E5000302D01D121706070F8BD70B47E4E00223B
:100E6000701E337811467F24801C0578D2184919EA
:100E70004378D2B2C9B2641EF6D15018FE21715C1B
:100E800008187B49C0B2C97F884202D170BC0120DA
:100E9000704770BC0020704710B5FF220146013238
:100EA0006D4801F0BBF810BDF8B50320704C009000
:100EB0000F21FF2289040132674801F0AFF8664F25
:100EC0000022781E3B7811467F25801C0678D218B8
:100ED00089194378D2B2C9B26D1EF6D15018FE21DD
:100EE000795C0818E17FC0B28842009802D10028DE
:100EF0002CD104E0401E0006000E0090D8D1032043
:100F000000903D21FF2209040132534801F086F888
:100F1000514F0022781E3B7811467F25801C0678B1
:100F2000D21889194378D2B2C9B26D1EF6D15018C1
:100F3000FE21795C0818E17FC0B28842009806D192
:100F4000002809D00F208004FFF7DFFAF8BD401E0B
:100F50000006000E0090D4D13F4809210170012104
:100F6000417000218170F8BD88B0FFF7ACF94548A9
:100F7000016840273943016043480169C908C90035
:100F80000161424801680222914301603148082210
:100F90004178114341704721C9002F4804F01CF9E2
:100FA0003B4E0C20307470741920B0740E20F07415
:100FB0002420307500252D4C75752771FFF782FBB5
:100FC00000F080FA002000F0DFFC324908700120B8
:100FD00000F0DAFC3049087000F0B6FE2F48811EA0
:100FE000401E14228D708570091D001D0D70057046
:100FF000521EF7D1FFF758FF174F38780A2804D947
:101000000920387001207870BD701248797881709D
:10101000387802F0FAFF552002F0C2FFB8780028B5
:1010200020797DD024210843207103F004FA03F0D5
:101030000DFC01F0BBF900210F235F22084601F0EF
:1010400085FB00202CE00000BBA4CABFCEBBD6C3EA
:101050000000000004000010780000102530326409
:1010600000000000B7BF00002573000078010010E9
:10107000580100100080015000E100E01CE400E095
:101080000C000010808004400040044000800050AC
:10109000980200101E0000101F000010B002001087
:1010A00002F0C8F8032001F0F3F9012002F0C2F8C1
:1010B000032001F0EDF9002002F0BCF8FFF760F822
:1010C000F14801F04DF902F0BFF8002002F0B2F84B
:1010D000012001F024FA002002F0A9F8EA4801F00A
:1010E0003FF9012001F0D4F9002002F0A3F802201A
:1010F00001F015FA002002F09AF8E34801F030F907
:10110000022001F0C5F9002002F094F8DF4F03231C
:101110001A46DF49384603F09FFE1020032300E003
:1011200052E03A460021009001F0C9FC002002F094
:101130007EF8D54801F014F9012001F0A9F9D5484D
:1011400001270770D4480169042211430161D34982
:1011500010070860D2490868FF2212049043FA057C
:1011600010430860342003F0F7F9CE480761456169
:1011700047618761CC490868FA0310430860CC488E
:10118000CA49416003210160AA2282605521816021
:10119000C84D2846FF300C300546F5350590C4484B
:1011A000AA218160552181607189880605D520209A
:1011B00081437181032001F06BF9307A1E2821D917
:1011C0002079C10703D01DE0FB2108402CE7C106B0
:1011D00007D500213172EF210840202108432071FA
:1011E00010E0810705D51D213172202108432071AF
:1011F00008E0410706D52188002903D1317230214A
:10120000084320712079810654D5DF2108402071E0
:10121000C10744D0EF210840207100206881288157
:1012200002F00BF8A44FF88002F004F8032001F05C
:101230002FF9288900280BD11021059801F015FC01
:101240002881002804D11021059801F00EFC288186
:1012500080B2602812D91020009068896021081A95
:10126000002300B21946059A01F029FC29896889F2
:101270006031401C03F0B2FF69810CE06021081A64
:1012800010210091C10F08184010002300B2194628
:10129000059A01F014FCB87901F0C9FF0AE0810752
:1012A00013D5EF21084020710020708030807748EE
:1012B000FFF7CAFC03F044FC02F093FC02F0D8FFF5
:1012C0007E480178012921D024E0C10611D44007CD
:1012D0000FD500202080608001F0AFFF764FF880AE
:1012E00001F0A8FF032001F0D3F86848FFF71EFDC6
:1012F000D1E701F0A2FF704FF88001F09BFF0320BF
:1013000001F0C6F86148FFF70EFAC4E7002101704A
:1013100002F013FD68484178CA0637D5EF22114024
:1013200041701E22C2704A0608D58178491CC9B294
:101330008170102905D10021817002E04022114303
:1013400041708078642103F049FF3030C2B25C4FB5
:1013500006913A7008460A21009203F03FFF3030B0
:10136000787001900A21069803F038FF3031B97087
:101370000020F870009A302A39D1019A3A707970B9
:10138000B870302A33D13970787030E08A063ED593
:10139000DF22114041701E21C1708178491CC9B201
:1013A0008170102901D100218170C8B2642103F03D
:1013B00015FF3030C2B2424F01913A7008460A21FF
:1013C000069203F00BFF3030787000900A210198EC
:1013D00003F004FF3031B9700020F870069A302A0B
:1013E00005D1009A3A707970B870302ACBD00120BC
:1013F0000F23002100901A46084601F062FA0820E7
:10140000002300902E4A1946184601F058FB7189B6
:10141000C8062DD51020814371812179CA0714D0C7
:101420002989602924D9009068896021081A00233D
:1014300000B21946059A01F042FB2989688960319A
:10144000401C03F0CBFE698112E0880706D5308886
:1014500060280DD90D48FFF7F7FB09E0C80607D44F
:10146000480705D56088602802D90848FFF75EFC68
:101470002079410600D492E6BF210840207103483C
:10148000FFF751F98BE60000B80B000000030010D5
:1014900024080000200000100080015000E100E05E
:1014A0001CE400E0C080044080800440FFFFFF0097
:1014B0000040004078000010040000103E000010C2
:1014C0000C00001070B4F94801684022114301601B
:1014D000F7480168C908C90001608168C908C900E6
:1014E0008160F449CA6BD208D200CA638A6BD20801
:1014F000D2008A63F0490A6843151A430A60EF492B
:101500000C68102214430C60ED4C256830263543DE
:1015100025604468E408E400446008682024A0438F
:101520000860E848C16B1143C163E748C16B2143C0
:10153000C163C16B1143C163E448C16B1943C1630B
:1015400070BC7047DF48C16B10229143C163704784
:10155000DC48C16B10221143C1637047D948C16B8D
:1015600010229143C1637047D648C16B10221143CA
:10157000C163704770B40022D34B1025D3496C016E
:10158000CE6BA643CE630606DE6B01D4AE4300E00D
:101590002E43DE634006000E00BF00BF00BF00BF49
:1015A000CE6B2643CE63521CD2B2082AE8D370BC5D
:1015B0007047F0B48446481EC0B2002924D0C24B04
:1015C0001027C2497C0162461578521C94460022BD
:1015D000CE6BA643CE632E06DE6B01D4BE4300E085
:1015E0003E43DE636D062D0E00BF00BF00BF00BF8F
:1015F000CE6B2643CE63521CD2B2082AE8D30246F1
:10160000401EC0B2002ADED1F0BC704770B4AE49B3
:101610000020CA6B10231A43CA63AA4D0126AB4AA5
:1016200001465B01D46B9C43D46300BF00BF00BF85
:1016300000BF4006EC6B000EA40600D53043D46B0F
:101640001C43D463491CC9B20829EBD370BC704752
:10165000F0B484469C48C26B10231A43C263481EF0
:10166000C0B2002923D0974E012798495C0100227F
:101670001346CD6BA543CD6300BF00BF00BF00BFC5
:101680005206F56B120EAD0600D53A43CD6B2543DD
:10169000CD635B1CDBB2082BEBD363461A7062464A
:1016A000521C94460246401EC0B2002ADFD1F0BC54
:1016B0007047F0B5834C0746E06B94460D46102604
:1016C000B043E0630320FFF755FF3802000EFFF739
:1016D00051FF3804000EFFF74DFFF8B2FFF74AFF45
:1016E00079486246C16B3143C163681EC0B284460B
:1016F000002D20D001277548750100210B46C66BCF
:10170000AE43C66300BF00BF00BF00BF4906E66B23
:10171000090EB60600D53943C66B2E43C6635B1C63
:10172000DBB2082BEBD3117061464B1E521CDBB2AF
:101730009C460029E1D1E06B10210843E063F0BD35
:1017400030B5604CE06B1025A843E0636020FFF7E4
:1017500011FFE06B2843E06330BD70B5594C05467E
:10176000E06B1026B043E0632020FFF703FF280260
:10177000000EFFF7FFFE2804000EFFF7FBFEE8B2A5
:10178000FFF7F8FEE06B3043E06370BD70B54D4C81
:101790000546E06B1026B043E0635220FFF7EAFEF7
:1017A0002802000EFFF7E6FE2804000EFFF7E2FE17
:1017B000E8B2FFF7DFFEE06B3043E06370BD70B569
:1017C000404C0546E06B1026B043E063D820FFF79D
:1017D000D1FE2802000EFFF7CDFE2804000EFFF711
:1017E000C9FEE8B2FFF7C6FEE06B3043E06370BDB0
:1017F00030B5344CE06B1025A843E0630520FFF7BB
:10180000B9FEFFF703FFE16B2943E16330BD70B51B
:101810002C4C2F4DE06B1026B043E0630520FFF702
:10182000A9FEFFF7F3FEE16B3143E163C00713D07C
:101830000A2000F083FD6D1E2D042D0C0CD0E06BF2
:10184000B043E0630520FFF795FEFFF7DFFEE16B95
:101850003143E163C007EBD170BD70B5194CE06B4B
:101860001025A843E0630620FFF784FEE06B2843C1
:10187000E063FFF7CCFF70BD30B5124CE06B102574
:10188000A843E0630420FFF775FEE06B2843E063A4
:1018900030BD30B50B4CE06B1025A843E0637020E1
:1018A000FFF768FEE06B2843E06330BD80800440B2
:1018B000404004400040044000800150008002503D
:1018C00000800350C03F0250C03F0350C03F015052
:1018D0003075000030B5F94CE06B1025A843E0638B
:1018E0008020FFF747FEE06B2843E06330BD30B552
:1018F000F24CE06B1025A843E0635020FFF73AFE5E
:10190000E06B2843E06330BD70B5EC4C0646E16BFC
:101910001025A943E1630120FFF72CFE3046FFF7B5
:1019200029FEE06B2843E06370BD70B5E34C0546CB
:10193000E06B1026B043E0630120FFF71BFEE8B226
:10194000FFF718FE2804000EFFF714FEE06B30438B
:10195000E06370BDF8B5D94DD94CE86B1027B8439A
:10196000E863E86B800601D5012600E000266420CC
:1019700000F0E4FC641E2404240C01D0002EF0D0FE
:10198000E86B3843E863F8BD70B5CC4C0646E16BB4
:101990001025A943E1639020FFF7ECFD0020FFF73D
:1019A000E9FD0020FFF7E6FD3046FFF7E3FDFFF716
:1019B0002DFEE16B2943E16370BD70B5BF4CE06B58
:1019C0001025A843E0639F20FFF7D4FDFFF71EFE1C
:1019D0000602FFF71BFE30430602FFF717FEE16B1E
:1019E00030432943E16370BDF0B5B44C0546E06B6C
:1019F00017468C461026B043E063AD20FFF7BAFDD2
:101A00002802000EFFF7B6FD2804000EFFF7B2FD16
:101A1000E8B2FFF7AFFD6046FFF7ACFD3846FFF7D1
:101A2000A9FDE06B3043E063F0BDF0B5A34C074681
:101A3000E06B0E461025A843E063AD20FFF79AFD4A
:101A40003846FFF797FD3046FFF794FDE06B2843DB
:101A5000E063F0BD70B5994C9A4DE06B1026B04331
:101A6000E0630520FFF786FDFFF7D0FDE16B314312
:101A7000E163400613D5012000F072FC6D1E2D04B9
:101A80002D0C0CD0E06BB043E0630520FFF772FD36
:101A9000FFF7BCFDE16B3143E1634006EBD470BD61
:101AA00070B5864C864DE06B1026B043E063052090
:101AB000FFF760FDFFF7AAFDE16B3143E1638007AB
:101AC00013D40A2000F03AFC6D1E2D042D0C0CD00E
:101AD000E06BB043E0630520FFF74CFDFFF796FD98
:101AE000E16B3143E1638007EBD570BDF8B5734C12
:101AF0007D26E06BF6001025A843E0630520FFF784
:101B000039FDFFF783FDE16B2943E1634227394645
:101B1000814314D0012000F023FC761E3604360CDD
:101B20000DD0E06BA843E0630520FFF723FDFFF72E
:101B30006DFDE16B2943E16339468143EAD1F8BD8C
:101B4000F8B55E4D0446E86B17468C461026B04348
:101B5000E8637020FFF70EFDE86B3043E863E86B45
:101B6000B043E863AD20FFF705FD2002000EFFF74C
:101B700001FD2004000EFFF7FDFCE0B2FFF7FAFCC8
:101B80006046FFF7F7FC3846FFF7F4FCE86B30439C
:101B9000E8634B4CE86BB043E863E86B800601D523
:101BA000012700E00027642000F0C8FB641E240425
:101BB000240C01D0002FF0D0E86B3043E863F8BD6F
:101BC000F8B53E4D0746E86B0C461026B043E86377
:101BD000AD20FFF7CFFC3846FFF7CCFC2046FFF7DF
:101BE000C9FCE86B3043E863354CE86BB043E8630D
:101BF000E86B800601D5012700E00027642000F093
:101C00009DFB641E2404240C01D0002FF0D0E86B4F
:101C10003043E863E86BB043E8630420FFF7AAFCB5
:101C2000E86B3043E863E86BB043E8638020FFF77C
:101C3000A1FCE86B3043E863F8BD70B51F4CE06B66
:101C40001025A843E0635020FFF794FCE06B284385
:101C5000E063FFF7DCFDE06BA843E0630120FFF7E2
:101C600089FC3C20FFF786FC0020FFF783FCE06B3B
:101C70002843E063FFF7CBFD70BD70B50F4CE06B00
:101C80001025A843E0635020FFF774FCE06B284365
:101C9000E063012000F064FBE06B1C26A843E063D6
:101CA0000120FFF767FC3046FFF764FCE06B284338
:101CB000E063012000F054FB70BD0000C03F025003
:101CC000FFFF00001027000070B5FE4CE06B1025F0
:101CD000A843E0635020FFF74DFCE06B2843E0632E
:101CE000FFF795FDE06BA843E0630120FFF742FC9E
:101CF0000020FFF73FFC0020FFF73CFCE06B28438F
:101D0000E063FFF784FD70BD70B5EE4CE06B10250D
:101D1000A843E0635020FFF72DFCE06B2843E0630D
:101D2000012000F01DFBE06B0026A843E0630120CA
:101D3000FFF720FC3046FFF71DFCE06B2843E06313
:101D4000012000F00DFB70BD70B5DF48DD4C007860
:101D50001025EF281ED0BF281BD1E06BA843E063FD
:101D60005020FFF707FCE06B2843E063012000F000
:101D7000F7FAE06B1C26A843E0630120FFF7FAFBAB
:101D80003046FFF7F7FBE06B2843E063012000F0EB
:101D9000E7FA70BDE06BA843E0635020FFF7EAFB71
:101DA000E06B2843E063FFF732FDE06BA843E0639C
:101DB0000120FFF7DFFB3C20FFF7DCFB0020FFF7F3
:101DC000D9FBE06B2843E063FFF721FD70BD70B5E0
:101DD000BD48BC4C00781025EF281ED0BF281BD171
:101DE000E06BA843E0635020FFF7C4FBE06B28439F
:101DF000E063012000F0B4FAE06B0026A843E06342
:101E00000120FFF7B7FB3046FFF7B4FBE06B284338
:101E1000E063012000F0A4FA70BDE06BA843E0632A
:101E20005020FFF7A7FBE06B2843E063FFF7EFFCD0
:101E3000E06BA843E0630120FFF79CFB0020FFF765
:101E400099FB0020FFF796FBE06B2843E063FFF768
:101E5000DEFC70BDF0B59B4C0546E06B0F461026CE
:101E6000B043E0630220FFF785FB2802000EFFF776
:101E700081FB2804000EFFF77DFBE8B2FFF77AFB39
:101E80003846FFF777FBE06B3043E063F0BDF8B511
:101E90008C4E0D46F16B1746044610208143F163CA
:101EA0000620FFF767FBF06B10210843F063FFF794
:101EB000AEFCF16B10208143F1630220FFF75AFB67
:101EC0002802000EFFF756FB2804000EFFF752FB16
:101ED000E8B2FFF74FFBFF200130874201D9FF2511
:101EE00003E0781E85B2002F08D02078FFF742FB70
:101EF00028466D1E641CADB20028F6D1F06B10218F
:101F00000843F063FFF783FCF8BDF0B505460C46C7
:101F1000FF20C9B20130401AC6B283B0100AD3B252
:101F20000093002932D0FF210131091BC9B2671883
:101F3000002841D0901B81B2080A0190C8B20090DD
:101F4000324621462846FFF7A2FF0198AE19411EEE
:101F50003C46CDB200280FD0FF2701373A46214634
:101F60003046FFF794FF2846FF34FF366D1E0134DC
:101F70000136EDB20028F1D10098002804D00246C5
:101F800021463046FFF783FF03B0F0BD002824D080
:101F9000401EFF27C6B201373A4621462846FFF7C2
:101FA00076FF3046FF34FF35761E01340135F6B238
:101FB0000028F1D1009A10E0B3420ED9981BC0B2AC
:101FC0000090324621462846FFF761FF3946A8199E
:101FD000009AFFF75CFF03B0F0BD21462846FFF7EB
:101FE00056FF03B0F0BD70B5364C0546E06B1026C9
:101FF000B043E0630320FFF7BDFA2802000EFFF7AD
:10200000B9FA2804000EFFF7B5FAE8B2FFF7B2FA02
:10201000FFF7FCFAE16B3143E16370BDF0B50646B2
:1020200028481546C26B0F46002410218A43C2631C
:102030000320FFF79FFA3802000EFFF79BFA3804DF
:10204000000EFFF797FAF8B2FFF794FA002D05D9C2
:10205000FFF7DCFA3055641CAC42F9D31948C16B68
:1020600010221143C163F0BDF7B516460D46D007E7
:1020700003D0FF20A855561CB6B2124CE06B1027B7
:10208000B843E0630620FFF775FAE06B3843E0637E
:10209000FFF7BDFB6A7829780098FFF751FDB61E5F
:1020A000B0B2AD1C0290022833D9E06B1027B843C0
:1020B000E063AD20FFF75EFA2878FFF75BFA6878F7
:1020C00004E00000C03F02501E000010FFF752FA6B
:1020D000E06B3843E063944EE06BB843E063E06B41
:1020E000800601D5012700E00027642000F026F9D2
:1020F000761E3604360C01D0002FF0D0E06B102194
:102100000843E0630298AD1C801E80B20290022852
:10211000CBD869782878FFF753FD03B0F0BDF8B548
:1021200016460F460546FFF752FE804C280524D17F
:10213000E16B10208143E1630620FFF71BFAE06B9F
:1021400010210843E063FFF762FBE06B1021884336
:10215000E0632020FFF70EFA2802000EFFF70AFACC
:102160002804000EFFF706FAE8B2FFF703FAE06B67
:1021700010210843E063FFF74AFB6D480178BF294F
:1021800002D0EF290DD012E040784A280FD1E8079D
:102190000DD1062E0BD3324639462846FFF764FF91
:1021A00037E0324629463846FFF7AFFE31E0002ED1
:1021B0002FD0E16B10208143E1630620FFF7DAF9AD
:1021C000E06B10210843E063FFF721FB3878844679
:1021D000E06B10218843E0630220FFF7CBF928026F
:1021E000000EFFF7C7F92804000EFFF7C3F9E8B2A5
:1021F000FFF7C0F96046FFF7BDF9E06B1021084317
:10220000E063FFF704FB6D1C7F1C761E3604360C62
:10221000CFD1FFF799FDF8BDF8B5FFF7D8FD434DD5
:10222000E86B1024A043E8630620FFF7A3F9E86BEE
:102230002043E863FFF7EBFA1F26E86B7604A04320
:10224000E8632020FFF796F93E20FFF793F900207E
:10225000FFF790F90020FFF78DF9E86B2043E86362
:10226000FFF7D5FAFFF770FD324800219623417041
:102270004A1C801C891C02705B1EF8D12E4CFF2268
:102280002D32A11C3046FFF74AFFA41CC827E96B7A
:10229000002610208143E9630320FFF76BF93E20FD
:1022A000FFF768F90020FFF765F90020FFF762F9F2
:1022B000FFF7ACF9A055761CBE42F9D31B48C16BA1
:1022C00010221143C1631C4D00242819807801F0AD
:1022D00067FE641CC82CF8D31448AE1C6427C26B7C
:1022E000002410218A43C2630320FFF743F93E20F4
:1022F000FFF740F90020FFF73DF9C820FFF73AF952
:10230000FFF784F93055641CBC42F9D30748C16B10
:1023100010221143C16300242819807801F040FE87
:10232000641C642CF8D3F8BDFFFF0000C03F0250CE
:102330001E0000107900001078000010411E89B2C4
:1023400000280CD000BF00BF00BF00BF00BF00BF0F
:1023500000BF00BF0846491E89B20028F2D170476D
:10236000411E8AB200281BD070B40E4BAA250E4C19
:102370005526184600BF00BF00BF00BF00BF00BF0A
:1023800000BF00BF0146401E80B20029F2D1A56007
:10239000A6601046521E92B20028EAD170BC704767
:1023A00070470000E703000000400040F0B4FB4825
:1023B0000068012109040843F8490860F8480069E9
:1023C000F749C008C00008614869C008C0004861FA
:1023D0008869C008C0008861C869C008C000C861B9
:1023E000C868C008C000C860EE480168C022114338
:1023F0000160ED480168ED4A11430160E848806AD8
:102400000221E74A08439062526A0120E44B0243EA
:102410005A62E74BDA680A43DA60E64A54680443D2
:102420005460DE4800688C022043DC4C20600020B1
:10243000186309256561FF27DF4BC8371F605960A6
:1024400004241C6103261E62536823435360D34A4D
:1024500012684B041A43D14B1A60DD61D74A1760EA
:10246000516014611662D6495F23088048800F22AC
:102470008A80088148818881C8810B824A8288824B
:10248000C882D049087688764876C876F0BC70470E
:102490000146CB4A032010B500021018807EFF23AE
:1024A00081335843831818461830012908D002296F
:1024B00009D0032903D1FF22C90102F066FE10BD35
:1024C000FF22C021F9E71846D830F9E7F8B51646DB
:1024D0000C2205460C1ABB4F55435443012E01D024
:1024E000032E0BD1B87EFF2181314843B449FF222E
:1024F000401840191830214602F047FE022E01D044
:10250000032E0BD1B87EFF2181314843AC49FF2215
:1025100040184019D830214602F037FEF8BD70B59A
:102520000446A74E032000023518012C01D0032CCD
:1025300008D1A87EFF218131484380191830C0217D
:1025400002F048FE022C01D0032C08D1A87EFF2106
:10255000813148438019D830C02102F03BFE70BD64
:10256000F0B4974F98497B89C86BDAB24024204376
:10257000C863D5078020002DCD6B08D00543CD63FF
:1025800093489607914DC66B03D4AE4302E0854352
:10259000F5E72E43C66356078E4DC66B01D4AE4396
:1025A00000E02E43C66315070422002DC56B01DB36
:1025B000954300E01543C563C86BA043C8635B1C2B
:1025C00098B27881102804D3002078817D48017E5C
:1025D0004176F0BC7047F0B47A4D7F4BEF7E00241B
:1025E0001E78754A14217548002F30D0012E7DD0F9
:1025F000D2680A4205D0704A96688668D6680E424C
:10260000FAD1DA68196917780E78521C491C86606D
:10261000694EB7601778521CBC460F78491C87601A
:102620006746B7601778521CBC460F78491C876014
:102630006746B7601778521CDA600A78491C19613E
:102640008260B76001201870EC76F0BC7047012EF4
:1026500032D0594AD2680A4205D0574A93688368F3
:10266000D3680B42FAD15C4B5A68996817780E7898
:10267000521C491C8660504EB7601778521CBC46ED
:102680000F78491C87606746B7601778521CBC46B4
:102690000F78491C87606746B7601778521C5A60EC
:1026A0000A78491C99608260B7600120444918701B
:1026B0000C81E876F0BC7047414B0C275E896D7E3B
:1026C0007E431F89FF08F619FF2781377D43EB18EA
:1026D000F6181836404F33467E60C033BB60FE604C
:1026E0003B61D5680D4206D0956800E012E0856830
:1026F000D5680D42F8D1002137781D78761C5B1C17
:1027000085609760491CC9B20829F5D332484660F4
:10271000836018E0D5680D4204D095688568D56857
:102720000D42FAD12C4B0021DD681B692F781E78F1
:102730006D1C5B1C86609760491CC9B20829F5D3E3
:102740002548C56003610470F0BC704710B41C4C90
:10275000A081E18122826382A082E18210BC704765
:10276000F0B40C246143C4080D19154F032109026C
:102770007C184107490F01208840012B01D0032B11
:102780002ED1A17EFF2681367143C91969181831EF
:102790000E78002A22D0864321E000008080044089
:1027A00040400440008000500080025004060000B9
:1027B0008040044000800440000004400080054048
:1027C0000004001000070010C03F0050000200008D
:1027D000C03F0250000400002000001006430E70AD
:1027E000022B01D0032B0DD1A17EFF23813359434E
:1027F000C9196918D831002A0A7801D0824300E04B
:1028000002430A70F0BC7047F0B515461C460E46F0
:102810000746A84219D1A6420AD83146761CF6B21C
:1028200001223846059BFFF79BFFA642F5D9F0BD74
:10283000B442FCD82146641CE4B201223846059B10
:10284000FFF78EFFB442F5D9F0BD9E42FCD1AF42F6
:102850000AD838467F1CFFB201223146059BFFF79C
:102860007FFFAF42F5D9F0BDBD42FCD828466D1CB4
:10287000EDB201223146059BFFF772FFBD42F5D94B
:10288000F0BDF8B51D46069C16460F4684460B461D
:102890000094FFF7B9FF32462B46394610460094A4
:1028A000FFF7B2FF2B463246194660460094FFF709
:1028B000ABFF62462B46394610460094FFF7A4FF53
:1028C000F8BD994216D8F0B51F4616460D46844607
:1028D0006446B44509D8002229462046059BFFF7E7
:1028E0003FFF641CE4B2B442F5D96D1CEDB2BD42A9
:1028F000EED9F0BD7047F7B582B0FE4B0324240239
:10290000049A1C1900910190012A01D0032A51D187
:10291000A27EFF2581356A43D518DA8A0C267243D8
:10292000AD189A8AD608AD1956071835760F491E84
:102930008E463FD4002702788021F9400A4205D014
:1029400029780122B2401143297004E02A7801213C
:10295000B1408A432A70998A491C89B299821A8A9D
:10296000914219D99E899E82DD8A6D1CADB2DD82AD
:10297000598A8D4201D9D989D982A57EFF21813119
:102980004D43E918DD8A0C2255434919F5084D19C4
:1029900018357607760F04E0761C7607760F00D19F
:1029A0006D1C7F1CFFB2082FC5D3401C7146491E09
:1029B0008E46BFD50498019D009A022801D00328B5
:1029C00051D1A07EFF2181314843C118D88A0C26FD
:1029D00070430818998ACE0880194907D830490FE2
:1029E000521E94463FD400222F788026D64037428C
:1029F00005D0067801278F403E43067004E0077833
:102A000001268E40B74307709E8A761CB6B29E821E
:102A10001F8ABE4219D999899982D88A401C80B2EE
:102A2000D8825E8AB04201D9D889D882A07EFF269A
:102A300081367043DE8A0C27C0187E438019CE0889
:102A40008019D8304907490F04E0491C4907490F4C
:102A500000D1401C521CD2B2082AC5D36D1C62465C
:102A6000521E9446BFD505B0F0BD30B4017808239E
:102A70000022002920D0C9B20D460224203D5E2D3F
:102A800002D80124082311E0AA2906D14578A12DF6
:102A900003D3FE2D01D8082308E081397D2905D80C
:102AA0004178402902D3FE2900D81023D1180019FB
:102AB0008AB201780029DED130BC10467047FFB5DC
:102AC000B3B0002003900290082001903598007860
:102AD00000287DD034993C980818401E0990C8B24F
:102AE0000C2148431090844808908448AA218160B2
:102AF00055218160359802240078014620395E29ED
:102B000021D802460124303A092A16D836990329D9
:102B100009D01021029100010821FF38FF38023846
:102B2000019103903AE010210291082101910101E5
:102B30002F2000010818039030E010200290082098
:102B400001900801F7E7AA280FD135994978A12902
:102B50000BD3FE2909D81021029135980821019143
:102B60000188674808180001E5E781387D2812D8F8
:102B70003599497840290ED3FE290CD82023029399
:102B800010230193BF2358434038692208181201CB
:102B900040018018CFE73598401C35903399019853
:102BA0000D1805D535980019359028B23390D7E027
:102BB00011AA02990398FEF77CFD3599019809192D
:102BC000359101210D913399002914DA012200E099
:102BD000CBE0511A00236D1E099AC9B2ECB20D91D7
:102BE000D5B23499434AC9B29381D18114825582B6
:102BF0009382D18218E0339A8118602903DB602127
:102C0000891AC9B201913499D4B2CAB2019B3399DD
:102C1000C918099B491EDDB2364BC9B29C81DA81C5
:102C200019825D829C82DA820D9911AF491ECA1702
:102C3000520F5118C9100591C9B27D5C491CCAB226
:102C400008998B7EFF2181314B432A495C18109BE8
:102C5000E3188C8AE6089B190026B64664073C9E5A
:102C60001833640F002E74D90199491C8C460199C0
:102C7000401AC117490F0818C01007900D996145F7
:102C80004FD2481EC617760F3618F608F600861B78
:102C90008020F040284205D01E780120A0408643C5
:102CA0001E7004E018780126A640304318701148C1
:102CB000868A761CB6B28682078ABE4222D9848969
:102CC0008482C38A5B1C9BB2C382468AB34201D909
:102CD000C389C382089BFF269B7E813673431B18E2
:102CE000C08A0C2670431818E308C3181833640709
:102CF000640F0CE0000400100007001000400040CA
:102D00005F55FFFF641C6407640F00D15B1C48071C
:102D100003D111A8855C521CD2B2491CC9B26145CD
:102D2000AFD3079811AE8018059A49071018C2B2A0
:102D3000B0182038C57F07204007081802D0B55CBE
:102D4000521CD2B27046401CC0B286463C988645A2
:102D500094D301993398401800B23390602804DA74
:102D600035980078002800D0BFE637B0F0BDFFB539
:102D7000B3B00020039002900820019035980078AD
:102D800000287DD03C9934984018401E0990349812
:102D90000C21C0B248431090FE4808903598022498
:102DA0000078014620395E2921D802460124303AB4
:102DB000092A16D83699032909D010210291000159
:102DC0000821FF38FF3802380191039037E01021C5
:102DD00002910821019101012F20000108180390A0
:102DE0002DE010200290082001900801F7E7AA28A2
:102DF0000FD135994978A1290BD3FE2909D8102183
:102E000002913598082101910188E34808180001D2
:102E1000E5E781387D2812D83599497840290ED3C5
:102E2000FE290CD82023029310230193BF2358437B
:102E3000403869220818120140018018CFE7339901
:102E400001980D1805D535980019359028B23390A2
:102E5000D0E011AA02990398FEF72BFC359801994E
:102E60000019359001200D903398002814DA0122C2
:102E7000101AC0B20D9034980022C0B26D1E00E04E
:102E8000BDE0099BECB2DDB2C44B9A81D8811C82B3
:102E90005D829A82D88219E00818602804DB339A90
:102EA0006020801AC0B20190019C339B33981B199B
:102EB0005B1EDCB2099B349ADDB2B84BC0B2D2B211
:102EC0009881DA811C825D829882DA820D9811AF36
:102ED000401EC217520F1018C0100590C0B23D5CC2
:102EE000401CC2B20898837EFF2081304343AB4828
:102EF0001C18109BE318848AE6089B190026B64626
:102F000064073C9ED833640F002E6CD90198401C96
:102F100084460198081AC117490F0818C010079075
:102F20000D99614547D2481EC617760F3618F60828
:102F3000F600861B8020F040284205D01E78012034
:102F4000A04086431E7004E018780126A640304356
:102F500018709248868A761CB6B28682078ABE426C
:102F60001AD984898482C38A5B1C9BB2C382468A35
:102F7000B34201D9C389C382089BFF269B7E813659
:102F800073431B18C08A0C2670431818E308C31833
:102F9000D8336407640F04E0641C6407640F00D135
:102FA0005B1C480703D111A8855C521CD2B2491C96
:102FB000C9B26145B7D3079811AE8018059A490781
:102FC0001018C2B2B0182038C57F07204007081873
:102FD00002D0B55C521CD2B27046401CC0B28646CC
:102FE0003C9886459CD301993398401800B23390A1
:102FF000602804DA35980078002800D0CEE637B093
:10300000F0BDFFB5B1B03398007800287ED032987B
:103010000C210F3007903298C0B248430E905D48A3
:10302000069033995E4A0B78002022214143545C7C
:10303000A34205D1339C8918647849788C4203D027
:10304000401CC0B20328F0D33399891C3391032864
:103050007ED2222148438118891C20220FA802F029
:1030600053F810200B900F213198C943884203DA9E
:10307000103000B23190D3E010203A9001200C9033
:103080003198002813DA0121081AC0B20C90329846
:103090000021C2B231980F30C3B20798C4B23F4882
:1030A0008181C281038244828182C28219E0103010
:1030B000602804DB31986021081AC0B20B90319867
:1030C0000B9BC1B23298C2B23198C018401EC4B234
:1030D0000798C3B231488181C281048243828182D0
:1030E000C2820C980FAE401EC117490F0818C010BD
:1030F0000390C0B2355C401CC2B20698817EFF20AE
:103100008130414325480B180E9900E08DE05B1893
:10311000818A0B98CC081B194C0700218E46401C55
:1031200084460B991020401AC117D833490F640FF9
:103130000818C01005900C99614552D2481EC61758
:10314000760F3618F608F600861B8020F04000E067
:1031500066E0284205D01E780120A04086431E70FC
:1031600004E018780126A640304318700B48868A80
:10317000761CB6B28682078ABE4223D984898482AD
:10318000C38A5B1C9BB2C382468AB34201D9C389FE
:10319000C38207E0000700105F55FFFF0004001026
:1031A0007C550000069BFF269B7E813673431B18CF
:1031B000C08A0C2670431818E308C318D833640774
:1031C000640F04E0641C6407640F00D15B1C4807B3
:1031D00003D10FA8855C521CD2B2491CC9B261450B
:1031E000ACD305980FAE8018039A49071018C2B2E5
:1031F000B0182038C57F07204007081802D0B55CFA
:10320000521CD2B27046401CC0B286463A988645DF
:1032100091D30B993198401800B23190602804DAAC
:1032200033980078002800D0FBE635B0F0BD0549A2
:10323000087670470349887670470248017E01206E
:103240008843704700070010F8B5FE484169C90877
:10325000C90041618169C908C9008161FA4C2068CF
:103260000126F602B0432060F848C16B1020F74AEF
:103270008143D163216801432160F548406AF449E4
:10328000C008C0004862F348C06B89158843F14903
:10329000C863F1480068F1100843EF490860ED4841
:1032A000C06BF1108843EB49C863EC480068B1106B
:1032B0000843EA490860EA4D01272F607D20C000DD
:1032C000E86003206861E848E649006801F086FF8D
:1032D000A8616F60E549F0010860E54A1068FF21C8
:1032E00009048843F30218431060E24AE620D073D1
:1032F0006068B0436060E0683043E060206930435C
:103300002061DA4A18021060DB4802688A435900DB
:103310000A430260F8BD10B4CB48816901240A0554
:103320000421002A0DDAC3694A021343C361036909
:1033300093430361CF4A138A23438B4313820023B1
:1033400013708269520707D5C2690A43C261CB4A2A
:10335000147002698A43026110BC7047F8B5C04915
:1033600001200860C34C608A401C80B2608209283A
:1033700006D300206082FFF7F3F8FFF72CF910E086
:10338000BF480178BF48002902D1C168C90606D5E7
:10339000BD49C97E012904D1C068C00601D4FFF728
:1033A0001AF9BA49BA4E087802250707C823B94A5C
:1033B000002F09DAF66BB60771D4F72630400126E4
:1033C0003043087013706AE0C7071FD01778002FCA
:1033D00065D07F1E3F063F0E177060D14008400049
:1033E0000870F66BB6070BD42843102630430870DC
:1033F000A9483221017013700320FFF749F84EE00D
:10340000C008C00008221043087048E0870721D593
:103410001778002F43D07F1E3F063F0E17703ED116
:10342000F66BB60733D413709B4A1378002B36D053
:103430005B1E1B061B0E137031D1FD2318400423A5
:103440001843192313702022104308700320FFF73C
:103450001FF824E0470722D51778002F1FD07F1EC2
:103460003F063F0E17701AD1F66BB6070FD41370D4
:10347000894A1378002B12D05B1E1B061B0E13709B
:103480000DD11923137020221043087007E0C008E3
:10349000C0000822104308700320FEF7F9FF607A8D
:1034A000401CC0B26072C82803D3002060720120A3
:1034B000A0726648C06B01057848218A02D5814315
:1034C000218204E00143218275490020C8626948D5
:1034D000048AE0072CD0674908781030C0B2087021
:1034E0000009052842D160084000002208820A70C5
:1034F00083041AD543060BD4830609D53C2398438D
:103500004023184308825148C46B10239C43C46372
:10351000F020C8734C488A70C2690121C9020A436D
:10352000C26102690A43026120E0284308821DE06B
:103530005048A1071AD501781031C9B20A090170A3
:103540000A2A13D10907090F491C0A070170012132
:10355000120F49020A2A1ED0092A6DD0417B490860
:103560004173A20402D5802211434173414D0122CF
:10357000288A12030107890F03295ED0C1065DD591
:1035800069781031C9B20B096970052B57D02C7BB3
:10359000012C55D06FE1AC430482A20451D53548CB
:1035A00021408078020912010A4304D031490209FE
:1035B00008D0A20506D500222E490007CA70000FC8
:1035C00088708FE0E6220309CA70364D4A7B1030BE
:1035D000EA54C0B2020912018870702A68D32549E2
:1035E0000007000F8870A00601D5200770D5214E76
:1035F000307AF179401A1D301D2101F0FDFD1C29A2
:1036000004DBFF2001300443348261E0264C0325B3
:1036100067781848A41C2549007A26780F541D2184
:10362000401C01F0DBFD0846204967780E541D213F
:10363000401C01F0D3FD3CE075E07BE011E19FE030
:10364000BAE05CE08040044000800150C03F01507F
:1036500000400440C03F025000800250808004407F
:1036600000400140809698000000001000E100E05A
:1036700010E400E0340000101CE400E068000010DA
:10368000200000100000044000070010050000109A
:10369000C03F00501C0000101D0000100020000062
:1036A0007802001048000010470000103907001091
:1036B00018E0FE486D1E0172ABD1FD48FB4C8279CB
:1036C000FC49207A0A541D21401C01F087FD21721B
:1036D000F6480021C1700A210171028A0121C90244
:1036E0000A430282F149F020C873F348C2690121FC
:1036F000C9020A43C26102690A43026136E78021B6
:103700000C43048261060BD4A10609D53C218C43ED
:1037100040210C43E9490482CB6B10229343CB63D5
:103720000021817022E7A20401D50C4300E08C4304
:1037300004821BE7810412D5E049CC6B10231C43A3
:10374000CC630021697090430C218843A9780A0753
:10375000120FDB491843895CA97328828BE03C2156
:103760008843402108432882A87800090001A870F6
:10377000D248C26B10218A43C263F020E8737AE01A
:103780008104890F03D0C10403D5810401D5012030
:1037900010E03C218843A97809090901A97040215A
:1037A00008432882C548C26B10218A43C263F020B7
:1037B000E873002028735EE00A2B5CD10907002320
:1037C000090F2B73491C69700907090F09290ED0CD
:1037D0000A2917D00B291DD0A97BCB0742D0104353
:1037E0002882B648C36B10229343C36341E0A97893
:1037F000090707D090432882B048C16B10221143BB
:10380000C16338E010432882AC48C26B10218A4360
:10381000C26330E0102188432882A978491CC9B2CC
:103820000A07120FA970072A0DD309090901A97007
:103830003C218843F021E97303218902084328824F
:103840000A20287104E00A21E9730821084328822C
:103850009948C2690121C9020A43C26102690A4347
:10386000026108E0904328829448C26B10231A43F7
:10387000C2634808A873298A880720D1E87B0028FA
:1038800007D0401E0006000EE87302D10420014359
:10389000298288B2010612D5042188432882810436
:1038A0000DD58021884384492882CA690120C0023D
:1038B0000243CA610A6902430A61F020E873E878AA
:1038C000002808D0401E0006000EE87003D1A8783A
:1038D0000007000FA8702879002809D0401E0006B4
:1038E000000E287104D1298A0120C0028143298257
:1038F0002C8A2320044206D1600605D5402084434B
:10390000282004432C82F8BD2005800FFBD1A87924
:103910006F791D21C01B1D3001F06EFC072938DBBB
:10392000684E674DF05D28701D21781C01F056FC33
:103930000846315C69701D21401C01F04FFC0846AF
:10394000315CA9701D21401C01F048FC0846315C27
:10395000E9701D21401C01F041FC0846315C2971D1
:103960001D21401C01F03AFC0846315C69711D21A3
:10397000401C01F033FC0846315CA9711D21401C3C
:1039800001F02CFC49484171282004434748048237
:10399000F8BD0020A8716871F8BDF8B5434E054622
:1039A000B0797179401A1D301D2101F025FC1C29C8
:1039B00001DB0020F8BD72B60624424F2978B079A9
:1039C0006D1C39541D21401C01F008FCB171641EAE
:1039D000F4D562B60120F8BD01090A22000751435F
:1039E000000F0818C0B270477047F8B53648374C1A
:1039F0000346C1781A7998790094354D5E79354C33
:103A000019297CD011DC0F46142968D20B007B44A5
:103A10001B79DB189F44E029E0E024E0E0E0E0E0EF
:103A2000E0E0A8A8A8A8B3B3B3B32F2957D00ADC05
:103A300023297DD004DC21297AD022294FD1B7E077
:103A400024294CD1B4E00F203D2580042D043829D1
:103A50004AD05B296DD083297ED084293FD17FE075
:103A60006089042108436081B6E01B480F4F41780C
:103A7000154801700021417081700221C170064615
:103A8000B8797979401A1D301D2101F0B5FB1C2948
:103A900025DA72B6062532780A49B879761C0A54B6
:103AA0001D21401C01F09AFBB97119E0340000108F
:103AB000480000103907001000800150C03F01503D
:103AC0004F0000101C07001056000010830100106A
:103AD0007801001098020010780000100FE07BE0E1
:103AE0006D1ED8D562B677E0FE4E3270FCF70DFD44
:103AF0002846FCF70AFD307800F0FBFA6CE0FA4B40
:103B00000A275D786906490F2D0779432D0F49195A
:103B100021759B789906890F1B0779431B0FC918DC
:103B2000E1749106890F12077943120F891802E098
:103B30003EE04AE010E0F206A174D20E11090A2319
:103B400012075943120F891861740109000759437C
:103B5000000F081820743FE03046FCF72FFC3BE0D4
:103B60003046FCF75DFC37E0B91F6971AA71EE7150
:103B700028720098FCF7A6FF02280BD011E0394606
:103B80000A396971AA71EE7128720098FCF79AFFE0
:103B9000022806D1287920214008400008432871D6
:103BA0001AE028792121084328711F20207213E090
:103BB0001B396971AA71EE712872FC21009801F01D
:103BC00009FB0098FCF703FFEBE7C6494A70FCF7D6
:103BD0009CFC2846FCF799FC60890421084360811D
:103BE000F8BDF0B5C14C83B0208AC10513D5A28AB7
:103BF00069460A80E28A4A80228B8A80628BCA8068
:103C0000FF2101318843208207226946B64801F02E
:103C10007BFAFFF7EAFE208A410503D501218902DC
:103C200088432082277AE6791D21B81B1D3001F0D8
:103C3000E3FA072949DBAE4D6A46A85D10701D21E5
:103C4000701C01F0CBFA0846295C6A4651701D21B0
:103C5000401C01F0C3FA0846295C6A4691701D2198
:103C6000401C01F0BBFA0846295C6A46D1701D2150
:103C7000401C01F0B3FA0846295C6A4611711D2107
:103C8000401C01F0ABFA0846295C6A4651711D21BF
:103C9000401C01F0A3FA0846295C6A4691711D2177
:103CA000401C01F09BFA781AE1711D301D2101F0D2
:103CB000A3FA072902DA00202072E0710722694680
:103CC000894801F021FAFFF790FE03B0F0BD38B546
:103CD00088A28BA18B4801F0BFF8FFF7AEFA8A4C9F
:103CE0002080FFF7A7FA0320FEF7D2FB1020002365
:103CF0000090844A19460820FEF7E1FE2078FFF77D
:103D000096FA38BD38B581A27DA17E4801F0A4F8AD
:103D1000FFF793FA7C4C2080FFF78CFA0320FEF724
:103D2000B7FB102000230090764A19460820FEF7C2
:103D3000C6FE2078FFF77BFA38BDF8B5764EF06BFB
:103D400001056A4802D46421C172F8BDC17A002914
:103D5000FBD0491E65480906090EC172F5D16F48AE
:103D6000406A6E49C008C00048626D4800688F15FF
:103D70006B49384308606B48C16B3943C1636A487B
:103D80004169C908C9004161684C20681025284371
:103D90002060F06BA843F063FF209130FEF7E0FA5B
:103DA000F06B000555D559A255A1564801F054F8BD
:103DB000FFF743FA54490880FFF73CFA0320FEF767
:103DC00067FB1020002300904E4A19460820FEF79A
:103DD00076FE4D480078FFF72AFA534D4F48416A66
:103DE000C908C90041624E480168394301604D4825
:103DF000C16B3943C1636869C008C000686121684C
:103E0000102001432160F16B8143F163C820FEF76C
:103E1000A7FAA869C008C000A86120680121C902EA
:103E200088432060F06B0005D8D43C48416AC9083B
:103E3000C90041623A480168394301603948C16BA1
:103E4000B943C16329496420C8720320FEF720FBEF
:103E5000F8BD28A22AA12B4800F0FEFFFFF7EDF9DC
:103E600029490880FFF7E6F90320FEF711FB10252A
:103E70000023244A194608200095FEF720FE224818
:103E80000078FFF7D4F92548416AC908C9004162A2
:103E900023480168394301602248C16BB943C163BB
:103EA00021494B69DB08DB004B6123682B4323600E
:103EB000F36BAB43F3631A4F0D461848416AC908C8
:103EC000C900416239688015014339601549CA6BE0
:103ED0008243CA636869C008C00068612168102015
:103EE000014325E078000010560000103400001057
:103EF000390700105344D7DCCFDFB9CAD5CF000053
:103F000025730000000300100A000010B1BEC9E8CC
:103F1000B1B8B9CAD5CF0000C03F0150004004403D
:103F200000800250C03F0250804004400080015099
:103F30002160F16B8143F1636420FEF711FAA869F7
:103F4000C008C000A86120680121C9028843206020
:103F5000F06B0005B1D46869C008C00068612168D1
:103F6000102001432160F16B8143F1630948416AEC
:103F7000C908C900416239688015014339600649A2
:103F8000CA6B8243CA6305496420C8720320FEF7E6
:103F90007FFAF8BD00400440C03F025034000010DA
:103FA000FB49086048694006FCD5704770B4451C61
:103FB000417A007A002200020930081884B2641E97
:103FC000601C002818DD0123691EE007DB07C0180C
:103FD00001D0491C0A780020631C5B1008D04E7881
:103FE000891CB2180E78D2B23018C0B25B1EF6D15E
:103FF00010182D19C2B26D1C2878904202D070BCE6
:104000000020704770BC0120704770B5E14A002164
:1040100011705171D1705170DF49CA69D208D20054
:10402000CA61DE4AD46B04239C43D463DC4C25680C
:104030001D432560D46B9C43D463DA4A1368012482
:104040002404234313604C6A01231C434C628C6A92
:104050001C438C6211681C03214311609361CC4A9C
:104060008321D160092821D203007B441B79DB180E
:104070009F441C04070A0D10131619004B24240139
:1040800016E04B24640113E04B24A40110E04B2400
:10409000E4010DE0E124A4010AE04B24240207E03E
:1040A000E124E40104E04B24640201E0E124240261
:1040B000BC488169BC48006801F090F800092146BD
:1040C00001F08CF8B249020A4A60C0B208600320CD
:1040D000C86087208860B54A88011060B44842698A
:1040E000FF231B029A430B14D2184261012048603F
:1040F00070BDA74A002151609101AE4A116084E76A
:10410000F0B5A448AC49807883B04118087A4A7A5F
:104110000002801887B2C87980280DD0A74841785E
:10412000A7480170F0214170002181708121C17088
:10413000FFF733FC03B0F0BD487B0028EED1887B4D
:104140000528EBD1F81FFC28E8D8924B9A489B78B9
:104150000A7C181811309B4D0190002A10D0284677
:104160000079FB2304461C40012A3DD0022AE1D1FC
:10417000FC21954801F02EF8202004432C716EE0BC
:10418000487C20282CD08D4CFC21A01C01F022F86A
:10419000FA1FA01C019900F0B7FF0F208004FCF764
:1041A000B4F93D200004FCF7B0F9A078002812D043
:1041B0008648012101708148417881480170F021D1
:1041C0004170002181700221C17080210171FFF7CF
:1041D000E4FB03B0F0BD2879FB2108402871EAE731
:1041E0007A4900200870E6E74A7C744911230E469C
:1041F0005B01C918E0360091202A23D06F4CFC21C6
:10420000A01C00F0E7FFFA1FA01C019900F07CFF42
:10421000A07800280FD06D480178012910D0022124
:10422000B177002101702879342108432871009961
:104230001F20087213E02879FB21084028710EE046
:104240000321EDE761490A78012A91D1B277002272
:104250000A7034210843287100991F2008720F202A
:104260008004FCF752F93D200004FCF74EF9A2E768
:1042700070B5484C00256078E178884273D00F21F2
:1042800061714D490E5CFF21401C103100F0A6FF0A
:10429000617020780B285CD203007B441B79DB180B
:1042A0009F44051520252C32383F47525B005A2E7B
:1042B0000CD12571012020700320A0716078FF21AE
:1042C000FF300F30103100F089FFA17070BD2079F0
:1042D00080192071A079401E0006000EA071F5D152
:1042E000022015E0207980192071032010E0F02EC3
:1042F0002FD12079F0302071042009E0002E28D140
:1043000020792071052003E0207980192071062092
:10431000207070BD207980192071A671072020704F
:1043200070BD207980192071A671072E11D908203F
:10433000EEE7207980192071A079401E0006000E5A
:10434000A071EDD10920E3E72079B04201D10A2024
:10435000DEE725706570E57070BD162EF9D1FFF7A8
:10436000CFFEF6E7FFE760790128F5D16571F0E748
:10437000F8B5074EB068C0074CD1064C0E4FB06878
:104380000E210840042823D00C2840D12FE0000043
:10439000008000405E00001080400440C03F035099
:1043A00000800350808004400000001000E100E025
:1043B00000E400E080E100E0560700107800001003
:1043C00056000010780100107A0000105D00001007
:1043D00000253168E0783954FF21401C103100F08D
:1043E000FDFE6D1CEDB2E170082DF2D30FE0706997
:1043F000C0070CD0FF2510353168E0783954401CD7
:10440000294600F0EBFEE1707069C007F4D1B06896
:10441000C007B4D0F8BD00007047012800DC0120BF
:104420000122401C012805DD0821491EFDD5521C32
:104430008242F9DB704770B4F94B5868C008C0007D
:104440005860F8480168012211430160F648C16BC9
:104450001143C163F549C86B1043C863F44804684D
:104460000225AC4304608C6B14438C630468944352
:1044700004604C6B14434C63EE4D2E68CC14264301
:104480002E60ED4DEE6B2643EE630D6BED08ED00F7
:104490000D63EA490D6825430D60E949CD6B25435D
:1044A000CD63196811431960026804218A430260D0
:1044B00042688A434260C2688A43C26070BC7047E7
:1044C000F0B4DD490446CA6B00200125ED02AA4381
:1044D000CA63DB4ADB4F03462606D66B01D52E4363
:1044E00000E0AE43D6636406CE6B240E2E43CE634B
:1044F00000BF00BF4006FE6B000EF60701D0401C57
:10450000C0B2CE6BAE43CE6300BF00BF5B1CDBB25C
:10451000082BE1D3F0BC704770B5C34C0346E06B89
:104520000D46002240084000E063C648C16BC90741
:1045300007D0C549521CC66B92B2F60701D08A4219
:10454000F8D91846FFF7BCFF2846FFF7B9FFE06B24
:1045500001210843E06370BD30B5B34C0021E26B2C
:1045600052085200E263B74AD36BDB0707D0B64B61
:10457000491CD56B89B2ED0701D09942F8D9FFF7F4
:104580009FFFE06B01210843E06330BD00B536209A
:10459000FFF7E2FF78212020FFF7BEFF02211E2057
:1045A000FFF7BAFFB5211F20FFF7B6FF1F21162026
:1045B000FFF7B2FF00BD00B53620FFF7CDFF3C206E
:1045C000FFF7CAFF3820FFF7C7FF00BDF0B515465B
:1045D0000E4600214022944F1043FA6B52085200BD
:1045E000FA63984AD36BDB0707D0974B491CD46B0F
:1045F00089B2E40701D09942F8D9FFF761FF00249E
:10460000002D06D9305DFFF75BFF641CE4B2AC42BD
:10461000F8D3F86B01210843F863F0BD00B5002121
:104620000C20FFF779FF08210B20FFF775FF002111
:104630000C20FFF771FF10210D20FFF76DFFA72160
:104640000E20FFF769FF62210F20FFF765FF582159
:104650001020FFF761FF43211120FFF75DFF0321C9
:104660001220FFF759FF22211320FFF755FFF821F1
:104670001420FFF751FF00210A20FFF74DFF4721CB
:104680001520FFF749FF56212120FFF745FF102194
:104690002220FFF741FF18210846FFF73DFF1D21AB
:1046A0001920FFF739FF1C211A20FFF735FF43219E
:1046B0001B20FFF731FF40211C20FFF72DFF912128
:1046C0001D20FFF729FFEA212320FFF725FF2A21DC
:1046D0002420FFF721FF00212520FFF71DFF1121D6
:1046E0002620FFF719FF59212920FFF715FF812107
:1046F0002C20FFF711FF35212D20FFF70DFF092199
:104700002E20FFF709FF0B210020FFF705FF0621F0
:104710000220FFF701FF04210720FFF7FDFE05211E
:104720000820FFF7F9FE00210920FFF7F5FE202100
:104730000620FFF7F1FE00211E20FFF7EDFE00210D
:104740001F20FFF7E9FE00212020FFF7E5FE00BD56
:1047500070B5354D0020E96B49084900E963394CD3
:10476000E16B394EC90702D106E0B04204D8401CC3
:10477000E16B80B2C907F8D13020FFF7A1FEE16BF1
:104780000020C90702D106E0B04204D8401CE16B0A
:1047900080B2C907F8D1E86B01210843E86370BD16
:1047A000F0B5214CE06B01252843E0630820401E52
:1047B000FDD5E06B40084000E0630820401EFDD5B9
:1047C000E06B2843E06301222A210820401EFDD52A
:1047D000521C8A42F9DBE16B002049084900E16381
:1047E000184EF16B184FC90702D106E0B84204D841
:1047F000401CF16B80B2C907F8D13020FFF760FE92
:10480000F16B0020C90702D106E0B84204D8401C71
:10481000F16B80B2C907F8D1E06B2843E063F0BDCB
:104820008040044000800350C03F0350404004409B
:104830000080015000800050C03F005000800250B6
:10484000C03F0250C03F015010270000F0B5FFF7F5
:10485000A7FFFFF7E3FEFA4FF84E08250021FA6B99
:104860007E2052085200FA63F64AD36BDB0707D06A
:10487000F54B491CD46B89B2E40701D09942F8D9B1
:10488000FFF71EFE0024305DFFF71AFE641CE4B241
:10489000AC42F8D3F86B01210843F8633420FFF7EA
:1048A0005BFEF0BD30B500218022E54C1043E26B89
:1048B00052085200E263E34BDA6BD20707D0E24AB8
:1048C000491CDD6B89B2ED0701D09142F8D9FFF7A1
:1048D000F7FD0020FFF7F4FDE16B01221143E163D6
:1048E00030BDF0B515460E460021C022D44F10430E
:1048F000FA6B52085200FA63D24AD36BDB0707D037
:10490000D14B491CD46B89B2E40701D09942F8D944
:10491000FFF7D6FD0024002D07D90020FFF7D0FDBA
:104920003055641CE4B2AC42F7D3F86B0121084364
:10493000F863F0BD30B50021C022C14C1043E26BDA
:1049400052085200E263BF4BDA6BD20707D0BE4A6F
:10495000491CDD6B89B2ED0701D09142F8D9FFF710
:10496000AFFD0020FFF7ACFDE16B01221143E163D5
:1049700030BDF0B507460E4600253F20FFF7CCFDC1
:10498000AF490020CA6B7F2352085200CA63AD4969
:10499000C96BC90708D0AC4AAA49401CCC6B80B28D
:1049A000E40701D09042F8D91846FFF789FD0024AA
:1049B000002E06D9385DFFF783FD641CE4B2B442D3
:1049C000F8D39F49C86B01221043C8633520FFF715
:1049D000C3FD9C48C16B890707D49B496D1CC26B02
:1049E000ADB2920701D48D42F8D9C26B0021920773
:1049F00007D5954A491CC36B89B29B0701D59142E3
:104A0000F8D93B20FFF7A8FDF0BDF8B58C4D0F4657
:104A100084460020E96BFB2349084900E963894C7F
:104A2000E16BC90707D08849401CE26B80B2D2070E
:104A300001D08842F8D91846FFF742FD0020FFF761
:104A40003FFDE96B01263143E963400671D0002048
:104A5000E96BBF23B143E963E16BC90707D07A492A
:104A6000401CE26B80B2D20701D08842F8D91846C8
:104A7000FFF726FD0020FFF723FDEA6B0146012327
:104A80001A43EA633A780D46AA4253D30021664698
:104A9000FF226B489446C26B9A43C2636948C06B5D
:104AA000C00708D06848674A491CD36B89B2DB0746
:104AB00001D08142F8D96046FFF702FD0024002DA5
:104AC00007D90020FFF7FCFC3055641CE4B2AC426F
:104AD000F7D35B4EF06B01210843F0633D70022574
:104AE0000021F26B6F46FF2052085200F263554AD4
:104AF000D36BDB0707D0544B491CD46B89B2E40756
:104B000001D09942F8D9FFF7DBFC00240020FFF721
:104B1000D7FC3855641CE4B2AC42F7D3F06B0121EA
:104B20000843F0633A20FFF717FD68464078C00954
:104B3000C001F8BD39703A20FFF70EFD0020F8BD26
:104B4000F8B5424CA078002877D00020A070202033
:104B5000E0703F493F48FFF758FF80287ED1E0785A
:104B600009287BD33C493B4D4A7829788A4275D144
:104B7000394B1126DC1D7601F9349E19092805D020
:104B80000A28E87837D080280BD04FE1E8788028D1
:104B900064D16878012804D02C490978491C8842DE
:104BA0005CD12C4F78787D1D01286FD027490A7879
:104BB000521C90426BD10B463A790989891A09B285
:104BC000198100297EDB214909795318FC2B79D200
:104BD0001E4B187020484018801C294600F094FA9B
:104BE0001A48397900790818184908710846008967
:104BF000002868D006E1122866D012DC0E287ED08C
:104C000008DC012837D0042830D00C2877D00D28B4
:104C10005ED174E00F2872D0102870D0112857D1BF
:104C20006DE02F2855D01ADC132868D019282FD012
:104C30002C284DD02E284BD173E002E170000010DB
:104C4000C03F0350C03F0150102700006600001015
:104C5000690000106508001078000010E6E049289F
:104C600066D0832843D0842874D144E0708904211D
:104C7000084370816EE02A7000206870A8700220DE
:104C8000E87007212846FFF774FE63E067E0B9E0AB
:104C900068784006400EFEF79FFE3075A8788006C3
:104CA000800EFEF799FEF07428798006800EFEF7DC
:104CB00093FEB0746879C006C00EFEF78DFE707466
:104CC000A87902E0A7E086E019E0FEF785FE3074DF
:104CD00040E02879C006C00E6071A1716878E0716B
:104CE000A8782072207921210843207132E0687968
:104CF000FBF764FB2EE06879FBF792FB2AE028794A
:104D0000FF2802D0A179884224D16879FF2802D0F7
:104D1000E17988421ED1A879FF2802D0217A884201
:104D200018D120792021400840000843207111E06B
:104D3000FC21444800F04EFA0F208004FBF7E5FB0D
:104D40003D200004FBF7E1FB2079FB2108402021F6
:104D500008432071708904210843708166E0297836
:104D60003A793948891A491C018154D469784170CB
:104D70003648A9788177344901200870D21ED0B214
:104D80000871334F0090FC21B81C00F023FAE91C95
:104D9000B81C009A00F0B8F92B480089002831D1DE
:104DA0000F208004FBF7B1FB3D200004FBF7ADFBB7
:104DB000B878002820790AD024210843EF21084040
:104DC00020711E2030722049002008701AE0FB215B
:104DD00008402071F7E70F208004FBF796FB3D2089
:104DE0000004FBF792FB1A488078002820790ED047
:104DF00024210843EF21084020711E203072124800
:104E00000021017010484079012804D00EE0FB21F8
:104E100008402071F3E70C490020487108810871AF
:104E200088710870FC21074800F0D4F93420FFF79E
:104E300093FB0848C26904210A43C26102690A431C
:104E40000261F8BD7A0000106600001058010010E1
:104E500078000010008001500FB41CB5074B06AA63
:104E60007B4469460090059800F00DFB00206946E0
:104E700000F01CFB1CBC08BC04B01847490600002D
:104E800070B5044685690068C10601D5302600E08A
:104E90002026C00707D070BD62683046A1689047E1
:104EA000206A401C20626D1EF6D570BD70B50446A8
:104EB00085690078C00707D170BD6268A1682020AD
:104EC0009047206A401C20626D1EF6D570BD70B5FB
:104ED0000C460546012A05D02878800600D5EA69E7
:104EE000002302E0012305E05B1C934202D2E05C58
:104EF0000028F9D1A869E618C01AA861286AC01864
:104F000028622846FFF7BCFF04E06A682078A96899
:104F1000641C9047B442F8D32846FFF7C7FF70BD22
:104F2000F7B5002575291068009914A611D0C04660
:104F3000C046002802DA404211A608E0009909683C
:104F40008A0701D50FA602E0490704D50EA6012560
:104F500001E0C046C046009F0024243704E000F072
:104F6000C1FA30313955641C0028F8D12B4632463D
:104F70002146009800F029FAFEBD00000000000064
:104F80002D0000002B00000020000000F3B50446B7
:104F9000002081B020622046E168884700287DD04B
:104FA000252802D06268A16883E0454F00257F4430
:104FB0002046E16888472028064608DB312E06D2C5
:104FC000B81920380078002801D00543F0E7A80779
:104FD00001D5042085430020E0610746A0612A2E08
:104FE0000AD0304600F0C3FA002827D0303EB8007F
:104FF00000190090866119E00298BA00121902C8DF
:10500000916102902046E1688847012F064617D13A
:10501000E06900281FDA202085431CE000980A215F
:105020008069484300998019303888612046E168DA
:105030008847064600F09BFA0028EFD1012F0AD0DE
:105040002E2E08D12046E1688847064620200543D9
:105050007F1C022FC3DBA069002803DA4042A06155
:1050600001200543E80701D010208543002E24D0FD
:1050700030464138192803D80120C00205432036A4
:10508000204625603146029A1546FBF757F800285E
:105090000CD0012807D0ED1DE80800E00DE0C000AD
:1050A0000830029077E72D1D029574E7626830465C
:1050B000A1689047206A401C6CE7206AFEBD000092
:1050C0003006000030B5441C03E00178401C002984
:1050D0000DD08107F9D10B4BDD0104C8D11A9143E2
:1050E0002940FAD0001B0A0603D0C01E30BD001BA9
:1050F00030BD0A0401D0801E30BD0902FCD0401E24
:1051000030BD000001010101F8B5042A2CD383074A
:1051100012D00B78491C0370401C521E83070BD021
:105120000B78491C0370401C521E830704D00B7877
:10513000491C0370401C521E8B079B0F05D0C91AD7
:10514000DF002023DE1B08C90AE0FBF71BF8F8BDCF
:105150001D4608C9FD401C46B4402C4310C0121F18
:10516000042AF5D2F308C91A521EF0D40B78491C50
:105170000370401C521EEAD40B78491C0370401C7B
:10518000521EE4D409780170F8BDD2B210B51302F2
:105190009A1813049A1800F00EF810BD01E004C02C
:1051A000091F0429FBD28B0701D50280801CC90787
:1051B00000D00270704700290BD0C30702D00270E4
:1051C000401C491E022904D3830702D50280801C9B
:1051D000891EE3E70022EEE70022DFE70022030951
:1051E0008B4273D3030A8B4258D3030B8B423CD3BD
:1051F000030C8B4221D312E003460B437FD40022E1
:1052000043088B4274D303098B425FD3030A8B425A
:1052100044D3030B8B4228D3030C8B420DD3FF22C4
:10522000090212BA030C8B4202D31212090265D092
:10523000030B8B4219D300E0090AC30B8B4201D345
:10524000CB03C01A5241830B8B4201D38B03C01A8C
:105250005241430B8B4201D34B03C01A5241030B03
:105260008B4201D30B03C01A5241C30A8B4201D3B4
:10527000CB02C01A5241830A8B4201D38B02C01A5F
:105280005241430A8B4201D34B02C01A5241030AD6
:105290008B4201D30B02C01A5241CDD2C3098B42BB
:1052A00001D3CB01C01A524183098B4201D38B0138
:1052B000C01A524143098B4201D34B01C01A5241DB
:1052C00003098B4201D30B01C01A5241C3088B4220
:1052D00001D3CB00C01A524183088B4201D38B000B
:1052E000C01A524143088B4201D34B00C01A5241AD
:1052F000411A00D201465241104670475DE0CA0F84
:1053000000D04942031000D34042534000229C4643
:1053100003098B422DD3030A8B4212D3FC2289014D
:1053200012BA030A8B420CD3890192118B4208D323
:10533000890192118B4204D389013AD0921100E085
:105340008909C3098B4201D3CB01C01A5241830999
:105350008B4201D38B01C01A524143098B4201D3C6
:105360004B01C01A524103098B4201D30B01C01AF1
:105370005241C3088B4201D3CB00C01A524183086B
:105380008B4201D38B00C01A5241D9D243088B42C1
:1053900001D34B00C01A5241411A00D20146634664
:1053A00052415B10104601D34042002B00D54942C8
:1053B000704763465B1000D3404201B50020C046F1
:1053C000C04602BD704770477047FFB504460D46A2
:1053D00081B0243000902168880604D51022E0694D
:1053E0009143216000E00120A84201DD471B00E05D
:1053F00000270498A1697A191018081AA06120786A
:10540000C00602D42046FFF73BFD002608E00398C3
:105410006268A168805D9047206A401C761C20620B
:1054200004988642F3DB2078C0060AD52046FFF7B1
:1054300027FD06E06268A16830209047206A401C82
:10544000206238467F1E0028F4DC07E0009862687E
:10545000A168405D9047206A401C206228466D1E6E
:105460000028F3DC2046FFF721FD2078000602D556
:10547000022005B0F0BD0120FBE7000001694A1CD5
:1054800002610878704700B58FB002910021059144
:105490000549019379440391114604906846FFF74A
:1054A00075FD0FB000BD0000E5FFFFFF0A6810703A
:1054B000521C0A60704710B54369002B02D0C046E9
:1054C000C04601E0FFF703FD012010BD1278014640
:1054D00024310A7000224A700122ECE71168002290
:1054E000D243E8E701468008081A02091018020AA8
:1054F0001018020C1018C008820012185200891AE5
:1055000001E00A39401C0A29FBD27047754600F0B9
:1055100023F8AE46050069465346C008C0008546DC
:1055200018B020B5FAF73AFF60BC00274908B64624
:105530000026C0C5C0C5C0C5C0C5C0C5C0C5C0C5A2
:10554000C0C5403D49008D4670470446C046C04630
:105550002046FAF70FFE0000004870478808001048
:1055600001491820ABBEFEE7260002007047303824
:105570000A2801D20120704700207047CAB10000FC
:10558000000800083C0825FE240824083C8824481C
:10559000244824083C082408000800380000B7D636
:1055A00000000220022004100410080810042FF24A
:1055B00002100210021004100810101020600000E9
:1055C000C3EB000003101C10041004543F5204529B
:1055D0000C900E1415141408240804100420044020
:1055E00000000400000800000000000000020001AC
:1055F00000001000145600000000001078000000A9
:10560000040100008C56000078000010701B0000A0
:1056100020010000006CDC0200000100000000001E
:10562000000000001F1C1F1E1F1E1F1F1E1F1E1F0D
:105630000000000001000000000000000000000069
:10564000000000000000000000000000000000005A
:1056500000000064000000000000000000000000E6
:10566000000000000000000000000000000000003A
:10567000000000000000000000000000000000002A
:0C56800000000000C0C0C0C0C0C0C0C01E
:04000005000000C136
:00000001FF
