:020000040000FA
:10000000A0CC0720E1000000912D0000FD28000099
:100010008D2D0000EB000000ED000000000000004E
:10002000000000000000000000000000EF000000E1
:10003000F100000000000000F3000000F5000000E7
:100040000D5C000059370000D93B0000E54300007B
:10005000F700000009490000614A00006D4B0000F4
:10006000694C0000F7000000F7000000F7000000F6
:10007000F7000000F7000000F7000000F7000000A4
:10008000F7000000F7000000B5250000E52500009E
:1000900015260000C1260000F7000000F700000050
:1000A000F7000000F7000000F7000000F700000074
:1000B000F7000000F7000000F7000000F700000064
:1000C000F7000000F7000000F7000000DFF80CD098
:1000D00000F0C4F8004800475D830000A0CC072072
:1000E00005480047FEE7FEE7FEE7FEE7FEE7FEE71E
:1000F000FEE7FEE7FEE7FEE7CD00000040EA010371
:100100009B0703D009E008C9121F08C0042AFAD2CD
:1001100003E011F8013B00F8013B521EF9D2704791
:10012000421E12F8013F002BFBD111F8013B02F8EF
:10013000013B002BF9D1704730B505462A460B46E6
:1001400012F8010B13F8014B08B1A042F8D01CB112
:10015000002802D06D1CF1E7284630BD034611F897
:10016000012B00F8012B002AF9D11846704770B511
:10017000064605F0F7FD046805460A2200213046D0
:1001800000F033F82C6070BD2DE9F05F05460020CB
:1001900092469B4688460646814640241BE02846F8
:1001A00041464746224600F07AF853465A46C01A5E
:1001B000914110D311461846224600F061F82D1ADD
:1001C00067EB01084F4622460120002100F058F855
:1001D00017EB00094E41201EA4F10104DFDC484664
:1001E00031462A464346BDE8F09F2DE9F047914647
:1001F0000F4680460446002614F8015B2DB100F03E
:100200005FF80068405DC007F6D12B2D02D02D2D80
:1002100018D0641E4A463946204600F071F827B1CE
:100220003968A14201D1C7F8008071054FF002047E
:100230000BD54042002803DD05F094FD0460A007C3
:10024000BDE8F08746F48066E4E70028F8DA05F0B8
:1002500089FD04606FF00040F2E70000064C074D96
:1002600006E0E06840F0010394E807009847103486
:10027000AC42F6D3FFF72EFF44B1000074B100008A
:10028000202A04DB203A00FA02F100207047914056
:10029000C2F1200320FA03F3194390407047202A4B
:1002A00004DB203A21FA02F00021704721FA02F320
:1002B000D040C2F120029140084319467047000027
:1002C0000048704740B100003A2800D2303820F092
:1002D0002002412A01D3A2F13700884201D34FF016
:1002E000FF3070474FF480000349C863C010886333
:1002F0004010C8637047000000C00920FFFFFFFFE7
:100300002DE9F05F82460078002715468B460AF1FA
:100310000104B946302801D09DB113E014F8010B57
:100320000127782803D0582801D045B10AE00DB143
:10033000102D07D10027102514F8010B02E0082525
:1003400000E00A250026B0460EE005FB080005FB8C
:1003500006F1012701EB10461FFA80F8B6F5803F41
:1003600000D3B94614F8010B2946FFF7ADFF00286A
:10037000EBDABBF1000F05D00FB1641E00E054466C
:10038000CBF80040B9F1000F06D005F0EBFC0221DC
:100390000160C81EBDE8F09F48EA0640FAE7000089
:1003A00070B506460C461546284605EBD071491037
:1003B000A5EB4101012903D1FF206055681C85B2DE
:1003C00005F03AFC62782178304600F04DF9A81E1D
:1003D00085B2A41C15E04FF480300D49C861AD20F2
:1003E00009F004F8207809F001F8607808F0FEFFC1
:1003F0004FF480300649886102F070FDA81E85B276
:10040000A41C022DE7DC6178207800F055F970BD5E
:1004100000C0092000B50C48006A40F498000A4961
:1004200008620A48C06C40F030000849C8640846B9
:10043000C06C40F0C000C8640846C06C40F4405036
:10044000C86400F011F800BD00C0092000C00240DF
:100450004FF480000349C863C010C863401088632C
:100460007047000000C009204FF4800003498863F2
:10047000C010C863401088637047000000C00920A6
:1004800070B5054662480068F0B90C2008F0B4FC6D
:1004900004460CB9002070BD287820706878607020
:1004A000A878A070287900F0E000E070E078E978A2
:1004B00001F01F010843E0700020A0606060544814
:1004C000046044600120E6E75148066816E0307891
:1004D0002978884211D17078697888420DD1B07836
:1004E000A978884209D1F07800F01F00E97801F07E
:1004F0001F01884201D10320CDE7B668002EE6D166
:1005000043484668F07800F0E000297901F0E00106
:10051000884223DB0C2008F06FFC04460CB9002055
:10052000B9E72878207068786070A878A07028797A
:1005300000F0E000E070E078E97801F01F01084386
:10054000E070B46066600020A060314844603148CB
:10055000806808B92F48846002209CE776682DE007
:10056000F07800F0E000297901F0E001884201DA3A
:10057000766823E00C2008F03FFC04460CB900200C
:1005800089E72878207068786070A878A07028794A
:1005900000F0E000E070E078E9780843E070B068CF
:1005A00044606660B068A060B4601A49A068896859
:1005B000884201D11748846002206CE7002ECFD119
:1005C0001EBB0C2008F018FC04460CB9002062E7A2
:1005D0002878207068786070A878A070287900F07A
:1005E000E000E070E078E9780843E07008480068CF
:1005F000446007480068A060002060600448046010
:10060000022004490871042045E7002043E7000068
:10061000BCC0072034C8072002461078FF2808D045
:1006200010780B78984204D00878FF2801D0002079
:1006300070475078FF2808D050784B78984204D003
:100640004878FF2801D00020F2E79078FF2808D0F2
:1006500090788B78984204D08878FF2801D00020C9
:10066000E6E70120E4E7000070B504460D461646B3
:1006700001F090FF4FF480300E49C861AD2008F0C2
:10068000B5FEC4F3074008F0B1FEC4F3072008F03C
:10069000ADFEE0B208F0AAFE284608F0A7FE3046FC
:1006A00008F0A4FE4FF480300249886102F016FC85
:1006B00070BD000000C0092070B505460C464FF41F
:1006C00080300B49C861AD2008F090FE284608F044
:1006D0008DFE204608F08AFE4FF480300449886180
:1006E00002F0FCFB05F098FA01F098FE70BD0000E6
:1006F00000C0092010B501460846CB1701EB137363
:100700001B1103EB830301F00F0404EB4303DAB284
:10071000104610BD1CB55E48008810F4807F14D0D0
:100720005C4903C9CDE900015948008820F4807074
:1007300057490880584800990160BDF8041081802D
:100740009DF80610817100F0E1F85148008810F41E
:10075000806F07D04E48008820F480604C490880A4
:1007600001F00AF84D48007847304D490978401AA1
:10077000472190FBF1F201FB120007287EDB49487C
:1007800047490978405C8DF8000045480078401CD6
:10079000472190FBF1F201FB1200414908704148EA
:1007A0000978405C8DF801003D480078401C4721E5
:1007B00090FBF1F201FB12003949087039480978C1
:1007C000405C8DF8020036480078401C472190FBC1
:1007D000F1F201FB12003249087032480978405C9E
:1007E0008DF803002E480078401C472190FBF1F261
:1007F00001FB12002A4908702A480978405C8DF8EC
:10080000040027480078401C472190FBF1F201FBCF
:1008100012002349087023480978405C8DF80500D0
:100820001F480078401C472190FBF1F201FB1200A9
:100830001B4908701B480978405C8DF80600184871
:100840000078401C472190FBF1F201FB1200144993
:1008500008701248007847300978401A472190FB09
:10086000F1F201FB1200072804DA00200B4908709E
:100870000B49087008480099016000E007E0BDF8E6
:10088000041081809DF80610817100F03FF81CBDB6
:1008900078C007209CC00720ACC0072082C007207A
:1008A00081C00720EBC7072010B501460722144876
:1008B00000784730134B1B78C01A472390FBF3F4A2
:1008C00003FB1400462801DB002010BD72B60FE0C8
:1008D00011F8010B0C4B0A4C247818550848007885
:1008E000401C472390FBF3F403FB1400044B1870E7
:1008F0001000A2F10103DAB2EAD162B60120E4E706
:1009000080C007207FC00720A4C707201FB506F0BE
:1009100099FBFE48C07814287ED00EDCA0F10200BE
:1009200012287AD2DFE800F0FC3079FB88898A8BC4
:100930005AFAF9F8F7F6F5F4F3F281286ED012DCE2
:100940001A286CD008DC15286AD0162869D0182817
:1009500068D0192861D1F9E320287BD02B287AD0E0
:100960007428F7D1F3E3862876D006DC832874D088
:10097000842873D08528EDD1EAE389286FD08A28AE
:100980006ED0F528E6D1FDE3E0480078DF49087134
:100990000846407848710846807888710420C870FD
:1009A000DB48007810F0800F02D08020087002E051
:1009B0000020D6490870D748007810F0040F05D001
:1009C000D248007840F04000D04908700020CF495C
:1009D000487088700846FFF767FF49E3CE48B0F8D3
:1009E0000110ADF80C10C0788DF80E00C748807863
:1009F0008DF80000C5488188ADF8011080798DF828
:100A000003006B4604220A21039804F0E5FF6B46BD
:100A100004220A21039806E02BE3FDE3FDE3FDE356
:100A200028E354E25DE309F04DFE2D20B749C8707C
:100A30000846FFF739FFD0E700BF00BF00BFB3484B
:100A40004078FA280DD1B1480078B34949788842F6
:100A500007D01FBD0FE3C2E3FDE3FDE3FDE3FDE3CC
:100A6000FDE3AA48C078AD490870A848007900F0B5
:100A7000E000AB490870A548FFF702FDA9490870DE
:100A80000846007800B9E4E7A04800789F4908715B
:100A90000846407848710846807888719E484078BA
:100AA00008709D48807848709B48C07888709B4843
:100AB00000781B30C8700846FFF7F6FE95480078AE
:100AC00010F0020F1CD09148007990490870084638
:100AD000407948700846807988702720C870FF20C8
:100AE0000871487188710846FFF7DEFE8748007874
:100AF00086490871084640784871084680788871B0
:100B00008348008810F4186F0BD0A2E790E08EE0C5
:100B10008CE08AE057E155E153E151E1A3E180E146
:100B2000EFE37B48007810F0040F18D07D48007880
:100B3000042879D17648008810F4805F00D088E7D7
:100B40002E207249C8700846FFF7AEFE01286BD10F
:100B50006F48008840F480506D49088064E0714817
:100B6000007801282CD16A48008810F4805F00D0FA
:100B70006FE7664800796549087008464079487013
:100B80000846807988702F20C870654800786349CE
:100B9000097808435D4908710846FFF785FE01287A
:100BA0000DD15E4800785949C8700121574802F0BC
:100BB000B1FB5748008840F480705549088048E7E9
:100BC0005348008810F4805F00D042E75648006820
:100BD000C07800F01F005149087053480068007841
:100BE0004A49087050480068407848704E4800688C
:100BF000807888702F20C8704B480068C0780871D2
:100C00000846FFF751FE01280DD1444800783F49BE
:100C1000C87001213D4802F07DFB3D48008840F44A
:100C200080703B49088014E7D7E600BF00BF00BFD3
:100C300036484078FB2806D1344800783649497850
:100C4000884200D005E73148007930490978884268
:100C500030D12E4840792D49497888422AD12B48F5
:100C600080792A498978884224D12B48B0F801102C
:100C7000ADF80C10C0788DF80E0024480188ADF84E
:100C8000001080788DF8020020480188ADF803102C
:100C900080788DF805001D48C1786B4606220398C0
:100CA00004F09AFE1948C1786B460622039809F0B1
:100CB00009FD23E01848B0F80110ADF80C10C07819
:100CC0008DF80E0011480188ADF8001080788DF87D
:100CD00002000E488188ADF8031080798DF8050078
:100CE0000A48C1786B460622039804F075FE07484F
:100CF000C1786B460622039809F0E4FC0348C078EB
:100D00000A380249C870084610E00000ACC007204D
:100D100084C0072092C0072040C8072098C0072041
:100D200099C0072097C00720BCC0072002F074F9C3
:100D3000FE48007810F0040F2FD0FD480079FD49DF
:100D40000978884229D1FA484079FA494978884295
:100D500023D1F7488079F749897888421DD1F44832
:100D6000C07800F01F00F349C97801F01F018842E4
:100D700013D1EE48008810F4805F00D069E62E2081
:100D8000EB49C8700846FFF78FFD012805D1E748F9
:100D9000008840F48050E5490880E748006870B951
:100DA000E648007810F0020F09D02820E049C8700A
:100DB000FF200871487188710846FFF775FD0CE641
:100DC00000BF00BF00BFD948007810F0800F00D0EE
:100DD00003E6D74802F08EFAD548C078D849887122
:100DE000D348C078801FD249C870084602F014F971
:100DF000CE48008840F0C000CC4908800846007802
:100E000010F0040F08D00846008820F00400088085
:100E100002F068FB04F03EFE0021322001F070FD7C
:100E2000DBE5C248007810F0800F00D0D5E5BF4860
:100E3000008840F0C000BD4908800846007810F0E6
:100E4000040F08D00846008820F00400088002F053
:100E500049FB04F01FFEB64802F04CFA052132208F
:100E600001F04EFDB9E5B148007810F0800F13D1C4
:100E7000B4484078AE490870B24880784870B148AC
:100E8000C07888701820C870FF2008714871887178
:100E90000846FFF709FDA0E5A949C91CA448FFF7CA
:100EA000BBFB78B1A148008820F040009F49088032
:100EB0000846008840F0200008800321FA2001F055
:100EC0001FFD03E00021012001F01AFD85E5974890
:100ED000007810F0800F13D19A4840789449087038
:100EE0009848807848709748C07888701820C870F3
:100EF000FF200871487188710846FFF7D5FC6CE542
:100F00008F49C91C8A48FFF787FB00287ED0874895
:100F1000008820F02000854908800846008840F0BD
:100F2000100008808249091D8648401C01F01CFB06
:100F300028B18248008840F040008049088004F0D1
:100F4000A9FD0C21FA2001F0DBFC7848008810F4A0
:100F5000606F0BD12A207649C8700846FFF7A4FCC1
:100F60007248008840F480407049088070480079D9
:100F700074494978884252D16D48407971498978DD
:100F800088424CD16A4880796E49C978884246D1F6
:100F9000FFF7A8F96B48017D002008F083F9694844
:100FA000417D012008F07EF96648B0F80110ADF8E7
:100FB0000C10C0788DF80E00624840788DF8000063
:100FC00000208DF801008DF80200594800788DF856
:100FD0000300574840788DF80400554880788DF814
:100FE00005006B4606220C21039809F06BFB0C20D0
:100FF0008DF8000001208DF801006B460222114699
:10100000039804F0E9FC6B46022200E02CE0114654
:10101000039809F057FB00204B49C87128E0494864
:10102000B0F80110ADF80C10C0788DF80E004048F3
:101030008188ADF8001080798DF802003C48018865
:10104000ADF8031080788DF805003D4881796B4636
:101050000622039804F0C0FC394881796B460622C9
:10106000039809F02FFB03E00021012001F048FC68
:1010700075E300BF00BF2D48007810F0800F13D03B
:10108000304840782A4908702E48807848702D48AA
:10109000C07888701820C870FF2008714871887166
:1010A0000846FFF701FC5AE32048008840F088001A
:1010B0001E4908801E4802F01DF91C48007810F0F7
:1010C000040F07D01948008820F004001749088051
:1010D00002F008FA04F0DEFC2421FA2001F010FCF2
:1010E0003DE31248007810F0040F07D00F48008845
:1010F00020F004000D49088002F0F4F90B48008844
:1011000000F4F850094908800C48007810F0400FAE
:1011100021D00A48008820F04000084908800021BA
:10112000084608F0BFF80021012012E084C0072023
:10113000ACC0072034C80720BCC0072092C00720DD
:10114000C4C0072040C80720C4C60720DAE0EFE18A
:1011500068E208F0A7F804F09DFC0021084601F0C1
:10116000CFFBFE48B0F80110ADF80C10C0788DF838
:101170000E00FB480188ADF8001080788DF8020061
:10118000F74800E09BE18188ADF8031080798DF885
:1011900005006B4606227521039804F01DFC6B4682
:1011A00006227521039809F08DFAEE48008810F4A4
:1011B000885F01D101F0D0FFEB48006870B9EB48BF
:1011C000007810F0020F09D02820E549C870FF20F0
:1011D0000871487188710846FFF766FBBFE2E14875
:1011E000008820F40060DF490880E048007810F0B3
:1011F000800F0DD0DD48008820F08000DB4908809A
:101200000021084608F04EF80021012008F04AF8B5
:10121000D548006830BB02E0A0E22DE17BE2D14876
:10122000008840F61C6108421CD1CC48B0F801107F
:10123000ADF80C10C0788DF80E0000208DF800007D
:101240006B4601229121039804F0C6FB6B460122F4
:101250009121039804E0E6E1C1E1C1E109E233E252
:1012600009F030FA04F016FC0021084601F050FBAA
:10127000BA48B0F80110ADF80C10C0788DF80E0027
:10128000B7480188ADF8001080788DF80200B448A6
:101290008188ADF8031080798DF805006B46062231
:1012A0007521039804F098FB6B460622752103987C
:1012B00009F008FAAB48007810F0100F0BD02A2084
:1012C000A749C870A748008840F48040A549088015
:1012D000A348FFF7E9FAA448006878B9A348007862
:1012E00010F0020F0CD028209D49C870FF20087113
:1012F000487188710846FFF7D7FA01E001F02CFF2A
:101300002DE212E000209A49087095484078487014
:10131000934880788870084691498A88A0F803200D
:101320008979417104F0C4FC19E28D4800791A28CA
:1013300004D0802826D0822848D124E0894800881B
:1013400020F400508749088000208A4908708A48A4
:101350008188ADF80C1080798DF80E0080480079F6
:101360008DF8000001208DF801006B460222114625
:10137000039804F031FB6B4602221146039809F0F2
:10138000A1F91CE400BF764880787C4989788842BE
:101390001BD100207A490870784800680390704893
:1013A00000798DF8000001208DF801006B460222C3
:1013B0001146039804F010FB6B4602221146039875
:1013C00009F080F900206D4988702CE400BF00BF4F
:1013D000634880786B498978884207D06048807874
:1013E000FF2803D067488078FF2841D15D480088F6
:1013F00020F400505B49088000205E49087058487E
:101400000079432816D008DC1B280FD02C280BD0DD
:101410003E280CD03F2829D10AE0492809D0542879
:1014200009D0F32822D100E000BF00BF00BF00BFF9
:1014300000BF00BF00BF50488188ADF80C10807914
:101440008DF80E00464800798DF8000001208DF8D7
:1014500001006B4602221146039804F0BDFA6B4668
:1014600002221146039809F02DF900E000BF02E0C6
:1014700001204049087072E1394880783F498978F5
:1014800088421BD100203E4908703C480068039008
:101490003D48C0798DF8000000208DF801006B46B2
:1014A00002221146039804F097FA6B460222114675
:1014B000039809F007F90020304988704FE1284867
:1014C00000783049097888422ED1254840782D4946
:1014D0004978884228D1224880782A4989788842E8
:1014E00022D12048008820F400501E4908800020A6
:1014F000204908701A4800680390F4208DF8000015
:1015000001208DF80100164800798DF802006B4625
:1015100003220221039804F05FFA6B4603220221A2
:10152000039809F0CFF802E001201249087016E193
:101530000B4800781349097888424CD10848407814
:1015400010494978884246D1054880780D49897804
:10155000884240D10348008818E0000040C80720B6
:10156000ACC0072084C00720BCC0072092C0072061
:10157000D8C0072089C00720C4C60720D2C00720D2
:101580008CC00720D5C0072028C1072020F40050B8
:1015900074490880002074490870744800680390FA
:1015A0007348C0798DF8000001208DF801006F4864
:1015B0008188ADF8021080798DF804006B46052211
:1015C0000221039804F008FA6B46052202210398D1
:1015D00009F078F802E0012063490870BFE000BF1D
:1015E0006448B0F80110ADF80C10C0788DF80E000A
:1015F0005E4880788DF800005C488188ADF8011065
:1016000080798DF803005948C1786B46042203980D
:1016100004F0E2F95548C1786B460422039809F0BA
:1016200051F89CE000BF5348B0F80110ADF80C1021
:10163000C0788DF80E004D480188ADF80010807814
:101640008DF80200494840798DF8030047488079B9
:101650008DF804004548C1786B460522039804F0D4
:10166000BBF94248C1786B460522039809F02AF875
:1016700075E04048B0F80110ADF80C10C0788DF856
:101680000E003A4800788DF80000384840788DF810
:101690000100364800798DF80200344840798DF811
:1016A0000300324880798DF804003048C1786B46D9
:1016B0000522039804F090F92C48C1786B46052266
:1016C000039808F0FFFF4AE02A48B0F80110ADF88F
:1016D0000C10C0788DF80E00244800788DF80000BA
:1016E000224840788DF80100204800798DF80200EA
:1016F0001E4840798DF803001C48C1786B460422CF
:10170000039804F069F91948C1786B4604220398DC
:1017100008F0D8FF23E01748B0F80110ADF80C101E
:10172000C0788DF80E00114800788DF800000F4841
:1017300040788DF801000D4880788DF802000B4844
:10174000C1786B460322039804F046F90748C17834
:101750006B460322039808F0B5FF00E000BF00BF0E
:1017600000BF0EE684C0072089C00720ACC0072058
:10177000C4C6072040C807201FB505F063FC72B639
:10178000FC48FD490A6802608A88828089798171F3
:1017900062B6F848C07826287AD025DCA0F105008A
:1017A000202876D2DFE810F08303750075007500FD
:1017B0007500750075003B033C033D033E030002CA
:1017C0000102030202021E041F04750081052D019F
:1017D000A9059F05A7031405750075007500200471
:1017E00016031703180319033F287BD014DC2E2897
:1017F00079D008DCA0F127000628D2D2DFE800F07B
:10180000FDFC49FBFA252F2844D038286CD0392814
:101810006BD03E283DD183E3732867D00CDC54287D
:101820007DD004DC43287BD04928F3D17AE35A28C1
:1018300077D05B28EED1FDE3892873D08A2872D057
:10184000F32871D0F428E5D154E3CC48008810F493
:10185000004F09D0C948008820F40040C7490880DB
:10186000FA20C749088012E0C448008840F40050BC
:10187000C2490880BF480079C2490870BD48407914
:101880004870BC48807988703220BF49087003E2F4
:10189000D8E0FCE3B948008820F48070B74908809C
:1018A0000846007810F0800F00D0F0E7B7480079C4
:1018B000022802D0B5480079C8B9B048008810F4B1
:1018C000805F00D01FBD2E20AA49C8700846FEF7D1
:1018D000EBFF01287BD1A948008840F48050A7493C
:1018E000088074E01DE373E0FEE3FEE304E3A34835
:1018F000008840F00400A1490880A44801F010F8D5
:10190000D0B305F08FFAA2480078012819D1A14878
:10191000807B401C00EB4000C1B2002005E003E3E7
:1019200001E3EEE3CDE3CDE3E3E207F039FC9948D0
:10193000807B401C00EB4000C1B2012007F030FC6E
:1019400011E09448007C401C00EB4000C1B2002034
:1019500007F026FC8F48407C401C00EB4000C1B2E1
:10196000012007F01DFC00208B4908708B4908708E
:1019700001F06CFD07F002FE04F08CF80321FA2060
:1019800000F0BEFF8348B0F80110ADF80C10C0782D
:101990008DF80E00774800788DF800007548407883
:1019A0008DF80100734880788DF802007148007945
:1019B00000F01F008DF803006E48007940098DF893
:1019C00004006B4605222F21039808F07BFE5EE79A
:1019D0006A48008841F20401884368490880002170
:1019E000084600F08DFF01F07DFD07F011FE04F0C8
:1019F00051F803E0ADE150E14CE079E001F0ACFBDF
:101A000045E75E48007810F0040F07D05B48008877
:101A100020F004005949088001F064FD574800880F
:101A200000F4F8505549088004F034F800210846C5
:101A300000F066FF5148008810F4885F01D101F082
:101A40008BFB24E74D48008820F400604B49088058
:101A50000021084600F05CFF4848008840F48060A0
:101A60004649088004F016F84A4840788DF80C0082
:101A7000FF208DF80D008DF80E0026208DF8000057
:101A800001208DF801006B4602221146039803F0F5
:101A9000A3FFFCE63948008820F40060374908803D
:101AA0000021084600F034FF3448008840F40070FC
:101AB0003249088003F0EEFF364840788DF80C007C
:101AC000FF208DF80D008DF80E0028208DF8000005
:101AD00001208DF801006B4602221146039803F0A5
:101AE0007BFF6B4602221146039808F0EBFDCEE621
:101AF0002248008820F4C0602049088003F0CAFF13
:101B000027488188ADF80C1080798DF80E002720C9
:101B10008DF8000001208DF801006B46022211466D
:101B2000039803F059FF6B4602221146039808F010
:101B3000C9FD1C480068E0B91048008840F61C61E7
:101B4000084216D11348B0F80110ADF80C10C07857
:101B50008DF80E0000208DF800006B4601229121C7
:101B6000039803F039FF6B4601229121039808F096
:101B7000A9FDF2E3ACC00720A3C0072084C0072062
:101B800086C00720D5C0072089C0072034C8072099
:101B90003EC0072040C807206EC007206FC0072046
:101BA000C4C60720BCC0072000BF00BF00BFFD485F
:101BB000C078FD490870FB48C0780A38F949C870F8
:101BC000084601F029FAF74840680390F648007883
:101BD0008DF8000001208DF801006B4602221146AD
:101BE000039803F0F9FE6B4602221146039808F0B1
:101BF00069FDEE48B0F80110ADF80C10C0788DF812
:101C00000E00EA4840788DF8000000208DF80100B1
:101C10008DF80200E3488188ADF8031080798DF8D3
:101C200005006B460622E0480178039808F04AFD5B
:101C3000DF48007810F0040F2ED0DA480079DD4933
:101C40000978884228D1D7484079DA4949788842CA
:101C500022D1D4488079D749897888421CD1D1488B
:101C6000C078D449C97801F01F01884214D1D04806
:101C7000008820F00400CE49088001F033FC03F016
:101C800009FF0021084600F03BFEC948008810F417
:101C9000805F01D101F060FA5FE3C548007810F081
:101CA000100F3DD0C248008820F09000C049088045
:101CB000C148C2490A6802608A8882808979817134
:101CC0000020BE49087048708870C870087148715B
:101CD000B748008820F48040B549088000210846B4
:101CE00000F00EFEB248008840F40060B049088061
:101CF000B149AE48401C00F037FC50B1B0480088F4
:101D000020F04000AE4908800846008840F080007E
:101D1000088003F0BFFE0C21FA2000F0F9FD17E067
:101D2000A64800789F490870A44840784870A348A6
:101D3000807888702B20C870A048C07808719F48B0
:101D4000007948719D48407988710846FEF7ACFDDE
:101D500003E39748008820F400609549088099487B
:101D60000068E0B90846008840F61C61084216D1B8
:101D70008E48B0F80110ADF80C10C0788DF80E0048
:101D800000208DF800006B4601229121039803F09A
:101D900023FE6B4601229121039808F093FC03F087
:101DA00079FE0021084600F0B3FD8148007810F06C
:101DB000100F0CD02A207B49C8707D48008840F461
:101DC00080407B4908807748FEF76EFD01E001F016
:101DD000C3F9C2E200BF00BF00BF7448B0F80110F1
:101DE000ADF80C10C0788DF80E006E488188ADF803
:101DF000001080798DF802006A48C0781B38C1B2A3
:101E00006B460322039803F0E7FD6648C0781B3851
:101E1000C1B26B460322039808F054FC9DE200BF58
:101E200000BF00BF6248007810F0800F1BD05F48F1
:101E3000B0F80110ADF80C10C0788DF80E005948BC
:101E4000C0788DF8000000208DF801006B4602225A
:101E50001146039803F0C0FD6B4602221146039819
:101E600008F030FC79E24F48C078801F4D49C870B7
:101E7000084601F0D1F84E48008840F0C0004C49B7
:101E800008800846007810F0040F08D00846008843
:101E900020F00400088001F025FB03F0FBFD414821
:101EA00001F028FA0021322000F02AFD55E24048D6
:101EB000007810F0800F00D04FE23D48008840F0DD
:101EC000C0003B4908800846007810F0040F08D095
:101ED0000846008820F00400088001F003FB03F0AE
:101EE000D9FD304801F006FA0021322000F008FD4B
:101EF00033E200BF00BF00BF2D48008840F400500F
:101F00002B490880274800792F49087025484079D7
:101F1000487024488079887032202C4908701CE26F
:101F200000BF00BF00BF00BF1E480079FF2807D0D8
:101F30001C484079FF2803D01A488079FF2816D121
:101F40001848406803901748C0788DF800000120B9
:101F50008DF801006B4602221146039803F03CFD08
:101F60006B4602221146039808F0ACFB12E01048C1
:101F7000008840F400500E4908800A480079124950
:101F80000870084840794870064880798870322087
:101F90000E4908700348C0783F281BD101200C4926
:101FA00008701EE0ACC00720ABC0072040C8072067
:101FB00084C0072034C80720CBC00720C4C0072036
:101FC00092C00720BCC00720D5C0072089C00720C9
:101FD0003FC00720E348C0783E2802D10020E249F4
:101FE0000870BAE100BF00BFE048007810F0800F31
:101FF0002BD0DF484078DB490870DD488078487096
:10200000DB48C07888701820C870FF2008714871BC
:1020100088710846FEF748FCD24840680390D148D2
:10202000C0788DF8000000208DF801006B46022278
:10203000114600E0FDE0039803F0CEFC6B4602225F
:102040001146039808F03EFB87E1C848008840F03D
:102050008800C6490880C34801F04CF9C34800789D
:1020600010F0040F07D0C148008820F00400BF49D9
:10207000088001F037FAFEF735F9BD48417D0120AF
:1020800007F010F903F006FD2421FA2000E063E1D7
:1020900000F036FCB34840680390B248C0788DF831
:1020A000000001208DF801006B46022211460398C2
:1020B00003F092FC6B4602221146039808F002FBE3
:1020C0004BE100BFAA48B0F80110ADF80C10C07881
:1020D0008DF80E00A348C0788DF8000001208DF81F
:1020E00001006B46022201E00CE03EE0114603983D
:1020F00003F072FC6B4602221146039808F0E2FAE4
:102100002BE1B5E09B480078401E9A4908700846CC
:10211000007848B34FF47A7007F054F99548007886
:1021200002281ED1924840788DF80C0090488078A3
:102130008DF80D008E48C0788DF80E008948C07863
:102140008DF8000001208DF801006B460222114637
:10215000039803F041FC6B4602221146039808F0F5
:10216000B1FA8048FEF7A0FBF7E083480078401EF4
:10217000814908700846007848B34FF47A7007F038
:1021800021F97D48007802281ED1794840788DF8E1
:102190000C00774880788DF80D007548C0788DF870
:1021A0000E007048C0788DF8000001208DF8010005
:1021B0006B4602221146039803F00EFC6B46022286
:1021C0001146039808F07EFA6648FEF76DFBC4E0FE
:1021D0006A480078401E694908700846007838B39C
:1021E0004FF47A7007F0EEF86448007802281CD1AA
:1021F0005F4840788DF80C00FE208DF80D0000201F
:102200008DF80E005748C0788DF8000001208DF839
:1022100001006B4602221146039803F0DDFB6B467A
:1022200002221146039808F04DFA4E48FEF73CFB97
:1022300093E04F4840788DF80C00FE208DF80D009B
:1022400000208DF80E005A208DF8000001208DF836
:1022500001006B4602221146039803F0BDFB6B465A
:1022600002221146039808F02DFA04F0EBFE74E008
:102270003F4840788DF80C00FE208DF80D000020BE
:102280008DF80E005B208DF8000001208DF8010014
:102290006B4602221146039803F09EFB6B46022216
:1022A0001146039808F00EFA57E0314840788DF84F
:1022B0000C00FE208DF80D0000208DF80E0029483E
:1022C000C0788DF8000001208DF801006B460222D5
:1022D0001146039803F080FB6B46022211460398D7
:1022E00008F0F0F939E02148008840F400501F4917
:1022F00008803220224908702FE01D48007E10F02F
:10230000010F28D01A4840788DF80C00FE208DF877
:102310000D0000208DF80E00124880798DF8000025
:10232000104840798DF801000E4800798DF80200C0
:102330000C4880788DF803000A4840788DF8040036
:10234000084800788DF805000648C1786B460622DB
:10235000039803F041FB00E000BF00BF00BFFFF7A0
:10236000B1BA0000ACC007203FC0072084C00720DE
:1023700040C807208DC007208EC007208FC00720CF
:1023800089C0072010B503460C464FF480300C4935
:10239000C861022007F02AF8C3F3074007F026F8C7
:1023A000C3F3072007F022F8D8B207F01FF8204641
:1023B00007F01CF84FF480300149886110BD00001F
:1023C00000C0092070B501460023487A0E7A00EB60
:1023D000062084B24A1C04F1090085B203E012F819
:1023E000016BF018C3B22800A5F10106B5B2F6D111
:1023F0001078984201D0002070BD0120FCE7000059
:102400000146054A126802F48030C1F3090240EA2D
:102410008210014A1060704700C0084000B54FF4B8
:1024200080300549C861802006F0E0FF4FF480301D
:102430000149886100BD000000C0092000BF1548A7
:10244000006C40F0040013490864042088650820EB
:1024500088650846006C20F0040008640846406D5A
:1024600010F0040F07D00846006C40F00400086428
:102470000420C865886508200649C8650846006CC0
:1024800020F0040008640846406D10F0040FD6D018
:102490007047000000C0092000B500F055F8FFF7B4
:1024A000CDFF00F03BFD00F04FFD07F04BF8D020D2
:1024B00004F0AEFE0F2004F0ABFE002004F0A8FEF6
:1024C00007F088F81D484079992819DC1B480079E5
:1024D000122815DC1948007990B11848C0783128C5
:1024E0000EDC1648C07858B114488078232807DCE1
:1024F00012484078592803DC10480078592811DD2B
:1025000020200F49087018200C49487101200871DB
:102510002920C8701520887008204870582008703D
:1025200003F0C6FB05490878FEF7E4F8C0F13C006B
:102530004FF4FA6148430349086000BDD8C0072042
:1025400096C00720F8C007200648006C40F01C0029
:10255000044908640820886504208865102088657F
:102560007047000000C00920024610780B7898429E
:1025700001D00020704750784B78984201D000205D
:10258000F8E790788B78984201D00020F2E701209C
:10259000F0E7000000B54FF480300549C8617020B5
:1025A00006F024FF4FF480300149886100BD00002F
:1025B00000C0092010B5122000F0F8FB07480068A1
:1025C00040F001000649C1F840014FF0120000F050
:1025D00011FC0821122000F045FC10BD40C10F4045
:1025E00000C00F4010B5132000F0E0FB0748006862
:1025F00040F002000649C1F840014FF0130000F01E
:10260000F9FB0121132000F02DFC10BD40C10F404B
:1026100000C00F4010B5142000F0C8FB244800682B
:1026200040F004002349C1F840014FF00000224966
:1026300008702248406910F4800F03D008460078E3
:10264000401C08701C4800784006000E1A490870AB
:102650001A48406910F4001F03D008460078401C57
:102660000870154800784006000E1349087013489A
:10267000406910F4801F03D008460078401C0870A1
:102680000D4800784006000E0B4908700B48406961
:1026900010F4002F03D008460078401C0870142066
:1026A00000F0A8FB0921142000F0DCFB10BD0000A5
:1026B00040C10F4000C00F4040C0072000C00920AB
:1026C00010B504F04BFC10BD00B54FF48030054947
:1026D000C861502006F08AFE4FF4803001498861BD
:1026E00000BD000000C009202DE9F05F07460E463E
:1026F00014464FF00008C146C2460025AB4606F01E
:10270000FF0ACAF10000C5B22046E11704EB1161CF
:10271000C1F30728E11704EB11610912A4EB0121B1
:1027200001F0FF09BAF1000F22D1B8F1000F05D175
:1027300022463146384600F06DF868E009E04FF473
:1027400080723146384600F065F806F5807607F568
:1027500080775FEA0800A8F1010101F0FF08EED1DF
:1027600004F070FC4A463146384600F053F84EE01B
:10277000B8F1000F18D1A94510DDA9EB050000F054
:10278000FF0B2A463146384600F044F82E442F44C9
:102790005A463146384600F03DF838E02246314688
:1027A000384600F037F832E0601B84B22046E1176B
:1027B00004EB1161C1F30728E11704EB1161091261
:1027C000A4EB012101F0FF092A463146384600F00A
:1027D00021F82E442F4409E04FF4807231463846E8
:1027E00000F018F806F5807607F580775FEA0800B4
:1027F000A8F1010101F0FF08EED104F023FCB9F1CA
:10280000000F04D04A463146384600F003F8BDE8D0
:10281000F09F000070B505460C46164603F00CFA12
:102820004FF480301349C861022006F0DFFDC4F385
:10283000074006F0DBFDC4F3072006F0D7FDE0B249
:1028400006F0D4FDB6F5807F01DD4FF4807603E01D
:10285000287806F0CBFD6D1C3000A6F101018EB288
:10286000F6D14FF480300349886104F0EBFB03F0AC
:1028700009FA70BD00C0092010B507480078EF289C
:1028800002D103F095F905E003480078BF2801D193
:1028900000F01AFD10BD0000FCC0072010B507486D
:1028A0000078EF2802D103F08EF905E003480078A4
:1028B000BF2801D100F013FD10BD0000FCC00720AF
:1028C00070B5014600204D7A0E7A05EB0625ABB2B5
:1028D0004A1C03F10905ACB203E012F8016B35188C
:1028E000E8B22500A4F10106B4B2F6D170BD00B57E
:1028F000FF2006F07BFD0346184600BD00BFFEE743
:10290000024A10705070917070470000B3C00720E9
:10291000024A10705070917070470000B6C00720D6
:102920002DE9F043804600260027B14698F8016063
:1029300098F8027098F8030000F01F0905F0B0FC49
:102940001EB917B90020BDE8F083FA2E7ED11822F7
:10295000FA490878411CDFF8E4C38CF80010F84904
:102960000A54642097FBF0F0C5B2642097FBF0F1A5
:1029700000FB11700A2190FBF1F0C4B20A2097FB12
:10298000F0F100FB1170C3B265B361460878411CD9
:1029900062461170EA490D54222261460878411CB2
:1029A0008CF80010E6490A540CB9002B3FD0E349DB
:1029B0000878411CE14A1170E1490C544CB11922CC
:1029C000DE490878411CDFF874C38CF80010DC493C
:1029D0000A541BB3D9490878411CD84A1170D84908
:1029E0000B5424E0DCB1012C06D0D4490878411CFA
:1029F000D24A1170D2490C541922D0490878411C8E
:102A0000DFF838C38CF80010CD490A5433B1614661
:102A10000878411C62461170C9490B5407E033B174
:102A2000C6490878411CC54A1170C5490B541E227D
:102A3000C2490878411CDFF804C38CF80010C04973
:102A40000A541C21BE486246127800E002E081541C
:102A5000012078E7B9F1060F06D0B9F1070F04D0CD
:102A6000B9F1080F7ED106E100BFB648C07B00284F
:102A700074D0642096FBF0F0C5B2642096FBF0F1B0
:102A800000FB11600A2190FBF1F0C4B20A2096FB12
:102A9000F0F100FB1160C3B215B90CB9002B5DD089
:102AA0006DB3A6490878411CA44A1170A4490D547D
:102AB0002222A2490878411CDFF880C28CF800105D
:102AC0009F490A5404B9B3B39C490878411C9B4AF6
:102AD00011709B490C544CB1192298490878411C3B
:102AE000DFF858C28CF8001095490A541BB393497B
:102AF0000878411C914A117091490B5424E0DCB1D3
:102B0000012C06D08D490878411C8C4A11708C49E3
:102B10000C54192289490878411CDFF820C28CF82E
:102B2000001087490A5433B161460878411C624657
:102B3000117083490B5407E033B180490878411C78
:102B40007E4A11707E490B5421227C490878411C31
:102B5000DFF8E8C18CF8001079490A54642097FB2B
:102B6000F0F000E008E1C5B2642097FBF0F100FB53
:102B700011700A2190FBF1F0C4B20A2097FBF0F12A
:102B800000FB1170C3B215B90CB9002B5DD06DB349
:102B90006A490878411C694A117069490D5422221A
:102BA00066490878411CDFF894C18CF8001064492C
:102BB0000A5404B9B3B361490878411C5F4A1170E3
:102BC0005F490C544CB119225C490878411CDFF86C
:102BD0006CC18CF800105A490A541BB35749087845
:102BE000411C564A117056490B5424E0DCB1012CAB
:102BF00006D052490878411C504A117050490C5473
:102C000019224E490878411CDFF830C18CF80010B9
:102C10004B490A5433B161460878411C6246117031
:102C200047490B5407E033B144490878411C434AF3
:102C3000117043490B541E2240490878411CDFF8AB
:102C4000FCC08CF800103E490A54B9F1060F05D1BA
:102C50001C203B49394A127888540BE0B9F1070F20
:102C600008D123203649354A127888541D20334A2A
:102C70001278885482E0642096FBF0F0C5B264209C
:102C800096FBF0F100FB11600A2190FBF1F0C4B259
:102C90000A2096FBF0F100FB1160C3B215B90CB924
:102CA000002B63D06DB325490878411C234A11706D
:102CB00023490D54222221490878411CDFF87CC0A9
:102CC0008CF800101E490A5404B9B3B31B490878A4
:102CD000411C1A4A11701A490C544CB11922174957
:102CE0000878411CDFF854C08CF8001014490A54CD
:102CF0001BB312490878411C104A117010490B543B
:102D00002AE00CB3012C06D00C490878411C0B4A70
:102D100011700B490C54192208490878411CDFF83E
:102D20001CC08CF8001006490A5433B1614608787B
:102D3000411C6246117002490B540DE06CC0072023
:102D40000034001040C8072033B10E490878411CF8
:102D50000C4A11700C490B5421220A490878411C75
:102D6000DFF820C08CF8001007490A541C200649DF
:102D7000044A1278885401E00020E4E500BF0120F5
:102D8000E1E500006CC007200034001000BFFEE742
:102D900000BFFEE700F01F0201219140024A4309F3
:102DA00042F823107047000080E100E000F01F02AD
:102DB00001219140024A430942F823107047000064
:102DC00080E100E000F01F020121914042094FF034
:102DD000E02303EB8202C2F80011704700F01F02EB
:102DE0000121914042094FF0E02303EB8202C2F837
:102DF0000011704700F01F020121914042094FF07D
:102E0000E02303EB8202C2F80011704700F01F02BA
:102E10000121914042094FF0E02303EB8202C2F806
:102E20000011704700F01F020121914042094FF04C
:102E3000E02303EB8202C2F80011704710B50028AE
:102E400007DACA06140E054A00F00F031B1FD454FC
:102E500003E0CA06130E024A135410BD18ED00E039
:102E600000E400E010B5002807DACA06140E054A8F
:102E700000F00F031B1FD45403E0CA06130E024ACE
:102E8000135410BD18ED00E000E400E010B5002878
:102E900007DACA06140E054A00F00F031B1FD454AC
:102EA00003E0CA06130E024A135410BD18ED00E0E9
:102EB00000E400E010B5002807DACA06140E054A3F
:102EC00000F00F031B1FD45403E0CA06130E024A7E
:102ED000135410BD18ED00E000E400E070B54FF6AB
:102EE000FF750024681C0C49C8610AE00A48406963
:102EF0000024132006F05EFA681E80B2050000D19F
:102F000001E0002CF2D000BF4FF48030024988610C
:102F100004F098F870BD000000C0092010B506F05C
:102F200011FBD02004F074F90F2004F071F906F0C1
:102F300009FBD12004F06CF9012004F023F90446C8
:102F400006F048FB204610BD10B506F0FBFAD02075
:102F500004F05EF9002004F05BF906F0F3FAD120EA
:102F600004F056F9002004F00DF900F07F001E492E
:102F70000870002004F006F900F07F001A4948703C
:102F8000002004F0FFF800F03F001749887000208F
:102F900004F0F8F800F00704002004F0F3F800F063
:102FA0003F001149C870002004F0ECF800F09F00C9
:102FB0000D490871012004F0E5F80B49487106F04D
:102FC00009FB0948007910F0800F03D02020074941
:102FD000087002E01920054908700348007900F0E4
:102FE0007F000149087110BDD8C0072096C0072096
:102FF00010B500244FF480300649C861052006F062
:10300000F5F9FFF774FC04464FF4803001498861FC
:10301000204610BD00C0092070B505464C48046824
:1030200004B970BD4B4800782979884216D14948C7
:1030300040786979884211D146488078A9798842D8
:103040000CD14448C07800F01F00E97801F01F015E
:10305000884203D100203F49087123E03D48806841
:1030600000B33C4880680078297988421AD13948F1
:10307000806840786979884214D1364880688078C1
:10308000A97988420ED133488068C07800F01F00CB
:10309000E97801F01F01884204D12E4880688068D9
:1030A0002C49886020782979884223D16078697911
:1030B00088421FD1A078A97988421BD1E07800F01E
:1030C0001F00E97801F01F01884213D1A06838B9C8
:1030D00000201F4948600860204603F0D1FFA0E7A8
:1030E0001B49A06808600020A1684860204603F0E2
:1030F000C7FF96E7A46827E020782979884222D183
:103100006078697988421ED1A078A97988421AD15D
:10311000E07800F01F00E97801F01F01884212D129
:10312000A06830B90020616888600949606848601B
:1031300005E0D4E901108860D4E901014860204627
:1031400003F09EFF6DE7A468002CD5D100BF68E7AF
:10315000BCC0072034C807201CB55648008810F4AE
:10316000C07F00D01CBD54480079022846D100BF62
:1031700052480468FCB94F48008840F61C61084278
:1031800018D14F48B0F80110ADF80410C0788DF890
:10319000060000208DF800006B4601229121019865
:1031A00002F01AFC6B4601229121019807F08AFA7D
:1031B000FDF75AF9D6E720784249087060784870E0
:1031C000A07888702F20C870E078087100204871BE
:1031D00088710846FDF768FB01280ED1E07800F001
:1031E0001F003849C8700121364800F093F8314873
:1031F000008840F480702F490880B3E72F480468A6
:103200003CBB2C48008840F61C61084220D12C4869
:10321000B0F80110ADF80410C0788DF80600002059
:103220008DF800006B4601229121019802F0D4FB39
:103230006B4601229121019807F044FA00210846CB
:1032400005F0AEFF0021012005F0AAFFFDF70CF903
:1032500088E71948846804B98AE71748C07800F0FD
:10326000E000E17801F0E001884222D120781549A0
:10327000087060784870A07888702F20C870E07857
:1032800008710020487188710846FDF70DFB012880
:103290000ED1E07800F01F000A49C87000210948EB
:1032A00000F038F80348008840F480700149088035
:1032B00058E75DE784C0072034C80720BCC007205A
:1032C00040C80720ACC0072010B5FFF7FDF902F099
:1032D000D9FC1C2002F0C2FC02F0D4FC10BD10B5D9
:1032E000FFF7F2F902F0CEFC002002F0B7FC02F08A
:1032F000C9FC10BD0178064A11704178517081787F
:1033000091700179D1704179117181795171704752
:10331000C4C0072002780B4B1A7042785A7082782A
:103320009A700279DA7001221A7121B1064A126884
:1033300092689A6004E0034A92689268014B9A602E
:103340007047000034C80720BCC0072000B5034602
:103350004FF480300A49C861202006F047F8C3F3D3
:10336000074006F043F8C3F3072006F03FF8D8B251
:1033700006F03CF84FF480300149886100BD000040
:1033800000C0092010B52848006920F04060264997
:1033900008612648006C40F40050244908644FF44A
:1033A000005088652048006820F00C001E49086025
:1033B0001E48006C20F002001C49086404F0C0FDA7
:1033C000F0201B4908701948406910F0020F0AD01C
:1033D0000220184908601848D0F8940040F0020014
:1033E0001649086005E01648008840F0800014493E
:1033F000088015200121814042094FF0E02303EBB2
:103400008202C2F8001100BF0121002806DACA00BA
:103410000C4B00F00F04241F1A5502E0CA000A4B9F
:103420001A5400BF10BD000000C0024000C00920B7
:10343000AAC007208C800240008002409480024095
:1034400078C0072018ED00E000E400E010B503208C
:10345000FFF7A0FC1A481B490978405C1A4951F84B
:1034600030001A490860164816490978405C164928
:1034700001EBC0004068164908600846008882B227
:1034800012480168134805F0C5FF12481249086048
:103490000F48006840080E4908601048008840F056
:1034A00001000E49088000200D4908600B48008883
:1034B00020F08000094908800320FFF78FFC10BD31
:1034C0000034001050C0072090A8000060C0072002
:1034D00064C007200000001058C0072056C0072015
:1034E00068C007200D48008820F001000B490880C3
:1034F0000846008820F01C00088000200849087059
:1035000008490870084908600849087008490870A7
:1035100008490880084908807047000056C0072005
:1035200050C007206CC0072064C007206EC0072071
:103530006FC0072070C0072072C007202020774985
:10354000086000BF7548006810F0400FFAD00320F3
:10355000734908604FF000007249C1F8A801724930
:1035600008604FF00100714908604FF00F0070498A
:1035700008604FF00100A1F1040108604FF0AA00BB
:103580006C4908604FF055006649C1F88C0000BFD7
:103590006948006810F0806FFAD00320674908601E
:1035A0004FF0AA005F49C1F88C004FF05500614907
:1035B00008604FF000006249086062486249086094
:1035C0004FF030005749C1F8C8015B480068C0F3AC
:1035D0000160032868D15548006810F0030006D048
:1035E000012823D002283FD003285CD100E000BF8F
:1035F00051480068C0F30E0000F101004FEA40009E
:10360000524900FB01F04749D1F88810C1F3074146
:1036100001F10101B0FBF1F141480068C0B200F1D5
:103620000100B1FBF0F04A4908603CE04248006804
:10363000C0F30E0000F101004FEA4000454900FBD5
:1036400001F03849D1F88810C1F3074101F10101B7
:10365000B0FBF1F132480068C0B200F10100B1FBEB
:10366000F0F03B4908601EE033480068C0F30E00EC
:1036700000F101004FEA40004FF4FA4100FB01F075
:103680002849D1F88810C1F3074101F10101B0FBCD
:10369000F1F123480068C0B200F10100B1FBF0F085
:1036A0002B49086000BF2FE02048006810F003009D
:1036B00006D0012810D0022819D0032823D100E019
:1036C00000BF17480068C0B200F101001F49B1FBFC
:1036D000F0F01F49086016E011480068C0B200F120
:1036E00001001C49B1FBF0F0194908600BE00C48DF
:1036F0000068C0B200F101004FF4FA41B1FBF0F0F4
:103700001349086000BF00BF0648006820F47040FD
:1037100040F480400349086070470000A0C10F409A
:1037200004C10F4000C00F40ACC10F400CC10F409E
:1037300084C00F408CC00F4088C00F4080C00F4035
:1037400008C10F40DE872804C4C00F4000093D00B7
:1037500000C00720001BB70010B501204FF040212A
:103760000860F048006868B1EE480068401EED4906
:1037700008600846006828B9EB48008840F480706B
:10378000E9490880E948008850B1E8480088401EAF
:10379000E64908800846008810B91020E44988618D
:1037A000E448008850B3E3480088401EE14908809F
:1037B0000846008810BBE048008820F48060DE499D
:1037C00008800846008840F400600880DB484078A4
:1037D000C01CDB4988810021D948C1818289D74931
:1037E000D848FCF78BFCD648C089D649085CD64936
:1037F00008700846406840F002004860CE480078F3
:1038000010F0020F77D0CC48007810F0040F50D0A1
:10381000CE480088401CCD49088008460088B0F595
:10382000FA6F22DA08460088322190FBF1F201FBA0
:10383000120000285AD1C048008810F4805F09D0D7
:103840008807BB49C863BC48008820F48050BA4947
:1038500008804BE04FF00040B5498863B6480088C7
:1038600040F48050B449088040E00020B749088007
:10387000B148008820F00400AF4908802020AC49FE
:10388000C8618006C863AC48008820F48050AA490B
:1038900008800846007810F0800F27D0084600887E
:1038A00020F0800008800846008840F4807008807E
:1038B0001CE0A6480088401CA449088008460088EF
:1038C000B0F5FA5F12DB002008809B48008840F0CA
:1038D0000400994908802020954988618006886302
:1038E0009548008840F480509349088098480068C3
:1038F00008B905F08DFE9748008868B395480088A0
:10390000401E0004000C9349088025D18848406976
:1039100010F4000F10D18848007810F0400F1BD031
:103920008548008840F020008349088008460088C8
:1039300020F0400008800FE07F48007810F0400F32
:103940000AD17D48008840F010007B490880084675
:10395000008840F0400008807F48008868B17E48B9
:103960000088401E0004000C7B49088005D17B487C
:10397000008840F00800794908807948008868B1DB
:1039800077480088401E0004000C7549088005D166
:103990007248008840F01000704908807148008823
:1039A00088B170480088401E0004000C6D490880F2
:1039B00009D16D48008840F020006B4908804EF620
:1039C00060206849088069480078B8B16748007885
:1039D000401E664908700846007878B96448008837
:1039E00064490880002061490870634863490860A1
:1039F00000205F490880FF20614908706148007815
:103A000028B360480078401E5E4908700846007878
:103A1000E8B95D4800885D49088000205949087070
:103A20005B485C490860002057490880FF205A49DC
:103A300008704D48007810F0080F08D040203C492D
:103A4000C8614948008840F40070474908805348DD
:103A50000078B8B151480078401E504908700846B7
:103A6000007878B94E4800884E49088000204B49BC
:103A700008704D484D490860002049490880FF20E2
:103A80004B4908704B480078A0B14A480078401E66
:103A9000484908700846007860B947480088474997
:103AA00008800020434908704548464908600020C6
:103AB000414908804448007810F0020F0DD11C489D
:103AC000406B10F0806F08D13F48007840F0020052
:103AD0003D49087000203D4908803B48007810F0BF
:103AE000010F0DD11248406910F4807F08D136488B
:103AF000007840F001003449087000203449087013
:103B00003448008868B133480088401E0004000C27
:103B10003049088005D11148008840F400700F49F1
:103B2000088010BDF8C0072092C00720E8C0072019
:103B300000C00920E6C00720DEC007205AC80720C1
:103B400018C1072066C2072000C00940E0C0072056
:103B5000BCC00720E4C0072070C0072056C0072063
:103B600072C0072002C1072000C1072004C007203F
:103B700008C0072006C0072084C2072020C00720F5
:103B80000AC007200BC007200EC007200CC007206A
:103B9000C4C2072028C0072010C0072011C007207A
:103BA00014C0072012C00720C4C6072030C0072059
:103BB00016C0072017C007201AC0072018C007200A
:103BC00098C7072038C0072045C0072042C00720FB
:103BD00044C00720EAC007200121F94A1160F949D1
:103BE0000978491CF74A117011460978C82907DB82
:103BF00000211170F449098841F00801F24A11804E
:103C0000F249496911F0020F06D0F149098841F4DF
:103C10000051EF4A118005E0ED49098821F4005177
:103C2000EB4A1180EA49097811F0010F50D0E949B7
:103C300009781031E74A11701146097801F0F00156
:103C400050293DD1E249098821F00101E04A118063
:103C50000021E04A1170DE49098811F4005F30D07C
:103C6000DB49097811F0400F13D1D949097811F0D7
:103C7000200F0ED0D649098821F03C01D44A11808A
:103C80001146098841F0400111804FF40051CF4A9C
:103C90009165F021D04A11700021D04A11700221A3
:103CA000CF4A1160CF49D1F8941041F00201CD4ABA
:103CB000C2F89410CC49098841F00101CA4A118028
:103CC00010E1C349098841F00201C14A118009E1AC
:103CD000BF49097811F0020FF2D0BE4909781031BE
:103CE000BC4A11701146097801F0F001A029E7D112
:103CF0001146097801F00F01117011460978491C2D
:103D000011701146097801F00F010A297ED1B049DE
:103D1000098821F00201AE4A11801146098811F488
:103D2000005F74D0AD49097811F0F00F04D111464D
:103D3000098811F4007F09D0A849097811F0F00F23
:103D400014D0A349098811F4007F0FD00021A74A9D
:103D50001170A249097801F00F01A04A1170A2491F
:103D6000098841F00401A04A11805DE0E6219F4AE4
:103D700011709F4909789F4A984B1B7802EB2312D8
:103D80001170964909781031944A117011460978DA
:103D900001F0F001702947DB1146097801F00F01AD
:103DA00011708B49097811F0200F04D088490978E7
:103DB00011F0080F29D09049097847318F4A1278BD
:103DC000891A472291FBF2F302FB1311462906DB05
:103DD0007F49098841F480717D4A118015E00020F7
:103DE00011E084490A5C8649834B1B78CA54824996
:103DF0000978491C472291FBF2F302FB13117E4A1A
:103E00001170411CC8B20728EBDB01E042E019E069
:103E10000021764A11700A217A4A11706C4909888A
:103E200041F400616A4A1180F0216B4A117002214D
:103E30006B4A11606B49D1F8941041F00201724A4B
:103E400011604FE06249098841F08001604A1180A9
:103E50001146097811F0400F12D11146097811F07E
:103E6000200F0DD01146098821F03C011180114628
:103E7000098841F0400111804FF40051534A916587
:103E80000021564A11705849098841F00201564AEA
:103E9000118027E04F49097801F00F01092912D15B
:103EA0004B49098811F4005F06D04949098841F45B
:103EB0000071474A118015E04549098821F40071D5
:103EC000434A11800EE04A4909784910484A117066
:103ED0003F49098811F4005F04D01146097841F088
:103EE000800111703A49097801F00C010C293FD189
:103EF0003749098811F4005F21D04FF40051334A4B
:103F0000D1653349098821F48051314A118000215B
:103F10003E4A11702E49098821F00C012C4A11806B
:103F20002E49097801F00F01394A515C394A117064
:103F30002749098841F01001254A118036E12449BA
:103F4000098821F03C01224A11801146098841F07C
:103F5000400111802149097801F0F0011F4A1170D8
:103F60004FF40051194A9165F0211B4A11701DE16F
:103F70001749097811F0100FE0D024490978103161
:103F8000224A11701146097801F0F001502962D1DE
:103F90000F49098811F4805F04D10D49098811F493
:103FA000005F09D00A49098811F4805F36D00849BA
:103FB000098811F4005F31D00121174A1170F5E032
:103FC0000080004090C0072092C0072000C0092058
:103FD00078C007207AC00720AAC007207CC007202D
:103FE0008C8002400080024094C007207DC00720E2
:103FF0009AC007209CC0072082C0072081C00720EC
:10400000EBC707207EC00720948002407BC00720BA
:10401000A3C007209BC0072091C00720E149098861
:1040200021F03C01DF4A1180DF49097801F0F001FD
:10403000DD4A1170DB49098841F04001D94A1180FD
:104040004FF40051D94A9165F021D94A11700021ED
:10405000D84A1170AAE0D7490978012987D1D649F1
:10406000097801F0F001A02921D10021D14A117075
:10407000D149097801F00F01CF4A11701146097832
:10408000491C11701146097801F00F0109291AD154
:10409000C549097811F00F0F0AD1C249098841F4C6
:1040A0008051C04A11804FF40051C04A91657DE0B3
:1040B000BC49098821F48051BA4A11804FF400515B
:1040C000BA4AD16572E0BC49097801F00F010A29AA
:1040D0000AD1B449098841F48051B24A11804FF4A1
:1040E0000051B24A916561E0B349097801F00F01CE
:1040F0000B293CD1AB49098821F01001A94A118054
:10410000A9490978491CA84A11701146097801F09B
:104110000F01072917DB1146097801F0F001117032
:10412000A049098821F03C019E4A1180F021A04A53
:1041300011709C49098841F440619A4A11800A2112
:104140009E4A117008E00A21994A11709549098820
:1041500041F00801934A11800221994A116099495E
:10416000D1F8941041F00201974A11601EE097497E
:10417000097811F0010F0AD08A49098841F4805169
:10418000884A11804FF40051884A916509E08549B9
:10419000098821F48051834A11804FF40051834AE9
:1041A000D1658A4909784910884A11707D49097892
:1041B00011F0030F33D17E49097869B17C49097840
:1041C000491E11F0FF017A4A117005D1754909881D
:1041D00041F00401734A11807249097811F0800F8F
:1041E0001DD07049098821F004016E4A11801146E2
:1041F000098811F4005F12D01146098821F080016E
:10420000118002216E4A11606E49D1F8941041F07C
:1042100002016D4A11604FF0F001654A11706C495E
:10422000097869B16A490978491E11F0FF01684AA5
:10423000117005D15C49097801F00F015A4A1170DB
:104240005E49097869B15D490978491E11F0FF019D
:104250005A4A117005D15349098821F40061514A25
:1042600011805049097811F0230F0FD14D49097879
:1042700011F0400F0BD04B49098821F04001494A09
:1042800011801146098841F02801118088E04549D4
:10429000098811F4406F7CD14E49097847314E4A64
:1042A0001278891A472291FBF2F302FB13110729B6
:1042B00071DB4A49484A1278895C494A117046497B
:1042C0000978491C472291FBF2F302FB1311424A81
:1042D000117042491278895C414A51703E4909780F
:1042E000491C472291FBF2F302FB13113A4A117069
:1042F0003A491278895C3A4A917037490978491CE1
:10430000472291FBF2F302FB1311334A1170334938
:104310001278895C324AD1702F490978491C4722AA
:1043200091FBF2F302FB13112B4A11702B49127807
:10433000895C2B4A117128490978491C472291FB55
:10434000F2F302FB1311244A117024491278895C9C
:10435000234A517120490978491C472291FBF2F305
:1043600002FB13111C4A11701C491278895C1C4A0B
:10437000917119490978491C472291FBF2F302FB1C
:104380001311154A11700749098841F02801054A9F
:10439000118005E0FFE700210E4A11700E4A1170EE
:1043A0007047000078C007207CC0072000C00920AB
:1043B000AAC0072091C007207BC007207EC007202D
:1043C0008C80024000800240948002409BC0072005
:1043D0007DC0072080C007207FC00720A4C707201A
:1043E000A3C0072000B50120464908604648007870
:1043F00010F0010F0ED045480078454909788842F1
:1044000009DD4148008820F001003F490880002074
:104410003E49087075E03F480068002844D13A489A
:10442000008820F00100384908803B48006828B126
:104430000846008840F48070088062E032480078C6
:1044400010F0800F06D03048008820F080002E4900
:10445000088056E02D480078401C2C49087008461A
:1044600000782B490978884217DD00202749087019
:104470002A480078401C29490870084600782849D5
:104480000978884204DB4FF47A602649088038E0D6
:104490004FF4FA602449088033E01B48008840F05C
:1044A0000400194908802CE0204800680088204951
:1044B00008801E480068801C1C4908601C49B1F92E
:1044C0000000C11700EB91618911194A1180114652
:1044D000B1F90010C800C11700EB1171091111806A
:1044E0001046008800F5007000B2114608800846AA
:1044F000B0F90000FDF784FF06480068401E05493A
:10450000086000BD0000094056C0072050C00720C9
:104510006CC0072064C0072068C007206EC0072059
:1045200054C0072072C0072070C0072058C0072061
:104530005CC007201FB5E3484078002837D0E14829
:104540004078401EDF4948700846407800282ED148
:104550000846807800287DD100BFDB48008810F431
:10456000004F25D00020D9490870487088702C2051
:10457000C870FF200871487188710846FCF794F9EB
:10458000D348B0F80110ADF80C10C0788DF80E00CB
:104590006B4600220321039801F01EFA6B460022AD
:1045A0000321039806F08EF8FA20CA4908707AE0D1
:1045B000C548007810F0780F75D0C348007810F027
:1045C000600F24D0C448C0790C2803D0C248C079F9
:1045D00005281CD1C0488188ADF80C1080798DF871
:1045E0000E00BD48C0798DF8000000208DF8010054
:1045F0006B4602221146039801F0EEF96B46022247
:104600001146039806F05EF80020B349C871B3481C
:10461000007810F0400F11D0B048008820F0400022
:10462000AE4908800021084604F03CFE002101202C
:1046300004F038FE44F62060A9490880A2480078BA
:1046400010F0080F05D00021012004F02BFEFBF72D
:104650000BFF00E01AE001F01DFAA24800789B4928
:104660000870A048407848709E488078887018206C
:10467000C8709C48C07808719A4800794871994878
:10468000407988710846FCF70FF90CE08D48807876
:10469000401E8C4988700846807800B95DE78948DB
:1046A0000078884948709048407800284CD08E485F
:1046B0004078401E8C49487008464078002843D115
:1046C0000846807890BB00BF884800787F49087012
:1046D0008648407848708548807888702B20C8705C
:1046E0008248C07808718148007948717F484079D4
:1046F00088710846FCF7D8F87848007810F0800FE9
:1047000011D07648008820F080007449088000218C
:10471000084604F0C7FD0021012004F0C3FD44F663
:1047200020606F49088001F0B5F90DE0FFE76E48A1
:104730008078401E6C4988700846807800B9C3E7CD
:1047400069480078684948706948007860B36848EB
:104750000078401E10F0FF006549087024D15A48C7
:10476000008810F4005F1FD05748008820F40050E4
:104770005549088058488188ADF80C1080798DF82B
:104780000E005548C0798DF8000000208DF801001A
:104790006B4602221146039801F01EF96B46022275
:1047A0001146039805F08EFF5248007800B3514837
:1047B0000078401E10F0FF004E49087018D14E4896
:1047C000006803904448C0798DF8000000208DF8FF
:1047D00001006B4602221146039801F0FDF86B467A
:1047E00002221146039805F06DFF002042498870AF
:1047F00038480078F0B137480078401E10F0FF00CC
:104800003449087016D147F230503C49088030488E
:1048100040782E4908702E48807848702C48C0781F
:1048200088708C20C870FF20087148718871084614
:10483000FCF73AF831480088F0B130480088401E53
:104840000004000C2D49088016D12148B0F8011051
:10485000ADF80C10C0788DF80E006B4600220321D5
:10486000039801F0B9F86B4600220321039805F084
:1048700029FFFA20174908702148007800B3204822
:104880000078401E10F0FF001D49087018D11A482A
:10489000006803901B48C0798DF8000001208DF856
:1048A00001006B4602221146039801F095F86B4611
:1048B00002221146039805F005FF00200E4988707A
:1048C0001FBD0000B3C0072084C00720ACC0072074
:1048D00040C8072083C00720C4C6072092C0072015
:1048E000EAC00720C4C00720B6C00720CBC00720FD
:1048F00089C007208CC00720D2C0072086C00720AF
:104900008BC0072028C10720002000218DE001F086
:104910000E02022A44D0042A02D00C2A76D11FE0CB
:104920003222464B1A70002017E0454A1278454B58
:104930001B681A70434A1268521C424B1A60424A62
:104940001288521C404B1A801A461288402A02DDF7
:104950003E4A3C4B1A60421CD0B20828E5DB63E0BB
:104960003222364B1A7015E0354A1278354B1B68E7
:104970001A70344A1268521C324B1A60324A12883A
:10498000521C314B1A801A461288402A02DD2F4AE7
:104990002C4B1A602A4A127D12F0010FE4D143E039
:1049A0002B4A1288521E2A4B1A801A465288521CD1
:1049B0005A801A46128832B11A465288254B9A5CA0
:1049C0001F4B1A702EE01E4A526822F002021C4B46
:1049D0005A60204A5279F02A03D01E4A5279FD2AA1
:1049E00006D100221C4B1A7032221C4B1A7019E09F
:1049F000184A927B7AB90022174B1A70154A127B1B
:104A0000012A04D11422154B1A700BE00BE00A2284
:104A1000124B1A7006E00F4AD279832A02D10A2279
:104A20000E4B1A7000E000BF00BF054A92681146A5
:104A300012F0010F3FF46BAF7047000004C0072075
:104A400000C0004020C0072008C0072084C2072003
:104A500018C1072028C107208CC007208BC0072061
:104A600070B5002400256EE03A48806800F00E0022
:104A7000042802D00C2864D131E032203649087075
:104A8000002421E03348007834490968087033482D
:104A90000068401C3149086031480088401C30499A
:104AA000088008460088B0F5806F0BDD01202A4998
:104AB00008702B480088401E29490880294827494A
:104AC000086003E0601CC4B2082CDBDB00BF264892
:104AD000007810F0080F01D005F0BCFE32E0322063
:104AE0001D4908701FE01B4800781C4909680870C0
:104AF0001A480068401C1949086019480088401C81
:104B00001749088008460088B0F5806F0BDD01204A
:104B10001149087012480088401E11490880114848
:104B20000E49086004E00B48007D10F0010FDAD157
:104B300000BF0D48007810F0080F01D005F08AFE84
:104B400000E000BF00BF03488068054610F0010F79
:104B50008AD070BD000001400BC0072028C007208C
:104B60000EC00720C4C2072000C10720002000217A
:104B700065E001F00E02022A44D0042A02D00C2A79
:104B80005BD11FE06422314B1A70002017E0304ADD
:104B90001278304B1B681A702E4A1268521C2D4B2B
:104BA0001A602D4A1288521C2B4B1A801A46128802
:104BB000D42A02DD294A274B1A60421CD0B20828A9
:104BC000E5DB3BE06422214B1A7015E0204A1278A5
:104BD000204B1B681A701F4A1268521C1D4B1A602A
:104BE0001D4A1288521C1C4B1A801A461288D42A5D
:104BF00002DD1A4A174B1A60154A127D12F0010F96
:104C0000E4D11BE0164A1289521E154B1A811A462E
:104C10005289521C93B2124A5381128932B1104AFE
:104C20005289104B9A5C0A4B1A7005E0084A526888
:104C300022F00202064B5A6000E000BF00BF044AA7
:104C40009268114612F0010F93D0704711C00720EF
:104C50000080094030C0072014C00720C4C60720C8
:104C600018C1072052C207200020002184E001F073
:104C70000E02022A44D0042A02D00C2A7AD11FE064
:104C80006422414B1A70002017E0404A1278404BD2
:104C90001B681A703E4A1268521C3D4B1A603D4A0E
:104CA0001288521C3B4B1A801A4612880A2A02DDCF
:104CB000394A374B1A60421CD0B20828E5DB5AE06B
:104CC0006422314B1A7015E0304A1278304B1B6861
:104CD0001A702F4A1268521C2D4B1A602D4A1288E6
:104CE000521C2C4B1A801A4612880A2A02DD2A4AC4
:104CF000274B1A60254A127D12F0010FE4D13AE0E9
:104D0000264A9289521E254B9A811A46D289521CF4
:104D100093B2224AD381928932B1204AD289204B60
:104D20009A5C1A4B1A7023E01E4A526822F0020263
:104D30001C4B5A601C4A128812F4007F0AD01A4A8F
:104D4000128822F40072184B1A804FF4B472174B79
:104D50001A800DE0144A128812F4006F08D0124A2B
:104D6000128822F40062104B1A801422104B1A8011
:104D700001E0FFE700BF00BF044A9268114612F04D
:104D8000010F3FF474AF704717C0072000C00940FF
:104D900038C007201AC0072098C7072018C107206D
:104DA00066C2072000C00040DEC00720E6C0072022
:104DB000E8C007207FB5FE4C20785A2800D07FBD80
:104DC000607A217A00EB012085B2C82D00DDF6E77C
:104DD00004F10A00691C405C162800D0EFE7204669
:104DE000FDF7F0FA00B9EAE7F148C079012800D1EF
:104DF000E5E7EF4840680390ED48C0798DF8000082
:104E000001208DF801006B4602220121039800F079
:104E1000E3FDE74CE07980280BD0E079822808D0C8
:104E2000E079832805D0E348008820F00100E149BB
:104E30000880E07928287DD029DCA0F1040024280E
:104E400079D2DFE810F03C04A50178007800780002
:104E500078007800780065016601670168019001BB
:104E60009101920193015E035F03780031057800A0
:104E70006600610528030405780078007800600367
:104E8000780078007800780078005D034B035A289A
:104E900070D014DC3E286ED008DC2C286CD038286A
:104EA0006BD039286AD03A2845D11DE03F287DD003
:104EB00043287CD049287BD05428F5D100E38028B2
:104EC00077D008DC5C2875D05D2874D0732873D047
:104ED0007528E9D19BE182286FD083286ED089287C
:104EE0006DD08A28E0D1B1E3A07AB349C87304F049
:104EF000C3F8AF48406803903A208DF800000120C5
:104F00008DF801006B4602221146039800F064FD03
:104F100009E2AA48A649D1F80A200260C98981801D
:104F20000078602816DAA5484078602812DAA3488D
:104F3000807801E00EE3F3E324280BDA9F48C07881
:104F4000322807DA9D480079132803DA9B48407914
:104F5000992814DD96484068039019208DF80000C8
:104F600000208DF801006B4602221146039800F0E4
:104F700033FDCDE749E29FE230E0C4E3F1E300F026
:104F800097FE8F488D490A880280897881708B4905
:104F9000B1F8032082804979817119208849C8704D
:104FA0000846FBF781FC8248406809E085E286E21A
:104FB00084E242E0FEE34DE25FE23FE077E0F5E2CB
:104FC000039019208DF8000001208DF801006B4638
:104FD00002221146039800F0FFFC99E7A07AFF280F
:104FE00008D0E07AFF2805D0207BFF2802D0607926
:104FF000FE2815D16E48406803902C208DF80000E3
:1050000001208DF801006B4602221146039800F042
:10501000E3FC00BF6B4800890028FBD100BFFEE71E
:105020002C206749C870A07A0871E07A4871207B0B
:1050300088710846FBF738FC6AE700BF5E48007ECF
:1050400010F0080F32D05F48008830B1594800880E
:1050500040F0010057490880B1E6554C607A217A4A
:1050600000EB012085B272B605F10C02504956489A
:10507000FBF744F862B605F10C00524908800020A5
:105080004880084640885049085C504908700846E6
:10509000406840F00200486020794D49087060790E
:1050A0004870A07988705F204A49087030E7454809
:1050B000008830B13F48008840F001003D49088039
:1050C0007DE63B4C607A217A00EB012085B272B616
:1050D00005F10C0236493C48FBF710F862B605F1C1
:1050E0000C0038490880002048800846408836492E
:1050F000085C364908700846406840F00200486085
:1051000020793349087060794870A0798870FFE68B
:1051100000BF00BF00BF3048007810F0800F10D0F3
:105120002348406803902248C0798DF80000002091
:105130008DF801006B4602221146039800F04CFCEA
:10514000E6E61F481C49B1F801200280C978817049
:10515000E0791B49C870084661898180217B817193
:10516000FBF7A2FBD4E600BF00BF00BF1448124902
:10517000B1F801200280C9788170E0791049C870C7
:10518000084661898180217B8171FBF78DFBBFE639
:105190001148007810F0800F27D005484068039030
:1051A0000348C0798DF8000000208DF8010015E05B
:1051B000C4C6072092C0072040C80720D8C00720D7
:1051C000ACC0072018C1072028C1072000C000403C
:1051D000D2C007208CC0072084C007206B46022263
:1051E0001146039800F0F8FB10E0FB48FB49B1F8CA
:1051F00001200280C97881700520F749C8700846EF
:1052000061898180217B8171FBF74EFBCFE3F448FC
:10521000008810F4016F10D1F24840680390F14803
:10522000C0798DF8000000208DF801006B46022245
:105230001146039800F0D0FBB9E3E948008810F468
:10524000804F10D0E74840680390E648C0798DF859
:10525000000000208DF801006B46022211460398E1
:1052600000F0BAFBA3E3DE48007810F0100F5BD02B
:10527000DC48807ADC49097888420BD1D948C07A69
:10528000D9494978884205D1D648007BD6498978E2
:10529000884235D0D348807AD349C97888420BD127
:1052A000D048C07AD0490979884205D1CD48007BE1
:1052B000CD494979884223D0CA48407BCA490978F8
:1052C00088420BD1C748807BC7494978884205D1BD
:1052D000C448C07BC4498978884211D0C148407B0A
:1052E000C149C97888421FD1BE48807BBE4909792F
:1052F000884219D1BB48C07BBB494979884213D148
:1053000000210520FDF7FCFAB6484068039075209F
:105310008DF8000001208DF801006B460222114635
:10532000039800F059FB42E3AD48008810F4006F89
:105330005BD0AC48807AAD49097888420BD1A94846
:10534000C07AAA494978884205D1A648007BA74976
:105350008978884235D0A348807AA449C9788842A0
:105360000BD1A048C07AA1490979884205D19D484E
:10537000007B9E494979884223D09A48407B9B49CB
:10538000097888420BD19748807B984949788842B0
:1053900005D19448C07B95498978884211D09148BD
:1053A000407B9249C97888421FD18E48807B8F49C3
:1053B0000979884219D18B48C07B8C494979884248
:1053C00013D100210520FDF7A3FA86484068039019
:1053D00075208DF8000001208DF801006B46022237
:1053E0001146039800F0F8FAE1E27E484068039025
:1053F00075208DF8000000208DF801006B46022218
:105400001146039800F0E8FAD1E27448007E10F0EB
:10541000080F1ED073484079FE281AD17148807A4F
:105420006E49487003F028FE6C4840786A4908705D
:105430006A48807848706948C07888705B20C87076
:10544000664840780871FF20487188710846FBF76C
:105450002BFAACE263484079FE280DD15F48007E0C
:105460006049897A884207D05E48807A5B4908762D
:1054700003F002FE00BFFEE799E25A48C0795649A0
:10548000C870A07A0871E07A4871207B887108465C
:10549000FBF70AFA8BE25348407B4F4908705148AA
:1054A000C079C870A07A0871E07A4871207B887151
:1054B0000846FBF7F9F97AE200BF00BF00BF00BF62
:1054C0004848C0794449C870A07A0871E07A4871A8
:1054D000207B88710846FBF7E7F968E24148C0790C
:1054E0003D49C870FF200871487188710846FBF774
:1054F000DBF93F48008820F002003D49088056E271
:1055000000BF00BF00BF3648007810F0800F04D104
:105510003348008810F4006F10D032484068039080
:105520003048C0798DF8000000208DF801006B46EE
:1055300002221146039800F04FFA38E22948C07958
:105540002549C870FF200871487188710846FBF72B
:10555000ABF92CE22248007810F0800F04D12048EB
:10556000008810F4006F0FD01E4840680390282078
:105570008DF8000000208DF801006B4602221146D4
:10558000039800F029FA12E21648C0791249C8704F
:10559000FF200871487188710846FBF785F91448A7
:1055A000008840F002001249088000E20D48807A2D
:1055B00023280FDC0B48C07A59280BDC0948007BF4
:1055C000232807DC0748407B592803DC0548807BFB
:1055D00008280FDD07E40000ACC0072040C8072002
:1055E00084C00720C4C60720C4C00720CBC0072042
:1055F00092C00720EF48807AEF498872ED48C07A60
:10560000C872EC48007B0873EA48407B4873E9485D
:10561000807B887303F030FDE748807AE7490870A3
:10562000E548C07A4870002088708920C870E24838
:10563000007B0871E048407B4871DF48807B8871BF
:105640000846FBF731F901F0EDFBB0E1D948807A6B
:1056500023280BDCD748C07A592807DCD548007BC3
:10566000232803DCD348407B592800DDF4E4D148EB
:10567000807AD1498871CF48C07AC871CD48007B03
:105680000872CC48407B487203F0F6FCCA48807927
:10569000CA490870C848C0794870002088708A20BC
:1056A000C870C548007A0871C348407A4871002024
:1056B00088710846FBF7F8F801F0FCFD77E1C04877
:1056C0000078F8B10020BE49087047F23050BD495B
:1056D0000880B9484078B9490870B7488078487060
:1056E000B548C07888708B20C870FF200871487159
:1056F00088710846FBF7D8F8B348008840F00400EA
:10570000B149088053E1AB48807A002862DDA9489E
:10571000807A0A285EDAA748807A0A2836D200E022
:1057200034E1DFE800F033050A0F14191F24292E95
:105730004FF49660A04988802DE04FF416609E4992
:10574000888028E04FF496509B49888023E04FF4EE
:105750001650994988801EE04FF461509649888020
:1057600019E047E04FF496409349888013E04FF4E6
:10577000E140914988800EE04FF416408E498880C0
:1057800009E04FF461408C49888004E04FF4966052
:105790008949888000BF00BF8749888802F028FCBB
:1057A00003F06AFC84484078844908708248807815
:1057B000487000E0C1E08048C07888703820C87028
:1057C0007C48807A08710846FBF76EF803207F4911
:1057D00008700EE077484068039038208DF800008C
:1057E00000208DF801006B4602221146039800F05C
:1057F000F3F8DCE06F48807A18B16E48807A0128AF
:1058000015D16D4840786D4908706B4880784870B4
:105810006948C07888703920C8706648807A0871F5
:105820000846FBF741F80320694908700EE061481B
:105830004068039039208DF8000000208DF80100A9
:105840006B4602221146039800F0C6F8AFE05948B3
:10585000807A18B15748807A012815D15648407887
:10586000564908705448807848705348C07888700A
:105870001C20C8704F48807A08710846FBF714F85E
:105880000320544908700EE04A48406803901C20E9
:105890008DF8000000208DF801006B4602221146B1
:1058A000039800F099F882E04248807A18B14148A4
:1058B000807A012818D140484078404908703E4815
:1058C000807848703C48C07888701720C870394884
:1058D000807A08713748C07A48713648007B8871F1
:1058E0000846FAF7E1FF0EE03248406803901720BF
:1058F0008DF8000000208DF801006B460222114651
:10590000039800F069F852E02B4840782B49087062
:105910002948807848702848C07888701A20C87054
:105920002448807A08712348C07A48712148007B56
:1059300088710846FAF7B8FF39E01E48807A0128D6
:1059400006D002280BD0032810D004281CD114E064
:105950001848C07A1849087403F08EFB14E0154803
:10596000C07A1549487403F087FB0DE01148C07AEE
:105970001149087503F080FB06E00E48C07A0E4915
:10598000487503F079FB00BF00BF00BF09484068BD
:1059900003900848C0798DF8000001208DF80100BF
:1059A0006B4602221146039800F016F800BF00BFB4
:1059B00000BF0FE6C4C6072040C80720ACC00720C0
:1059C00083C0072086C0072092C007208DC0072013
:1059D0008EC007208FC007202DE9FF410E461546D7
:1059E0001F462848007E10F0080F01D1BDE8FF8156
:1059F0004FF0FF0809E0022003F0E4FCA8F10100E9
:105A0000C0B25FEA000800D103E01F480089002807
:105A1000F1D100BF1D4C5A2020709DF8000060702D
:105A20009DF80100A0709DF80200E07015484078D4
:105A3000207100206071A071E671207265722DB135
:105A40002A46394604F10A00FAF758FB2046FCF7CB
:105A500037FF04F10A01485516220846691C4254D2
:105A600005F10C0008490881002107484181207890
:105A7000074908700846406840F00200486000BFCF
:105A8000B4E7000040C8072018C1072052C2072011
:105A9000008009404348007810F0400F13D141487E
:105AA000007810F0800F0ED13F48008810F4C06FCE
:105AB00009D13D48007810F0040F04D13A4800782D
:105AC00010F0080F58D03748007810F0400F10D071
:105AD0004FF080503549C8634000886300118867E3
