:0919DE0001020408102040800001
:10197500E4F525F52EF526752705F52DF52402192F
:01198500A8B9
:10160700A907AF05AE04E9C39405502DC2AF05265F
:10161700E99019DE93552E60037F0022E99019DEC9
:1016270093422E4225AD03AC02AB01121194120076
:0C1637000ED52602D2AF7F01227F0022D8
:1018C200EFC394055010C2AF0526EF9019DE934284
:0918D20025D52602D2AF02000E5A
:1018DB00EFC394055011C2AF0526EF9019DE93F4B8
:0818EB005225D52602D2AF22DE
:0C19C70074282FF8E4F61218DB02000E62
:1018F300E525552EFFE4F52DEF20E00BEFC313FF95
:07190300052DE52DB405F1EF
:01190A0022BA
:1017F900C2AF0526E524D3940040021524E52470E0
:101809000BF5261218F312174E7F0122D52602D2A4
:04181900AF7F00227B
:10000E00C2AF0526E52470061218F3120026D52677
:04001E0002D2AF2239
:10188400E4FF74282FF8E6600F1674282FF8E6702A
:0F18940007EF9019DE9342250FBF05E602000E05
:1018410074282527F8A607C2AF052674282527F88E
:10185100E6600AAF271218DB12000E80EED52602D1
:03186100D2AF22E1
:1013000074282527F8A605EF24FE600F1460192421
:10131000027041AF271219C77F042274282527F8CD
:10132000E6FF1218417F0822C2AF05267428252740
:10133000F8E670037F0822AF271218DB12000ED5E3
:101340002602D2AF74282527F8E66005E4F67F046C
:0E135000227F082274282527F8E4F67FFF226A
:10167B00C2AF0526EDC394054025EF6022F8E4F6D2
:10168B00E804F8A605EF2402F87604EF2403F8E447
:10169B00F6EF2404F8E4F6D52602D2AF7F0122D56B
:0716AB002602D2AF7FFF22EF
:100F6500C2AF052674282527F8A6030581AE81A8FA
:100F750006A607ED2403F9E5279019DE9347F7A8A0
:100F850005E670200581AF81A807A605AF271218D1
:100F9500DB12000EAF81A807E6FD15817428252711
:100FA500F8E670DBED2403F9E5279019DE93F45795
:100FB500F7A805E6D39400402F16E82402F806EDBD
:100FC50004F9ED2402F8E6C39740027604AF81A840
:100FD50007E6FF1581ED2402F8E62DF8E6A807F6E9
:100FE500D52602D2AF7F01221581D52602D2AF7F49
:010FF50002F9
:010FF60022D8
:02110F00AE0729
:10111100C2AF0526EE04F8E624FCFFA806E6C39F4D
:1011210050690581AF81A807A605A806A900E82492
:1011310002F8E62704FDEE04F8E6FFEDC39F400543
:10114100ED9F2404FDAF81A807E6FFEE2DF8A60769
:101151001581A80606E664017029E82403F8E6FD76
:10116100E4FFED20E008EDC313FD0FBF05F4EFC36D
:101171009405500FEE2403F9EF9019DE93F457F71D
:101181001218C2D52602D2AF7F0122D52602D2AFD4
:021191007F08D5
:011193002239
:10119400C006C007EB9019DE934236EBC395275087
:1011A4002EC3E5279BFA74302BF9740327F709DA69
:1011B400F9A88174032581F58174302BF98707C35D
:1011C400E5819FFA0AA981E6F71819DAFA802C74E6
:1011D400302527F8C3EB9527FA74FD26F608DAF9CB
:1011E40074302527F8E6F9E924FDFF742F2BF8E67F
:1011F400C39FFAA807E7F60809DAFA742F2BF8E672
:0C120400F9D0E0F709D0E0F709E4F72288
:1016E900D026E527B4050280229019DE935536707D
:1016F9001AD007D006D005D004D003D002D001D02B
:1017090000D0D0D082D083D0F0D0E00526D52602F3
:03171900D2AF222A
:0D002600C0269019DEE527934236020FF741
:100FF700AA81A881087430252DF9E7FF74302527C9
:10100700F9E7F9E52DD395274033EFC399FEE7F6C6
:101017000809DEFA74302527F9E7D39AFF18888183
:10102700E52DC39527FE600F742F2527F9EFF404EC
:10103700FF09EF27F7DEFA852D270216E9E52D656B
:10104700276036E8C39FFE1819E6F7DEFA743025E5
:1010570027F9E7D39AFF7430252DF9E7F581E527BE
:10106700C3952D600CFE742F252DF909EF27F7DEA8
:0C107700FA852D2715810216E90216E902
:10174E0074056527700F74EF2581F5817426C0E04E
:10175E007400C0E03274FC2581F5819019DEE52716
:0F176E0093F45236C02674F7C0E0740FC0E03217
:0F19A800E4FF742F2FF876510FBF06F6E4F535E4
:0119B700220D
:10150100742F2FF8E6FE74302FF8E6FDAC06C39C6D
:10151100FCEF04FFEFD39527500EECF404FB742F7E
:101521002FF8EB26F60F80ECC3E5819D04FFAB0598
:101531000DA803E6AA060EA802F6DFF2C3E5819C18
:02154100F58132
:011543002285
:10154400742F2FF8E6FEFD74302FF8E6FC74302576
:1015540027F8E6FBC3EE9BFE600EAB050DA803E681
:10156400AA040CA802F6DEF2AE05C3EC9EFDE52744
:1015740004FEEED39F500A742F2EF8ED26F60E804B
:01158400F175
:011585002243
:10190B00742F2FF8E6FD7FF70DF8A607740FA805C7
:08191B00F6AF058F810218F3FD
:1017D3007E01EFB527030E8008EFC395275002E47F
:1017E300FEEE14600A14600A240270090215010255
:0517F300154412190B62
:0117F80022CE
:0300330002135E57
:10135E00C2AFC0E0C0F0C083C082C0D075D000C0A4
:10136E0000C001C002C003C004C005C006C007E42F
:10137E00253FF53F74B4353EF53E853FEAE53EF533
:10138E00FAC2D80524D2AF1218841217F9D007D09A
:10139E0006D005D004D003D002D001D000D0D0D0DA
:0A13AE0082D083D0F0D0E0D2AF323D
:061A070075E7828FE52265
:0819F000E4F5E7F5E5F5E62258
:10198600AB07AA068DE28AE38BE475E64675E6B9EF
:01199600222E
:10199700AD07AC068CE38DE475E64675E6B9AFE2B4
:0119A700221D
:0F19B800AD07AC068CE38DE475E64675E6B92203
:10196300EF24FF92979296EF24FF921A90004EEF86
:02197300F02260
:0919E70020B4037F00227FFF22DF
:1015C700D2B47D047F021213001219E78F40E54061
:1015D700F460EF7D047F021213001219E7EFB540A4
:1015E700E17F41E5404430FD12110F1219E7EFB5D5
:1015F70040097D027F0212130080F075E13D80C231
:100C84008F38301703020D9C201503020D47C2153F
:100C940030102BC210900077E090005AF09000784A
:100CA400E090005BF0900079E090005CF07E007FC3
:100CB400067D007B017A0079761206618018900027
:100CC40067E090005AF0900068E090005BF09000BC
:100CD40069E090005CF0902803E49390005DF0904C
:100CE4002804E49390005EF0902805E49390005F5C
:100CF400F0902806E493900060F0902807E4939025
:100D04000061F0902808E493900062F0902809E4D0
:100D140093900063F090280AE493900064F0902884
:100D24000BE493900065F090280CE493900066F037
:100D34001212107F0212196390004F740AF0A3F08C
:100D4400D2192290005AE0900067F090005BE09086
:100D54000068F090005CE0900069F090005AE09028
:100D6400006BF090005BE090006CF090005CE09011
:100D7400006DF0E538702620160F90005EE09000BC
:100D84006BF090006A7408800590006A7412F07B1E
:0E0D9400017A00796712128CE4900074F0224C
:04140C00023EB400E8
:10181D00D2B0D2B175985053890F438920758BF68C
:10182D00758DF653877F438E40C28FD28EC298C27C
:04183D0099D29C227E
:1017AC00E490007DF090007DE0C39D501912046D13
:1017BC00F5993099FDC299740129F9E43AFA90002F
:0617CC007DE004F080DF67
:0117D20022F4
:0819F8008F993099FDC299227C
:100DA20075D902E4F5D8F5E9F5F9853FEAE53EF5AE
:100DB200FA75DA49D2AED2DE75E13D4392C853915B
:100DC20037C2937F01121A077F007E08121997BF5C
:100DD2005A051213B88075902800E49390005AF0D7
:100DE200902801E49390005BF0902802E493900035
:100DF2005CF0902803E49390005DF0902804E49363
:100E020090005EF0902805E49390005FF090280631
:100E1200E493900060F0902807E493900061F090D2
:100E22002808E493900062F0902809E4939000630C
:100E3200F090280AE493900064F090280BE49390D9
:100E42000065F090280CE493900066F012171C12D3
:100E520016B2C217C21690004F7432F0A3F090007F
:100E62005DE030E004E4FF80027F01121963E4FDDB
:100E7200FF1219D39000047464F012181D7F5502FA
:020E820019F85D
:071A00007D41E4FB020F65CC
:10177D008F37E53754F024E0601324F0601224F025
:10178D00601624F060152440701402068D02145F5B
:0F179D00E537540FFF020C8402092F120E84222D
:1014B200120DA27F417D1012167B75E13D7C187DD5
:1014C20064E4FBFA7F011216077C197D3AE4FBFA09
:1014D2007F021216077C157DC7E4FBFA7F03121602
:1014E200077C197D23E4FBFA7F0412160775E13DA0
:0F14F2007F3D121A00AF3D12177D75E13D80F16D
:101950001219757C147DB2E4FBFAFF121607438757
:031960000180FB08
:10141000012000012100011A00011900011C000136
:101420000A00010800011E0001090042004C0000F2
:101430004200020000420000000041000464C118A4
:10171C0043B10453B2FB53B17F43B280C2B7D2B2D0
:10172C00438921758A67758CFFC28D538E1FD2A990
:10173C00D28C751FF0C289D28830B203D2A822D2C3
:02174C00072272
:030003000218A33D
:1018A300C2AFC0E0C083C082C2A8D200C202751A10
:0F18B30000900074E4F0D082D083D0E0D2AF3246
:03000B00020036BA
:10003600C2AFC0E0C0F0C083C082C0D075D000C0DF
:1000460000C002C003C004C005C006C007C28C754C
:100056008CFF758A67D28CA2B2920D300030741074
:10006600251AF51A54F06450600302012FC200F5F8
:100076001A300D1520060A3005075320C3D206C2D2
:10008600B7751FF0751C008071D20102012F200187
:100096000302012F7410251AF51A54F064A06003A8
:1000A60002012F531A0F051AE51A540FFF640A703E
:1000B60063C201300D4AE51C54F024FF300901B338
:1000C6004008750A00531C0F802D750AE6E51CC40E
:1000D600540F2412F8A61D7410251CF51C54F0C3E9
:1000E60094704013531C0F300503300302D2087579
:1000F6000A0075080AD20B751FF0C289D2A880299A
:10010600D20720060A3005075320C3D206C2B775A8
:100116001C008015BF0906A20D9209800CE51DC3BF
:1001260013F51D300D03431D80E520540C640C703F
:100136002B300D18D2B7C20CF5195320F3E51C5419
:100146000F240BF8E6F51BD2040202085320C3D293
:1001560006531CF0C2B7751FF00202082004030202
:10016600020874102519F51954F0FFBF501EA20C91
:10017600300D01B34005D2180202085320C3531CA8
:10018600F0D206C2B7751FF0C2188076301873EF2A
:1001960064A0706EC21853190F0519E519540FFFA4
:1001A600BF0910E51C540F24FFB3920CA20CB392A6
:1001B600B7804FBF0A06D20CC2B78046E519540F66
:1001C600640B7029C204051CE51C540FC394074038
:1001D60011531CF05320C3751FF043210C75080AF8
:1001E6008005751F0AD203C289D2A88015E51B3087
:1001F600E006D20CC2B78004C20CD2B7E51BC3130B
:10020600F51BE5205403701AE51F6005D51F02D2C1
:100216000230070EC202300D09C207C289D2A87584
:100226001FF0E50A6006D50A03531C0FE5086005B2
:10023600D50802C20BE5205423600302035C300696
:1002460005C206020351A20B720A500302035CE5C3
:10025600092447FFE433FEE51EFB7A00C3EF9BFF4C
:10026600EE9AFE7C007D471204E7EDC39407500327
:100276000203567405251EF582E43400F583E0F585
:100286000BEB2401FFEA33FE7C007D471204E78D69
:100296001E7405251EF582E43400F583E0F50CE5B1
:1002A6001E2401FFE433FE7C007D471204E78D1E09
:1002B6007405251EF582E43400F583E0F50DE51E90
:1002C6002401FFE433FE7C007D471204E78D1E7493
:1002D60005251EF582E43400F583E0F50EE51E24BF
:1002E60001FFE433FE7C007D471204E78D1E740592
:1002F600251EF582E43400F583E0F50FE51E2401A2
:10030600FFE433FE7C007D471204E78D1E7405254D
:100316001EF582E43400F583E0F510E51E2401FFA6
:10032600E433FE7C007D471204E78D1E7405251E0E
:10033600F582E43400F583E0F511E51E2401FFE4BF
:1003460033FE7C007D471204E78D1E43202880067D
:10035600750900751E00D007D006D005D004D0035D
:10036600D002D000D0D0D082D083D0F0D0E0D2AFAF
:010376003254
:06128C008B398A3A893B10
:10129200753C07C2AF0526E5092447FFE433FEC3C8
:1012A200EF951EFFEE9400FE7C007D471204E7EDF1
:1012B200C394464008D52602D2AF7F0022AF3C1528
:1012C2003CEF6032AB39053BE53BAA3A7002053A86
:1012D20014F912046DFF74052509F582E43400F552
:1012E20083EFF0E5092401FFE433FE7C007D471221
:0D12F20004E78D0980C7D52602D2AF7F0129
:0112FF0022CC
:061586007B017A00796789
:10158C00900004120486FFF4600990005AE06F602A
:10159C0002C322900005120486FFF4600990005BE0
:1015AC00E06F6002C322900006120486FFF460090B
:0B15BC0090005CE06F6002C322D322AD
:061643007B017A007967CB
:10164900900004120486FF90005AE06F6002C322E2
:10165900900005120486FF90005BE06F6002C322D0
:10166900900006120486FF90005CE06F6002C322BE
:02167900D3227A
:0B19D300900057EFF0A3F0A3EDF0220E
:10121000E4900051F0A3F07B0190005404F0A3741B
:1012200000F0A3745AF0900053740DF07F03121A6B
:1012300007E4FFFE1219B87F02121A07900053E06C
:10124000FF14F0EF6026900051E475F00112053CA8
:10125000AFF0FE900054E0FBA3E475F00112053CF2
:10126000A9F0FA12046DFD12198680D01219F07FD0
:1012700003121A077F007E081219B87F02121A079C
:0C1280007D5A7F007E081219860219F0CA
:1013B800E4900051F0A3F07B0190005404F0A37472
:1013C80000F0A3745AF0900053740DF07F01121AC4
:1013D80007900053E0FF14F0EF6026900051E47589
:1013E800F00112053CAFF0FE121997900054E0FB93
:1013F800A3E475F00112053CA9F0FAEF1204B380DA
:04140800D00219F005
:10068D00C2AF052678677C007D017B007A00791268
:10069D007E007F07120447C208D52602D2AF30175D
:1006AD000B90006AE06404600302092E90006AE07A
:1006BD00120552071D0106F10407520E07521207CB
:1006CD006D1807801C074223083B2C08545508A8B9
:1006DD005608E45A08F15B08FCA407A9F307F7F4E0
:1006ED000000092E20170302092E12158640030261
:1006FD00092EC2179000507432F090005DE030E08A
:10070D0004E4FF80027F01121963E4FDFF0219D397
:10071D00121586400302092E90005AE0900067F0F2
:10072D0090005BE0900068F090005CE0900069F054
:10073D00A374028063121586400302092E7F0212F4
:10074D001963D21622121586400302092E90005D00
:10075D00E030E004E4FF80027F01121963C216222B
:10076D0090005DE030E004E4FF80027F0112196328
:10077D00C21622121643400302092E900067E09024
:10078D00005AF0900068E090005BF0900069E090F6
:10079D00005CF090006A7471F002092B1216434050
:1007AD000302092E900067E0C3940D400302092E49
:1007BD009000547401F0A37400F0A3745AF09000EB
:1007CD0068E0FF900054E0FBA3E0FAA3E0F990008D
:1007DD0067E0F582758300EF1204C590006A7471AD
:1007ED00F07B017A00796702092B12164340030250
:1007FD00092E900067E0FFC3940D400302092E906F
:10080D000051E4F0A3EFF07F01121A07900051E0C0
:10081D00FEA3E0FF121997900068EFF01219F09007
:10082D00006A74F5F07B017A00796702092B1215C5
:10083D0086400302092EC2AF0526E4F5DAC2A9C22D
:10084D008CC2A875E72022900062E0FF90006BE05B
:10085D006F600302092E900063E0FF90006CE06F63
:10086D00600302092E900064E0FF90006DE06F6060
:10087D000302092E900067E0900062F0900068E09E
:10088D00900063F0900069E0900064F090006A744D
:10089D0071F07B017A00796702092B900062E0907C
:1008AD000067F0900063E0900068F0900064E090C5
:1008BD000069F0A37457F0900062E090006BF09027
:1008CD000063E090006CF0900064E090006DF07BB0
:1008DD00017A0079678047900069E07044D2157FF6
:1008ED000202196390006BE090005AF00212109012
:1008FD00005AE0900067F090005BE0900068F09087
:10090D00005CE0900069F090006B74A4F0E4A3F03B
:10091D00A3F090006A7402F07B017A0079671212DD
:02092D008C221A
:10145F00C2AF052678677C007D017B007A00790B8F
:10146F007E007F07120447C20AD52602D2AF900032
:10147F006AE024EE601224A16021246E70243017DC
:10148F0021E4FD7F960219D390005DE030E004E483
:10149F00FF80027F01121963C21622D2B7121210F7
:0314AF00C2B7229F
:101864003008077F417D1012110F300A077F417D38
:101874002012110F7D017F0212130075E13D80E0FB
:10092F00900058E0605D14F0E07058A3E07005305F
:10093F001751800C900059E014F0E07040301743CD
:10094F00A3E0900067F090005BE0900068F09000EB
:10095F005CE0900069F0A37403F0900062E09000F7
:10096F006BF0900063E090006CF0900064E09000FA
:10097F006DF07B017A00796712128C800690005718
:10098F00E0A3F090004FE014F07015A3E090004F3B
:10099F00F090004EE0B40208B21AA21A9297929603
:1009AF0030151090004DE004F0700F90004CE004F3
:1009BF00F08007E490004CF0A3F0D390004DE0944A
:1009CF00FA90004CE09400401BC215E4F0A3F0FF36
:1009DF001219637E007F067D007B017A0079761203
:1009EF000661C210301910900003E004F0700F90F0
:1009FF000002E004F08007E4900002F0A3F0D3902F
:100A0F000003E09432900002E094004012C219E417
:100A1F00F0A3F0FF12196390004F7432F0A3F0208F
:100A2F00131130120E900001E004F07006900000D8
:100A3F00E004F0D3900001E094FA900000E09400FD
:100A4F00400AE4F0A3F0D211C212D21330B20280E6
:100A5F007C900004E0607C14F07078D293C2B77D74
:100A6F00647F0212130020B232D293C2B775E13DF8
:100A7F007F011219637D287F0212130075E13DE497
:100A8F00FF1219637D287F0212130030B2DBC2936D
:100A9F009000047464F0E4FF021963C293C2B7C2FA
:100AAF0093C2B77F011219637D787F02121300750D
:100ABF00E13DE4FF1219637D787F0212130075E1A7
:100ACF003D30B2DBE4FF121963C2B7C2939000044A
:030ADF007464F04C
:010AE20022F1
:101923007D047F02121300900058E07F417D401236
:07193300110F75E13D80E991
:1014400046006E000000000000460076000000002C
:0E1450000000410075004100740041007C0066
:1016B20075985053877F758DD8758BD8D28EC29806
:1016C200C299D2ACE4900074F0A3F0FE7F06FD7BD9
:1016D200017A00796E1206617E007F067D007B0131
:0716E2007A0079760206612F
:03002300020AE3EB
:100AE300C2AFC0E0C0F0C083C082C0D075D000C028
:100AF30000C001C002C003C004C005C006C0072077
:100B03009803020C5DC298900074E0FF246EF58296
:100B1300E43400F583E599F0746E2FF582E4340034
:100B2300F583E0F4FF900074E0246EF582E4340072
:100B3300F583EFF0900074E004F0E06404705E90DD
:100B4300006FE0FF90006EE02FFF900070E0FE2F3B
:100B5300FF900075F0900071E06F7009EE64017012
:100B630004D2128013900071E0FF900075E06F7063
:100B730027900070E0B40220D21378767C007D01C8
:100B83007B017A00796E1206447E007F067D007B2E
:100B9300017A00796E120661900075E4F09000729C
:100BA300E0FF645A6003020C5D900074E064066029
:100BB30003020C5DF0900071E0FE705D90006FE049
:100BC300FD90006EE02DFD900070E02DFDEE2DFEFA
:100BD300EF2EFF900075F0900073E06F7019900096
:100BE30075F0D210D21378767C007D017B017A00F8
:100BF300796E1206448054C213900075E4F0FE7FB0
:100C030006FD7B017A00796E1206617E007F067D08
:100C1300007B017A007976803E900075E4F0201421
:100C230013C212C213FE7F06FD7B017A007976128E
:100C330006618017301414301311C21478767C00C7
:100C43007D017B017A00796E1206447E007F067D6A
:100C5300007B017A00796E12066130990790007467
:100C6300E4F0C299D007D006D005D004D003D00257
:100C7300D001D000D0D0D082D083D0F0D0E0D2AF9A
:010C8300323E
:100E8400C213E4900000F0A3F0900074F030170354
:100E9400020F64301108C2119000787455F03010BC
:100EA4000FD21590004F7432F0A3F07F0202196341
:100EB400900078E024FE605024AD604E245460031A
:100EC400020F6420147CD21490005AE0900067F062
:100ED400A374FFF0900077E0900069F090005AE06E
:100EE40090006BF090005BE090006CF0E4A3F09055
:100EF400006A7483F07B017A00796712128C900087
:100F040077E090007CF0803A803890005AE09000BE
:100F140067F0A374FFF090007CE0900069F090000B
:100F24005AE090006BF090005BE090006CF0E4A35A
:100F3400F0C21490006A7484F07B017A007967121D
:100F4400128C7E007F067D007B017A007976120682
:100F5400617E007F067D007B017A00796E12066156
:010F6400226A
:10193A003013077F417D5012110F7D017F02121370
:06194A000075E13D80EA9A
:0D2800000101F001C0FFFFFFFFFFFF100B03
:0300000002108368
:0C108300787FE4F6D8FD7581500210CA99
:10037700E709F608DFFA8046E709F208DFFA803E68
:1003870088828C83E709F0A3DFFA8032E309F60855
:10039700DFFA8078E309F208DFFA807088828C83BD
:1003A700E309F0A3DFFA806489828A83E0A3F60871
:1003B700DFFA805889828A83E0A3F208DFFA804C4B
:1003C70080D280FA80C680D4806980F28033801022
:1003D70080A680EA809A80A880DA80E280CA80338B
:1003E70089828A83ECFAE493A3C8C582C8CCC58303
:1003F700CCF0A3C8C582C8CCC583CCDFE9DEE780D3
:100407000D89828A83E493A3F608DFF9ECFAA9F051
:10041700EDFB2289828A83ECFAE0A3C8C582C8CCA7
:10042700C583CCF0A3C8C582C8CCC583CCDFEADEC0
:10043700E880DB89828A83E493A3F208DFF980CC22
:1004470088F0EF60010E4E60C388F0ED2402B4041B
:100457000050B9F582EB2402B4040050AF232345C2
:0604670082239003C7731D
:10046D00BB010689828A83E0225002E722BBFE028D
:09047D00E32289828A83E49322C0
:10048600BB010CE58229F582E5833AF583E022502B
:1004960006E92582F8E622BBFE06E92582F8E22275
:0D04A600E58229F582E5833AF583E493228F
:1004B300BB010689828A83F0225002F722BBFE0128
:0204C300F32222
:1004C500F8BB010DE58229F582E5833AF583E8F06D
:1004D500225006E92582C8F622BBFE05E92582C819
:0204E500F22201
:1004E700BC000BBE0029EF8DF084FFADF022E4CCF9
:1004F700F875F008EF2FFFEE33FEEC33FCEE9DECC2
:10050700984005FCEE9DFE0FD5F0E9E4CEFD22ED07
:10051700F8F5F0EE8420D21CFEADF075F008EF2F51
:10052700FFED33FD4007985006D5F0F222C398FD42
:050537000FD5F0EA22DF
:10053C00A3F8E0C5F025F0F0E58215827002158372
:06054C00E0C838F0E822CF
:10055200D083D082F8E4937012740193700DA3A338
:1005620093F8740193F5828883E47374029368604C
:06057200EFA3A3A380DF4C
:10057800E709F60870FA8046E709F20870FA803E43
:1005880088828C83E709F0A370FA807EE309F60875
:1005980070FA8076E309F20870FA806E88828C839C
:1005A800E309F0A370FA806289828A83E0A3F608DF
:1005B80070FA805689828A83E0A3F20870FA804A2A
:1005C80080D280FA80C680D4806580F28031801025
:1005D80080A680EA809A80A880DA80E280CA80318A
:1005E80089828A83ECFAE493A3C8C582C8CCC58300
:1005F800CCF0A3C8C582C8CCC583CC70E9800D896E
:10060800828A83E493A3F60870F9ECFAA9F0EDFB6B
:100618002289828A83ECFAE0A3C8C582C8CCC58344
:10062800CCF0A3C8C582C8CCC583CC70EA80DD896C
:10063800828A83E493A3F20870F980CE88F0ED24CF
:1006480002B4040050C4F582EB2402B4040050BA8A
:0906580023234582239005C87399
:10066100EF4E6012EF60010EEDBB010B89828A83B0
:10067100F0A3DFFCDEFA2289F05007F709DFFCA9BD
:0C068100F022BBFEFCF309DFFCA9F02214
:10108F00021950E493A3F8E493A34003F68001F20E
:10109F0008DFF48029E493A3F85407240CC8C33362
:1010AF00C4540F4420C8834004F456800146F6DF31
:1010BF00E4800B010204081020408090140CE47EA1
:1010CF00019360BCA3FF543F30E509541FFEE49326
:1010DF00A360010ECF54C025E060A840B8E493A3ED
:1010EF00FAE493A3F8E493A3C8C582C8CAC583CA18
:1010FF00F0A3C8C582C8CAC583CADFE9DEE780BED0
:01145E00008D
:00000001FF
