:100B33008800C0C0C0C0C0C0C0C0A0260800060056
:100B430010A762C7830322F80040561018166C439F
:100B53004091E92A001F598135092906040500FF40
:030B63000000008F
:100CE500E4FDFCC3ED9FEC9E50070DBD00010C809B
:100CF500F2E4FCFDC3ED9FEC9E50070DBD00010C19
:020D050080F27A
:010D070022C9
:100D4600000000000000000000000000000000EFAE
:090D56001F70011E144E70E8220A
:070DE600C294C297D29422CF
:100D0800120DE67F887E13120CE5120D2812087367
:100D18007BFE7A00790078477408F27F3E020BD197
:100C6B00E4FEC297FDEF30E704D2958002C295EF08
:100C7B0025E0FFD2970000EE25E0FE3096010EC274
:0A0C8B009700000DEDB408DDAF0680
:010C9500223C
:100DCC00C2942096FD7F30120C6B2096FDD294229B
:100D2800D2947F017E00120D46C2947F017E00128C
:0E0D38000D46D2947F297E00120D46020DCC8E
:040D8E00E2FD7F0CF7
:100D9200AC05C2942096FD120C6BAF04120C6BD200
:020DA200942299
:0A0BD1007844EBF208EAF208E9F2BA
:100BDB00EF4440FFC2942096FD120C6BE4FC784767
:100BEB00E2FFECC39F50197844E2FB08E2FA08E2FB
:100BFB00F98C827583001206ABFF120C6B0C80DE36
:020C0B00D29481
:010C0D0022C4
:0B001600C2942096FD120C6BD29422C5
:100DA400EF4480FFC2942096FD120C6BE4FF120CFA
:030DB4006BD2946B
:010DB7002219
:0A0B9200784DEBF208EAF208E9F2F0
:100B9C00EF44C0FFC2942096FD120C6BE4FC78501D
:100BAC00E2FFECC39F501BE4FF120C6B784DE2FB91
:100BBC0008E2FA08E2F98C82758300EF1206EA0C5F
:040BCC0080DCD29463
:010BD0002202
:100DB800EF44C0FFC2942096FD120C6BE4FF120CA6
:030DC8006BD29457
:010DCB002205
:100873007808120D8E08E2FD7F0B120D9208120DFF
:100883008E08E2FD7F0D120D9208E2FD7F0E120D20
:100893009208E2FD7F0F120D9208E2FD7F10120D08
:1008A3009208E2FD7F11120D9208E2FD7F12120DF4
:1008B3009208E2FD7F13120D9208E2FD7F14120DE0
:1008C3009208E2FD7F0A120D9208E2FD7F15120DD8
:1008D3009208E2FD7F21120D9208E2FD7F22120DA4
:1008E3009208E2FD7F18120D9208E2FD7F19120DA6
:1008F3009208E2FD7F1A120D9208E2FD7F1B120D92
:100903009208E2FD7F1C120D9208E2FD7F1D120D7D
:100913009208E2FD7F23120D9208E2FD7F24120D5F
:100923009208E2FD7F25120D9208E2FD7F26120D4B
:100933009208E2FD7F29120D9208E2FD7F2C120D31
:100943009208E2FD7F2D120D9208E2FD7F2E120D1B
:100953009208E2FDE4FF120D9208E2FD7F02120D00
:100963009208E2FD7F07120D9208E2FD7F08120D47
:100973009208E2FD7F09120D9208E2FD7F06020D47
:0109830092E1
:100CC0007842EDF27F3F120D92E27847F27F3F12B9
:100CD0000BD120B5FD7F3512001630B3FD20B3FDDA
:050CE0007F3B0200163D
:0A0984007842EBF208EAF208E9F20B
:10098E0008E2FB08E2FA08E2F912069225E025E0F9
:10099E00784BF27F3B120DB8EF547F60787F3F1299
:1009AE000DA418EFF27845E2FB08E2FA08E2F9121C
:1009BE000692FEEFD39E50437842E2FB08E2FA081D
:1009CE00E2F9784AE27850F27F3F120B92784AE2CF
:1009DE00FF7845E2FB08E2FA08E2F9EF1206D87B4F
:1009EE00FE7A00794878507402F27F3F120B927FA4
:1009FE003A1200167849E25480FF22784AE2FF78D4
:100A0E0045E2FB08E2FA08E2F9EF1206D87F3A1245
:070A1E0000167F00227F009B
:010A250022AE
:030B6600812EFFDE
:03001300020D7764
:100D7700C0E0C0D075D000C000C2AA782F7401F2BD
:070D8700D000D0D0D0E03213
:10041200C290C29175E13F120D08D290783C120849
:100422005A000000009000B27401F07508177509B7
:10043200717F807E257D007C00120C967FAA120DB2
:10044200DC120C0ED2AFE4782FF2D2ACD2AAD28A4E
:100452007F34120016E49000B7F0783AF2C299C2E3
:1004620098D2ACD2AF783CE2FC08E2FD08E2FE088A
:10047200E22401FFE43EFEE43DFDE43CFC783C1254
:10048200084E75E13FD3E50994E0E508942E402338
:10049200E47841F27841E2FFC39408501174D02FFE
:1004A200F582E43400F583E4F0E204F280E6E4F558
:1004B20008F509782FE2640160030205D5C290783D
:1004C200407418F2E408F27841E2FFC39408501134
:1004D20074B82FF582E43400F583E4F0E204F2808C
:1004E200E6784574FEF2087400F2087440F27B016B
:1004F2007A0079B8120984EF70030205C575E13FED
:100502009000BFE0645560030205C5782EE2FFF457
:10051200600C9000B8E0FEEF6E60030205C5E4785F
:1005220041F27841E2FFC394085022E2FE24B8F57A
:1005320082E43400F583E0FD74D02EF582E43400C9
:10054200F583E0B505077841E204F280D5EFC39464
:10055200085070E4F508F5097B017A0079B8120AAF
:10056200B2E47841F27841E2FF24B8F582E4340043
:10057200F583E0FE74D02FF582E43400F583EEF0CB
:10058200E204F2E2B408DE9000B9E064FA702F905F
:1005920000BBE0B406289000BF74AAF0E47841F2F0
:1005A20075E13F7F361200167B017A0079B87D082B
:1005B200120CC07841E204F2E2C3940340E27F34B9
:1005C200120016E4782FF275E13F7F34120016D242
:1005D20090D2AA7FC07ED47D017C00783CE2FB08E9
:1005E200E2F908E2FA08E2CBF8D312083D400978B2
:1005F2003C12085A00000000300A02C20A20080316
:1006020002068DC290C208C2AFE47841F27841E29C
:10061200FF245BF582E43400F583E0FE74B02FF52D
:1006220082E43400F583EEF0E204F2E2B407DED2B3
:10063200AF9000B3E0FF645A6005EF642F7047EF9C
:10064200B42F0D9000B4E0541F9000B3F0E4A3F077
:100652009000B3E0B406079000B0E0782EF290006C
:10066200B774AAF0E47841F275E13F7F36120016C2
:100672007B017A0079B07D08120CC07841E204F265
:10068200E2C3940340E27F34120016D29002046760
:100B6900020800000120000121004100AA00410003
:100B790062004100AC0041005300410051004100B6
:080B8900AE0041005200C11052
:100C0E00C2B7D2B243B28053B17F5389F043890148
:100C1E00758A27758CFFC28DD2A9D28C9000AF74C5
:0F0C2E00F0F0C289D28830B203D2A822D20722B6
:03000300020D5F8C
:100D5F00C0E0C083C082C2A8D200C2029000AAE441
:080D6F00F0D082D083D0E03205
:03000B00020026CA
:10002600C0E0C0F0C083C082C0D075D000C000C0A0
:1000360002C003C004C005C006C007C28C758CFF91
:10004600758A27D28CA2B2920D0509E509700205C0
:10005600083000369000AAE02410F0E054F0645016
:10006600600302015BC200F0300D1A20060A30055B
:10007600075320C3D206C2B79000AF74F0F09000C9
:10008600ACE4020127D20102015B20010302015BFD
:100096009000AAE02410F0E0FF54F064A060030290
:1000A600015BEF540FF0E004F0E0540FFB640A60CC
:1000B60003020144C201300D6F9000ACE0FE54F023
:1000C60024FF300901B3400E900053E4F0EE540FC4
:1000D6009000ACF0804690005374E6F09000ADE0DE
:1000E600FF9000ACE0C4540F245BF582E43400F5C5
:1000F60083EFF09000ACE02410F0E0FF54F0C394DE
:10010600704019EF540FF0300503300302D2089007
:100116000053E4F0900051740AF0D20B9000AF74D3
:10012600F0F0C289D2A8802DD20720060A30050732
:100136005320C3D206C2B79000ACE4F08017BB09C7
:1001460006A20D9209800E9000ADE0C313F0300DAB
:1001560004E04480F0E520540C640C703E300D241D
:10016600D2B7C20C900062F05320F39000ACE0547A
:100176000F2454F582E43400F583E09000ABF0D20E
:10018600040202725320C3D2069000ACE054F0F091
:10019600C2B79000AF74F0F00202722004030202AC
:1001A60072900062E02410F0E054F0FD6450702676
:1001B600A20C300D01B34005D2100202725320C3C7
:1001C6009000ACE054F0F0D206C2B79000AF74F0E5
:1001D600F0C210020272201003020272ED64A060E7
:1001E60003020272C210900062E0540FF0E004F0C5
:1001F600E0540FFFBF09129000ACE0540F24FFB388
:10020600920CA20CB392B78063BF0A06D20CC2B797
:10021600805A900062E0540F640B7037C20490005D
:10022600ACE004F0E0FF540FC394074018EF54F01D
:10023600F05320C39000AF74F0F043210C900051AE
:10024600740AF080089000AF740AF0D203C289D213
:10025600A880199000ABE0FF30E006D20CC2B78050
:1002660004C20CD2B7EFC3139000ABF0E5205403E1
:1002760070209000AFE0600614F07002D2023007E2
:1002860011C202300D0CC207C289D2A89000AF7409
:10029600F0F0900053E0600B14F070079000ACE0B3
:1002A600540FF0900051E0600614F07002C20BE5A6
:1002B60020542360030203F9300605C2060203EB4D
:1002C600A20B720A50030203F9900052E02447FF82
:1002D600E433FE9000AEE0FB7A00C3EF9BFFEE9A9C
:1002E600FE7C007D4712070CEDC394075003020302
:1002F600F0E02463F582E43400F583E0900054F0E6
:10030600EB2401FFEA33FE7C007D4712070C9000C8
:10031600AEEDF0E0FF2463F582E43400F583E0906F
:100326000055F0EF2401FFE433FE7C007D47120701
:100336000C9000AEEDF0E0FF2463F582E43400F5A6
:1003460083E0900056F0EF2401FFE433FE7C007D4D
:100356004712070C9000AEEDF0E0FF2463F582E44F
:100366003400F583E0900057F0EF2401FFE433FEFC
:100376007C007D4712070C9000AEEDF0E0FF246391
:10038600F582E43400F583E0900058F0EF2401FF95
:10039600E433FE7C007D4712070C9000AEEDF0E0E2
:1003A600FF2463F582E43400F583E0900059F0EF12
:1003B6002401FFE433FE7C007D4712070C9000AE5B
:1003C600EDF0E0FF2463F582E43400F583E090006D
:1003D6005AF0EF2401FFE433FE7C007D4712070C40
:1003E6009000AEEDF04320288009900052E4F09092
:1003F60000AEF0D007D006D005D004D003D002D08E
:0C04060000D0D0D082D083D0F0D0E03203
:0A0AB2007842EBF208EAF208E9F2DC
:100ABC00087407F2C2AF900052E02447FFE433FE03
:100ACC009000AEE0FDC3EF9DFFEE9400FE7C007D38
:100ADC004712070CEDC394464005D2AF7F00227835
:100AEC0045E2FF14F2EF603A7842E2FB0808E2F9C3
:100AFC002401F218E2FA3400F2120692FF9000522E
:100B0C00E0FE2463F582E43400F583EFF0EE24017B
:100B1C00FFE433FE7C007D4712070C900052EDF091
:060B2C0080BDD2AF7F0185
:010B320022A0
:100C9600AB07AA06A905A8047F7C7E087D017C0017
:100CA60012079D12082F8F8B8F8DE4F5877589218A
:0A0CB600759850C299C298D28E22A0
:03002300020C3D8F
:100C3D00C0E0C0D075D000C000309819C298783A85
:100C4D00E22430F8E599F2783AE204F2E2D394091D
:0E0C5D0040037409F2C299D000D0D0D0E0322A
:0A0DDC00C2998F993099FDC2992247
:03000000020A26CB
:0C0A2600787FE4F6D8FD758122020A6D8D
:10069200BB010689828A83E0225002E722BBFE0266
:0906A200E32289828A83E4932299
:1006AB00BB010CE58229F582E5833AF583E0225004
:1006BB0006E92582F8E622BBFE06E92582F8E2224E
:0D06CB00E58229F582E5833AF583E4932268
:1006D800BB010689828A83F0225002F722BBFE0101
:0206E800F322FB
:1006EA00F8BB010DE58229F582E5833AF583E8F046
:1006FA00225006E92582C8F622BBFE05E92582C8F2
:02070A00F222D9
:10070C00BC000BBE0029EF8DF084FFADF022E4CCD1
:10071C00F875F008EF2FFFEE33FEEC33FCEE9DEC9A
:10072C00984005FCEE9DFE0FD5F0E9E4CEFD22EDE0
:10073C00F8F5F0EE8420D21CFEADF075F008EF2F2A
:10074C00FFED33FD4007985006D5F0F222C398FD1B
:05075C000FD5F0EA22B8
:1007610075F008758200EF2FFFEE33FECD33CDCC4F
:1007710033CCC58233C5829BED9AEC99E5829840D2
:100781000CF582EE9BFEED9AFDEC99FC0FD5F0D6AF
:10079100E4CEFBE4CDFAE4CCF9A88222B800C1B9D9
:1007A1000059BA002DEC8BF084CFCECDFCE5F0CB17
:1007B100F97818EF2FFFEE33FEED33FDEC33FCEB50
:1007C10033FB10D703994004EB99FB0FD8E5E4F90B
:1007D100FA227818EF2FFFEE33FEED33FDEC33FCF8
:1007E100C933C910D7059BE99A4007EC9BFCE99AEC
:1007F100F90FD8E0E4C9FAE4CCFB2275F010EF2F31
:10080100FFEE33FEED33FDCC33CCC833C810D70730
:100811009BEC9AE899400AED9BFDEC9AFCE899F86B
:0E0821000FD5F0DAE4CDFBE4CCFAE4C8F922FE
:0E082F00C3E49FFFE49EFEE49DFDE49CFC22DA
:10083D00EB9FF5F0EA9E42F0E99D42F0E89C45F011
:01084D002288
:0C084E00ECF208EDF208EEF208EFF222E6
:10085A00D083D082E493F208740193F2087402936D
:09086A00F208740393F2740473A4
:100A3200020412E493A3F8E493A34003F68001F2C4
:100A420008DFF48029E493A3F85407240CC8C333C5
:100A5200C4540F4420C8834004F456800146F6DF94
:100A6200E4800B0102040810204080900B33E47EE6
:100A7200019360BCA3FF543F30E509541FFEE49389
:100A8200A360010ECF54C025E060A840B8E493A350
:100A9200FAE493A3F8E493A3C8C582C8CAC583CA7B
:100AA200F0A3C8C582C8CAC583CADFE9DEE780BE33
:010B91000063
:00000001FF
