:0621820075E7828FE522E3
:08217A00E4F5E7F5E5F5E622C6
:10212400AB07AA068DE28AE38BE475E64675E6B949
:012134002288
:10213500AD07AC068CE38DE475E64675E6B9AFE20E
:012145002277
:0F214600AD07AC068CE38DE475E64675E6B9226D
:1015F6002B4350494E3A205245414459002B434F04
:1016060050533A20302C302C224348494E41204D2D
:101616004F42494C4522005E434F4E463A20310028
:101626005E434F4E4E3A20312C30005E43454E44C9
:101636003A20312C302C2036372C2032310D0A0D31
:101646000A4E4F2043415252494552005E43454E91
:10165600443A20312C302C2036372C2031370D0AD5
:101666000D0A42555359005E43454E443A20312CEB
:10167600302C2036372C2032310D0A0D0A425553B4
:1016860059004E4F2043415252494552005E434550
:101696004E443A312C302C3438004F4B002B434FFC
:0916A60050533A20302C302C0086
:101D3D00021D78004C00450000000000000000006E
:101D4D00000000410044004100B500C129C12841F7
:071D5D0000420041004300B9
:0D215500EFD3940040077E02DEFE1F80F3F2
:01216200225A
:041E26007F147E00A7
:101E2A00EF4E602690010B7403F0A37484F09001C6
:101E3A000CE024FFF090010BE034FFF0E07002A305
:0A1E4A00E070EBEF1F70D91E80D688
:011E5400226B
:101EF30075985053890F438920758BF6858B8D43D5
:101F03008780438E40C28FD28EC298C299D29CD210
:021F1300AC22FE
:101F150075985053890F438920758BF6858B8D53A2
:101F2500877F438E40C28FD28EC298C299D29CD2EF
:021F3500AC22DC
:030023000219B00F
:1019B000C0E0C0F0C083C082C0D075D000C000C0FD
:0D19C00001C002C003C004C005C006C0077E
:1019CD0030984BC298AF99900044E0600C9000B5F0
:1019DD00E07006900044F0803A9000B57404F090E9
:1019ED000044E0FE04F074512EF582E43400F583DA
:1019FD00EFF0900044E0C394644013E4F09000B520
:101A0D00F0FE7F64FD7B017A007951120EF330995F
:031A1D0002C29969
:101A2000D007D006D005D004D003D002D001D0001A
:0B1A3000D0D0D082D083D0F0D0E032C4
:0C002600C2AC8F993099FDC299D2AC2277
:101F3700C2ACE4FFEFC39D5014120E1CF599309903
:0F1F4700FDC299740129F9E43AFA0F80E7D2AC90
:011F56002268
:101FE400C2AC120E1C6010F5993099FDC2997401AF
:0A1FF40029F9E43AFA80EBD2AC229E
:101FAE0043B10853B2F7439108439208D293D292A9
:0B1FBE0053913F4392C0C296C297228D
:08145E00AD077BFF7A1679A0AF
:081466008B0B8A0C890D8D0E21
:10146E00C2ACE4F50F900044E0FFE50FC39F4003CC
:10147E00021526AB0BAA0CA90D120E1CFF745125DA
:10148E000FF582E43400F583E06F6003021521E569
:10149E000EB401028071E50F250EFFE433FE9000BD
:1014AE0044E0FDD3EF9D7480F86E984003E4806CA9
:1014BE00751101E50F04F510E50E250FFFE433FE5F
:1014CE00C3E5109FEE6480F87480985025AB0BAA8C
:1014DE000CA90D851182758300120E35FF745125EE
:1014EE0010F582E43400F583E0B50706051105100A
:1014FE0080C6E50E250FFFE433FEC3E5109FEE64B4
:10150E0080F8748098400CE4900044F0D2ACE50F63
:10151E0004FF22050F021473E4900044F0D2ACFFD6
:01152E00229A
:04152F00AD077BFF8A
:081533008B088A09890A8D0B5F
:10153B00C2ACE4F50C900044E0FFE50CC39F400304
:10154B000215F3AB08AA09A90A120E1CFF74512548
:10155B000CF582E43400F583E06F60030215EEE5D1
:10156B000BB401028071E50C250BFFE433FE9000F8
:10157B0044E0FDD3EF9D7480F86E9840037F00220A
:10158B00750E01E50C04F50DE50B250CFFE433FEA0
:10159B00C3E50D9FEE6480F87480985025AB08AAC4
:1015AB0009A90A850E82758300120E35FF74512529
:1015BB000DF582E43400F583E0B50706050E050D45
:1015CB0080C6E50B250CFFE433FEC3E50D9FEE64EF
:1015DB0080F8748098400CE4900044F0D2ACE50C99
:0A15EB0004FF22050C0215407F00EA
:0115F50022D3
:10137A00C2AC7BFF7A1579F612000E7A1579F6124D
:10138A00152FEF60037F07227BFF7A1679037D18FA
:10139A00121533EF60037F06227BFF7A16791D123E
:1013AA00000E7A16791D12152FEF60037F05227B36
:1013BA00FF7A16792612000EAD077BFF7A16792678
:1013CA00121533EF60037F04227BFF7A16793112FC
:1013DA00000EAD077BFF7A167931121533EF6003E1
:1013EA007F08227BFF7A16796D12000EAD077BFF0C
:1013FA007A167952121533EF60037F09227BFF7A3E
:10140A0016798812000EAD077BFF7A1679881215B5
:10141A0033EF60037F03227BFF7A16799312000E63
:10142A00AD077BFF7A167993121533EF60037F02BB
:10143A00227BFF7A1679A012000EAD077BFF7A167F
:10144A0079A0121533EF60037F0122E4900044F083
:04145A00D2ACFF22EF
:03003300021BBFEE
:101BBF00C0E0C083C082C0D030D827C2D875E13A08
:101BCF00E4251EF51E7478351DF51D851EEAE51DED
:101BDF00F5FAD2289000B5E0601B14F07017D229E7
:101BEF00801330D904C2D9800C30DA04C2DA8005F0
:0E1BFF0030DB02C2DBD0D0D082D083D0E03207
:100A8300E4F5D9F5D8F5E9F5F9851EEAE51DF5FA9A
:100A930075DA49D2AED2DE121FAE121FFE121EF35A
:100AA300121D8012118A900021E0900005F0900041
:100AB30022E0900006F0900023E0900007F0A3747A
:100AC30003F0900021E0900009F0A374FEF0E4A38A
:100AD300F07B017A0079051218B89000407432F067
:100AE300A3F0E4F520F522F522C2B4C200D2AF127E
:100AF30020D8750800750964202910121E26E509FF
:100B030015097002150814450870ED302912C22921
:100B13007BFF7A1679A07D02121466EF700B8000BA
:100B23007FE87E03121E2A80C6C28E121F158031F3
:100B3300122053750800750964202910121E26E53A
:100B43000915097002150814450870ED302912C201
:100B5300297BFF7A1679A07D02121466EF700B8051
:100B6300007FE87E03121E2A80C6122066750800E5
:100B7300750964202910121E26E50915097002154E
:100B83000814450870ED302912C2297BFF7A1679C3
:100B9300A07D02121466EF700B80007FE87E0312C3
:100BA3001E2A80C612208C7508007509FA202910A8
:100BB300121E26E50915097002150814450870ED83
:100BC30030291BC2297BFF7A1579F612000EAD0777
:100BD3007BFF7A1579F6121466EF700B80007FE8BD
:100BE3007E03121E2A80BDE4FF121EAA750800753B
:100BF30009FA202910121E26E509150970021508A5
:100C030014450870ED302913C2297BFF7A1679A0A9
:100C130012000E12145EEF700B80007FE87E031249
:100C23001E2A80C37F01121F577508007509FA2019
:100C33002910121E26E50915097002150814450826
:100C430070ED302913C2297BFF7A1679A012000EAA
:100C530012145EEF700B80007FE87E03121E2A8061
:100C6300C37F01121F747508007509FA2029101239
:100C73001E26E50915097002150814450870ED30A4
:100C83002913C2297BFF7A1679A012000E12145E73
:100C9300EF700B80007FE87E03121E2A80C3E4FFFF
:100CA300121F917508007509FA202910121E26E5F6
:100CB3000915097002150814450870ED302915C28D
:100CC300297BFF7A1679A012000E12145EEF6004DE
:100CD300C2B580097FE87E03121E2A80C11220B2AA
:100CE3007508007509FA202910121E26E509150951
:100CF3007002150814450870ED30291CC2297BFFCA
:100D03007A1679A312000EAD077BFF7A1679A31228
:100D13001466EF6003C2B522D2B57FE87E03121ECC
:030D23002A80BA69
:10105700120A837FAA120026302005C2201200360A
:10106700302205C222120F1F20290302117CC22938
:1010770012137A900043EFF0900021E0900005F002
:10108700900022E0900006F0900023E0900007F027
:10109700900021E0900009F0900022E090000AF013
:1010A700900023E090000BF0EF640470539000432E
:1010B700F07FBB120026D21520010302117C90009D
:1010C7000CE0900009F090000DE090000AF090000D
:1010D7000EE090000BF090000FE0541FFFBF0809CF
:1010E7009000087412F002117390000DE090000850
:1010F700B4FA057410F08074EFF0E02406F0806C09
:10110700900043E06403706DF0D2B5C215A2167269
:101117001772145008FD7F051220488058300209C5
:10112700E4FD7F0512216F804C300149C201900018
:101137000CE0900009F090000DE090000AF090009C
:101147000EE090000BF090000FE0541FFFBF08085F
:101157009000087412F08014BF06089000087410FD
:10116700F08009BF07069000087411F07B017A0030
:1011770079051218B820280302105FC22812128EB0
:0311870002105FF4
:102300005A01FC01FFFFFF100A000000000000005E
:0A231000000000000F00010E4080E5
:101D6400012100012400012A00012900012C0001A5
:0B1D74002800012600012E00012700BE
:101D800053B1FB53B2FB53B17F43B280C2B7D2B25F
:101D90005389F0438901758A67758CFFC28D538E14
:101DA0007FD2A9D28C752FF0E4F521F524C289D217
:0A1DB0008830B203D2A822D20F221D
:0300030002202BAD
:10202B00C2AFC2A8D208C20A752A00300B03752FA3
:04203B00F0D2AF32FE
:03000B0002073DAC
:10073D00C2AFC0E0C0F0C083C082C0D075D000C0D1
:10074D0000C002C003C004C005C006C007C28C753E
:10075D008CFF758A67D28CA2B29225300830741046
:10076D00252AF52A54F06450600302083DC208F5AD
:10077D002A302515200E0A300D075321C3D20EC283
:10078D00B7752FF0752C008078D20902083D20092D
:10079D000302083D7410252AF52A54F064A0600365
:1007AD0002083D532A0F052AE52A540FFF640A70EB
:1007BD006AC209302551E52C54F024FF302101B3D4
:1007CD004008752800532C0F80347528E6E52CC49D
:1007DD00540F24BDF582E43400F583E52DF074103B
:1007ED00252CF52C54F0C394704013532C0F300D61
:1007FD0003300B02D22075280075260AD223752FDF
:10080D00F0C289D2A88029D20F200E0A300D0753CD
:10081D0021C3D20EC2B7752C008015BF0906A225C3
:10082D009221800CE52DC313F52D302503432D802A
:10083D00E521540C640C702C30251ED2B7C224F562
:10084D00295321F3E52C540F24B6F582E43400F539
:10085D0083E0F52BD20C0209065321C3D20E532C83
:10086D00F0020901200C03020906A224302501B370
:10087D00407A74102529F52954F064A0707B532912
:10088D000F0529E529540FFFBF0910E52C540F243E
:10089D00FFB39224A224B392B7805EBF0A06D2247E
:1008AD00C2B78055E529540F640B7029C20C052C75
:1008BD00E52C540FC394074011532CF05321C375ED
:1008CD002FF043240C75260A8005752F0AD20BC212
:1008DD0089D2A88024E52B30E006D224C2B780044B
:1008ED00C224D2B7E52BC313F52B800D5321C3536F
:1008FD002CF0D20EC2B7752FF0E5215403701AE516
:10090D002F6005D52F02D20A300F0EC20A302509ED
:10091D00C20FC289D2A8752FF0E5286006D528032D
:10092D00532C0FE5266005D52602C223E52154235D
:10093D006003020A68300E05C20E020A5DA2237220
:10094D00225003020A68E5272447FFE433FEE52E13
:10095D00FB7A00C3EF9BFFEE9AFE7C007D47120EE3
:10096D0062EDC394075003020A6274C4252EF5820A
:10097D00E43400F583E09000B6F0EB2401FFEA3398
:10098D00FE7C007D47120E628D2E74C4252EF582DD
:10099D00E43400F583E09000B7F0E52E2401FFE488
:1009AD0033FE7C007D47120E628D2E74C4252EF50C
:1009BD0082E43400F583E09000B8F0E52E2401FFC9
:1009CD00E433FE7C007D47120E628D2E74C4252EFD
:1009DD00F582E43400F583E09000B9F0E52E2401B2
:1009ED00FFE433FE7C007D47120E628D2E74C4250C
:1009FD002EF582E43400F583E09000BAF0E52E2464
:100A0D0001FFE433FE7C007D47120E628D2E74C40F
:100A1D00252EF582E43400F583E09000BBF0E52E41
:100A2D002401FFE433FE7C007D47120E628D2E748F
:100A3D00C4252EF582E43400F583E09000BCF0E58A
:100A4D002E2401FFE433FE7C007D47120E628D2EB5
:100A5D004321288006752700752E00D007D006D0BB
:100A6D0005D004D003D002D000D0D0D082D083D016
:060A7D00F0D0E0D2AF3220
:10201500EFC4540F90010BF075F00AA4F053070FAD
:05202500E02FF0E0FFD8
:01202A002293
:10189800A3F0900017E0900009F0900018E0900085
:1018A8000AF0900019E090000BF07B017A007905AE
:0618B8008B0A8A0B890C6B
:1018BE00750D07C2AFE5272447FFE433FEC3EF954E
:1018CE002EFFEE9400FE7C007D47120E62EDC39457
:1018DE00464005D2AF7F0022AF0D150DEF6032AB43
:1018EE000A050CE50CAA0B7002050B14F9120E1C5E
:1018FE00FF74C42527F582E43400F583EFF0E52765
:10190E002401FFE433FE7C007D47120E628D27809A
:05191E00C7D2AF7F01FC
:0119230022A1
:0D1CF500E07F32FD1220487B017A00790566
:101D0200900004120E35FFF46009900021E06F602C
:101D120002C322900005120E35FFF46009900022E2
:101D2200E06F6002C322900006120E35FFF46009D4
:0B1D3200900023E06F6002C322D32268
:101E5500120E1CFF900021E06F6002C3229000016A
:101E6500120E35FF900022E06F6002C3229000023F
:0F1E7500120E35FF900023E06F6002C322D322CC
:101C0D00120E1CFF900005E0B5071C900001120E8E
:101C1D0035FE900006E0B5060E900002120E35FE60
:101C2D00900007E06E6023900009E06F701E900039
:101C3D0001120E35FF90000AE0B507109000021258
:0E1C4D000E35FF90000BE0B50702D322C32234
:101DF400900004120E35FF900021E06F6002C322B0
:101E0400900005120E35FF900022E06F6002C3229D
:101E1400900006120E35FF900023E06F6002C3228B
:021E2400D322C7
:101E8400120E1C90000CF0900001120E3590000D03
:101E9400F0900002120E3590000EF0900004120E25
:061EA4003590000FF02252
:101FC900300205C297D29622301405C296D29722C2
:0B1FD900201607200104C297C29622C8
:03000600121FC9FD
:0100090022D4
:101ECF00C201C219C21AC21BC21CC211C212C21352
:101EDF00C214C216C217C207121FC9121CFC50032C
:041EEF00121A3B2266
:101B6800E4900000F0A3F09000037400F0A3742048
:101B7800F0900002741AF07F03122182E4FFFE1233
:101B880021467F02122182900002E0FF14F0EF60EC
:101B980023900000E475F001120EB7AFF0FE90003C
:101BA80003E475F001120EB785F082F583E0FD12AB
:071BB800212480D302217AF1
:101B0F009000007402F0A3E4F09000037400F0A3BF
:101B1F007445F0900002740BF07F03122182E4FFF2
:101B2F00FE1221467F02122182900002E0FF14F084
:101B3F00EF6023900000E475F001120EB7AFF0FED6
:101B4F00900003E475F001120EB785F082F583E083
:091B5F00FD12212480D302217A39
:101CA900E4900000F0A3F09000037400F0A3742006
:101CB900F0900002741AF07F01122182900002E074
:101CC900FF14F0EF6023900000E475F001120EB7E5
:101CD900AFF0FE122135900003E475F001120EB742
:0C1CE90085F082F583EFF080D302217AB1
:101C5B009000007402F0A3E4F09000037400F0A372
:101C6B007445F0900002740BF07F011221829000FA
:101C7B0002E0FF14F0EF6023900000E475F0011216
:101C8B000EB7AFF0FE122135900003E475F0011290
:0E1C9B000EB785F082F583EFF080D302217A38
:10118A007F01122182E4FFFE122135902300E493AD
:10119A00B50703021CA9902300E493900020F09065
:1011AA002301E493900021F0902302E4939000221B
:1011BA00F0902303E493900023F0902304E49390A7
:1011CA000024F0902305E493900025F0902306E490
:1011DA0093900026F0902307E493900027F0902341
:1011EA0008E493900028F0902309E493900029F0F2
:1011FA0090230AE49390002AF090230BE493900042
:10120A002BF090230CE49390002CF090230DE493A0
:10121A0090002DF090230EE49390002EF090230F6F
:10122A00E49390002FF0902310E493900030F09014
:10123A002311E493900031F0902312E4939000324A
:10124A00F0902313E493900033F0902314E49390E6
:10125A000034F0902315E493900035F0902316E4BF
:10126A0093900036F0902317E493900037F0902380
:10127A0018E493900038F0902319E493900039F021
:04128A00121B6822A9
:101DBA00120E1C900013F0900001120E35900014C0
:101DCA00F0900002120E35900015F0900004120EE9
:101DDA0035900017F0900005120E35900018F0901B
:0A1DEA000006120E35900019F022D9
:09203F00C216C217C207E4FDFF3E
:0B20480090001AEFF0A3F0A3EDF022CF
:0B216F0090001DEFF0A3F0A3EDF022A4
:10003600C2AF78057C007D017B017A0079BD7E0028
:100046007F07120DF6C220D2AF7B017A0079057DBB
:1000560007121F37900008E0120ECD00C50400DE1F
:100066000500EC0B01720C01720D01720E01720F8C
:1000760001901001901101901201901301291401B1
:10008600291501091601E518029D19012920020505
:100096002A02372B025C2C01882E013B2F03BD332D
:1000A600065834039435033236035B3701E893026E
:1000B600F6A80314A90305AA0323AB0000073C20F6
:1000C600000302073C7B017A007905121DF4400308
:1000D60002073CC2B4C2002230070302073CD20723
:1000E600E4FD7FFA804CD207900037121CF54003DE
:1000F60002073CC217D216200203201523E4FD7F17
:1001060005802FD207900038121CF5400302073CE9
:10011600C216D214200203201506E4FD7F058012C4
:1001260002023130070302073CD207900039E0FD96
:100136007F3202204830070302073C3002030207E1
:100146003C900009E0541F24F9600B24FE6007244C
:1001560003600302073C1216AF7B017A0079051291
:100166001E84D2011200067FAA020026300703026F
:10017600073CD207E47FFA121CF820010302073C71
:10018600805620010302073C804E121CFC400302ED
:10019600073C20010302073C90000CE0FF90000999
:1001A600E06F600302073C90000DE0FF90000AE05C
:1001B6006F600302073C90000EE0FF90000BE06FBB
:1001C600600302073C90000FE0541FFF900008E018
:1001D60024F66F600302073CC201121A3B804C02F0
:1001E6001ECFC201C219C21AC21BC21CC211C21240
:1001F600C213C202C21412203F12216F021FC9C2CB
:1002060011C212C21312203F20140302073CA2148B
:100216009202C214900038E0FD7F3212216F300244
:100226000A201507E4FD7F0502216F121FC902008F
:1002360009C202E4FDFF12216F1200067B017A005B
:100246007921121C0D400C7A007917121C0D4003FF
:1002560002073C021A3B121CFC400302073C121D1B
:10026600F45025900021E0900005F0900022E090E7
:100276000006F0900023E0900007F0A3E0A3F090C2
:1002860000087402F0020739C2AFE4F5DAC2A9C267
:100296008CC2A875E72022900005E0547FFF12204B
:1002A6001590003FEFF0900006E0547FFF122015F6
:1002B60090003EEFF0900007E0543FFF12201590AB
:1002C600003DEFF0900009E0543FFF12201590002A
:1002D6003CEFF090000AE0541FFF12201590003BFF
:1002E600EFF090000BE0FF12201590003AEFF0229D
:1002F6009000087402F0A374A81218B1D297229045
:1003060000087402F0A374AA1218B1C297229000D2
:10031600087402F0A374A91218B1D29622900008AC
:100326007402F0A374AB1218B1C29622900021E0B9
:10033600900005F0900022E0900006F0900023E087
:10034600900007F0900036E0900009F07B017A00FB
:100356007905020739900009E0900036F0900021F7
:10036600E0900005F0900022E0900006F090002357
:10037600E0900007F0A37402F0A37437F090003603
:10038600E090000AF07B017A0079050207399000B7
:1003960021E0900005F0900022E0900006F0900029
:1003A60023E0900007F0A37402F0A37435F07B01FC
:1003B6007A007905020739E4F50874292508F582DB
:1003C600E43400F583E0640F60070508E508B40C23
:1003D600E9E508C3940C400302073CE508B40C00A9
:1003E600400302064F9003F2F828287302073C02E6
:1003F6000416020427020438020458020478020490
:10040600A70204DA0205180205580205A50205F638
:10041600900029E0FFC454F0240F900005F0020676
:100426004F900029E0C454F0FFA3E02F900005028E
:100436000553900029E0C454F0FFA3E02F90000577
:10044600F090002BE0FFC454F0240F900006F00259
:10045600064F900029E0C454F0FFA3E02F9000055A
:10046600F090002BE0C454F0FFA3E02F90000602AA
:100476000553900029E0C454F0FFA3E02F90000537
:10048600F090002BE0C454F0FFA3E02F900006F09C
:1004960090002DE0FFC454F0240F900007F00206F0
:1004A6004F900029E0C454F0FFA3E02F900005F020
:1004B60090002BE0C454F0FFA3E02F900006F090CC
:1004C600002DE0C454F0FFA3E02F900007F0900049
:1004D600090205F1900029E0C454F0FFA3E02F9033
:1004E6000005F090002BE0C454F0FFA3E02F90002D
:1004F60006F090002DE0C454F0FFA3E02F90000713
:10050600F090002FE0FFC454F0240F900009F00291
:10051600064F900029E0C454F0FFA3E02F90000599
:10052600F090002BE0C454F0FFA3E02F900006F0FB
:1005360090002DE0C454F0FFA3E02F900007F09048
:10054600002FE0C454F0FFA3E02F900009F0A302AF
:1005560005F1900029E0C454F0FFA3E02F900005B8
:10056600F090002BE0C454F0FFA3E02F900006F0BB
:1005760090002DE0C454F0FFA3E02F900007F09008
:10058600002FE0C454F0FFA3E02F900009F0900084
:1005960031E0FFC454F0240F90000AF002064F9099
:1005A6000029E0C454F0FFA3E02F900005F090006E
:1005B6002BE0C454F0FFA3E02F900006F090002D2E
:1005C600E0C454F0FFA3E02F900007F090002FE066
:1005D600C454F0FFA3E02F900009F0900031E0C46E
:1005E60054F0FFA3E02F90000AF0A374F0F08059B6
:1005F600900029E0C454F0FFA3E02F900005F0908E
:10060600002BE0C454F0FFA3E02F900006F090000A
:100616002DE0C454F0FFA3E02F900007F090002FC8
:10062600E0C454F0FFA3E02F900009F0900031E001
:10063600C454F0FFA3E02F90000AF0900033E0FFCF
:10064600C454F0240F90000BF07B017A0079050268
:100656000739900005E0C4540F900045F09000055E
:10066600E0540F900046F0900006E0C4540F90004E
:1006760047F0900006E0540F900048F0900007E025
:10068600C4540F900049F0900007E0540F90004AC0
:10069600F0900009E0C4540F90004BF0900009E080
:1006A600540F90004CF090000AE0C4540F90004D97
:1006B600F090000AE0540F90004EF090000BE0C45A
:1006C600540F90004FF090000BE0540F900050F044
:1006D600E4F50874452508F582E43400F583E06402
:1006E6000F60070508E508B40CE9E508C3940C504B
:1006F60045900035E508F0E02401FFE433FE782953
:100706007C007D017B017A007945120DF69000216F
:10071600E0900005F0900022E0900006F0900023A3
:10072600E0900007F0A37402F0A37434F07B017A22
:060736000079051218B85D
:01073C00229A
:100F1F00C2AF78057C007D017B017A0079B67E0037
:100F2F007F07120DF6C222D2AF7B017A0079057DC1
:100F3F0007121F37900008E0FE24FE700302101501
:100F4F0024FD603824FA605924FB503024FC505F94
:100F5F0024FE605424FE700302101224ED7003026D
:100F6F000FFC24BA700302100A246E60030210569D
:100F7F00200003021056E4FD7F968022300108C244
:100F8F0001121FC9120009300703021056D217D2DF
:100F9F00077B017A007905121DBAE4FD7FFA022062
:100FAF004820070302105622200703021056222062
:100FBF00010302105690000CE0FF900009E06F60F3
:100FCF000302105690000DE0FF90000AE06F70775B
:100FDF0090000EE0FF90000BE06F706B90000FE041
:100FEF00541FFFEE24F66F705EC2018008C202E448
:100FFF00FDFF12216F121FC9020009D2B7121B6821
:10100F00C2B722021ECF900009E024CC60361460D4
:10101F001D24FE602F248D6012247E702AC2AFE43F
:10102F00F5DAC2A9C28CC2A875E720C297227E004A
:10103F007F0C7D007B017A007929120EF3E490007A
:08104F0035F08000121B68223D
:10128E0090001BE0700302132314F0E060030213BE
:10129E0023A3E0600990001CE014F0E070713000B0
:1012AE0034900021E0900005F0900022E0900006BE
:1012BE00F0900023E0900007F0A37403F090002458
:1012CE00E0900009F0900025E090000AF0900026D2
:1012DE001218AD8040A2167217721450229000217F
:1012EE00E0900005F0900022E0900006F0900023C0
:1012FE00E0900007F07418121898121A3B8016C26C
:10130E0011C212C213C207121FC912000980069021
:10131E00001AE0A3F090001EE0603D14F0E070387B
:10132E00A3E0600990001FE014F0E0702530022861
:10133E00900021E0900005F0900022E0900006F071
:10134E00900023E0900007F0742B121898121A3BAD
:10135E00800690001DE0A3F0200010900040E014E5
:0B136E00F07008A3E0900040F0B2B463
:011379002251
:10175D004154004154453000415445310041542B12
:10176D004350494E3F0041542B4353510041542B9C
:10177D00434F50533F004154490041542B4950525F
:10178D003D300041542B4950523D0041545E53575A
:10179D0053504154483F0041545E4543484F3F002C
:1017AD0041545E4543484F3D0041545E535753509D
:1017BD004154483D0041542B434C564C3D0041543F
:1017CD002B434D49433D004154440041542B434864
:1017DD005550005E4F5249473A20312C300D0A0DBD
:1017ED000A4F4B005E434F4E463A2031004F4B009F
:102053007BFF7A17795D121FE47F0D1200267F0A3A
:0320630002002652
:102066007BFF7A177960121FE47F0D1200267F0A24
:032076000200263F
:102079007BFF7A177965121FE47F0D1200267F0A0C
:032089000200262C
:10208C007BFF7A17796A121FE47F0D1200267F0AF4
:03209C0002002619
:10209F007BFF7A177973121FE47F0D1200267F0AD8
:0320AF0002002606
:1020B2007BFF7A17797A121FE47F0D1200267F0ABE
:0320C200020026F3
:1020C5007BFF7A177983121FE47F0D1200267F0AA2
:0320D500020026E0
:1020D8007BFF7A177987121FE47F0D1200267F0A8B
:0320E800020026CD
:0417FD00AB07AA0686
:101801007C277D10120E62EF2430F5187C277D10A5
:10181100AF03AE02120E62AA04AB057C037DE8AFF2
:1018210003AE02120E62EF2430F5197C037DE8AF9E
:1018310003AE02120E62AA04AB057C007D64AF0305
:10184100AE02120E62EF2430F51A7C007D64AF0304
:10185100AE02120E62AA04AB057C007D0AAF03AE94
:1018610002120E62EF2430F51B7C007D0AAF03AE3D
:1018710002120E62ED2430F51C7BFF7A177990126B
:101881001FE47B007A0079187D05121F377F0D1246
:0718910000267F0A02002679
:1020EB007BFF7A177998121FE47F0D1200267F0A67
:0320FB00020026BA
:1020FE007BFF7A1779A4121FE47F0D1200267F0A48
:03210E00020026A6
:101F57008F0A7BFF7A1779AD121FE4E50A2430FF59
:0D1F67001200267F0D1200267F0A020026C0
:101EAA008F0AE50AC39402501B7BFF7A1779B61290
:101EBA001FE4E50A2430FF1200267F0D1200267F58
:051ECA000A12002622AF
:101F74008F0A7BFF7A1779C2121FE4E50A2430FF27
:0D1F84001200267F0D1200267F0A020026A3
:101F91008F0A7BFF7A1779CB121FE4E50A2430FF01
:0D1FA1001200267F0D1200267F0A02002686
:101AAA00900035E0FF7E00780B7C007D007B017A98
:101ABA00007929120DF6E4F517900035E0FFE517D5
:101ACA00C39F500D740B2517F8743026F60517803E
:101ADA00E87BFF7A1779D4121FE4E4F517900035F2
:101AEA00E0FFE517C39F500E740B2517F8E6FF12A7
:101AFA000026051780E77F3B1200267F0D1200267D
:051B0A007F0A02002625
:102111007BFF7A1779D8121FE47F0D1200267F0A00
:0321210002002693
:101FFE00D291D2927FF47E01121E2AC2927FEE7E81
:07200E0002121E2AD29222E9
:0C216300C2937F327E00121E2AD293220B
:1016AF00900036E030E006900035E070037F0022B6
:1016BF00E4900042F0900042E0C39403400302170D
:1016CF005A121AAA750913750A882029147F017EE8
:1016DF0000121E2AE50A150A700215091445097031
:1016EF00E9302957C2297BFF7A1779E012000EAD36
:1016FF00077BFF7A1779E0121466EF603E750907D2
:10170F00750AD02029147F017E00121E2AE50A15C2
:10171F000A7002150914450970E930291EC2297B88
:10172F00FF7A1779F112000EAD077BFF7A1779F167
:10173F00121466EF6005C2B57F01227FD07E0712BB
:0D174F001E2A900042E004F00216C47F0044
:01175C00226A
:101A3B00900036E030E006900035E070037F002226
:101A4B00E4900042F0900042E0C39403504E122108
:101A5B0011750907750AD02029147F017E00121E0B
:101A6B002AE50A150A7002150914450970E930298F
:101A7B001CC2297BFF7A1779FA12000EAD077BFF88
:101A8B007A1779FA121466EF60037F01227FD07EFA
:0E1A9B0007121E2A900042E004F080A97F008E
:011AA900221A
:03000000021924BE
:0C192400787FE4F6D8FD75812F02196B66
:100D2600E709F608DFFA8046E709F208DFFA803EAF
:100D360088828C83E709F0A3DFFA8032E309F6089C
:100D4600DFFA8078E309F208DFFA807088828C8304
:100D5600E309F0A3DFFA806489828A83E0A3F608B8
:100D6600DFFA805889828A83E0A3F208DFFA804C92
:100D760080D280FA80C680D4806980F28033801069
:100D860080A680EA809A80A880DA80E280CA8033D2
:100D960089828A83ECFAE493A3C8C582C8CCC5834A
:100DA600CCF0A3C8C582C8CCC583CCDFE9DEE7801A
:100DB6000D89828A83E493A3F608DFF9ECFAA9F099
:100DC600EDFB2289828A83ECFAE0A3C8C582C8CCEF
:100DD600C583CCF0A3C8C582C8CCC583CCDFEADE08
:100DE600E880DB89828A83E493A3F208DFF980CC6A
:100DF60088F0EF60010E4E60C388F0ED2402B40463
:100E06000050B9F582EB2402B4040050AF23234509
:060E16008223900D7673AB
:100E1C00BB010689828A83E0225002E722BBFE02D4
:090E2C00E32289828A83E4932207
:100E3500BB010CE58229F582E5833AF583E0225072
:100E450006E92582F8E622BBFE06E92582F8E222BC
:0D0E5500E58229F582E5833AF583E49322D6
:100E6200BC000BBE0029EF8DF084FFADF022E4CC74
:100E7200F875F008EF2FFFEE33FEEC33FCEE9DEC3D
:100E8200984005FCEE9DFE0FD5F0E9E4CEFD22ED83
:100E9200F8F5F0EE8420D21CFEADF075F008EF2FCD
:100EA200FFED33FD4007985006D5F0F222C398FDBE
:050EB2000FD5F0EA225B
:100EB700A3F8E0C5F025F0F0E582158270021583EE
:060EC700E0C838F0E8224B
:100ECD00D083D082F8E4937012740193700DA3A3B4
:100EDD0093F8740193F5828883E4737402936860C8
:060EED00EFA3A3A380DFC8
:10000E00E4FFFE120E1C600C0FEF70010E09E9707A
:05001E00F20A80EF2250
:100EF300EF4E6012EF60010EEDBB010B89828A8316
:100F0300F0A3DFFCDEFA2289F05007F709DFFCA922
:0C0F1300F022BBFEFCF309DFFCA9F02279
:10193000021057E493A3F8E493A34003F68001F266
:1019400008DFF48029E493A3F85407240CC8C333B8
:10195000C4540F4420C8834004F456800146F6DF87
:10196000E4800B0102040810204080901D3DE47EBD
:10197000019360BCA3FF543F30E509541FFEE4937C
:10198000A360010ECF54C025E060A840B8E493A343
:10199000FAE493A3F8E493A3C8C582C8CAC583CA6E
:1019A000F0A3C8C582C8CAC583CADFE9DEE780BE26
:011D7F000063
:00000001FF
