:0924910001020408102040800043
:10236900E4F509F512F50A750B05F511F5080223CF
:01237900ADB6
:101CC800A907AF05AE04E9C39405502DC2AF050AB4
:101CD800E990249193551260037F0022E9902491A2
:101CE8009342124209AD03AC02AB011215A81222AD
:0C1CF800E4D50A02D2AF7F01227F002257
:10221500EFC394055010C2AF050AEF902491934285
:0922250009D50A02D2AF0222E43D
:10222E00EFC394055011C2AF050AEF90249193F4B9
:08223E005209D50A02D2AF22B9
:0C242000740C2FF8E4F612222E0222E4C5
:10224600E5095512FFE4F511EF20E00BEFC313FF8C
:072256000511E511B405F1CB
:01225D00225E
:10200B00C2AF050AE508D3940040021508E5087035
:10201B000BF50A122246121E7D7F0122D50A02D22F
:04202B00AF7F002261
:1022E400C2AF050AE5087006122246120016D50A86
:0422F40002D2AF2241
:1020D700E4FF740C2FF8E6600F16740C2FF8E67007
:0F20E70007EF9024919342090FBF05E60222E410
:10202F00740C250BF8A607C2AF050A740C250BF824
:10203F00E6600AAF0B12222E1222E480EED50A02BE
:03204F00D2AF22EB
:10170300740C250BF8A605EF24FE600F1460192452
:10171300027041AF0B1224207F0422740C250BF8B6
:10172300E6FF12202F7F0822C2AF050A740C250B97
:10173300F8E670037F0822AF0B12222E1222E4D5A3
:101743000A02D2AF740C250BF8E66005E4F67F04B9
:0E175300227F0822740C250BF8E4F67FFF229B
:101D3E00C2AF050AEDC394054027EF6024F8E4F620
:101D4E00AE05E804F8A606EF2402F87604EF2403A5
:101D5E00F8E4F6EF2404F8E4F6D50A02D2AF7F01D8
:091D6E0022D50A02D2AF7FFF2248
:10116F00C2AF050AAE03740C250BF8A6060581AEB7
:10117F0081A806A607ED2403F9E50B902491934768
:10118F00F7A805E670200581AF81A807A605AF0B6C
:10119F0012222E1222E4AF81A807E6FD1581740CEE
:1011AF00250BF8E670DBED2403F9E50B9024919302
:1011BF00F457F7A805E6D39400402F16E82402F859
:1011CF0006ED04F9ED2402F8E6C39740027604AF6A
:1011DF0081A807E6FF1581ED2402F8E62DF8E6A8B1
:1011EF0007F6D50A02D2AF7F01221581D50A02D2A6
:0311FF00AF7F02BD
:0112020022C9
:1013A600C2AF050AEF04F8E624FCFEA807E6C39ED2
:1013B600506E0581AE05AD81A805A606A807A90051
:1013C600E82402F8E62704FEEF04F8E6FDEEC39DE6
:1013D6004005EE9D2404FEAD81A805E6FDEF2EF83E
:1013E600A6051581A80706E66401702CE82403F813
:1013F600E6FEE4FDEE20E009EEC313FE0DEDB405B6
:10140600F3EDC394055011EF2403F9ED9024919365
:10141600F457F7AF05122215D50A02D2AF7F012283
:07142600D50A02D2AF7F08D6
:01142D00229C
:041E4B0041018000D1
:0F23AD00E4FF74242FF8763C0FBF06F6E4F52A00
:0123BC0022FE
:101BC90074242FF8E6FE74252FF8E6FDAC06C39CB5
:101BD900FCEF04FFEFD3950B500EECF404FB7424D7
:101BE9002FF8EB26F60F80ECC3E5819D04FFAB05CA
:101BF9000DA803E6AA060EA802F6DFF2C3E5819C4A
:021C0900F58163
:011C0B0022B6
:101C0C0074242FF8E6FEFD74252FF8E6FC742525C8
:101C1C000BF8E6FBC3EE9BFE600EAB050DA803E6CE
:101C2C00AA040CA802F6DEF2AE05C3EC9EFDE50B91
:101C3C0004FEEED39F500A74242EF8ED26F60E8087
:011C4C00F1A6
:011C4D002274
:10225E0074242FF8E6FD7F030DF8A6077412A80567
:08226E00F6AF058F8102224644
:101F4F007E01EFB50B030E8008EFC3950B5002E433
:101F5F00FEEE14600A14600A24027009021BC90203
:051F6F001C0C12225EB3
:011F7400224A
:1021E1009000A0E02400F090009FE034B4F0E0FE05
:0A21F100A3E0F5EAEEF5FAC2D822E9
:0300330002194C63
:10194C00C2AFC0E0C0F0C083C082C0D075D000C0B0
:10195C0000C001C002C003C004C005C006C007120D
:10196C0021E10508D2AF1220D712200BD007D006E8
:10197C00D005D004D003D002D001D000D0D0D0827A
:09198C00D083D0F0D0E0D2AF32DC
:1015A800C006C007EB90249193422BEBC3950B50D8
:1015B8002EC3E50B9BFA74252BF9740327F709DA78
:1015C800F9A88174032581F58174252BF98707C350
:1015D800E5819FFA0AA981E6F71819DAFA802C74CE
:1015E80025250BF8C3EB950BFA74FD26F608DAF9F6
:1015F8007425250BF8E6F9E924FDFF74242BF8E699
:10160800C39FFAA807E7F60809DAFA74242BF8E664
:0C161800F9D0E0F709D0E0F709E4F72270
:101DE500D00AE50BB40502802290249193552B70FF
:101DF5001AD007D006D005D004D003D002D001D028
:101E050000D0D0D082D083D0F0D0E0050AD50A0228
:031E1500D2AF2227
:0D001600C00A902491E50B93422B021203C7
:10120300AA81A8810874252511F9E7FF7425250B08
:10121300F9E7F9E511D3950B4033EFC399FEE7F6F0
:101223000809DEFA7425250BF9E7D39AFF1888819C
:10123300E511C3950BFE600F7424250BF9EFF4043D
:10124300FF09EF27F7DEFA85110B021DE5E51165AE
:101253000B6036E8C39FFE1819E6F7DEFA742525FE
:101263000BF9E7D39AFF74252511F9E7F581E50B0F
:10127300C39511600CFE74242511F909EF27F7DEDD
:0C128300FA85110B1581021DE5021DE526
:101E7D007405650B700F74EF2581F5817416C0E044
:101E8D007400C0E03274FC2581F581902491E50B3E
:0F1E9D0093F4522BC00A7403C0E07412C0E032F9
:0624B80075E7828FE522AA
:08000300E4F5E7F5E5F5E6225E
:10228D00AB07AA06AF058FE2EAF5E3AF038FE4755E
:06229D00E64675E6B922D9
:1022F800AD07AC06ECF5E3AF058FE475E64675E689
:04230800B9AFE22265
:10234500AD07AC06ECF5E3AF058FE475E64675E63B
:02235500B922AB
:08249A00EF24FF9290921A2238
:10237A0020B5037F012200000000000000007FFF5B
:01238A002230
:10152B007D047F0212170312237A90016CEFF0F403
:10153B0060EE7D047F0212170312237A90016CE098
:10154B00FEB507DC7F2CEE4460FD1213A690016DF7
:10155B007464F090016DE0FF14F0EF601312237AC6
:10156B0090016CE06F70287D047F0212170380E3FB
:10157B007F2C90016CE04470FD1213A612237A901D
:10158B00016CE0B507097D0A7F0212170380ED7F1E
:0D159B002C90016CE04480FD1213A68083AB
:0100260022B7
:0100270022B6
:0100280022B5
:0E1E4F0042009FB400C11B011E004100CF00E5
:0300230002242C88
:0B242C00309803C29832309902C29928
:012437003272
:10213400D3EF9400EE940040147D847C03ED1D7075
:0D214400011CED4C70F7EF1F70E61E80E3EC
:01215100226B
:1022CF00D3EF9400EE9400400B7D02DDFEEF1F7004
:0422DF00EF1E80EC82
:0122E30022D8
:1020750075985053890F438920758BF6858B8D5341
:10208500877F438E40C28FD28EC298C299D29CD28E
:02209500AC227B
:10209700C2ACE4FFEFC39D5014120A03F5993099BF
:0F20A700FDC299740129F9E43AFA0F80E7D2AC2F
:0120B6002207
:0C243800C2AC8F993099FDC299D2AC2241
:1020B700C2AC8F828E83E49360130FEF70010E140E
:1020C700F582E493F5993099FDC29980E5D2AC2267
:101AB400C29175D902E4F5D8F5E9F5F990009FE0F3
:101AC400FEA3E0F5EAEEF5FA75DA49D2AED2DE7E8F
:101AD400007F247D007B017A0079A1120B861220FD
:101AE400751223F812227612169C1221C6121E18A1
:061AF400E4FDFF022444A2
:0724AA007D2CE4FB02116F21
:101D7700900100EFF054E024C0601324E0601224C7
:101D8700E0601824E0601E2480701D0210D9022034
:101D9700F6900100E0541FFF020026900100E05476
:091DA7001FFF0200271222A322F3
:101AFA00121AB47F2C7D10121D3E7C217D70E4FBEE
:101B0A00FA7F01121CC87C157D2BE4FBFA7F0212B6
:101B1A001CC87C217D15E4FBFA7F03121CC87C0BD0
:101B2A007DB2E4FBFA7F04121CC87F1D1224AAAFFF
:061B3A001D121D7780F46E
:10230C001223697C1A7DFAE4FBFAFF121CC843877E
:03231C000180FB42
:101E5D0001200001220001170001160001190001E7
:0F1E6D001500011300011B00011400C119C11859
:101E180043B10853B2F743B11043B210D2B4D2B3AE
:101E28005389F0438901758A67758CFFC28D538E7B
:101E38007FD2A9D28C751CE6D28A30B303D2AA22EB
:031E4800D207229C
:030013000223DCE9
:0E23DC00C2AFC2AAD200C202751700D2AF3241
:03000B000205C823
:1005C800C2AFC0E0C0F0C083C082C0D075D000C048
:1005D80000C002C003C004C005C006C007C28C75B5
:1005E8008CFF758A67D28CA2B392153000307410D4
:1005F8002517F51754F0645060030206C8C200F5C9
:100608001730151520060A3005075320C3D206D225
:10061800B4751CF07519008078D2010206C8200153
:10062800030206C874102517F51754F064A0600378
:100638000206C853170F0517E517540FFF640A7011
:100648006AC201301551E51954F024FF301101B385
:10065800400875150053190F80347515E6E519C45F
:10066800540F2407F582E43400F583E51AF074107A
:100678002519F51954F0C39470401353190F300518
:1006880003300302D21075150075130AD213751CB6
:10069800F0C28BD2AA8029D20720060A3005075358
:1006A80020C3D206D2B47519008015BF0906A21559
:1006B8009211800CE51AC313F51A301503431A80FA
:1006C800E520540C640C702C30151EC2B4C214F50D
:1006D800165320F3E519540F2400F582E43400F58D
:1006E80083E0F518D2040207905320C3D2065319A9
:1006F800F002078B200403020790A214301501B3FF
:10070800407974102516F51654F064A0707A5316C3
:100718000F0516E516540FFFBF090FE519540F24EE
:10072800FFB39214A21492B4805EBF0A06D214D208
:10073800B48055E516540F640B7029C2040519E5F9
:1007480019540FC3940740115319F05320C3751C53
:10075800F043220C75130A8005751C0AD203C28B5C
:10076800D2AA8024E51830E006D214D2B48004C29C
:1007780014C2B4E518C313F518800D5320C35319D8
:10078800F0D206D2B4751CF0E5205403701AE51CAB
:100798006005D51C02D20230070EC202301509C20C
:1007A80007C28BD2AA751CF0E5156006D515035350
:1007B800190FE5136005D51302C213E52054236011
:1007C800030208F2300605C2060208E7A2137212F5
:1007D80050030208F2E514248DFFE433FEE51BFB09
:1007E8007A00C3EF9BFFEE9AFE7C007D8D120A6BA8
:1007F800EDC3940750030208EC740E251BF582E440
:100808003400F583E0900000F0EB2401FFEA33FEAA
:100818007C007D8D120A6B8D1B740E251BF582E4FE
:100828003400F583E0900001F0E51B2401FFE43378
:10083800FE7C007D8D120A6B8D1B740E251BF582C4
:10084800E43400F583E0900002F0E51B2401FFE4A6
:1008580033FE7C007D8D120A6B8D1B740E251BF5F3
:1008680082E43400F583E0900003F0E51B2401FFE7
:10087800E433FE7C007D8D120A6B8D1B740E251BE4
:10088800F582E43400F583E0900004F0E51B2401D0
:10089800FFE433FE7C007D8D120A6B8D1B740E25E0
:1008A8001BF582E43400F583E0900005F0E51B2495
:1008B80001FFE433FE7C007D8D120A6B8D1B740EE4
:1008C800251BF582E43400F583E0900006F0E51B73
:1008D8002401FFE433FE7C007D8D120A6B8D1B43DF
:1008E80020288006751400751B00D007D006D00597
:1008F800D004D003D002D000D0D0D082D083D0F0A2
:05090800D0E0D2AF3287
:0B142E00900100EBF0A3EAF0A3E9F04E
:10143900A37407F0C2AF050AE514248DFFE433FE57
:10144900C3EF951BFFEE9400FE7C007D8D120A6BA5
:10145900EDC3948C4008D50A02D2AF7F00229001D7
:1014690003E0FF14F0EF6034900100E0FBA3E475A2
:10147900F001120AD6A9F0FA120A03FF740E251414
:10148900F582E43400F583EFF0E5142401FFE43339
:10149900FE7C007D8D120A6B8D1480C2D50A02D2A2
:0314A900AF7F0111
:0114AC00221D
:02001100D322F8
:0B2444009000C1EFF0A3F0A3EDF02228
:1017BE00E49000A2F0A3F0A37400F0A374C4F09020
:1017CE0000A17401F07F031224B8E4FFFE1223453A
:1017DE007F021224B89000A1E0FF14F0EF6021A365
:1017EE00E475F001120AD6AFF0FE9000A4E475F095
:1017FE0001120AD685F082F583E0FD12228D80D586
:03180E00020003D2
:101A6D00E49000A2F0A3F0A37400F0A374C4F0906E
:101A7D0000A17401F0FF1224B89000A1E0FF14F052
:101A8D00EF6021A3E475F001120AD6AFF0FE122229
:101A9D00F89000A4E475F001120AD685F082F58362
:071AAD00EFF080D5020003F9
:1021C6007F011224B8E4FFFE1222F8BF5A03021A56
:0B21D6006D9000C4745AF01217BE2276
:10003600E4FF900001120A1C64FA60030201749046
:100046000004120A1C541F640660030205C70F242D
:10005600ADF582E43400F583740BF0900002120AC9
:100066001C900101F0E0FE75F06484FDA3F0EE75CE
:10007600F06484900101E5F0F0ED6073A3E0FE0FFB
:1000860074AD2401F582E43400F583EEF00F74AD0F
:100096002402F582E43400F5837414F0900101E043
:1000A600FE604A75F00A84A3F0EE75F00A849001AA
:1000B60001E5F0F0A3E0FE0F74AD2403F582E4340D
:1000C60000F583EEF0EE600F0F74AD2404F582E4C4
:1000D6003400F583740CF0900101E0FE607DAD07FD
:1000E6000F74AD2DF582E43400F583EEF0806C904C
:1000F6000101E0FE75F00A84FDA3F0EE75F00A84B6
:10010600900101E5F0F0ED603EA3E0FE6401600FB2
:10011600AD070F74AD2DF582E43400F583EEF0AE35
:10012600070F74AD2EF582E43400F583740CF0905D
:100136000101E0FE600FAD070F74AD2DF582E434CA
:1001460000F583EEF08014900101E0FEAD070F7418
:10015600AD2DF582E43400F583EEF0AE070F74ADF5
:100166002EF582E43400F5837411F00205B2900096
:1001760004120A1C541F24F970030202A714700308
:100186000203DD240260030205C7900002120A1C66
:10019600900101F0E0FE75F06484FDA3F0EE75F0C9
:1001A6006484900101E5F0F0ED6077A3E0FEAD0711
:1001B6000F74AD2DF582E43400F583EEF0AE070F33
:1001C60074AD2EF582E43400F5837414F0900101C9
:1001D600E0FE604C75F00A84A3F0EE75F00A849098
:1001E6000101E5F0F0A3E0FEAD070F74AD2DF58239
:1001F600E43400F583EEF0EE6010AE070F74AD2E1A
:10020600F582E43400F583740CF0900101E0FE60A1
:100216007DAD070F74AD2DF582E43400F583EEF065
:10022600806C900101E0FE75F00A84FDA3F0EE7586
:10023600F00A84900101E5F0F0ED603EA3E0FE6473
:1002460001600FAD070F74AD2DF582E43400F58320
:10025600EEF0AE070F74AD2EF582E43400F583742C
:100266000CF0900101E0FE600FAD070F74AD2DF5A7
:1002760082E43400F583EEF08014900101E0FEADD7
:10028600070F74AD2DF582E43400F583EEF0AE076A
:100296000F74AD2EF582E43400F5837411F0020577
:1002A600B2900002120A1C900101F0E0FE75F064A3
:1002B60084FDA3F0EE75F06484900101E5F0F0EDA5
:1002C6006077A3E0FEAD070F74AD2DF582E4340030
:1002D600F583EEF0AE070F74AD2EF582E43400F52B
:1002E600837414F0900101E0FE604C75F00A84A35B
:1002F600F0EE75F00A84900101E5F0F0A3E0FEADA2
:10030600070F74AD2DF582E43400F583EEF0EE6050
:1003160010AE070F74AD2EF582E43400F583740C2D
:10032600F0900101E0FE6067AD070F74AD2DF58218
:10033600E43400F583EEF0806C900101E0FE75F088
:100346000A84FDA3F0EE75F00A84900101E5F0F051
:10035600ED603EA3E0FE6401600FAD070F74AD2DA6
:10036600F582E43400F583EEF0AE070F74AD2EF59A
:1003760082E43400F583740CF0900101E0FE600F16
:10038600AD070F74AD2DF582E43400F583EEF080F1
:1003960014900101E0FEAD070F74AD2DF582E43433
:1003A60000F583EEF0AE070F74AD2EF582E434004F
:1003B600F5837411F0AE070F74AD2EF582E43400A8
:1003C600F5837415F0AE070F74AD2EF582E4340094
:1003D600F58374100205C1900001120A1C547F9027
:1003E6000101F0E0FE75F06484FDA3F0EE75F064A3
:1003F60084900101E5F0F0ED607AA3E0FEAD070F11
:1004060074AD2DF582E43400F583EEF0AE070F747B
:10041600AD2EF582E43400F5837414F0900101E00A
:10042600FE70030204E675F00A84A3F0EE75F00A86
:1004360084900101E5F0F0A3E0FEAD070F74AD2D49
:10044600F582E43400F583EEF0EE6010AE070F742B
:10045600AD2EF582E43400F583740CF0900101E0D2
:10046600FE6067AD070F74AD2DF582E43400F583A9
:10047600EEF0806C900101E0FE75F00A84FDA3F0B9
:10048600EE75F00A84900101E5F0F0ED603EA3E020
:10049600FE6401600FAD070F74AD2DF582E43400E4
:1004A600F583EEF0AE070F74AD2EF582E43400F559
:1004B60083740CF0900101E0FE600FAD070F74AD80
:1004C6002DF582E43400F583EEF08014900101E00E
:1004D600FEAD070F74AD2DF582E43400F583EEF022
:1004E600AE070F74AD2EF582E43400F5837413F075
:1004F600900002120A1C540F900101F07022AE0700
:100506000F74AD2EF582E43400F583740DF0AE075A
:100516000F74AD2EF582E43400F583740F0205C125
:10052600900101E0FE75F00A84FDA3F0EE75F00A75
:1005360084900101E5F0F0ED603EA3E0FE64016009
:100546000FAD070F74AD2DF582E43400F583EEF0A0
:10055600AE070F74AD2EF582E43400F583740CF00B
:10056600900101E0FE6025AD070F74AD2DF582E424
:100576003400F583EEF08014900101E0FEAD070F24
:1005860074AD2DF582E43400F583EEF0AE070F74FA
:10059600AD2EF582E43400F583740EF0AE070F74C9
:1005A600AD2EF582E43400F583740DF0AE070F74BA
:1005B600AD2EF582E43400F583740FF09000BEEFA3
:0105C600F044
:0105C7002211
:0B244F009000BFE054FCF0E4A3F0227A
:0F23CD009000BFE054FBF04402F0A37404F02230
:1010D900C2AF050A78A67C007D017B017A007907F9
:1010E9007E007F071209DDC210D50A02D2AF7B014B
:1010F9007A0079A67D071220979000A9E0247060F4
:101109001D24F8601C14603C246A70597B017A0024
:1011190079A61200369000BEE0604A0223CD02246F
:101129004F9000A6E06401703C9000AD7417F090F8
:1011390000BE7401F0A3E054FBF04402F0A3740173
:10114900F0D219229000A6E0B4011A9000AD7416ED
:10115900F09000BE7401F0A3E054FBF04402F0A348
:061169007401F0D218220F
:1020F600C2AF050A78A67C007D017B017A007900D3
:0F2106007E007F071209DDC212D50A02D2AF2276
:102170003010077F2C7D201213A63012077F2C7D94
:0D218000401213A67D017F0212170380E3B9
:1022A3009000C2E0600F14F0E0700AA3E0600690B3
:0622B30000C3E014F0225C
:102115007D047F021217039000C2E060097F2C7DC9
:0F212500A01213A680EA7F2C7DA01213A680E1E2
:0E23EA007585D04384C0C2AD538EF7D29622C3
:0E23F8007585D14384C0C2AD538EF7D29622B4
:03002B000224B1FB
:0724B100438480538EF732D3
:0D2406008F86E58430E7FB438480AF86229B
:0824A2007FFF122406AF862221
:1023BD00AE07AF061EEF60077FFF12240680F322E3
:1022760012245A7F017E00122134E4FFFE1221AAA5
:072286007F017E00022134FC
:10231F00A3E0FDA3E0FEA3E0FFE47810FC120B1393
:03232F000224067F
:101F750090014EE0F8A3E0F9A3E0FAA3E04FFFEAF1
:101F8500FEE9FDE8FC7808120B2690014E120B497C
:051F9500E4FF12240628
:011F9A002224
:0321FB0012000EC1
:1021FE00E4900181F01224C1900181E07006A29654
:07220E0033F080F402000E22
:03000E00D2942267
:0324BE00120B49B5
:0324C100C29422A0
:0100290022B4
:01002A0022B3
:01002E0022AF
:01002F0022AE
:10238B00E4FF1224C17F0512232F121F9512000E9A
:01239B00221F
:0B245A001224C17F5012232F02000E3D
:1021AA00900100EEF0A3EFF01224C17F0112232F59
:0C21BA00900100A3E0FF12232F02000E92
:0822B900EBF0A3EAF0A3E9F049
:0E22C1001224C17F0612232F12000E021FC12D
:0B2465001224C17F0412232F02000E7E
:0B2470001224C17F7012232F02000E07
:0B247B001224C17F8012232F02000EEC
:081EAC0090016EEEF0A3EFF0CF
:101EB4001224C17F9012232FE4FF12232FE4FF1278
:101EC400232F90016EA3E0FF12232F121F951200FF
:011ED4000EFF
:011ED50022EA
:1019950090014E120B55000000001224C17F9F12CA
:1019A500232F121F95121F75121F7590014EE0F817
:1019B500A3E0F9A3E0FAA3E04FFFEAFEE9FDE8FCA6
:1019C50090014E120B4912000E90014EE0FCA3E06F
:0719D500FDA3E0FEA3E0FF0B
:0119DC0022E8
:061B40007F007E007C0026
:061B4600900152120B4950
:101B4C00E4FF1224C17F0312232F90015212231F92
:101B5C00900152A3A3E0FEA3E0FFE4FD780812235A
:101B6C002B900152E0FCA3E0FDA3E0FEA3E0FF12EA
:081B7C00232F121F9512000E29
:011B8400223E
:06102200900100120B49D1
:1010280090010B120B55000000001224C17F03121F
:10103800232F90010012231F900100A3A3E0FEA319
:10104800E0FFE4FDFC7808120B1312232F90010037
:10105800E0FCA3E0FDA3E0FEA3E0FF12232F900134
:101068000B120B5500000000900104E0FCA3E0FD0A
:10107800A3E0FEA3E0FF90010BE0F8A3E0F9A3E0F2
:10108800FAA3E0FBC3120B025044121F95C007904D
:10109800010BA3A3E0FEA3E0FF900108E0FBA3E09F
:1010A800FAA3E0F98F828E83D0E0120A4990010BEF
:1010B800E0FCA3E0FDA3E0FEA3E02401FFE43EFE84
:1010C800E43DFDE43CFC90010B120B49809A0200C0
:0110D8000E09
:0619DD00900156120B49B7
:1019E300E4FF1224C17F0B12232F90015612231FF1
:1019F300900156A3A3E0FEA3E0FFE4FDFC780812E8
:101A03000B1312232F900156E0FCA3E0FDA3E0FE8D
:101A1300A3E0FF12232F7FFF12232F121F95120023
:011A23000EB4
:011A2400229F
:060F660090010F120B497F
:100F6C0090011A120B55000000001224C17F0B12C5
:100F7C00232F90010F12231F90010FA3A3E0FEA3B8
:100F8C00E0FFE4FDFC7808120B1312232F90010FE5
:100F9C00E0FCA3E0FDA3E0FEA3E0FF12232F7FFF04
:100FAC0012232F90011A120B550000000090011310
:100FBC00E0FCA3E0FDA3E0FEA3E0FF90011AE0F843
:100FCC00A3E0F9A3E0FAA3E0FBC3120B0250441216
:100FDC001F95C00790011AA3A3E0FEA3E0FF9001A8
:100FEC0017E0FBA3E0FAA3E0F98F828E83D0E01226
:100FFC000A4990011AE0FCA3E0FDA3E0FEA3E02463
:10100C0001FFE43EFEE43DFDE43CFC90011A120BB2
:06101C0049809A02000E5B
:10181100E0FCA3E0FDA3E0FEA3E0FFA3E090013E16
:01182100F0D6
:1018220090013A1224BE7F0212232F90013A122312
:101832001F90013AA3A3E0FEA3E0FFE4FDFC7808B9
:10184200120B1312232F90013AE0FCA3E0FDA3E058
:10185200FEA3E0FF12232F90013EE0FF12232F028E
:02186200000E76
:1019020090012E1224BE7FAD12232F90012E12239E
:101912001F90012EA3A3E0FEA3E0FFE4FDFC7808E4
:10192200120B1312232F90012EE0FCA3E0FDA3E083
:10193200FEA3E0FF12232F900132E0FF12232F902B
:0A1942000133E0FF12232F02000E14
:10205200900170EFF0A3EDF01224C17FAD12232F97
:10206200900170E0FF12232F900171E0FF12232FE5
:0320720002000E5B
:10162400E0FCA3E0FDA3E0FEA3E0FFA3E0FBA3E056
:10163400FAA3E0F9120A03900138F0900001120AAB
:051644001C900139F0CB
:10164900900134120B491224701224C17FAD122368
:101659002F90013412231F900134A3A3E0FEA3E0CD
:10166900FFE4FDFC7808120B1312232F900134E0DC
:10167900FCA3E0FDA3E0FEA3E0FF12232F900138B5
:10168900E0FF12232F900139E0FF12232F12000EE1
:031699000221FE2D
:101ED600900172EFF0A3EDF01224C17FAD12232F13
:101EE600900172E0FF12232F900173E0FF12232F5F
:091EF6001221FB12246502247B79
:0B2486001224C17F6012232F02000E01
:0B1A2500E0FCA3E0FDA3E0FEA3E0FF57
:101A300090015A120B491224C17F2012232F9001CA
:101A40005A12231F90015AA3A3E0FEA3E0FFE4FD76
:101A5000FC7808120B1312232F90015AE0FCA3E02C
:0D1A6000FDA3E0FEA3E0FF12232F02000E05
:101C4E0090015E120B491224C17F5212232F900174
:101C5E005E12231F90015EA3A3E0FEA3E0FFE4FD4E
:101C6E00FC7808120B1312232F90015EE0FCA3E008
:0D1C7E00FDA3E0FEA3E0FF12232F02000EE5
:101C8B00900162120B491224C17FD812232F9001AD
:101C9B006212231F900162A3A3E0FEA3E0FFE4FD09
:101CAB00FC7808120B1312232F900162E0FCA3E0C7
:0D1CBB00FDA3E0FEA3E0FF12232F02000EA8
:101FC10074FF900174F0A3F012238BEF30E0157FC2
:101FD1000A7E001222CF90017474FFF5F0120AC03C
:041FE10045F070E473
:011FE50022D9
:101F9B00900176E4F0A37464F012238BEF30E61516
:101FAB007F017E0012213490017674FFF5F0120A46
:051FBB00C045F070E4D8
:011FC00022FE
:101FE60074FF900178F0A3F012238BEF20E1157FA8
:101FF6000A7E001222CF90017874FFF5F0120AC013
:0420060045F070E44D
:01200A0022B3
:101EFF0074FF90017AF0A3F012238BEF54426442E7
:101F0F0060157F0A7E001222CF90017A74FFF5F0E0
:071F1F00120AC045F070E159
:011F26002298
:1021520090013F120B491222C190013F121A25121F
:0E2162001FC11222C190013F121811021FC1AD
:10131B0090011E120B499001221222B990011E124C
:10132B001A257F197E001221341222C190011E1240
:10133B001624803B900125E0D3940240451224C132
:10134B007FAD12232F900122E0FBA3E0FAA3E0F97B
:10135B00120A03FF12232F900122E0FBA3E0FAA352
:10136B00E0F9900001120A1CFF12232F1221FB90AF
:10137B000125E024FEF0900123E475F002120AC06F
:10138B0080B2900122E0FBA3E0FAA3E0F9120A037A
:0B139B00FF900001120A1CFD021ED68C
:10235700900144120B491222C19001441218110234
:022367001FC194
:1014AD00900126120B4990012A1222B990012612A1
:1014BD001624803E90012DE0D3940240481224C1A1
:1014CD007FAD12232F90012AE0FBA3E0FAA3E0F9F0
:1014DD00120A03FF12232F90012AE0FBA3E0FAA3C7
:1014ED00E0F9900001120A1CFF12232F12000E12B8
:1014FD0021FE90012DE024FEF090012BE475F00209
:10150D00120AC080AF90012AE0FBA3E0FAA3E0F934
:0E151D00120A03FF900001120A1CFD021ED6E6
:101B85007D08121B409000DFEFF07F017E001221DF
:101B9500347D09121B409000E0EFF07F017E0012BA
:101BA50021347F007E007D0A7C00121B469000E1F7
:101BB500EFF07F017E001221347B017A0079DF7D11
:041BC5000302209760
:081D0400D2B7AB1EAD1E7F0B30
:101D0C00900100EFF0A3EDF0A3EBF0D2B230B2FDF6
:101D1C00C2927F02122406900100E0FF122406906A
:101D2C000101E0FF122406900102E0FF122406D20A
:021D3C009222F1
:0D241300AE05AD07AF06AB077F0B021D0C39
:0518B400900166EFF059
:1018B900E4A3F0A3F0D2B230B2FDC2927F031224A6
:1018C90006900166E0FF1224067FFF1224069001AC
:1018D90067E4F0A3EFF0E0F8E4F0E8900167F07F47
:1018E900FF122406900167E0FEA3E04FFF90016715
:0818F900EEF0FEA3EFF0D29225
:0119010022C3
:10169C00D292D2B7D2B25391FD439202D2917F64CF
:1016AC007E00122134C2917F647E00122134D291CB
:1016BC007F647E001221347B047D08E4FF121D0C34
:1016CC007B55E4FD7F02121D0CE4FB7D987F031219
:1016DC001D0C7B817DBB7F05121D0C121D06C2B734
:1016EC00E4FF122406E4FF122406E4FF122406E4AD
:0716FC00FF122406D2B72201
:101DB0007B047D08E4FF121D0C000030B2FDE4FB43
:101DC0007D987F03121D0C000030B2FDC2B7E4FF06
:101DD000122406E4FF122406E4FF122406E4FF1294
:051DE0002406D2B72229
:0624C40030B2FD02240607
:101F2700C2B7E490017CF0A3F0E4FF1224C490014F
:101F37007DE004F0700690017CE004F0C390017C22
:071F4700E0940840E4D2B76A
:011F4E002270
:10239C007BFF7DFF7F0B121D0C30B2FDD292D2B7AA
:0123AC00220E
:1018640090017EEEF0A3EFF04E601B7E0090017EAF
:10187400E0FCA3E0FD251EFFEE3CFED3EF9400EE5A
:101884009400402B80197E0090017EE0FCA3E0FDD3
:10189400251EFFEE3CFEC3EF94FFEE94005010EDC6
:1018A400251EF51ED2B7FBFD7F0B121D0CC2B722FD
:10218D00E51E2402FFE433FEC3EF94FFEE6480945A
:0D219D00805009051E051E121D04C2B72248
:10233200E51E24FED394004009151E151E121D042D
:03234200C2B722FD
:10176100D292D2B7D2917F647E00122134C2917F8E
:10177100647E00122134D2917F647E001221347B79
:10178100207D08E4FF121D0CC2B77F531224067F8F
:10179100EF1224067F6E1224067F44122406E4FF12
:1017A100122406E4FF122406E4FF122406E4FF12C9
:0D17B1002406D2B77FF47E0112213480FEA1
:100EA60000000000000020EE00003E4900004BDB81
:100EB60000006CC900008DB70000AEA50000CE256D
:100EC6000000EE5C00010C6E00012E13000172D2D0
:100ED6000001799200019BED0001C6DB0001E712DB
:100EE60000020D000002499500025ABA00029C3524
:100EF6000002B9900002D91000031C2D000379D21C
:100F0600000020EE00001D5B00000D92000020EEA8
:100F1600000020EE000020EE00001F8000002037B9
:100F260000001E12000021A5000044BF000006C0FC
:100F36000000225B00002AEE00000FB7000025EE3D
:100F460000003C95000011250000417B00001D5B60
:100F560000001F800000431D00005DA500008437CF
:020D9E00AB07A1
:100DA000EB25E025E024A6F582E4340EF583120B52
:100DB000399000DB120B49EB25E025E02406F58293
:100DC000E4340FF583120B3990014A120B497B0171
:100DD0007A0079DB7D04122097900104120B5500F4
:100DE0000000209001087401F0A37400F0A374DFE8
:100DF000F09000DBE0FCA3E0FDA3E0FEA3E0FF1227
:100E0000102230B2FDC2B7E4900149F0900149E0F0
:100E1000FFC39420501774DF2FF582E43400F5836C
:100E2000E0FF122406900149E004F080DFD2B79081
:100E300000DBE0FCA3E0FDA3E0FEA3E02420FFE450
:100E40003EFEE43DFDE43CFC9000DB120B499001CA
:100E50004AE0FCA3E0FDA3E0FEA3E0C39420FFEE84
:100E60009400FEED9400FDEC9400FC90014A120BFE
:100E700049E4FFFEFDFC90014AE0F8A3E0F9A3E09D
:100E8000FAA3E0FBD3120AEC4003020DD97B017AEE
:100E900001794A7D041220977B017A0079DB7D0479
:060EA000122097021DB0B4
:100BB2009000BFE020E1097D027F0212170380F05E
:100BC2009000BFE054FDF04401F0E49000BDF090CD
:100BD20000BDE024ADF582E43400F583E0FF90012E
:100BE20069F0FB25E025E024A6F582E4340EF583C6
:100BF200120B399000DB120B49EB25E025E02406AD
:100C0200F582E4340FF583120B3990009B120B49E5
:100C12001223EA900104120B5500000020900108F3
:100C22007401F0A37400F0A374DFF09000DBE0FC29
:100C3200A3E0FDA3E0FEA3E0FF1210221223F8308E
:100C4200B2FDC2B7E49000D0F09000D0E0FFC394B0
:100C520020501774DF2FF582E43400F583E0FF1291
:100C620024069000D0E004F080DFD2B79000DBE0F1
:100C7200FCA3E0FDA3E0FEA3E02420FFE43EFEE4AB
:100C82003DFDE43CFC9000DB120B4990009BE0FC34
:100C9200A3E0FDA3E0FEA3E0C39420FFEE9400FED8
:100CA200ED9400FDEC9400FC90009B120B49E4FFD4
:100CB200FEFDFC90009BE0F8A3E0F9A3E0FAA3E0BC
:100CC200FBD3120AEC4003020C129000BFE0FF308B
:100CD200E103020BB2EF20E003020BB29000BDE091
:100CE2002401FFE433FEA3E0FD7C00120A6BAF0592
:100CF2009000BDEFF06003020BD1301912C219F05F
:100D02009000C0F09000A6F09000A974988017306F
:100D12001828C218E49000BDF09000C0F09000A620
:100D2200F09000A97499F07B017A0079A612142E32
:100D32009000BFE054FCF0020BB2E49000BDF090D2
:100D4200016AF0A37450F0D390016BE0940090011B
:100D52006AE0940040217D057F021217039000BFD4
:100D6200E030E103020BB290016BE024FFF090014E
:100D72006AE034FFF080D09000C0E014F0E060033D
:100D8200020BD19000A97490F07B017A0079A6122F
:0C0D9200142E9000BFE054FCF0020BB2E5
:0300000002128F5A
:0C128F00787FE4F6D8FD75813B0212D692
:10090D00E709F608DFFA8046E709F208DFFA803ECC
:10091D0088828C83E709F0A3DFFA8032E309F608B9
:10092D00DFFA8078E309F208DFFA807088828C8321
:10093D00E309F0A3DFFA806489828A83E0A3F608D5
:10094D00DFFA805889828A83E0A3F208DFFA804CAF
:10095D0080D280FA80C680D4806980F28033801086
:10096D0080A680EA809A80A880DA80E280CA8033EF
:10097D0089828A83ECFAE493A3C8C582C8CCC58367
:10098D00CCF0A3C8C582C8CCC583CCDFE9DEE78037
:10099D000D89828A83E493A3F608DFF9ECFAA9F0B6
:1009AD00EDFB2289828A83ECFAE0A3C8C582C8CC0C
:1009BD00C583CCF0A3C8C582C8CCC583CCDFEADE25
:1009CD00E880DB89828A83E493A3F208DFF980CC87
:1009DD0088F0EF60010E4E60C388F0ED2402B40480
:1009ED000050B9F582EB2402B4040050AF23234527
:0609FD00822390095D73E6
:100A0300BB010689828A83E0225002E722BBFE02F1
:090A1300E32289828A83E4932224
:100A1C00BB010CE58229F582E5833AF583E022508F
:100A2C0006E92582F8E622BBFE06E92582F8E222D9
:0D0A3C00E58229F582E5833AF583E49322F3
:100A4900F8BB010DE58229F582E5833AF583E8F0E3
:100A5900225006E92582C8F622BBFE05E92582C88F
:020A6900F22277
:100A6B00BC000BBE0029EF8DF084FFADF022E4CC6F
:100A7B00F875F008EF2FFFEE33FEEC33FCEE9DEC38
:100A8B00984005FCEE9DFE0FD5F0E9E4CEFD22ED7E
:100A9B00F8F5F0EE8420D21CFEADF075F008EF2FC8
:100AAB00FFED33FD4007985006D5F0F222C398FDB9
:050ABB000FD5F0EA2256
:100AC000C5F0F8A3E028F0C5F0F8E58215827002C1
:060AD0001583E038F0225E
:100AD600A3F8E0C5F025F0F0E582158270021583D3
:060AE600E0C838F0E82230
:100AEC00EB9FF5F0EA9E42F0E99D42F0EC6480C881
:060AFC0064809845F02221
:100B0200EB9FF5F0EA9E42F0E99D42F0E89C45F049
:010B120022C0
:100B1300E8600FECC313FCED13FDEE13FEEF13FFC0
:030B2300D8F122E4
:100B2600E8600FEFC333FFEE33FEED33FDEC33FC2D
:030B3600D8F122D1
:100B3900E493FC740193FD740293FE740393FF2202
:0C0B4900ECF0A3EDF0A3EEF0A3EFF0221F
:100B5500A8828583F0D083D082120B6C120B6C12A5
:100B65000B6C120B6CE473E493A3C583C5F0C583CA
:100B7500C8C582C8F0A3C583C5F0C583C8C582C8EA
:010B8500224D
:100B8600EF4E6012EF60010EEDBB010B89828A8386
:100B9600F0A3DFFCDEFA2289F05007F709DFFCA993
:0C0BA600F022BBFEFCF309DFFCA9F022EA
:10129B0002230CE493A3F8E493A34003F68001F23A
:1012AB0008DFF48029E493A3F85407240CC8C33354
:1012BB00C4540F4420C8834004F456800146F6DF23
:1012CB00E4800B0102040810204080901E4BE47E4A
:1012DB00019360BCA3FF543F30E509541FFEE49318
:1012EB00A360010ECF54C025E060A840B8E493A3DF
:1012FB00FAE493A3F8E493A3C8C582C8CAC583CA0A
:10130B00F0A3C8C582C8CAC583CADFE9DEE780BEC1
:011E7C000065
:00000001FF
