:091AB50001020408102040800029
:10198000E4F509F511F50A750B04F510F5080219CF
:01199000D581
:10134400A907AF05AE04E9C39404502DC2AF050A42
:10135400E9901AB593551160037F0022E9901AB5FC
:101364009342114209AD03AC02AB01120CE0121816
:0C137400FBD50A02D2AF7F01227F0022CD
:10182C00EFC394045010C2AF050AEF901AB593425F
:09183C0009D50A02D2AF0218FB23
:10184500EFC394045011C2AF050AEF901AB593F493
:081855005209D50A02D2AF22AC
:0C1A4600740C2FF8E4F61218450218FB8F
:10185D00E5095511FFE4F510EF20E00BEFC313FF81
:07186D000510E510B404F1C1
:011874002251
:1015FA00C2AF050AE508D3940040021508E5087051
:10160A000BF50A12185D1215017F0122D50A02D2C2
:04161A00AF7F00227C
:1018FB00C2AF050AE508700612185D120016D50A6C
:04190B0002D2AF2233
:1016E900E4FF740C2FF8E6600F16740C2FF8E670FF
:0F16F90007EF901AB59342090FBF04E60218FBE2
:10161E00740C250BF8A607C2AF050A740C250BF83F
:10162E00E6600AAF0B1218451218FB80EED50A02BF
:03163E00D2AF2206
:100E1C00740C250BF8A605EF24FE600F1460192442
:100E2C00027041AF0B121A467F0422740C250BF88A
:100E3C00E6FF12161E7F0822C2AF050A740C250BA2
:100E4C00F8E670037F0822AF0B1218451218FBD579
:100E5C000A02D2AF740C250BF8E66005E4F67F04A9
:0E0E6C00227F0822740C250BF8E4F67FFF228B
:1013F400C2AF050AEDC394054027EF6024F8E4F674
:10140400AE05E804F8A606EF2402F87604EF2403F8
:10141400F8E4F6EF2404F8E4F6D50A02D2AF7F012B
:0914240022D50A02D2AF7FFF229B
:10089C00C2AF050AAE03740C250BF8A6060581AE93
:1008AC0081A806A607ED2403F9E50B901AB593472A
:1008BC00F7A805E670200581AF81A807A605AF0B48
:1008CC001218451218FBAF81A807E6FD1581740CB0
:1008DC00250BF8E670DBED2403F9E50B901AB593C4
:1008EC00F457F7A805E6D39400402F16E82402F835
:1008FC0006ED04F9ED2402F8E6C39740027604AF46
:10090C0081A807E6FF1581ED2402F8E62DF8E6A88C
:10091C0007F6D50A02D2AF7F01221581D50A02D281
:03092C00AF7F0298
:01092F0022A5
:100ADC00C2AF050AEF04F8E624FCFEA807E6C39EA5
:100AEC00506E0581AE05AD81A805A606A807A90024
:100AFC00E82402F8E62704FEEF04F8E6FDEEC39DB9
:100B0C004005EE9D2404FEAD81A805E6FDEF2EF810
:100B1C00A6051581A80706E66401702CE82403F8E5
:100B2C00E6FEE4FDEE20E009EEC313FE0DEDB40489
:100B3C00F3EDC394045011EF2403F9ED901AB5931F
:100B4C00F457F7AF0512182CD50A02D2AF7F012249
:070B5C00D50A02D2AF7F08A9
:010B6300226F
:0414660041020E0031
:0F19D500E4FF74242FF8763B0FBF05F6E4F529E5
:0119E40022E0
:1011C30074242FF8E6FE74252FF8E6FDAC06C39CC5
:1011D300FCEF04FFEFD3950B500EECF404FB7424E7
:1011E3002FF8EB26F60F80ECC3E5819D04FFAB05DA
:1011F3000DA803E6AA060EA802F6DFF2C3E5819C5A
:02120300F58173
:0112050022C6
:1012490074242FF8E6FEFD74252FF8E6FC74252595
:101259000BF8E6FBC3EE9BFE600EAB050DA803E69B
:10126900AA040CA802F6DEF2AE05C3EC9EFDE50B5E
:1012790004FEEED39F500A74242EF8ED26F60E8054
:01128900F173
:01128A002241
:1018750074242FF8E6FD7FC40DF8A6077409A805A2
:08188500F6AF058F8102185D2A
:1015AE007E01EFB50B030E8008EFC3950B5002E4DE
:1015BE00FEEE14600A14600A240270090211C302BE
:0515CE0012491218751E
:0115D30022F5
:1018120090009CE02400F090009BE034B4F0E0FEE5
:0A182200A3E0F5EAEEF5FAC2D822C1
:0300330002105B5D
:10105B00C2AFC0E0C0F0C083C082C0D075D000C0AA
:10106B0000C001C002C003C004C005C006C0071207
:10107B0018120508D2AF1216E91215FAD007D006CE
:10108B00D005D004D003D002D001D000D0D0D08274
:09109B00D083D0F0D0E0D2AF32D6
:100CE000C006C007EB901AB593422AEBC3950B5090
:100CF0002EC3E50B9BFA74252BF9740327F709DA49
:100D0000F9A88174032581F58174252BF98707C320
:100D1000E5819FFA0AA981E6F71819DAFA802C749E
:100D200025250BF8C3EB950BFA74FD26F608DAF9C6
:100D30007425250BF8E6F9E924FDFF74242BF8E669
:100D4000C39FFAA807E7F60809DAFA74242BF8E635
:0C0D5000F9D0E0F709D0E0F709E4F72241
:10149B00D00AE50BB404028022901AB593552A703A
:1014AB001AD007D006D005D004D003D002D001D07B
:1014BB0000D0D0D082D083D0F0D0E0050AD50A027C
:0314CB00D2AF227B
:0D001600C00A901AB5E50B93422A0209C4F6
:1009C400AA81A8810874252510F9E7FF7425250B51
:1009D400F9E7F9E510D3950B4033EFC399FEE7F639
:1009E4000809DEFA7425250BF9E7D39AFF188881E4
:1009F400E510C3950BFE600F7424250BF9EFF40486
:100A0400FF09EF27F7DEFA85100B02149BE510654A
:100A14000B6036E8C39FFE1819E6F7DEFA74252545
:100A24000BF9E7D39AFF74252510F9E7F581E50B57
:100A3400C39510600CFE74242510F909EF27F7DE26
:0C0A4400FA85100B158102149B02149B14
:101501007404650B700F74EF2581F5817416C0E0CA
:101511007400C0E03274FC2581F581901AB5E50BA9
:0F15210093F4522AC00A74C4C0E07409C0E032C7
:061AE30075E7828FE52289
:08000300E4F5E7F5E5F5E6225E
:1018A400AB07AA06AF058FE2EAF5E3AF038FE47551
:0618B400E64675E6B922CC
:10190F00AD07AC06ECF5E3AF058FE475E64675E67B
:04191F00B9AFE22258
:10195C00AD07AC06ECF5E3AF058FE475E64675E62E
:02196C00B9229E
:081ABE00EF24FF929092182220
:1019910020B5037F012200000000000000007FFF4E
:0119A1002223
:100C63007D047F02120E1C121991900202EFF0F420
:100C730060EE7D047F02120E1C121991900202E0B5
:100C8300FEB507DC7F2BEE4460FD120ADC90020305
:100C93007464F0900203E0FF14F0EF6013121991F3
:100CA300900202E06F70287D047F02120E1C80E325
:100CB3007F2B900202E04470FD120ADC121991901E
:100CC3000202E0B507097D0A7F02120E1C80ED7F48
:0D0CD3002B900202E04480FD120ADC8083B9
:0100260022B7
:0100270022B6
:0100280022B5
:10146A0042009BB400C119011D004100ED00440176
:05147A002E000000003F
:03002300021206C0
:0D120600C0E0C083C082C0D075D000C0071A
:10121300309823C298AF999000EDE024ADF582E4B5
:101223003400F583EFF09000EDE004F0E0B4400B00
:0B123300E4F0D2198005309902C29946
:0B123E00D007D0D0D082D083D0E032A7
:0E19F5009001FCEBF0A3EAF0A3E9F07F0122E1
:10176500D3EF9400EE940040147D847C03ED1D704E
:0D177500011CED4C70F7EF1F70E61E80E3C5
:011782002244
:1018E600D3EF9400EE9400400B7D02DDFEEF1F70F7
:0418F600EF1E80EC75
:0118FA0022CB
:1016870075985053890F438920758BF6858B8D5339
:10169700877F438E40C28FD28EC298C299D29CD286
:0216A700AC2273
:1016A900C2ACE4FFEFC39D5014120471F59930994F
:0F16B900FDC299740129F9E43AFA0F80E7D2AC27
:0116C80022FF
:0C1A5200C2AC8F993099FDC299D2AC2231
:1016C900C2AC8F828E83E49360130FEF70010E1406
:1016D900F582E493F5993099FDC29980E5D2AC225F
:1007F000C29175D902E4F5D8F5E9F5F990009BE0CE
:10080000FEA3E0F5EAEEF5FA75DA49D2AED2DE12D1
:100810001687121A11121641120D5C1218D8121AEC
:10082000951219B37F647E001217657FE87E03126C
:100830001765C290C218D2AF90012E12059D00001C
:1008400000003019FDC219C2AC78EE7C007D017B3E
:10085000017A0079AD7E007F4012044BD2AC90014A
:100860002EE0FCA3E0FDA3E0FEA3E0FF7B017A0005
:1008700079EE9001BC7440F0120B6490012EE0FC04
:10088000A3E0FDA3E0FEA3E02440FFE43EFEE43D40
:0C089000FDE43CFC90012E12059180A6B6
:071ACE007D2BE4FB02089CE4
:10142D009001B4EFF054E024C0601324E060122466
:10143D00E0601824E0601E2480701D02170802175A
:10144D00279001B4E0541FFF0200269001B4E05430
:09145D001FFF0200271218BA2239
:101380001207F07F2B7D101213F47C177DA1E4FB74
:10139000FA7F011213447C0C7D63E4FBFA7F021296
:1013A00013447C177D46E4FBFA7F031213447F1C31
:0A13B000121ACEAF1C12142D80F4A7
:101923001219807C137D80E4FBFAFF121344438772
:031933000180FB35
:10147F0001200001220001160001150001180001D2
:0B148F001400011200011A00011300FC
:1014CE0043B10853B2F743B11043B210D2B4D2B302
:1014DE005389F0438901758A67758CFFC28D538ECF
:1014EE007FD2A9D28C751BE6D28A30B303D2AA2240
:0314FE00D20722F0
:03001300021A03CB
:0E1A0300C2AFC2AAD200C202751600D2AF3224
:03000B00020036BA
:10003600C2AFC0E0C0F0C083C082C0D075D000C0DF
:1000460000C002C003C004C005C006C007C28C754C
:100056008CFF758A67D28CA2B3921530003074106B
:100066002516F51654F064506003020136C200F5F9
:100076001630151520060A3005075320C3D206D2BE
:10008600B4751BF07518008078D201020136200184
:100096000302013674102516F51654F064A06003A9
:1000A60002013653160F0516E516540FFF640A7043
:1000B6006AC201301551E51854F024FF301101B31E
:1000C600400875140053180F80347514E6E518C4FB
:1000D600540F2407F582E43400F583E519F0741013
:1000E6002518F51854F0C39470401353180F3005B3
:1000F60003300302D21075140075120AD213751B51
:10010600F0C28BD2AA8029D20720060A30050753EF
:1001160020C3D206D2B47518008015BF0906A215F1
:100126009211800CE519C313F51930150343198094
:10013600E520540C640C702C30151EC2B4C214F5A4
:10014600155320F3E518540F2400F582E43400F526
:1001560083E0F517D2040201FE5320C3D2065318DA
:10016600F00201F92004030201FEA214301501B3C6
:10017600407974102515F51554F064A0707A53155E
:100186000F0515E515540FFFBF090FE518540F2489
:10019600FFB39214A21492B4805EBF0A06D214D2A0
:1001A600B48055E515540F640B7029C2040518E593
:1001B60018540FC3940740115318F05320C3751BEE
:1001C600F043220C75120A8005751B0AD203C28BF6
:1001D600D2AA8024E51730E006D214D2B48004C235
:1001E60014C2B4E517C313F517800D5320C3531873
:1001F600F0D206D2B4751BF0E5205403701AE51B45
:100206006005D51B02D20230070EC202301509C2A4
:1002160007C28BD2AA751BF0E5146006D5140353EA
:10022600180FE5126005D51202C213E520542360AB
:1002360003020360300605C206020355A2137212BA
:100246005003020360E513248DFFE433FEE51AFB39
:100256007A00C3EF9BFFEE9AFE7C007D8D1204D9D7
:10026600EDC39407500302035A740E251AF582E46F
:100276003400F583E0900000F0EB2401FFEA33FE42
:100286007C007D8D1204D98D1A740E251AF582E430
:100296003400F583E0900001F0E51A2401FFE43311
:1002A600FE7C007D8D1204D98D1A740E251AF582F6
:1002B600E43400F583E0900002F0E51A2401FFE43F
:1002C60033FE7C007D8D1204D98D1A740E251AF525
:1002D60082E43400F583E0900003F0E51A2401FF80
:1002E600E433FE7C007D8D1204D98D1A740E251A16
:1002F600F582E43400F583E0900004F0E51A240169
:10030600FFE433FE7C007D8D1204D98D1A740E2510
:100316001AF582E43400F583E0900005F0E51A242E
:1003260001FFE433FE7C007D8D1204D98D1A740E14
:10033600251AF582E43400F583E0900006F0E51A0C
:100346002401FFE433FE7C007D8D1204D98D1A430F
:1003560020288006751300751A00D007D006D00530
:10036600D004D003D002D000D0D0D082D083D0F039
:05037600D0E0D2AF321F
:0B0BE4009001E0EBF0A3EAF0A3E9F0C1
:100BEF00A37407F0C2AF050AE513248DFFE433FEAB
:100BFF00C3EF951AFFEE9400FE7C007D8D1204D991
:100C0F00EDC3948C4008D50A02D2AF7F0022900129
:100C1F00E3E0FF14F0EF60349001E0E0FBA3E47534
:100C2F00F001120544A9F0FA120471FF740E251396
:100C3F00F582E43400F583EFF0E5132401FFE4338C
:100C4F00FE7C007D8D1204D98D1380C2D50A02D28D
:030C5F00AF7F0163
:010C6200226F
:02001100D322F8
:0B1A5E009000A9EFF0A3F0A3EDF02230
:100E7A00E490009EF0A3F0A37400F0A374ACF09089
:100E8A00009D7401F07F03121AE3E4FFFE12195C5D
:100E9A007F02121AE390009DE0FF14F0EF6021A395
:100EAA00E475F001120544AFF0FE9000A0E475F07D
:100EBA000112054485F082F583E0FD1218A480D55D
:030ECA0002000320
:10117C00E490009EF0A3F0A37400F0A374ACF09084
:10118C00009D7401F0FF121AE390009DE0FF14F033
:10119C00EF6021A3E475F001120544AFF0FE1219C3
:1011AC000F9000A0E475F00112054485F082F583E0
:0711BC00EFF080D5020003F3
:1017F7007F01121AE3E4FFFE12190FBF5A03021109
:0B1807007C9000AC745AF0120E7A22A4
:10170800C2AF050A78A27C007D017B017A007907C7
:0F1718007E007F0712044BC210D50A02D2AF2207
:10172700C2AF050A78A27C007D017B017A007900AF
:0F1737007E007F0712044BC212D50A02D2AF22E6
:1017A1003010077F2B7D20120ADC3012077F2B7D42
:0D17B10040120ADC7D017F02120E1C80E355
:1018BA009000AAE0600F14F0E0700AA3E0600690BE
:0618CA0000ABE014F02267
:101746007D047F02120E1C9000AAE060097F2B7DAB
:0F175600A0120ADC80EA7F2B7DA0120ADC80E162
:0E1A11007585D14384C0C2AD538EF7D29622A4
:03002B00021AD5E1
:071AD500438480538EF732B9
:0D1A1F008F86E58430E7FB438480AF86228C
:081AC6007FFF121A1FAF8622F8
:1019E500AE07AF061EEF60077FFF121A1F80F322B6
:101641001219A2121A52121A697F017E001217652D
:10165100E4FFFE1217DB7F017E001217651219A24B
:03166100021A5218
:10193600A3E0FDA3E0FEA3E0FFE47810FC12056B34
:03194600021A1F63
:1015D4009001E4E0F8A3E0F9A3E0FAA3E04FFFEA06
:1015E400FEE9FDE8FC780812057E9001E4120591FD
:0515F400E4FF121A1FC4
:0115F90022CF
:10188D00E490020FF0121AEC90020FE07006A2968F
:07189D0033F080F402000E9D
:03000E00D2942267
:031AE90012059152
:031AEC00C294227F
:0100290022B4
:01002A0022B3
:01002E0022AF
:01002F0022AE
:1019A200E4FF121AEC7F051219461215F412000E0A
:0119B2002212
:0B1A6900121AEC7F5012194602000E0A
:1017DB009001B5EEF0A3EFF0121AEC7F011219464F
:0C17EB009001B5A3E0FF12194602000EA9
:0818D000EBF0A3EAF0A3E9F03C
:0E18D800121AEC7F0612194612000E0219B306
:0B1A7400121AEC7F0412194602000E4B
:0B1A7F00121AEC7F7012194602000ED4
:0B1A8A00121AEC7F8012194602000EB9
:08155C00900204EEF0A3EFF091
:10156400121AEC7F90121946E4FF121946E4FF1296
:101574001946900204A3E0FF1219461215F4120052
:011584000E58
:011585002243
:1010A4009001E412059D00000000121AEC7F9F12CB
:1010B40019461215F41215D41215D49001E4E0F86F
:1010C400A3E0F9A3E0FAA3E04FFFEAFEE9FDE8FCA0
:1010D4009001E412059112000E9001E4E0FCA3E0FB
:0710E400FDA3E0FEA3E0FF05
:0110EB0022E2
:06128B009001E81205913C
:10129100E4FF121AEC7F031219469001E812193685
:1012A1009001E8A3A3E0FEA3E0FFE4FD7808121992
:1012B100429001E8E0FCA3E0FDA3E0FEA3E0FF1201
:0812C10019461215F412000E8B
:0112C9002202
:06068A009001961205919B
:100690009001A112059D00000000121AEC7F0312C8
:1006A0001946900196121936900196A3A3E0FEA375
:1006B000E0FFE4FDFC780812056B121946900196E4
:1006C000E0FCA3E0FDA3E0FEA3E0FF1219469001C9
:1006D000A112059D0000000090019AE0FCA3E0FD3E
:1006E000A3E0FEA3E0FF9001A1E0F8A3E0F9A3E0FE
:1006F000FAA3E0FBC312055A50441215F4C0079048
:1007000001A1A3A3E0FEA3E0FF90019EE0FBA3E014
:10071000FAA3E0F98F828E83D0E01204B79001A192
:10072000E0FCA3E0FDA3E0FEA3E02401FFE43EFE25
:10073000E43DFDE43CFC9001A1120591809A020089
:010740000EAA
:0610EC009001EC120591D9
:1010F200E4FF121AEC7F0B1219469001EC1219361A
:101102009001ECA3A3E0FEA3E0FFE4FDFC7808124B
:10111200056B1219469001ECE0FCA3E0FDA3E0FE92
:10112200A3E0FF1219467FFF1219461215F41200AE
:011132000EAE
:011133002299
:0605CE009001A512059149
:1005D4009001B012059D00000000121AEC7F0B126E
:1005E40019469001A51219369001A5A3A3E0FEA314
:1005F400E0FFE4FDFC780812056B1219469001A592
:10060400E0FCA3E0FDA3E0FEA3E0FF1219467FFF98
:100614001219469001B012059D000000009001A936
:10062400E0FCA3E0FDA3E0FEA3E0FF9001B0E0F84E
:10063400A3E0F9A3E0FAA3E0FBC312055A50441265
:1006440015F4C0079001B0A3A3E0FEA3E0FF90015E
:10065400ADE0FBA3E0FAA3E0F98F828E83D0E01231
:1006640004B79001B0E0FCA3E0FDA3E0FEA3E02406
:1006740001FFE43EFEE43DFDE43CFC9001B01205C4
:0606840091809A02000EB5
:100ECD00E0FCA3E0FDA3E0FEA3E0FFA3E09001D5CD
:010EDD00F024
:100EDE009001D1121AE97F021219469001D112190E
:100EEE00369001D1A3A3E0FEA3E0FFE4FDFC780859
:100EFE0012056B1219469001D1E0FCA3E0FDA3E0B0
:100F0E00FEA3E0FF1219469001D5E0FF121946022A
:020F1E00000EC3
:101011009001C5121AE97FAD1219469001C5121946
:10102100369001C5A3A3E0FEA3E0FFE4FDFC780830
:1010310012056B1219469001C5E0FCA3E0FDA3E087
:10104100FEA3E0FF1219469001C9E0FF1219469074
:0A10510001CAE0FF12194602000E6A
:10166400900206EFF0A3EDF0121AEC7FAD121946CA
:10167400900206E0FF121946900207E0FF12194695
:0316840002000E53
:100F20009001CB120591121A7F121AEC7FAD1219A3
:100F3000469001CB1219369001CBA3A3E0FEA3E0AB
:100F4000FFE4FDFC780812056B1219469001CBE016
:100F5000FCA3E0FDA3E0FEA3E0FF1219469001CF41
:100F6000E0FF1219469001D0E0FF12194612000E60
:030F700002188DD7
:10153000900208EFF0A3EDF0121AEC7FAD121946FD
:10154000900208E0FF121946900209E0FF121946C6
:0C15500012000E12188D121A74021A8A72
:0B1A9500121AEC7F6012194602000ECE
:0B1AA000121AEC7FC712194602000E5C
:0B113400E0FCA3E0FDA3E0FEA3E0FF51
:10113F009001F0120591121AEC7F201219469001BE
:10114F00F01219369001F0A3A3E0FEA3E0FFE4FD37
:10115F00FC780812056B1219469001F0E0FCA3E031
:0D116F00FDA3E0FEA3E0FF12194602000EF2
:1012CA009001F4120591121AEC7F521219469001FC
:1012DA00F41219369001F4A3A3E0FEA3E0FFE4FDA3
:1012EA00FC780812056B1219469001F4E0FCA3E0A1
:0D12FA00FDA3E0FEA3E0FF12194602000E66
:101307009001F8120591121AEC7FD8121946900134
:10131700F81219369001F8A3A3E0FEA3E0FFE4FD5D
:10132700FC780812056B1219469001F8E0FCA3E05F
:0D133700FDA3E0FEA3E0FF12194602000E28
:1019B3001219A2EF30E0097F0A7E001218E680F0C8
:0119C3002201
:1019C4001219A2EF30E6097F017E0012176580F03C
:0119D40022F0
:091AAB001219A2EF20E10280FEF5
:011AB400220F
:0C1A2C001219A2EF54426442600280FED6
:011A3800228B
:071ADC00EF6D600280FE22A5
:101783009001D61205911218D89001D61211341275
:0E17930019B31218D89001D6120ECD0219B358
:100741009001BD1205919001C11218D09001BD1206
:1007510011341219B31218D89001BDE0FCA3E0FDC9
:10076100A3E0FEA3E0FFA3E0FBA3E0FAA3E0F912FC
:1007710004719001CFF090000112048A9001D0F031
:10078100120F20803E9001C4E0D394024048121A17
:10079100EC7FAD1219469001C1E0FBA3E0FAA3E0A2
:1007A100F9120471FF1219469001C1E0FBA3E0FAAE
:1007B100A3E0F990000112048AFF12194612000EFB
:1007C10012188D9001C4E024FEF09001C2E475F08E
:1007D1000212052E80AF9001C1E0FBA3E0FAA3E075
:0F07E100F9120471FF90000112048AFD02153015
:10196E009001DB1205911218D89001DB120ECD02F8
:02197E0019B39B
:100B64009001B51205919001B91218D0121AEC7FB8
:100B7400AF1219469001B51219369001B5A3A3E03E
:100B8400FEA3E0FFE4FDFC780812056B1219469001
:100B940001B5E0FCA3E0FDA3E0FEA3E0FF800E901E
:100BA40001BCE0D394004032121AEC7FAF12194614
:100BB4009001B9E0FBA3E0FAA3E0F9120471FF127B
:100BC400194612000E1219B39001BCE014F0900102
:100BD400BAE475F00112052E80C5121A740219B315
:100930009001327411F0A37422F0A37433F0A37405
:1009400044F0A37455F0A37466F0A37477F0A37415
:1009500088F0A37499F0A374AAF0A374BBF01218E2
:10096000D8121A951219B37B017A0179329001BC21
:10097000740BF07F007E007D007C00120B647F14FE
:10098000900132E4F0A3DFFC7F0A7E00121765902D
:10099000019A12059D0000000B90019E7401F0A3C6
:1009A0007401F0A37432F07F007E007D007C0012A1
:1009B000068A7F0A7E001217657B017A0179327DF3
:0409C0000B0216A967
:0813BA00D2B7AB1DAD1D7F0B86
:1013C2009001B5EFF0A3EDF0A3EBF0D2B230B2FD95
:1013D200C2927F02121A1F9001B5E0FF121A1F90EB
:1013E20001B6E0FF121A1F9001B7E0FF121A1FD2D6
:0213F200922245
:0D1A3900AE05AD07AF06AB077F0B0213C271
:050FC3009001FFEFF0BA
:100FC800E4A3F0A3F0D2B230B2FDC2927F03121AAA
:100FD8001F9001FFE0FF121A1F7FFF121A1F9002D5
:100FE80000E4F0A3EFF0E0F8E4F0E8900200F07F0E
:100FF800FF121A1F900200E0FEA3E04FFF900200CC
:08100800EEF0FEA3EFF0D2921E
:0110100022BD
:100D5C00D292D2B7D2B2D2917F647E00121765C202
:100D6C00917F647E00121765D2917F647E0012170A
:100D7C00657B047D08E4FF1213C27B55E4FD7F0202
:100D8C001213C2E4FB7D987F031213C27B817DBBDF
:100D9C007F051213C21213BCC2B7E4FF121A1FE470
:100DAC00FF121A1FE4FF121A1FE4FF121A1FD2B708
:010DBC002214
:061AEF0030B2FD021A1FD7
:10158600C2B7E490020AF0A3F0E4FF121AEF900249
:101596000BE004F0700690020AE004F0C390020A21
:0715A600E0940840E4D2B715
:0115AD00221B
:100F730090020CEEF0A3EFF04E601B7E0090020C8B
:100F8300E0FCA3E0FD251DFFEE3CFED3EF9400EE55
:100F93009400402B80197E0090020CE0FCA3E0FD3E
:100FA300251DFFEE3CFEC3EF94FFEE94005010EDC1
:100FB300251DF51DD2B7FBFD7F0B1213C2C2B7224D
:1017BE00E51D2402FFE433FEC3EF94FFEE64809434
:0D17CE00805009051D051D1213BAC2B72277
:10194900E51D24FED394004009151D151D1213BA77
:03195900C2B722F0
:100DBD00D292D2B7D2917F647E00121765C2917F15
:100DCD00647E00121765D2917F647E001217657BD9
:100DDD00207D08E4FF1213C2C290C2B77F53121ACE
:100DED001F7FEF121A1F7F6E121A1F7F44121A1FD8
:100DFD00E4FF121A1FE4FF121A1FE4FF121A1FE478
:0F0E0D00FF121A1FD2B77FF47E0112176580FE05
:03000000020A50A1
:0C0A5000787FE4F6D8FD75813A020A9721
:10037B00E709F608DFFA8046E709F208DFFA803E64
:10038B0088828C83E709F0A3DFFA8032E309F60851
:10039B00DFFA8078E309F208DFFA807088828C83B9
:1003AB00E309F0A3DFFA806489828A83E0A3F6086D
:1003BB00DFFA805889828A83E0A3F208DFFA804C47
:1003CB0080D280FA80C680D4806980F2803380101E
:1003DB0080A680EA809A80A880DA80E280CA803387
:1003EB0089828A83ECFAE493A3C8C582C8CCC583FF
:1003FB00CCF0A3C8C582C8CCC583CCDFE9DEE780CF
:10040B000D89828A83E493A3F608DFF9ECFAA9F04D
:10041B00EDFB2289828A83ECFAE0A3C8C582C8CCA3
:10042B00C583CCF0A3C8C582C8CCC583CCDFEADEBC
:10043B00E880DB89828A83E493A3F208DFF980CC1E
:10044B0088F0EF60010E4E60C388F0ED2402B40417
:10045B000050B9F582EB2402B4040050AF232345BE
:06046B0082239003CB7315
:10047100BB010689828A83E0225002E722BBFE0289
:09048100E32289828A83E49322BC
:10048A00BB010CE58229F582E5833AF583E0225027
:10049A0006E92582F8E622BBFE06E92582F8E22271
:0D04AA00E58229F582E5833AF583E493228B
:1004B700F8BB010DE58229F582E5833AF583E8F07B
:1004C700225006E92582C8F622BBFE05E92582C827
:0204D700F2220F
:1004D900BC000BBE0029EF8DF084FFADF022E4CC07
:1004E900F875F008EF2FFFEE33FEEC33FCEE9DECD0
:1004F900984005FCEE9DFE0FD5F0E9E4CEFD22ED16
:10050900F8F5F0EE8420D21CFEADF075F008EF2F5F
:10051900FFED33FD4007985006D5F0F222C398FD50
:050529000FD5F0EA22ED
:10052E00C5F0F8A3E028F0C5F0F8E5821582700258
:06053E001583E038F022F5
:10054400A3F8E0C5F025F0F0E5821582700215836A
:06055400E0C838F0E822C7
:10055A00EB9FF5F0EA9E42F0E99D42F0E89C45F0F7
:01056A00226E
:10056B00E8600FECC313FCED13FDEE13FEEF13FF6E
:03057B00D8F12292
:10057E00E8600FEFC333FFEE33FEED33FDEC33FCDB
:03058E00D8F1227F
:0C059100ECF0A3EDF0A3EEF0A3EFF022DD
:10059D00A8828583F0D083D0821205B41205B412DF
:1005AD0005B41205B4E473E493A3C583C5F0C58304
:1005BD00C8C582C8F0A3C583C5F0C583C8C582C8A8
:0105CD00220B
:100A5C00021923E493A3F8E493A34003F68001F274
:100A6C0008DFF48029E493A3F85407240CC8C3339B
:100A7C00C4540F4420C8834004F456800146F6DF6A
:100A8C00E4800B0102040810204080901466E47E80
:100A9C00019360BCA3FF543F30E509541FFEE4935F
:100AAC00A360010ECF54C025E060A840B8E493A326
:100ABC00FAE493A3F8E493A3C8C582C8CAC583CA51
:100ACC00F0A3C8C582C8CAC583CADFE9DEE780BE09
:01149A000051
:00000001FF
