:091A9C0001020408102040800042
:10197200E4F509F511F50A750B04F510F5080219DD
:01198200C79D
:10133600A907AF05AE04E9C39404502DC2AF050A50
:10134600E9901A9C93551160037F0022E9901A9C3C
:101356009342114209AD03AC02AB01120CAD121857
:0C136600EDD50A02D2AF7F01227F0022E9
:10183500EFC394045010C2AF050AEF901A9C93426F
:0918450009D50A02D2AF0218ED28
:10184E00EFC394045011C2AF050AEF901A9C93F4A3
:08185E005209D50A02D2AF22A3
:0C1A3800740C2FF8E4F612184E0218EDA2
:10186600E5095511FFE4F510EF20E00BEFC313FF78
:071876000510E510B404F1B8
:01187D002248
:1015E900C2AF050AE508D3940040021508E5087062
:1015F9000BF50A1218661214F37F0122D50A02D2DA
:04160900AF7F00228D
:1018ED00C2AF050AE5087006121866120016D50A71
:0418FD0002D2AF2242
:1016D800E4FF740C2FF8E6600F16740C2FF8E67010
:0F16E80007EF901A9C9342090FBF04E60218ED1A
:10160D00740C250BF8A607C2AF050A740C250BF850
:10161D00E6600AAF0B12184E1218ED80EED50A02D5
:03162D00D2AF2217
:100E6100740C250BF8A605EF24FE600F14601924FD
:100E7100027041AF0B121A387F0422740C250BF853
:100E8100E6FF12160D7F0822C2AF050A740C250B6E
:100E9100F8E670037F0822AF0B12184E1218EDD539
:100EA1000A02D2AF740C250BF8E66005E4F67F0464
:0E0EB100227F0822740C250BF8E4F67FFF2246
:1013E600C2AF050AEDC394054027EF6024F8E4F682
:1013F600AE05E804F8A606EF2402F87604EF240307
:10140600F8E4F6EF2404F8E4F6D50A02D2AF7F0139
:0914160022D50A02D2AF7FFF22A9
:1007ED00C2AF050AAE03740C250BF8A6060581AE43
:1007FD0081A806A607ED2403F9E50B901A9C9347F3
:10080D00F7A805E670200581AF81A807A605AF0BF7
:10081D0012184E1218EDAF81A807E6FD1581740C64
:10082D00250BF8E670DBED2403F9E50B901A9C938C
:10083D00F457F7A805E6D39400402F16E82402F8E4
:10084D0006ED04F9ED2402F8E6C39740027604AFF5
:10085D0081A807E6FF1581ED2402F8E62DF8E6A83C
:10086D0007F6D50A02D2AF7F01221581D50A02D231
:03087D00AF7F0248
:010880002255
:100A2400C2AF050AEF04F8E624FCFEA807E6C39E5D
:100A3400506E0581AE05AD81A805A606A807A900DC
:100A4400E82402F8E62704FEEF04F8E6FDEEC39D71
:100A54004005EE9D2404FEAD81A805E6FDEF2EF8C9
:100A6400A6051581A80706E66401702CE82403F89E
:100A7400E6FEE4FDEE20E009EEC313FE0DEDB40442
:100A8400F3EDC394045011EF2403F9ED901A9C93F1
:100A9400F457F7AF05121835D50A02D2AF7F0122F9
:070AA400D50A02D2AF7F0862
:010AAB002228
:0414580041020D0040
:0F19C700E4FF74242FF8763B0FBF05F6E4F529F3
:0119D60022EE
:1011B50074242FF8E6FE74252FF8E6FDAC06C39CD3
:1011C500FCEF04FFEFD3950B500EECF404FB7424F5
:1011D5002FF8EB26F60F80ECC3E5819D04FFAB05E8
:1011E5000DA803E6AA060EA802F6DFF2C3E5819C68
:0211F500F58182
:0111F70022D5
:10123B0074242FF8E6FEFD74252FF8E6FC742525A3
:10124B000BF8E6FBC3EE9BFE600EAB050DA803E6A9
:10125B00AA040CA802F6DEF2AE05C3EC9EFDE50B6C
:10126B0004FEEED39F500A74242EF8ED26F60E8062
:01127B00F181
:01127C00224F
:10187E0074242FF8E6FD7F810DF8A6077408A805DD
:08188E00F6AF058F8102186618
:10159D007E01EFB50B030E8008EFC3950B5002E4EF
:1015AD00FEEE14600A14600A240270090211B502DD
:0515BD00123B12187E34
:0115C2002206
:1018010090009CE02400F090009BE034B4F0E0FEF6
:0A181100A3E0F5EAEEF5FAC2D822D2
:0300330002104D6B
:10104D00C2AFC0E0C0F0C083C082C0D075D000C0B8
:10105D0000C001C002C003C004C005C006C0071215
:10106D0018010508D2AF1216D81215E9D007D0060F
:10107D00D005D004D003D002D001D000D0D0D08282
:09108D00D083D0F0D0E0D2AF32E4
:100CAD00C006C007EB901A9C93422AEBC3950B50DC
:100CBD002EC3E50B9BFA74252BF9740327F709DA7C
:100CCD00F9A88174032581F58174252BF98707C354
:100CDD00E5819FFA0AA981E6F71819DAFA802C74D2
:100CED0025250BF8C3EB950BFA74FD26F608DAF9FA
:100CFD007425250BF8E6F9E924FDFF74242BF8E69D
:100D0D00C39FFAA807E7F60809DAFA74242BF8E668
:0C0D1D00F9D0E0F709D0E0F709E4F72274
:10148D00D00AE50BB404028022901A9C93552A7061
:10149D001AD007D006D005D004D003D002D001D089
:1014AD0000D0D0D082D083D0F0D0E0050AD50A028A
:0314BD00D2AF2289
:0D001600C00A901A9CE50B93422A02088153
:10088100AA81A8810874252510F9E7FF7425250B95
:10089100F9E7F9E510D3950B4033EFC399FEE7F67D
:1008A1000809DEFA7425250BF9E7D39AFF18888128
:1008B100E510C3950BFE600F7424250BF9EFF404CA
:1008C100FF09EF27F7DEFA85100B02148DE510659D
:1008D1000B6036E8C39FFE1819E6F7DEFA7425258A
:1008E1000BF9E7D39AFF74252510F9E7F581E50B9C
:1008F100C39510600CFE74242510F909EF27F7DE6B
:0C090100FA85100B158102148D02148D74
:1014F3007404650B700F74EF2581F5817416C0E0D9
:101503007400C0E03274FC2581F581901A9CE50BD0
:0F15130093F4522AC00A7481C0E07408C0E03219
:061ACA0075E7828FE522A2
:08000300E4F5E7F5E5F5E6225E
:10189600AB07AA06AF058FE2EAF5E3AF038FE4755F
:0618A600E64675E6B922DA
:10190100AD07AC06ECF5E3AF058FE475E64675E689
:04191100B9AFE22266
:10194E00AD07AC06ECF5E3AF058FE475E64675E63C
:02195E00B922AC
:081AA500EF24FF929092182239
:1019830020B5037F012200000000000000007FFF5C
:011993002231
:100C30007D047F02120E61121983900203EFF0F41B
:100C400060EE7D047F02120E61121983900203E0B0
:100C5000FEB507DC7F2BEE4460FD120A24900204EF
:100C60007464F0900204E0FF14F0EF601312198333
:100C7000900203E06F70287D047F02120E6180E312
:100C80007F2B900203E04470FD120A241219839016
:100C90000203E0B507097D0A7F02120E6180ED7F35
:0D0CA0002B900203E04480FD120A248083A3
:0100260022B7
:0100270022B6
:0100280022B5
:10145C0042009BB400C119011D004100ED00440184
:05146C002E000000004D
:030023000211F8CF
:0D11F800C0E0C083C082C0D075D000C00729
:10120500309823C298AF999000EDE024ADF582E4C3
:101215003400F583EFF09000EDE004F0E0B4400B0E
:0B122500E4F0D2198005309902C29954
:0B123000D007D0D0D082D083D0E032B5
:0E19E7009001FDEBF0A3EAF0A3E9F07F0122EE
:10175400D3EF9400EE940040147D847C03ED1D705F
:0D176400011CED4C70F7EF1F70E61E80E3D6
:011771002255
:1018D800D3EF9400EE9400400B7D02DDFEEF1F7005
:0418E800EF1E80EC83
:0118EC0022D9
:1016760075985053890F438920758BF6858B8D534A
:10168600877F438E40C28FD28EC298C299D29CD297
:02169600AC2284
:10169800C2ACE4FFEFC39D5014120471F599309960
:0F16A800FDC299740129F9E43AFA0F80E7D2AC38
:0116B7002210
:0C1A4400C2AC8F993099FDC299D2AC223F
:1016B800C2AC8F828E83E49360130FEF70010E1417
:1016C800F582E493F5993099FDC29980E5D2AC2270
:10074100C29175D902E4F5D8F5E9F5F990009BE07D
:10075100FEA3E0F5EAEEF5FA75DA49D2AED2DE1281
:100761001676121A03121630120DA11218CA121A95
:10077100871219A57F647E001217547FE87E031249
:100781001754C290C218D2AF90012E12059D0000DD
:1007910000003019FDC219C2AC78EE7C007D017BEE
:1007A100017A0079AD7E007F4012044BD2AC9001FA
:1007B1002EE0FCA3E0FDA3E0FEA3E0FF7B017A00B5
:1007C10079EE90019E7440F0120BB290012EE0FC84
:1007D100A3E0FDA3E0FEA3E02440FFE43EFEE43DF0
:0C07E100FDE43CFC90012E12059180A666
:071AB5007D2BE4FB0207EDAD
:10141F00900196EFF054E024C0601324E060122492
:10142F00E0601824E0601E2480701D0216F702177A
:10143F0016900196E0541FFF020026900196E0548B
:09144F001FFF0200271218AC2255
:101372001207417F2B7D101213E67C177D90E4FB50
:10138200FA7F011213367C0C7D30E4FBFA7F0212E5
:1013920013367C177D35E4FBFA7F031213367F1C6C
:0A13A200121AB5AF1C12141F80F4DC
:101915001219727C137D72E4FBFAFF1213364387AA
:031925000180FB43
:1014710001200001220001160001150001180001E0
:0B1481001400011200011A000113000A
:1014C00043B10853B2F743B11043B210D2B4D2B310
:1014D0005389F0438901758A67758CFFC28D538EDD
:1014E0007FD2A9D28C751BE6D28A30B303D2AA224E
:0314F000D20722FE
:030013000219F5DA
:0E19F500C2AFC2AAD200C202751600D2AF3233
:03000B00020036BA
:10003600C2AFC0E0C0F0C083C082C0D075D000C0DF
:1000460000C002C003C004C005C006C007C28C754C
:100056008CFF758A67D28CA2B3921530003074106B
:100066002516F51654F064506003020136C200F5F9
:100076001630151520060A3005075320C3D206D2BE
:10008600B4751BF07518008078D201020136200184
:100096000302013674102516F51654F064A06003A9
:1000A60002013653160F0516E516540FFF640A7043
:1000B6006AC201301551E51854F024FF301101B31E
:1000C600400875140053180F80347514E6E518C4FB
:1000D600540F2407F582E43400F583E519F0741013
:1000E6002518F51854F0C39470401353180F3005B3
:1000F60003300302D21075140075120AD213751B51
:10010600F0C28BD2AA8029D20720060A30050753EF
:1001160020C3D206D2B47518008015BF0906A215F1
:100126009211800CE519C313F51930150343198094
:10013600E520540C640C702C30151EC2B4C214F5A4
:10014600155320F3E518540F2400F582E43400F526
:1001560083E0F517D2040201FE5320C3D2065318DA
:10016600F00201F92004030201FEA214301501B3C6
:10017600407974102515F51554F064A0707A53155E
:100186000F0515E515540FFFBF090FE518540F2489
:10019600FFB39214A21492B4805EBF0A06D214D2A0
:1001A600B48055E515540F640B7029C2040518E593
:1001B60018540FC3940740115318F05320C3751BEE
:1001C600F043220C75120A8005751B0AD203C28BF6
:1001D600D2AA8024E51730E006D214D2B48004C235
:1001E60014C2B4E517C313F517800D5320C3531873
:1001F600F0D206D2B4751BF0E5205403701AE51B45
:100206006005D51B02D20230070EC202301509C2A4
:1002160007C28BD2AA751BF0E5146006D5140353EA
:10022600180FE5126005D51202C213E520542360AB
:1002360003020360300605C206020355A2137212BA
:100246005003020360E513248DFFE433FEE51AFB39
:100256007A00C3EF9BFFEE9AFE7C007D8D1204D9D7
:10026600EDC39407500302035A740E251AF582E46F
:100276003400F583E0900000F0EB2401FFEA33FE42
:100286007C007D8D1204D98D1A740E251AF582E430
:100296003400F583E0900001F0E51A2401FFE43311
:1002A600FE7C007D8D1204D98D1A740E251AF582F6
:1002B600E43400F583E0900002F0E51A2401FFE43F
:1002C60033FE7C007D8D1204D98D1A740E251AF525
:1002D60082E43400F583E0900003F0E51A2401FF80
:1002E600E433FE7C007D8D1204D98D1A740E251A16
:1002F600F582E43400F583E0900004F0E51A240169
:10030600FFE433FE7C007D8D1204D98D1A740E2510
:100316001AF582E43400F583E0900005F0E51A242E
:1003260001FFE433FE7C007D8D1204D98D1A740E14
:10033600251AF582E43400F583E0900006F0E51A0C
:100346002401FFE433FE7C007D8D1204D98D1A430F
:1003560020288006751300751A00D007D006D00530
:10036600D004D003D002D000D0D0D082D083D0F039
:05037600D0E0D2AF321F
:0B0B33009001E1EBF0A3EAF0A3E9F071
:100B3E00A37407F0C2AF050AE513248DFFE433FE5C
:100B4E00C3EF951AFFEE9400FE7C007D8D1204D942
:100B5E00EDC3948C4008D50A02D2AF7F00229001DB
:100B6E00E4E0FF14F0EF60349001E1E0FBA3E475E4
:100B7E00F001120544A9F0FA120471FF740E251348
:100B8E00F582E43400F583EFF0E5132401FFE4333E
:100B9E00FE7C007D8D1204D98D1380C2D50A02D23F
:030BAE00AF7F0115
:010BB1002221
:02001100D322F8
:0B1A50009000A9EFF0A3F0A3EDF0223E
:100EBF00E490009EF0A3F0A37400F0A374ACF09044
:100ECF00009D7401F07F03121ACAE4FFFE12194E3F
:100EDF007F02121ACA90009DE0FF14F0EF6021A369
:100EEF00E475F001120544AFF0FE9000A0E475F038
:100EFF000112054485F082F583E0FD12189680D526
:030F0F00020003DA
:10116E00E490009EF0A3F0A37400F0A374ACF09092
:10117E00009D7401F0FF121ACA90009DE0FF14F05A
:10118E00EF6021A3E475F001120544AFF0FE1219D1
:10119E00019000A0E475F00112054485F082F583FC
:0711AE00EFF080D502000301
:1017E6007F01121ACAE4FFFE121901BF5A03021141
:0B17F6006E9000AC745AF0120EBF227F
:1016F700C2AF050A78A27C007D017B017A007907D9
:0F1707007E007F0712044BC210D50A02D2AF2218
:10171600C2AF050A78A27C007D017B017A007900C0
:0F1726007E007F0712044BC212D50A02D2AF22F7
:101790003010077F2B7D20120A243012077F2B7D0B
:0D17A00040120A247D017F02120E6180E3D9
:1018AC009000AAE0600F14F0E0700AA3E0600690CC
:0618BC0000ABE014F02275
:101735007D047F02120E619000AAE060097F2B7D77
:0F174500A0120A2480EA7F2B7DA0120A2480E1E3
:0E1A03007585D14384C0C2AD538EF7D29622B2
:03002B00021ABCFA
:071ABC00438480538EF732D2
:0D1A11008F86E58430E7FB438480AF86229A
:081AAD007FFF121A11AF86221F
:1019D700AE07AF061EEF60077FFF121A1180F322D2
:10163000121994121A44121A5B7F017E0012175479
:10164000E4FFFE1217CA7F017E001217541219948C
:03165000021A4437
:10192800A3E0FDA3E0FEA3E0FFE47810FC12056B42
:03193800021A117F
:1015C3009001E5E0F8A3E0F9A3E0FAA3E04FFFEA16
:1015D300FEE9FDE8FC780812057E9001E51205910D
:0515E300E4FF121A11E3
:0115E80022E0
:03181B0012000EAA
:10181E00E49001A5F0121AD39001A5E07006A296ED
:07182E0033F080F402000E0C
:03000E00D2942267
:031AD0001205916B
:031AD300C2942298
:0100290022B4
:01002A0022B3
:01002E0022AF
:01002F0022AE
:10199400E4FF121AD37F051219381215E312000E50
:0119A4002220
:0B1A5B00121AD37F5012193802000E3F
:1017CA00900197EEF0A3EFF0121AD37F01121938A5
:0C17DA00900197A3E0FF12193802000EE6
:0818C200EBF0A3EAF0A3E9F04A
:0E18CA00121AD37F0612193812000E0219A549
:0B1A6600121AD37F0412193802000E80
:0B1A7100121AD37F7012193802000E09
:0B1A7C00121AD37F8012193802000EEE
:08152200900205EEF0A3EFF0CA
:10152A00121AD37F90121938E4FF121938E4FF1205
:10153A001938900205A3E0FF1219381215E31200B8
:01154A000E92
:01154B00227D
:101096009001E512059D00000000121AD37F9F12F1
:1010A60019381215E31215C31215C39001E5E0F8BD
:1010B600A3E0F9A3E0FAA3E04FFFEAFEE9FDE8FCAE
:1010C6009001E512059112000E9001E5E0FCA3E007
:0710D600FDA3E0FEA3E0FF13
:0110DD0022F0
:06127D009001E912059149
:10128300E4FF121AD37F031219389001E9121928C7
:101293009001E9A3A3E0FEA3E0FFE4FD780812199F
:1012A300349001E9E0FCA3E0FDA3E0FEA3E0FF121C
:0812B30019381215E312000EB8
:0112BB002210
:06068A009001A61205918B
:100690009001B112059D00000000121AD37F0312D1
:1006A00019389001A61219289001A6A3A3E0FEA371
:1006B000E0FFE4FDFC780812056B1219389001A6E2
:1006C000E0FCA3E0FDA3E0FEA3E0FF1219389001D7
:1006D000B112059D000000009001AAE0FCA3E0FD1E
:1006E000A3E0FEA3E0FF9001B1E0F8A3E0F9A3E0EE
:1006F000FAA3E0FBC312055A50441215E3C0079059
:1007000001B1A3A3E0FEA3E0FF9001AEE0FBA3E0F4
:10071000FAA3E0F98F828E83D0E01204B79001B182
:10072000E0FCA3E0FDA3E0FEA3E02401FFE43EFE25
:10073000E43DFDE43CFC9001B1120591809A020079
:010740000EAA
:0610DE009001ED120591E6
:1010E400E4FF121AD37F0B1219389001ED1219285C
:1010F4009001EDA3A3E0FEA3E0FFE4FDFC78081259
:10110400056B1219389001EDE0FCA3E0FDA3E0FEAD
:10111400A3E0FF1219387FFF1219381215E31200E9
:011124000EBC
:0111250022A7
:0605CE009001B512059139
:1005D4009001C012059D00000000121AD37F0B1277
:1005E40019389001B51219289001B5A3A3E0FEA310
:1005F400E0FFE4FDFC780812056B1219389001B590
:10060400E0FCA3E0FDA3E0FEA3E0FF1219387FFFA6
:100614001219389001C012059D000000009001B924
:10062400E0FCA3E0FDA3E0FEA3E0FF9001C0E0F83E
:10063400A3E0F9A3E0FAA3E0FBC312055A50441265
:1006440015E3C0079001C0A3A3E0FEA3E0FF90015F
:10065400BDE0FBA3E0FAA3E0F98F828E83D0E01221
:1006640004B79001C0E0FCA3E0FDA3E0FEA3E024F6
:1006740001FFE43EFEE43DFDE43CFC9001C01205B4
:0606840091809A02000EB5
:100F1200E0FCA3E0FDA3E0FEA3E0FFA3E09001D686
:010F2200F0DE
:100F23009001D2121AD07F021219389001D21219ED
:100F3300289001D2A3A3E0FEA3E0FFE4FDFC780820
:100F430012056B1219389001D2E0FCA3E0FDA3E077
:100F5300FEA3E0FF1219389001D6E0FF1219380200
:020F6300000E7E
:101003009001CC121AD07FAD1219389001CC12196D
:10101300289001CCA3A3E0FEA3E0FFE4FDFC780845
:1010230012056B1219389001CCE0FCA3E0FDA3E09C
:10103300FEA3E0FF1219389001D0E0FF1219389097
:0A10430001D1E0FF12193802000E7F
:10165300900207EFF0A3EDF0121AD37FAD12193801
:10166300900207E0FF121938900208E0FF121938C0
:0316730002000E64
:100D2900E0FCA3E0FDA3E0FEA3E0FFA3E0FBA3E05A
:100D3900FAA3E0F91204719001A3F09000011204E2
:050D49008A9001A4F0F6
:100D4E0090019F120591121A71121AD37FAD1219CA
:100D5E003890019F12192890019FA3A3E0FEA3E0F3
:100D6E00FFE4FDFC780812056B12193890019FE024
:100D7E00FCA3E0FDA3E0FEA3E0FF1219389001A34F
:100D8E00E0FF1219389001A4E0FF12193812000E7C
:030D9E0002181E1A
:10154C0090019FEFF0A3EDF0121AD37FAD12193872
:10155C0090019FE0FF1219389001A0E0FF1219389A
:09156C0012181B121A66021A7C07
:0B1A8700121AD37FC712193802000E9C
:0B112600E0FCA3E0FDA3E0FEA3E0FF5F
:101131009001F1120591121AD37F201219389001F2
:10114100F11219289001F1A3A3E0FEA3E0FFE4FD51
:10115100FC780812056B1219389001F1E0FCA3E04C
:0D116100FDA3E0FEA3E0FF12193802000E0E
:1012BC009001F5120591121AD37F52121938900130
:1012CC00F51219289001F5A3A3E0FEA3E0FFE4FDBD
:1012DC00FC780812056B1219389001F5E0FCA3E0BC
:0D12EC00FDA3E0FEA3E0FF12193802000E82
:1012F9009001F9120591121AD37FD8121938900169
:10130900F91219289001F9A3A3E0FEA3E0FFE4FD77
:10131900FC780812056B1219389001F9E0FCA3E07A
:0D132900FDA3E0FEA3E0FF12193802000E44
:1019A500121994EF30E0097F0A7E001218D880F0F2
:0119B500220F
:1019B600121994EF30E6097F017E0012175480F069
:0119C60022FE
:091A9200121994EF20E10280FE1C
:011A9B002228
:0C1A1E00121994EF54426442600280FEF2
:011A2A002299
:071AC300EF6D600280FE22BE
:101772009001D71205911218CA9001D712112612A0
:0E17820019A51218CA9001D7120F120219A54C
:100AAC009001C41205919001C81218C29001C41291
:100ABC0011261219A51218CA9001C4120D29803BD7
:100ACC009001CBE0D394024045121AD37FAD12199A
:100ADC00389001C8E0FBA3E0FAA3E0F9120471FF1F
:100AEC001219389001C8E0FBA3E0FAA3E0F99000DA
:100AFC000112048AFF12193812181B9001CBE02442
:100B0C00FEF09001C9E475F00212052E80B290013E
:100B1C00C8E0FBA3E0FAA3E0F9120471FF90000116
:070B2C0012048AFD02154CC2
:101960009001DC1205911218CA9001DC120F1202CC
:0219700019A5B7
:100BB20090019712059190019B1218C29001971211
:100BC2000D29803E90019EE0D394024048121AD330
:100BD2007FAD12193890019BE0FBA3E0FAA3E0F984
:100BE200120471FF12193890019BE0FBA3E0FAA3F3
:100BF200E0F990000112048AFF12193812000E1255
:100C0200181E90019EE024FEF090019CE475F00213
:100C120012052E80AF90019BE0FBA3E0FAA3E0F95E
:0E0C2200120471FF90000112048AFD02154CAD
:100999009001327411F0A37422F0A37433F0A3749C
:1009A90044F0A37455F0A37466F0A37477F0A374AC
:1009B90088F0A37499F0A374AAF0A374BBF07B0127
:1009C9007A01793290019E740BF07FF17EFF7D07E9
:1009D9007C00120BB27F14900132E4F0A3DFFC7F9C
:1009E9000A7E001217549001AA12059D0000000BFF
:1009F9009001AE7401F0A37401F0A37432F07FF199
:100A09007EFF7D077C0012068A7F0A7E001217543A
:0B0A19007B017A0179327D0B021698F8
:0813AC00D2B7AB1DAD1D7F0B94
:1013B400900197EFF0A3EDF0A3EBF0D2B230B2FDC1
:1013C400C2927F02121A11900197E0FF121A119033
:1013D4000198E0FF121A11900199E0FF121A11D23C
:0213E400922253
:0D1A2B00AE05AD07AF06AB077F0B0213B48D
:050FB500900200EFF0C6
:100FBA00E4A3F0A3F0D2B230B2FDC2927F03121AB8
:100FCA0011900200E0FF121A117FFF121A1190020B
:100FDA0001E4F0A3EFF0E0F8E4F0E8900201F07F1A
:100FEA00FF121A11900201E0FEA3E04FFF900201E6
:080FFA00EEF0FEA3EFF0D2922D
:0110020022CB
:100DA100D292D2B7D2B2D2917F647E00121754C2CE
:100DB100917F647E00121754D2917F647E001217D6
:100DC100547B047D08E4FF1213B47B55E4FD7F02DC
:100DD1001213B4E4FB7D987F031213B47B817DBBB6
:100DE1007F051213B41213AEC2B7E4FF121A11E455
:100DF100FF121A11E4FF121A11E4FF121A11D2B7ED
:010E010022CE
:061AD60030B2FD021A11FE
:10157500C2B7E4900209F0A3F0E4FF121AD6900274
:101585000AE004F07006900209E004F0C390020935
:07159500E0940840E4D2B726
:01159C00222C
:100F650090020BEEF0A3EFF04E601B7E0090020B9B
:100F7500E0FCA3E0FD251DFFEE3CFED3EF9400EE63
:100F85009400402B80197E0090020BE0FCA3E0FD4D
:100F9500251DFFEE3CFEC3EF94FFEE94005010EDCF
:100FA500251DF51DD2B7FBFD7F0B1213B4C2B72269
:1017AD00E51D2402FFE433FEC3EF94FFEE64809445
:0D17BD00805009051D051D1213ACC2B72296
:10193B00E51D24FED394004009151D151D1213AC93
:03194B00C2B722FE
:100E0200D292D2B7D2917F647E00121754C2917FE0
:100E1200647E00121754D2917F647E001217547BB5
:100E2200207D08E4FF1213B4C290C2B77F53121A96
:100E3200117FEF121A117F6E121A117F44121A11CA
:100E4200E4FF121A11E4FF121A11E4FF121A11E45C
:0F0E5200FF121A11D2B77FF47E0112175480FEDF
:0300000002090DE5
:0C090D00787FE4F6D8FD75813A020954A9
:10037B00E709F608DFFA8046E709F208DFFA803E64
:10038B0088828C83E709F0A3DFFA8032E309F60851
:10039B00DFFA8078E309F208DFFA807088828C83B9
:1003AB00E309F0A3DFFA806489828A83E0A3F6086D
:1003BB00DFFA805889828A83E0A3F208DFFA804C47
:1003CB0080D280FA80C680D4806980F2803380101E
:1003DB0080A680EA809A80A880DA80E280CA803387
:1003EB0089828A83ECFAE493A3C8C582C8CCC583FF
:1003FB00CCF0A3C8C582C8CCC583CCDFE9DEE780CF
:10040B000D89828A83E493A3F608DFF9ECFAA9F04D
:10041B00EDFB2289828A83ECFAE0A3C8C582C8CCA3
:10042B00C583CCF0A3C8C582C8CCC583CCDFEADEBC
:10043B00E880DB89828A83E493A3F208DFF980CC1E
:10044B0088F0EF60010E4E60C388F0ED2402B40417
:10045B000050B9F582EB2402B4040050AF232345BE
:06046B0082239003CB7315
:10047100BB010689828A83E0225002E722BBFE0289
:09048100E32289828A83E49322BC
:10048A00BB010CE58229F582E5833AF583E0225027
:10049A0006E92582F8E622BBFE06E92582F8E22271
:0D04AA00E58229F582E5833AF583E493228B
:1004B700F8BB010DE58229F582E5833AF583E8F07B
:1004C700225006E92582C8F622BBFE05E92582C827
:0204D700F2220F
:1004D900BC000BBE0029EF8DF084FFADF022E4CC07
:1004E900F875F008EF2FFFEE33FEEC33FCEE9DECD0
:1004F900984005FCEE9DFE0FD5F0E9E4CEFD22ED16
:10050900F8F5F0EE8420D21CFEADF075F008EF2F5F
:10051900FFED33FD4007985006D5F0F222C398FD50
:050529000FD5F0EA22ED
:10052E00C5F0F8A3E028F0C5F0F8E5821582700258
:06053E001583E038F022F5
:10054400A3F8E0C5F025F0F0E5821582700215836A
:06055400E0C838F0E822C7
:10055A00EB9FF5F0EA9E42F0E99D42F0E89C45F0F7
:01056A00226E
:10056B00E8600FECC313FCED13FDEE13FEEF13FF6E
:03057B00D8F12292
:10057E00E8600FEFC333FFEE33FEED33FDEC33FCDB
:03058E00D8F1227F
:0C059100ECF0A3EDF0A3EEF0A3EFF022DD
:10059D00A8828583F0D083D0821205B41205B412DF
:1005AD0005B41205B4E473E493A3C583C5F0C58304
:1005BD00C8C582C8F0A3C583C5F0C583C8C582C8A8
:0105CD00220B
:10091900021915E493A3F8E493A34003F68001F2C6
:1009290008DFF48029E493A3F85407240CC8C333DF
:10093900C4540F4420C8834004F456800146F6DFAE
:10094900E4800B0102040810204080901458E47ED2
:10095900019360BCA3FF543F30E509541FFEE493A3
:10096900A360010ECF54C025E060A840B8E493A36A
:10097900FAE493A3F8E493A3C8C582C8CAC583CA95
:10098900F0A3C8C582C8CAC583CADFE9DEE780BE4D
:01148C00005F
:00000001FF
